{"abi":[{"type":"constructor","inputs":[{"name":"host","type":"address","internalType":"contract ISuperfluid"},{"name":"gdaV1","type":"address","internalType":"contract IGeneralDistributionAgreementV1"}],"stateMutability":"nonpayable"},{"type":"function","name":"DEFAULT_BASE_URI","inputs":[],"outputs":[{"name":"","type":"string","internalType":"string"}],"stateMutability":"view"},{"type":"function","name":"GENERAL_DISTRIBUTION_AGREEMENT_V1","inputs":[],"outputs":[{"name":"","type":"address","internalType":"contract IGeneralDistributionAgreementV1"}],"stateMutability":"view"},{"type":"function","name":"HOST","inputs":[],"outputs":[{"name":"","type":"address","internalType":"contract ISuperfluid"}],"stateMutability":"view"},{"type":"function","name":"approve","inputs":[{"name":"to","type":"address","internalType":"address"},{"name":"tokenId","type":"uint256","internalType":"uint256"}],"outputs":[],"stateMutability":"nonpayable"},{"type":"function","name":"balanceOf","inputs":[{"name":"","type":"address","internalType":"address"}],"outputs":[{"name":"balance","type":"uint256","internalType":"uint256"}],"stateMutability":"pure"},{"type":"function","name":"baseURI","inputs":[],"outputs":[{"name":"","type":"string","internalType":"string"}],"stateMutability":"pure"},{"type":"function","name":"castrate","inputs":[],"outputs":[],"stateMutability":"nonpayable"},{"type":"function","name":"getApproved","inputs":[{"name":"tokenId","type":"uint256","internalType":"uint256"}],"outputs":[{"name":"","type":"address","internalType":"address"}],"stateMutability":"view"},{"type":"function","name":"getCodeAddress","inputs":[],"outputs":[{"name":"codeAddress","type":"address","internalType":"address"}],"stateMutability":"view"},{"type":"function","name":"getTokenId","inputs":[{"name":"pool","type":"address","internalType":"address"},{"name":"admin","type":"address","internalType":"address"}],"outputs":[{"name":"tokenId","type":"uint256","internalType":"uint256"}],"stateMutability":"view"},{"type":"function","name":"initialize","inputs":[{"name":"nftName","type":"string","internalType":"string"},{"name":"nftSymbol","type":"string","internalType":"string"}],"outputs":[],"stateMutability":"nonpayable"},{"type":"function","name":"isApprovedForAll","inputs":[{"name":"owner","type":"address","internalType":"address"},{"name":"operator","type":"address","internalType":"address"}],"outputs":[{"name":"","type":"bool","internalType":"bool"}],"stateMutability":"view"},{"type":"function","name":"mint","inputs":[{"name":"pool","type":"address","internalType":"address"}],"outputs":[],"stateMutability":"nonpayable"},{"type":"function","name":"name","inputs":[],"outputs":[{"name":"","type":"string","internalType":"string"}],"stateMutability":"view"},{"type":"function","name":"ownerOf","inputs":[{"name":"tokenId","type":"uint256","internalType":"uint256"}],"outputs":[{"name":"","type":"address","internalType":"address"}],"stateMutability":"view"},{"type":"function","name":"poolAdminDataByTokenId","inputs":[{"name":"tokenId","type":"uint256","internalType":"uint256"}],"outputs":[{"name":"data","type":"tuple","internalType":"struct IPoolAdminNFT.PoolAdminNFTData","components":[{"name":"pool","type":"address","internalType":"address"},{"name":"admin","type":"address","internalType":"address"}]}],"stateMutability":"view"},{"type":"function","name":"proxiableUUID","inputs":[],"outputs":[{"name":"","type":"bytes32","internalType":"bytes32"}],"stateMutability":"pure"},{"type":"function","name":"safeTransferFrom","inputs":[{"name":"from","type":"address","internalType":"address"},{"name":"to","type":"address","internalType":"address"},{"name":"tokenId","type":"uint256","internalType":"uint256"}],"outputs":[],"stateMutability":"nonpayable"},{"type":"function","name":"safeTransferFrom","inputs":[{"name":"from","type":"address","internalType":"address"},{"name":"to","type":"address","internalType":"address"},{"name":"tokenId","type":"uint256","internalType":"uint256"},{"name":"data","type":"bytes","internalType":"bytes"}],"outputs":[],"stateMutability":"nonpayable"},{"type":"function","name":"setApprovalForAll","inputs":[{"name":"operator","type":"address","internalType":"address"},{"name":"approved","type":"bool","internalType":"bool"}],"outputs":[],"stateMutability":"nonpayable"},{"type":"function","name":"supportsInterface","inputs":[{"name":"interfaceId","type":"bytes4","internalType":"bytes4"}],"outputs":[{"name":"","type":"bool","internalType":"bool"}],"stateMutability":"pure"},{"type":"function","name":"symbol","inputs":[],"outputs":[{"name":"","type":"string","internalType":"string"}],"stateMutability":"view"},{"type":"function","name":"tokenURI","inputs":[{"name":"tokenId","type":"uint256","internalType":"uint256"}],"outputs":[{"name":"","type":"string","internalType":"string"}],"stateMutability":"view"},{"type":"function","name":"transferFrom","inputs":[{"name":"from","type":"address","internalType":"address"},{"name":"to","type":"address","internalType":"address"},{"name":"tokenId","type":"uint256","internalType":"uint256"}],"outputs":[],"stateMutability":"nonpayable"},{"type":"function","name":"triggerMetadataUpdate","inputs":[{"name":"tokenId","type":"uint256","internalType":"uint256"}],"outputs":[],"stateMutability":"nonpayable"},{"type":"function","name":"updateCode","inputs":[{"name":"newAddress","type":"address","internalType":"address"}],"outputs":[],"stateMutability":"nonpayable"},{"type":"event","name":"Approval","inputs":[{"name":"owner","type":"address","indexed":true,"internalType":"address"},{"name":"approved","type":"address","indexed":true,"internalType":"address"},{"name":"tokenId","type":"uint256","indexed":true,"internalType":"uint256"}],"anonymous":false},{"type":"event","name":"ApprovalForAll","inputs":[{"name":"owner","type":"address","indexed":true,"internalType":"address"},{"name":"operator","type":"address","indexed":true,"internalType":"address"},{"name":"approved","type":"bool","indexed":false,"internalType":"bool"}],"anonymous":false},{"type":"event","name":"CodeUpdated","inputs":[{"name":"uuid","type":"bytes32","indexed":false,"internalType":"bytes32"},{"name":"codeAddress","type":"address","indexed":false,"internalType":"address"}],"anonymous":false},{"type":"event","name":"Initialized","inputs":[{"name":"version","type":"uint8","indexed":false,"internalType":"uint8"}],"anonymous":false},{"type":"event","name":"MetadataUpdate","inputs":[{"name":"tokenId","type":"uint256","indexed":false,"internalType":"uint256"}],"anonymous":false},{"type":"event","name":"Transfer","inputs":[{"name":"from","type":"address","indexed":true,"internalType":"address"},{"name":"to","type":"address","indexed":true,"internalType":"address"},{"name":"tokenId","type":"uint256","indexed":true,"internalType":"uint256"}],"anonymous":false},{"type":"error","name":"POOL_NFT_APPROVE_CALLER_NOT_OWNER_OR_APPROVED_FOR_ALL","inputs":[]},{"type":"error","name":"POOL_NFT_APPROVE_TO_CALLER","inputs":[]},{"type":"error","name":"POOL_NFT_APPROVE_TO_CURRENT_OWNER","inputs":[]},{"type":"error","name":"POOL_NFT_INVALID_TOKEN_ID","inputs":[]},{"type":"error","name":"POOL_NFT_NOT_REGISTERED_POOL","inputs":[]},{"type":"error","name":"POOL_NFT_ONLY_SUPER_TOKEN_FACTORY","inputs":[]},{"type":"error","name":"POOL_NFT_TRANSFER_CALLER_NOT_OWNER_OR_APPROVED_FOR_ALL","inputs":[]},{"type":"error","name":"POOL_NFT_TRANSFER_NOT_ALLOWED","inputs":[]}],"bytecode":{"object":"0x60c03461009357601f61169f38819003918201601f19168301916001600160401b038311848410176100985780849260409485528339810103126100935780516001600160a01b03918282168203610093576020015191821682036100935760805260a0526040516115f090816100af8239608051818181610bd60152610c3f015260a05181818161058b0152610f900152f35b600080fd5b634e487b7160e01b600052604160045260246000fdfe6080604081815260048036101561001557600080fd5b600092833560e01c90816301ffc9a71461117e5750806306fdde03146110d7578063081812fc146110b7578063095ea7b314610fdc57806323b872dd14610fbf5780632925af7e14610f7b5780632f38856014610f3a57806338e2666614610ed157806342842e0e14610e845780634695195414610c0557806349f289dc14610bc15780634cd88b761461081e57806350d75d25146107d657806352d1902d1461079b5780636352211e1461076a5780636a6278421461051c5780636c0360eb146102a657806370a08231146104f657806395d89b41146104205780639903ad3814610367578063a22cb465146102cf578063a497325b146102a6578063b88d4fde14610220578063b943855e146101eb578063c87b56dd146101915763e985e9c51461014157600080fd5b3461018d578160031936011261018d578160209360ff92610160611239565b610168611254565b6001600160a01b03918216845291875283832091168252855220549151911615158152f35b8280fd5b5050346101e75760203660031901126101e7576101e3906101b0611358565b906101d960208251846101cc82965180928580860191016111ea565b81010380855201836112d1565b519182918261120d565b0390f35b5080fd5b5050346101e757806003193601126101e75760209061021961020b611239565b610213611254565b90611552565b9051908152f35b5091346102a35760803660031901126102a35761023b611239565b50610244611254565b506064359067ffffffffffffffff82116102a357366023830112156102a3575061027790369060248186013591016112f3565b50610284604435336114c7565b1561029657516302197d8b60e51b8152fd5b51632014770760e11b8152fd5b80fd5b5050346101e757816003193601126101e7576101e3906102c4611358565b90519182918261120d565b50903461018d578060031936011261018d576102e9611239565b9060243591821515809303610363576001600160a01b0316923384146103555733855260205280842083855260205280842060ff1981541660ff8416179055519081527f17307eab39ab6107e8899845ad3d59bd9653f200f220920489ca2b5937696c3160203392a380f35b9051639212b33360e01b8152fd5b8480fd5b5050346101e757816003193601126101e757815460ff8160081c161590818092610413575b80156103fc575b61039c90611440565b60ff1981166001178455816103eb575b506103b5575080f35b60207f7f26b83ff96e1f2b6a682f133852f6798a09c465da95921460cefb38474024989161ff001984541684555160018152a180f35b61ffff1916610101178355386103ac565b50303b158015610393575060ff8116600114610393565b50600160ff82161061038c565b8284346102a357806003193601126102a3578151908060025490610443826113b9565b808552916020916001918281169081156104c95750600114610471575b6101e386886101d9828903836112d1565b9350600284527f405787fa12a823e0f2b7631cc41b3ba8828b3321ca811111fa75cd3aa3bb5ace5b8385106104b6575050505081016020016101d9826101e386610460565b8054868601840152938201938101610499565b90506101e3979550869350602092506101d994915060ff191682840152151560051b820101929486610460565b5050346101e75760203660031901126101e757602090610514611239565b505160018152f35b503461018d5760208060031936011261076657610537611239565b8351632b4116f760e01b815290926001600160a01b038085169290919084818381875afa908115610726578891610730575b508651633d96606d60e11b8152908316828201526024810184905284816044817f000000000000000000000000000000000000000000000000000000000000000087165afa9081156107265788916106ec575b50156106de5783865180926303e1469160e61b825281865afa9081156106d45782908892610695575b50610601828260019416976105fc89881415611535565b611552565b600081815260166020526040902060010154909790610629906001600160a01b031615611535565b8051946106358661129f565b8552601686860196888852898b52528820935116926bffffffffffffffffffffffff60a01b93848254161781550192511690825416179055827fddf252ad1be2c89b69c2b068fc378daa952ba7f163c4a11628f55a4df523b3ef8180a480f35b809250858092503d83116106cd575b6106ae81836112d1565b810103126106c9575181811681036106c957816106016105e5565b8680fd5b503d6106a4565b86513d89823e3d90fd5b8551633210c89760e11b8152fd5b90508481813d831161071f575b61070381836112d1565b8101031261071b5751801515810361071b57386105bc565b8780fd5b503d6106f9565b87513d8a823e3d90fd5b90508481813d831161075f575b61074781836112d1565b8101031261071b5751828116810361071b5738610569565b503d61073d565b8380fd5b5091346102a35760203660031901126102a3575061078a602092356114a3565b90516001600160a01b039091168152f35b5050346101e757816003193601126101e757602090517f7e88af0054b97eb67e0f614db4ab434d9acaf3d32807ccdc88da6fad8d1fce338152f35b5050346101e757816003193601126101e7577f360894a13ba1a3210667c828492db98dca3e2076cc3735a920a3ca505d382bbc5490516001600160a01b039091168152602090f35b50903461018d578060031936011261018d5767ffffffffffffffff91803583811161036357610850903690830161133a565b92602435818111610bbd57610868903690840161133a565b9385549460ff8660081c161593848095610bb0575b8015610b99575b61088d90611440565b600196858860ff198316178a55610b88575b508251848111610b7557806108b489546113b9565b94601f95868111610b08575b50602090868311600114610a8b578b92610a80575b5050600019600383901b1c191690881b1787555b8151938411610a6d57509082916109016002546113b9565b8281116109fd575b50602091831160011461097e578792610973575b5050600019600383901b1c191690841b176002555b61093a578280f35b825461ff0019168355519081527f7f26b83ff96e1f2b6a682f133852f6798a09c465da95921460cefb384740249890602090a138808280f35b01519050388061091d565b600288528693507f405787fa12a823e0f2b7631cc41b3ba8828b3321ca811111fa75cd3aa3bb5ace9190601f198416895b8181106109e5575084116109cc575b505050811b01600255610932565b015160001960f88460031b161c191690553880806109be565b828401518555899690940193602093840193016109af565b90919250600288527f405787fa12a823e0f2b7631cc41b3ba8828b3321ca811111fa75cd3aa3bb5ace8380860160051c82019260208710610a64575b9186958a929594930160051c01915b828110610a56575050610909565b8a8155869550899101610a48565b92508192610a39565b634e487b7160e01b885260419052602487fd5b0151905038806108d5565b8a8c528a93507fb10e2d527612073b26eecdfd717e6a320cf44b4afac2b0732d9fcbe2b7fa0cf69190601f1984168d5b818110610af057508411610ad7575b505050811b0187556108e9565b015160001960f88460031b161c19169055388080610aca565b8284015185558d969094019360209384019301610abb565b909150898b527fb10e2d527612073b26eecdfd717e6a320cf44b4afac2b0732d9fcbe2b7fa0cf68680850160051c82019260208610610b6c575b918c91869594930160051c01915b828110610b5e5750506108c0565b8d81558594508c9101610b50565b92508192610b42565b634e487b7160e01b895260418252602489fd5b61ffff19166101011788553861089f565b50303b158015610884575060ff8716600114610884565b50600160ff88161061087d565b8580fd5b5050346101e757816003193601126101e757517f00000000000000000000000000000000000000000000000000000000000000006001600160a01b03168152602090f35b509190346101e7576020928360031936011261018d57610c23611239565b825163398d76b760e11b81526001600160a01b039590818185817f00000000000000000000000000000000000000000000000000000000000000008b165afa908115610e7a579087918791610e40575b50163303610e30577f360894a13ba1a3210667c828492db98dca3e2076cc3735a920a3ca505d382bbc958087541615610ded578216918451936352d1902d60e01b855282858281875afa9485156106d4578795610dbe575b507f7e88af0054b97eb67e0f614db4ab434d9acaf3d32807ccdc88da6fad8d1fce33948503610d6f57833014610d2c57507fe011bc04c286c344a8fcbb8de77f953da762c3e25d8cdea984147fc4168a5dcc9596558351928352820152a180f35b855162461bcd60e51b8152908101839052601960248201527f5555505350726f786961626c653a2070726f7879206c6f6f70000000000000006044820152606490fd5b855162461bcd60e51b8152908101839052602360248201527f5555505350726f786961626c653a206e6f7420636f6d70617469626c65206c6f60448201526267696360e81b6064820152608490fd5b9094508281813d8311610de6575b610dd681836112d1565b810103126106c957519338610ccb565b503d610dcc565b845162461bcd60e51b8152808501839052601d60248201527f5555505350726f786961626c653a206e6f742075706772616461626c650000006044820152606490fd5b83516303fafc7b60e31b81528390fd5b809250838092503d8311610e73575b610e5981836112d1565b81010312610bbd57518681168103610bbd57869038610c73565b503d610e4f565b85513d88823e3d90fd5b5091346102a357610e943661126a565b9291505082516020810181811067ffffffffffffffff821117610ebe5784525261028490336114c7565b634e487b7160e01b835260418652602483fd5b503461018d57602036600319011261018d579181928160208451610ef48161129f565b82815201523581526016602052208151610f0d8161129f565b81546001600160a01b03908116808352600190930154811660209283019081528451938452511690820152f35b50903461018d57602036600319011261018d577ff8e1a15aba9398e019f0b49df1a4fde98ee17ae345cb5f6b5e2c27f5033e8ce7916020915190358152a180f35b5050346101e757816003193601126101e757517f00000000000000000000000000000000000000000000000000000000000000006001600160a01b03168152602090f35b5091346102a35750610284610fd33661126a565b915050336114c7565b503461018d578160031936011261018d57610ff5611239565b6024359290916001600160a01b0391908280611010876114a3565b169416938085146110a857803314159081611089575b5061107b57508385526003602090815281862080546001600160a01b0319168517905560169052842060010154167f8c5be1e5ebec7d5bd14f71427d1e84f3dd0314c0f7b2291e5b200ac8c7c3b9258480a480f35b9051631e82f25560e01b8152fd5b905086528060205281862033875260205260ff82872054161538611026565b50905163020226d360e01b8152fd5b5091346102a35760203660031901126102a3575061078a602092356113f3565b8284346102a357806003193601126102a3578151908060018054906110fb826113b9565b80865292602092600181169081156104c95750600114611126576101e386886101d9828903836112d1565b9350600184527fb10e2d527612073b26eecdfd717e6a320cf44b4afac2b0732d9fcbe2b7fa0cf65b83851061116b575050505081016020016101d9826101e386610460565b805486860184015293820193810161114e565b9250503461018d57602036600319011261018d573563ffffffff60e01b811680910361018d57602092506301ffc9a760e01b81149081156111d9575b81156111c8575b5015158152f35b635b5e139f60e01b149050386111c1565b6380ac58cd60e01b811491506111ba565b60005b8381106111fd5750506000910152565b81810151838201526020016111ed565b6040916020825261122d81518092816020860152602086860191016111ea565b601f01601f1916010190565b600435906001600160a01b038216820361124f57565b600080fd5b602435906001600160a01b038216820361124f57565b606090600319011261124f576001600160a01b0390600435828116810361124f5791602435908116810361124f579060443590565b6040810190811067ffffffffffffffff8211176112bb57604052565b634e487b7160e01b600052604160045260246000fd5b90601f8019910116810190811067ffffffffffffffff8211176112bb57604052565b92919267ffffffffffffffff82116112bb576040519161131d601f8201601f1916602001846112d1565b82948184528183011161124f578281602093846000960137010152565b9080601f8301121561124f57816020611355933591016112f3565b90565b604051906060820182811067ffffffffffffffff8211176112bb57604052602e82526d6f6f6c2f76322f6765746d65746160901b6040837f68747470733a2f2f6e66742e7375706572666c7569642e66696e616e63652f7060208201520152565b90600182811c921680156113e9575b60208310146113d357565b634e487b7160e01b600052602260045260246000fd5b91607f16916113c8565b6000818152601660205260409020600101546001600160a01b03161561142e576000908152600360205260409020546001600160a01b031690565b604051630249d66560e21b8152600490fd5b1561144757565b60405162461bcd60e51b815260206004820152602e60248201527f496e697469616c697a61626c653a20636f6e747261637420697320616c72656160448201526d191e481a5b9a5d1a585b1a5e995960921b6064820152608490fd5b6000908152601660205260409020600101546001600160a01b0316801561142e5790565b906001600160a01b0380806114db846114a3565b1693169183831493841561150e575b5083156114f8575b50505090565b611504919293506113f3565b16143880806114f2565b909350600052600460205260406000208260005260205260ff6040600020541692386114ea565b1561153c57565b634e487b7160e01b600052600160045260246000fd5b60405190602082019260808452600c60a08401526b141bdbdb10591b5a5b93919560a21b60c084015246604084015260018060a01b03809216606084015216608082015260c0815260e0810181811067ffffffffffffffff8211176112bb576040525190209056fea2646970667358221220b3162baca848e5a17d0424860d5ce9961d974b060f5c0f143dd00be713de48db64736f6c63430008170033","linkReferences":{}},"methodIdentifiers":{"DEFAULT_BASE_URI()":"a497325b","GENERAL_DISTRIBUTION_AGREEMENT_V1()":"2925af7e","HOST()":"49f289dc","approve(address,uint256)":"095ea7b3","balanceOf(address)":"70a08231","baseURI()":"6c0360eb","castrate()":"9903ad38","getApproved(uint256)":"081812fc","getCodeAddress()":"50d75d25","getTokenId(address,address)":"b943855e","initialize(string,string)":"4cd88b76","isApprovedForAll(address,address)":"e985e9c5","mint(address)":"6a627842","name()":"06fdde03","ownerOf(uint256)":"6352211e","poolAdminDataByTokenId(uint256)":"38e26666","proxiableUUID()":"52d1902d","safeTransferFrom(address,address,uint256)":"42842e0e","safeTransferFrom(address,address,uint256,bytes)":"b88d4fde","setApprovalForAll(address,bool)":"a22cb465","supportsInterface(bytes4)":"01ffc9a7","symbol()":"95d89b41","tokenURI(uint256)":"c87b56dd","transferFrom(address,address,uint256)":"23b872dd","triggerMetadataUpdate(uint256)":"2f388560","updateCode(address)":"46951954"},"id":70}