{"abi":[{"type":"constructor","inputs":[{"name":"_additionalAdmin","type":"address","internalType":"address"}],"stateMutability":"nonpayable"},{"type":"function","name":"DEFAULT_ADMIN_ROLE","inputs":[],"outputs":[{"name":"","type":"bytes32","internalType":"bytes32"}],"stateMutability":"view"},{"type":"function","name":"addAdmin","inputs":[{"name":"_additionalAdmin","type":"address","internalType":"address"}],"outputs":[],"stateMutability":"nonpayable"},{"type":"function","name":"get","inputs":[{"name":"name","type":"string","internalType":"string"}],"outputs":[{"name":"","type":"address","internalType":"address"}],"stateMutability":"view"},{"type":"function","name":"getRoleAdmin","inputs":[{"name":"role","type":"bytes32","internalType":"bytes32"}],"outputs":[{"name":"","type":"bytes32","internalType":"bytes32"}],"stateMutability":"view"},{"type":"function","name":"getRoleMember","inputs":[{"name":"role","type":"bytes32","internalType":"bytes32"},{"name":"index","type":"uint256","internalType":"uint256"}],"outputs":[{"name":"","type":"address","internalType":"address"}],"stateMutability":"view"},{"type":"function","name":"getRoleMemberCount","inputs":[{"name":"role","type":"bytes32","internalType":"bytes32"}],"outputs":[{"name":"","type":"uint256","internalType":"uint256"}],"stateMutability":"view"},{"type":"function","name":"grantRole","inputs":[{"name":"role","type":"bytes32","internalType":"bytes32"},{"name":"account","type":"address","internalType":"address"}],"outputs":[],"stateMutability":"nonpayable"},{"type":"function","name":"hasRole","inputs":[{"name":"role","type":"bytes32","internalType":"bytes32"},{"name":"account","type":"address","internalType":"address"}],"outputs":[{"name":"","type":"bool","internalType":"bool"}],"stateMutability":"view"},{"type":"function","name":"renounceRole","inputs":[{"name":"role","type":"bytes32","internalType":"bytes32"},{"name":"account","type":"address","internalType":"address"}],"outputs":[],"stateMutability":"nonpayable"},{"type":"function","name":"revokeRole","inputs":[{"name":"role","type":"bytes32","internalType":"bytes32"},{"name":"account","type":"address","internalType":"address"}],"outputs":[],"stateMutability":"nonpayable"},{"type":"function","name":"set","inputs":[{"name":"name","type":"string","internalType":"string"},{"name":"target","type":"address","internalType":"address"}],"outputs":[],"stateMutability":"nonpayable"},{"type":"function","name":"supportsInterface","inputs":[{"name":"interfaceId","type":"bytes4","internalType":"bytes4"}],"outputs":[{"name":"","type":"bool","internalType":"bool"}],"stateMutability":"view"},{"type":"event","name":"RoleAdminChanged","inputs":[{"name":"role","type":"bytes32","indexed":true,"internalType":"bytes32"},{"name":"previousAdminRole","type":"bytes32","indexed":true,"internalType":"bytes32"},{"name":"newAdminRole","type":"bytes32","indexed":true,"internalType":"bytes32"}],"anonymous":false},{"type":"event","name":"RoleGranted","inputs":[{"name":"role","type":"bytes32","indexed":true,"internalType":"bytes32"},{"name":"account","type":"address","indexed":true,"internalType":"address"},{"name":"sender","type":"address","indexed":true,"internalType":"address"}],"anonymous":false},{"type":"event","name":"RoleRevoked","inputs":[{"name":"role","type":"bytes32","indexed":true,"internalType":"bytes32"},{"name":"account","type":"address","indexed":true,"internalType":"address"},{"name":"sender","type":"address","indexed":true,"internalType":"address"}],"anonymous":false},{"type":"event","name":"Set","inputs":[{"name":"name","type":"string","indexed":true,"internalType":"string"},{"name":"target","type":"address","indexed":false,"internalType":"address"}],"anonymous":false}],"bytecode":{"object":"0x60803461012b57601f610d7c38819003918201601f1916830192916001600160401b03841183851017610130578083926040958652833960209283918101031261012b57516001600160a01b0381169081900361012b57826100b3926001600091828052828152838320338452815260ff8484205416156100f6575b82805281815261008d33858520610146565b50828052828152838320858452815260ff8484205416156100c1575b8280525220610146565b5051610b8b90816101d18239f35b8280528281528383208584528152838320805460ff191683179055338584600080516020610d5c8339815191528180a46100a9565b82805282815283832033845281528383208260ff19825416179055333384600080516020610d5c8339815191528180a461007b565b600080fd5b634e487b7160e01b600052604160045260246000fd5b919060018301600090828252806020526040822054156000146101ca57845494680100000000000000008610156101b657600186018082558610156101a257836040949596828552602085200155549382526020522055600190565b634e487b7160e01b83526032600452602483fd5b634e487b7160e01b83526041600452602483fd5b5092505056fe608060408181526004908136101561001657600080fd5b600092833560e01c90816301ffc9a71461052557508063248a9ca3146104fb5780632f2ff15d1461044d57806336568abe146103bb578063693ec85e1461035c57806370480275146102bd5780639010d07c1461027c57806391d1485414610236578063a217fddf14610217578063a815ff151461010f578063ca15c873146100e75763d547741f146100a857600080fd5b346100e357806003193601126100e3576100e091356100db60016100ca610593565b9383875286602052862001546105dc565b610906565b80f35b8280fd5b5090346100e35760203660031901126100e35760209282913581526001845220549051908152f35b5090346100e357816003193601126100e357803567ffffffffffffffff81116102135761013f90369083016105ae565b90610148610593565b928580528560205284862033875260205260ff8587205416156101d75750916020917f496595ced95720268cf8bc60bae3f35024ff2a130f73ac4e20f5c1eaca35db999385518282823760028382019081528190038501902080546001600160a01b0319166001600160a01b03909416938417905585519182918190833781018781520390209351908152a280f35b606490602086519162461bcd60e51b8352820152601660248201527521b0b63632b91034b9903737ba1030b71030b236b4b760511b6044820152fd5b8380fd5b83823461023257816003193601126102325751908152602090f35b5080fd5b5090346100e357816003193601126100e3578160209360ff92610257610593565b903582528186528282206001600160a01b039091168252855220549151911615158152f35b5090346100e357816003193601126100e3576020926102a791358152600184528260243591206109b0565b905491519160018060a01b039160031b1c168152f35b50346100e3576020918260031936011261021357356001600160a01b038116919082900361021357600161031193858052858152828620848752815260ff838720541615610315575b8580525283206109ef565b5080f35b8580528581528286208487528152828620805460ff1916831790553384877f2f8788117e7eff1d82e926ec794901d17c78024a50270940304540a733656f0d8180a4610306565b5082346103b85760203660031901126103b85782359067ffffffffffffffff82116103b85750602092610391913691016105ae565b8083519283376002908201908152819003830190205490516001600160a01b039091168152f35b80fd5b509190346102325782600319360112610232576103d6610593565b90336001600160a01b038316036103f257906100e09135610906565b608490602085519162461bcd60e51b8352820152602f60248201527f416363657373436f6e74726f6c3a2063616e206f6e6c792072656e6f756e636560448201526e103937b632b9903337b91039b2b63360891b6064820152fd5b50346100e357806003193601126100e357610311913590600161046e610593565b928086526020908682526104868385892001546105dc565b80875286825283872094838060a01b031694858852825260ff8488205416156104b4575b86525283206109ef565b8087528682528387208588528252838720805460ff1916841790553385827f2f8788117e7eff1d82e926ec794901d17c78024a50270940304540a733656f0d8a80a46104aa565b5090346100e35760203660031901126100e357816020936001923581528085522001549051908152f35b849084346100e35760203660031901126100e3573563ffffffff60e01b81168091036100e35760209250635a05180f60e01b8114908115610568575b5015158152f35b637965db0b60e01b811491508115610582575b5083610561565b6301ffc9a760e01b1490508361057b565b602435906001600160a01b03821682036105a957565b600080fd5b9181601f840112156105a95782359167ffffffffffffffff83116105a957602083818601950101116105a957565b6000818152602091818352604092838320338452815260ff8484205416156106045750505050565b835167ffffffffffffffff9390923360608501868111868210176108f2578752602a855283850191873684378551156108de5760308353855191600192600110156108ca576078602188015360295b838111610860575061078a57875190608082018281108982111761084c57895260428252858201926060368537825115610838576030845382516001101561083857607860218401536041905b8082116107cc57505061078a579161071f949391889360679899519687936106f58886019a7f416363657373436f6e74726f6c3a206163636f756e74200000000000000000008c52518092603788019061098d565b8401917001034b99036b4b9b9b4b733903937b6329607d1b6037840152518093604884019061098d565b0103602881018552601f1996879101168401968488109088111761077657509261076d60449593601f938880975262461bcd60e51b875260048701525180928160248801528787019061098d565b01168101030190fd5b634e487b7160e01b81526041600452602490fd5b60648589519062461bcd60e51b825280600483015260248201527f537472696e67733a20686578206c656e67746820696e73756666696369656e746044820152fd5b9091600f81166010811015610824576f181899199a1a9b1b9c1cb0b131b232b360811b901a6107fb84866109de565b5360041c9180156108105760001901906106a0565b634e487b7160e01b87526011600452602487fd5b634e487b7160e01b88526032600452602488fd5b634e487b7160e01b86526032600452602486fd5b634e487b7160e01b86526041600452602486fd5b90600f811660108110156108b6576f181899199a1a9b1b9c1cb0b131b232b360811b901a61088e838a6109de565b5360041c9080156108a25760001901610653565b634e487b7160e01b86526011600452602486fd5b634e487b7160e01b87526032600452602487fd5b634e487b7160e01b85526032600452602485fd5b634e487b7160e01b84526032600452602484fd5b634e487b7160e01b84526041600452602484fd5b90604061094392600090808252816020528282209360018060a01b03169384835260205260ff8383205416610946575b8152600160205220610a79565b50565b8082528160205282822084835260205282822060ff1981541690553384827ff6391f5c32d9c69d2a47ea670b442974b53935d1edc7fd64eb21e047a839171b8580a4610936565b60005b8381106109a05750506000910152565b8181015183820152602001610990565b80548210156109c85760005260206000200190600090565b634e487b7160e01b600052603260045260246000fd5b9081518110156109c8570160200190565b91906001830160009082825280602052604082205415600014610a735784549468010000000000000000861015610a5f5783610a4f610a38886001604098999a018555846109b0565b819391549060031b91821b91600019901b19161790565b9055549382526020522055600190565b634e487b7160e01b83526041600452602483fd5b50925050565b90600182019060009281845282602052604084205490811515600014610b4e576000199180830181811161081057825490848201918211610b3a57808203610b05575b50505080548015610af157820191610ad483836109b0565b909182549160031b1b191690555582526020526040812055600190565b634e487b7160e01b86526031600452602486fd5b610b25610b15610a3893866109b0565b90549060031b1c928392866109b0565b90558652846020526040862055388080610abc565b634e487b7160e01b88526011600452602488fd5b505050509056fea26469706673582212200b25918f2d32d0497782d68f031c4857436e825fdf9f09722a888f8358813d8864736f6c634300081700332f8788117e7eff1d82e926ec794901d17c78024a50270940304540a733656f0d","linkReferences":{}},"methodIdentifiers":{"DEFAULT_ADMIN_ROLE()":"a217fddf","addAdmin(address)":"70480275","get(string)":"693ec85e","getRoleAdmin(bytes32)":"248a9ca3","getRoleMember(bytes32,uint256)":"9010d07c","getRoleMemberCount(bytes32)":"ca15c873","grantRole(bytes32,address)":"2f2ff15d","hasRole(bytes32,address)":"91d14854","renounceRole(bytes32,address)":"36568abe","revokeRole(bytes32,address)":"d547741f","set(string,address)":"a815ff15","supportsInterface(bytes4)":"01ffc9a7"},"id":130}