{"abi":[{"type":"constructor","inputs":[{"name":"host","type":"address","internalType":"contract ISuperfluid"},{"name":"superfluidPoolBeacon_","type":"address","internalType":"contract SuperfluidUpgradeableBeacon"}],"stateMutability":"nonpayable"},{"type":"function","name":"SLOTS_BITMAP_LIBRARY_ADDRESS","inputs":[],"outputs":[{"name":"","type":"address","internalType":"address"}],"stateMutability":"view"},{"type":"function","name":"SUPERFLUID_POOL_DEPLOYER_ADDRESS","inputs":[],"outputs":[{"name":"","type":"address","internalType":"address"}],"stateMutability":"view"},{"type":"function","name":"agreementType","inputs":[],"outputs":[{"name":"","type":"bytes32","internalType":"bytes32"}],"stateMutability":"pure"},{"type":"function","name":"appendIndexUpdateByPool","inputs":[{"name":"token","type":"address","internalType":"contract ISuperfluidToken"},{"name":"p","type":"tuple","internalType":"struct BasicParticle","components":[{"name":"_settled_at","type":"uint32","internalType":"Time"},{"name":"_flow_rate","type":"int128","internalType":"FlowRate"},{"name":"_settled_value","type":"int256","internalType":"Value"}]},{"name":"t","type":"uint32","internalType":"Time"}],"outputs":[{"name":"","type":"bool","internalType":"bool"}],"stateMutability":"nonpayable"},{"type":"function","name":"castrate","inputs":[],"outputs":[],"stateMutability":"nonpayable"},{"type":"function","name":"claimAll","inputs":[{"name":"pool","type":"address","internalType":"contract ISuperfluidPool"},{"name":"memberAddress","type":"address","internalType":"address"},{"name":"ctx","type":"bytes","internalType":"bytes"}],"outputs":[{"name":"newCtx","type":"bytes","internalType":"bytes"}],"stateMutability":"nonpayable"},{"type":"function","name":"connectPool","inputs":[{"name":"pool","type":"address","internalType":"contract ISuperfluidPool"},{"name":"doConnect","type":"bool","internalType":"bool"},{"name":"ctx","type":"bytes","internalType":"bytes"}],"outputs":[{"name":"newCtx","type":"bytes","internalType":"bytes"}],"stateMutability":"nonpayable"},{"type":"function","name":"connectPool","inputs":[{"name":"pool","type":"address","internalType":"contract ISuperfluidPool"},{"name":"ctx","type":"bytes","internalType":"bytes"}],"outputs":[{"name":"newCtx","type":"bytes","internalType":"bytes"}],"stateMutability":"nonpayable"},{"type":"function","name":"createPool","inputs":[{"name":"token","type":"address","internalType":"contract ISuperfluidToken"},{"name":"admin","type":"address","internalType":"address"},{"name":"config","type":"tuple","internalType":"struct PoolConfig","components":[{"name":"transferabilityForUnitsOwner","type":"bool","internalType":"bool"},{"name":"distributionFromAnyAddress","type":"bool","internalType":"bool"}]}],"outputs":[{"name":"pool","type":"address","internalType":"contract ISuperfluidPool"}],"stateMutability":"nonpayable"},{"type":"function","name":"disconnectPool","inputs":[{"name":"pool","type":"address","internalType":"contract ISuperfluidPool"},{"name":"ctx","type":"bytes","internalType":"bytes"}],"outputs":[{"name":"newCtx","type":"bytes","internalType":"bytes"}],"stateMutability":"nonpayable"},{"type":"function","name":"distribute","inputs":[{"name":"token","type":"address","internalType":"contract ISuperfluidToken"},{"name":"from","type":"address","internalType":"address"},{"name":"pool","type":"address","internalType":"contract ISuperfluidPool"},{"name":"requestedAmount","type":"uint256","internalType":"uint256"},{"name":"ctx","type":"bytes","internalType":"bytes"}],"outputs":[{"name":"newCtx","type":"bytes","internalType":"bytes"}],"stateMutability":"nonpayable"},{"type":"function","name":"distributeFlow","inputs":[{"name":"token","type":"address","internalType":"contract ISuperfluidToken"},{"name":"from","type":"address","internalType":"address"},{"name":"pool","type":"address","internalType":"contract ISuperfluidPool"},{"name":"requestedFlowRate","type":"int96","internalType":"int96"},{"name":"ctx","type":"bytes","internalType":"bytes"}],"outputs":[{"name":"newCtx","type":"bytes","internalType":"bytes"}],"stateMutability":"nonpayable"},{"type":"function","name":"estimateDistributionActualAmount","inputs":[{"name":"token","type":"address","internalType":"contract ISuperfluidToken"},{"name":"from","type":"address","internalType":"address"},{"name":"to","type":"address","internalType":"contract ISuperfluidPool"},{"name":"requestedAmount","type":"uint256","internalType":"uint256"}],"outputs":[{"name":"actualAmount","type":"uint256","internalType":"uint256"}],"stateMutability":"view"},{"type":"function","name":"estimateFlowDistributionActualFlowRate","inputs":[{"name":"token","type":"address","internalType":"contract ISuperfluidToken"},{"name":"from","type":"address","internalType":"address"},{"name":"to","type":"address","internalType":"contract ISuperfluidPool"},{"name":"requestedFlowRate","type":"int96","internalType":"int96"}],"outputs":[{"name":"actualFlowRate","type":"int96","internalType":"int96"},{"name":"totalDistributionFlowRate","type":"int96","internalType":"int96"}],"stateMutability":"view"},{"type":"function","name":"getAccountFlowInfo","inputs":[{"name":"token","type":"address","internalType":"contract ISuperfluidToken"},{"name":"account","type":"address","internalType":"address"}],"outputs":[{"name":"timestamp","type":"uint256","internalType":"uint256"},{"name":"flowRate","type":"int96","internalType":"int96"},{"name":"deposit","type":"uint256","internalType":"uint256"}],"stateMutability":"view"},{"type":"function","name":"getCodeAddress","inputs":[],"outputs":[{"name":"codeAddress","type":"address","internalType":"address"}],"stateMutability":"view"},{"type":"function","name":"getFlow","inputs":[{"name":"token","type":"address","internalType":"contract ISuperfluidToken"},{"name":"from","type":"address","internalType":"address"},{"name":"to","type":"address","internalType":"contract ISuperfluidPool"}],"outputs":[{"name":"lastUpdated","type":"uint256","internalType":"uint256"},{"name":"flowRate","type":"int96","internalType":"int96"},{"name":"deposit","type":"uint256","internalType":"uint256"}],"stateMutability":"view"},{"type":"function","name":"getFlowRate","inputs":[{"name":"token","type":"address","internalType":"contract ISuperfluidToken"},{"name":"from","type":"address","internalType":"address"},{"name":"to","type":"address","internalType":"contract ISuperfluidPool"}],"outputs":[{"name":"","type":"int96","internalType":"int96"}],"stateMutability":"view"},{"type":"function","name":"getNetFlow","inputs":[{"name":"token","type":"address","internalType":"contract ISuperfluidToken"},{"name":"account","type":"address","internalType":"address"}],"outputs":[{"name":"netFlowRate","type":"int96","internalType":"int96"}],"stateMutability":"view"},{"type":"function","name":"getPoolAdjustmentFlowInfo","inputs":[{"name":"pool","type":"address","internalType":"contract ISuperfluidPool"}],"outputs":[{"name":"recipient","type":"address","internalType":"address"},{"name":"flowHash","type":"bytes32","internalType":"bytes32"},{"name":"flowRate","type":"int96","internalType":"int96"}],"stateMutability":"view"},{"type":"function","name":"getPoolAdjustmentFlowRate","inputs":[{"name":"pool","type":"address","internalType":"address"}],"outputs":[{"name":"","type":"int96","internalType":"int96"}],"stateMutability":"view"},{"type":"function","name":"isMemberConnected","inputs":[{"name":"pool","type":"address","internalType":"contract ISuperfluidPool"},{"name":"member","type":"address","internalType":"address"}],"outputs":[{"name":"","type":"bool","internalType":"bool"}],"stateMutability":"view"},{"type":"function","name":"isPatricianPeriod","inputs":[{"name":"token","type":"address","internalType":"contract ISuperfluidToken"},{"name":"account","type":"address","internalType":"address"},{"name":"timestamp","type":"uint256","internalType":"uint256"}],"outputs":[{"name":"","type":"bool","internalType":"bool"}],"stateMutability":"view"},{"type":"function","name":"isPatricianPeriodNow","inputs":[{"name":"token","type":"address","internalType":"contract ISuperfluidToken"},{"name":"account","type":"address","internalType":"address"}],"outputs":[{"name":"isCurrentlyPatricianPeriod","type":"bool","internalType":"bool"},{"name":"timestamp","type":"uint256","internalType":"uint256"}],"stateMutability":"view"},{"type":"function","name":"isPool","inputs":[{"name":"token","type":"address","internalType":"contract ISuperfluidToken"},{"name":"account","type":"address","internalType":"address"}],"outputs":[{"name":"","type":"bool","internalType":"bool"}],"stateMutability":"view"},{"type":"function","name":"poolSettleClaim","inputs":[{"name":"superToken","type":"address","internalType":"contract ISuperfluidToken"},{"name":"claimRecipient","type":"address","internalType":"address"},{"name":"amount","type":"int256","internalType":"int256"}],"outputs":[{"name":"","type":"bool","internalType":"bool"}],"stateMutability":"nonpayable"},{"type":"function","name":"proxiableUUID","inputs":[],"outputs":[{"name":"","type":"bytes32","internalType":"bytes32"}],"stateMutability":"view"},{"type":"function","name":"realtimeBalanceOf","inputs":[{"name":"token","type":"address","internalType":"contract ISuperfluidToken"},{"name":"account","type":"address","internalType":"address"},{"name":"time","type":"uint256","internalType":"uint256"}],"outputs":[{"name":"rtb","type":"int256","internalType":"int256"},{"name":"buf","type":"uint256","internalType":"uint256"},{"name":"owedBuffer","type":"uint256","internalType":"uint256"}],"stateMutability":"view"},{"type":"function","name":"realtimeBalanceOfNow","inputs":[{"name":"token","type":"address","internalType":"contract ISuperfluidToken"},{"name":"account","type":"address","internalType":"address"}],"outputs":[{"name":"availableBalance","type":"int256","internalType":"int256"},{"name":"buffer","type":"uint256","internalType":"uint256"},{"name":"owedBuffer","type":"uint256","internalType":"uint256"},{"name":"timestamp","type":"uint256","internalType":"uint256"}],"stateMutability":"view"},{"type":"function","name":"superfluidPoolBeacon","inputs":[],"outputs":[{"name":"","type":"address","internalType":"contract SuperfluidUpgradeableBeacon"}],"stateMutability":"view"},{"type":"function","name":"updateCode","inputs":[{"name":"newAddress","type":"address","internalType":"address"}],"outputs":[],"stateMutability":"nonpayable"},{"type":"function","name":"updateMemberUnits","inputs":[{"name":"pool","type":"address","internalType":"contract ISuperfluidPool"},{"name":"memberAddress","type":"address","internalType":"address"},{"name":"newUnits","type":"uint128","internalType":"uint128"},{"name":"ctx","type":"bytes","internalType":"bytes"}],"outputs":[{"name":"newCtx","type":"bytes","internalType":"bytes"}],"stateMutability":"nonpayable"},{"type":"event","name":"BufferAdjusted","inputs":[{"name":"token","type":"address","indexed":true,"internalType":"contract ISuperfluidToken"},{"name":"pool","type":"address","indexed":true,"internalType":"contract ISuperfluidPool"},{"name":"from","type":"address","indexed":true,"internalType":"address"},{"name":"bufferDelta","type":"int256","indexed":false,"internalType":"int256"},{"name":"newBufferAmount","type":"uint256","indexed":false,"internalType":"uint256"},{"name":"totalBufferAmount","type":"uint256","indexed":false,"internalType":"uint256"}],"anonymous":false},{"type":"event","name":"CodeUpdated","inputs":[{"name":"uuid","type":"bytes32","indexed":false,"internalType":"bytes32"},{"name":"codeAddress","type":"address","indexed":false,"internalType":"address"}],"anonymous":false},{"type":"event","name":"FlowDistributionUpdated","inputs":[{"name":"token","type":"address","indexed":true,"internalType":"contract ISuperfluidToken"},{"name":"pool","type":"address","indexed":true,"internalType":"contract ISuperfluidPool"},{"name":"distributor","type":"address","indexed":true,"internalType":"address"},{"name":"operator","type":"address","indexed":false,"internalType":"address"},{"name":"oldFlowRate","type":"int96","indexed":false,"internalType":"int96"},{"name":"newDistributorToPoolFlowRate","type":"int96","indexed":false,"internalType":"int96"},{"name":"newTotalDistributionFlowRate","type":"int96","indexed":false,"internalType":"int96"},{"name":"adjustmentFlowRecipient","type":"address","indexed":false,"internalType":"address"},{"name":"adjustmentFlowRate","type":"int96","indexed":false,"internalType":"int96"},{"name":"userData","type":"bytes","indexed":false,"internalType":"bytes"}],"anonymous":false},{"type":"event","name":"Initialized","inputs":[{"name":"version","type":"uint8","indexed":false,"internalType":"uint8"}],"anonymous":false},{"type":"event","name":"InstantDistributionUpdated","inputs":[{"name":"token","type":"address","indexed":true,"internalType":"contract ISuperfluidToken"},{"name":"pool","type":"address","indexed":true,"internalType":"contract ISuperfluidPool"},{"name":"distributor","type":"address","indexed":true,"internalType":"address"},{"name":"operator","type":"address","indexed":false,"internalType":"address"},{"name":"requestedAmount","type":"uint256","indexed":false,"internalType":"uint256"},{"name":"actualAmount","type":"uint256","indexed":false,"internalType":"uint256"},{"name":"userData","type":"bytes","indexed":false,"internalType":"bytes"}],"anonymous":false},{"type":"event","name":"PoolConnectionUpdated","inputs":[{"name":"token","type":"address","indexed":true,"internalType":"contract ISuperfluidToken"},{"name":"pool","type":"address","indexed":true,"internalType":"contract ISuperfluidPool"},{"name":"account","type":"address","indexed":true,"internalType":"address"},{"name":"connected","type":"bool","indexed":false,"internalType":"bool"},{"name":"userData","type":"bytes","indexed":false,"internalType":"bytes"}],"anonymous":false},{"type":"event","name":"PoolCreated","inputs":[{"name":"token","type":"address","indexed":true,"internalType":"contract ISuperfluidToken"},{"name":"admin","type":"address","indexed":true,"internalType":"address"},{"name":"pool","type":"address","indexed":false,"internalType":"contract ISuperfluidPool"}],"anonymous":false},{"type":"error","name":"AGREEMENT_BASE_ONLY_HOST","inputs":[]},{"type":"error","name":"GDA_ADMIN_CANNOT_BE_POOL","inputs":[]},{"type":"error","name":"GDA_DISTRIBUTE_FOR_OTHERS_NOT_ALLOWED","inputs":[]},{"type":"error","name":"GDA_DISTRIBUTE_FROM_ANY_ADDRESS_NOT_ALLOWED","inputs":[]},{"type":"error","name":"GDA_FLOW_DOES_NOT_EXIST","inputs":[]},{"type":"error","name":"GDA_INSUFFICIENT_BALANCE","inputs":[]},{"type":"error","name":"GDA_NON_CRITICAL_SENDER","inputs":[]},{"type":"error","name":"GDA_NOT_POOL_ADMIN","inputs":[]},{"type":"error","name":"GDA_NO_NEGATIVE_FLOW_RATE","inputs":[]},{"type":"error","name":"GDA_NO_ZERO_ADDRESS_ADMIN","inputs":[]},{"type":"error","name":"GDA_ONLY_SUPER_TOKEN_POOL","inputs":[]}],"bytecode":{"object":"0x60c034620000b857601f6200513538819003918201601f19168301916001600160401b03831184841017620000bd578084926040948552833981010312620000b85780516001600160a01b039182821691829003620000b857602001519182168203620000b85760805260a0526040516150619081620000d4823960805181818161135f0152818161140701528181611af101528181611ff10152818161229c0152613560015260a051818181611f1f0152612fa80152f35b600080fd5b634e487b7160e01b600052604160045260246000fdfe610120604052600436101561001357600080fd5b6000803560e01c80630735d750146131ef5780630779d36514612f155780630f1ac49514612e9957806310dc879214612a3157806330925b79146127d557806337bd42e014612714578063398c74e1146125695780633c56f090146125305780633fd4176a146124f75780634543b7451461248c57806346951954146122765780634b839e0b1461225c5780634d5c91ec1461212f5780634e9ced571461207a5780634fe9c29114611fb957806350d75d2514611f7157806352d1902d14611f4e5780635437dd9714611f095780635a6c6dbc14610f4f5780635cfd50d714610f085780636d1007a614610c595780637730599e14610c1e5780637b2cc0da14610be75780639903ad3814610ad75780639b2e48bc14610a9f578063c782eb9c146109ec578063d2c0d54214610897578063e6a1e88814610821578063e8e7e2d11461065a578063eccfc6a5146105ce578063f0b7b915146102fa5763fa48736d1461017e57600080fd5b346102f35760a03660031901126102f35761019761321e565b60603660231901126102f657604051916101b08361328e565b63ffffffff9060243582811681036102c95784526044359081600f0b82036102f35750602093848101918252606435604082015260843592831683036102c9576101fa3385614089565b156102e1576040516001600160a01b039094168585015284845261023b906102349061022586613260565b61022f3387614317565b6148e6565b3385614968565b50516040516303e1469160e61b81529290600f0b8484600481335afa80156102d55760009061029a575b61029094506102886102778233614b04565b92610282848661451e565b90614594565b923390614e3a565b5060405160018152f35b508484813d83116102ce575b6102b081836132fb565b810103126102c9576102c461029094613419565b610265565b600080fd5b503d6102a6565b6040513d6000823e3d90fd5b6040516390028c3760e01b8152600490fd5b80fd5b5080fd5b50346102f35761030936613391565b604051632b4116f760e01b81526001600160a01b0393602093818616928581600481875afa9081156102d557600091610599575b5061036561035561034f368886613448565b83613be5565b9288606085015116963691613448565b96610371858784613ec2565b501515600103610393575b6040518781528061038f818a018b61336c565b0390f35b63ffffffff806040850151166040519063d877ec8760e01b8252886004830152600160248301526044820152888160648160008b5af180156102d5576103e19160009161056c575b50613497565b604051630a32470160e41b8152928216600484018190526024840188905260016044850152600160801b60648501526084840187905294888460a48173__$6040e6113e0e8355239b974a4a8d52be72$__5af49384156102d557600094610532575b5061044e9088613f87565b916040519161045c83613260565b878352898301941684526040519361047385613260565b60018552893681870137519151169063ffffffff60a01b9060a01b16176104998361367e565b52833b156102c9576104d0916000916040519384928392630254d47f60e31b845260048401526040602484015260448301906134b4565b038183875af180156102d55760008051602061500c833981519152926105159260a092610523575b50015160405191829160018352604089840152604083019061336c565b0390a482808080808061037c565b61052c9061327b565b896104f8565b9093508881813d8311610565575b61054a81836132fb565b810103126102c95761055e61044e91613fd6565b9390610443565b503d610540565b61058c91508a3d8c11610592575b61058481836132fb565b81019061347f565b8b6103db565b503d61057a565b908682813d83116105c7575b6105af81836132fb565b810103126102f357506105c190613419565b8761033d565b503d6105a5565b50346102f35760803660031901126102f35761064f60209161063e6105f161321e565b6105f9613234565b61062a61060461324a565b6040516001600160a01b039485168982015288815290929061062581613260565b614317565b93604051610637816132c5565b521661436e565b610649606435614241565b9161485a565b915050604051908152f35b50346102f35760403660031901126102f35761067461321e565b9061067d613234565b90604051602091826106a48560018060a01b03948589168482015283815261062581613260565b0151946106b986600b0b96600f0b8714614639565b856106c48683614089565b61078f575b50846106d89196939596614733565b85839692969716935b865188101561078257602486846106f88b866136b1565b5116604051928380926314e7a30760e21b82528a60048301525afa908115610777578591610736575b5061072e906001926138c9565b9701966106e1565b90508681813d8311610770575b61074d81836132fb565b8101031261076c5760019161076461072e926138bb565b915091610721565b8480fd5b503d610743565b6040513d87823e3d90fd5b859060405190600b0b8152f35b6040516302a53fcd60e61b81529196509084816004818988165afa9081156108165790869184916107d1575b506107c9906106d8936138c9565b9691506106c9565b809250868092503d831161080f575b6107ea81836132fb565b8101031261080b576107c96106d89261080388936138bb565b9150926107bb565b8280fd5b503d6107e0565b6040513d85823e3d90fd5b50346102f35760603660031901126102f35761085d61083e61321e565b610857610849613234565b61085161324a565b906138f9565b90613a10565b905063ffffffff81511661038f60406020840151600b0b9301516040519384938460409194939260608201958252600b0b60208201520152565b50346102f35760603660031901126102f3576108b161321e565b906108ba613234565b916044356001600160401b03811161080b576108da90369060040161331c565b604051632b4116f760e01b81526020946001600160a01b03948516949093909290918681600481895afa9081156107775790879493929186916109a4575b509161093d9161093560249461092f368486613448565b90613be5565b503691613448565b968460405196879485936377329f3560e01b85521660048401525af1908115610998575061097b575b5061038f60405192828493845283019061336c565b61099190823d84116105925761058481836132fb565b5038610966565b604051903d90823e3d90fd5b85819394959692503d83116109e5575b6109be81836132fb565b8101031261076c578693926024926109356109db61093d94613419565b9294505091610918565b503d6109b4565b50346102f35760403660031901126102f357610a0661321e565b610a0e613234565b604051632b4116f760e01b81526001600160a01b03909216929091602081600481875afa918215610998578092610a58575b6020610a4d868686613ec2565b506040519015158152f35b9091506020823d602011610a97575b81610a74602093836132fb565b810103126102f3575091610a4d91610a8d602094613419565b9193819350610a40565b3d9150610a67565b50346102f35761038f610aba610ab4366133d4565b916136f7565b604080519384526020840192909252908201529081906060820190565b50346102f357806003193601126102f357805460ff8160081c161590818092610bda575b8015610bc3575b15610b675760ff198116600117835581610b56575b50610b1f5780f35b61ff001981541681557f7f26b83ff96e1f2b6a682f133852f6798a09c465da95921460cefb3847402498602060405160018152a180f35b61ffff191661010117825538610b17565b60405162461bcd60e51b815260206004820152602e60248201527f496e697469616c697a61626c653a20636f6e747261637420697320616c72656160448201526d191e481a5b9a5d1a585b1a5e995960921b6064820152608490fd5b50303b158015610b025750600160ff821614610b02565b50600160ff821610610afb565b50346102f35760403660031901126102f3576020610c14610c0661321e565b610c0e613234565b90614089565b6040519015158152f35b50346102f357806003193601126102f35760206040517fdfd8ece9bfbcb8c5c540edb935641f63d67686490a1ab97f000288759f30a9468152f35b50346102f35760a03660031901126102f357610c7361321e565b90610c7c613234565b610c8461324a565b91606435936084356001600160401b03811161080b5790610cad610ccb9392369060040161331c565b9390610cc3610cbd368784613448565b84613be5565b943691613448565b956001600160a01b0395861693610ce28584614089565b156102e157604051630cb8599f60e41b81526020979088816004818a5afa908115610ee0578691610eeb575b5015610e61575b606082019381808651169816978803610e4f5781604051911695868a830152898252610d4082613260565b610d8a838751169289610d85610d7d610d588a614241565b610d6484891415613497565b610d6e8886614317565b610d778561436e565b9061485a565b979094614968565b614cca565b506040516379359f6f60e01b8152600481018a90528a816024818b5afa9182156109985791610e32575b50610e205760a0610e09927f6e8348961b299f365797c30cd18a91284b046858689eeb6150a5ba432fe6583e9651169301519060405194859485528a850152604084015260806060840152608083019061336c565b0390a461038f60405192828493845283019061336c565b6040516333115c3f60e01b8152600490fd5b610e4991508a3d8c116105925761058481836132fb565b38610db4565b604051637b3e931f60e11b8152600490fd5b6040516303e1469160e61b815288816004818a5afa908115610ee0578691610ea7575b50818060608501511691160315610d1557604051637761a5e560e01b8152600490fd5b90508881813d8311610ed9575b610ebe81836132fb565b81010312610ed557610ecf90613419565b38610e84565b8580fd5b503d610eb4565b6040513d88823e3d90fd5b610f029150893d8b116105925761058481836132fb565b38610d0e565b50346102f35760403660031901126102f3576080610f36610f2761321e565b610f2f613234565b42916136f7565b9060405192835260208301526040820152426060820152f35b50346102f35760a03660031901126102f357610f6961321e565b610f71613234565b610f7961324a565b60a052610f84613409565b906084356001600160401b03811161076c57610fa490369060040161331c565b60a05190959190610fbe906001600160a01b031686614089565b156102e1578184600b0b12611ef7576110569060405196610fde8861328e565b610fe661362a565b8852836020890152836040890152611008611002368385613448565b88613be5565b885261101660a051866138f9565b602089015261104760405160018060a01b03891660208201526020815261103c81613260565b60208a01519061451e565b600f0b60408901523691613448565b60e0528083600b0b1390818092611e9d575b611e05575b6040516001600160a01b038616602080830191909152815261108e81613260565b602087015187516040015160a051919263ffffffff909116916110bf906001600160a01b0388811691161415613497565b6110c98682614317565b60a0516110df906001600160a01b031683614317565b60a0519092906110f7906001600160a01b031661436e565b61010052611103613954565b60a05190939061111c906001600160a01b031683613fe7565b915050600b0b845261112e868361451e565b60c052846101005161113f90614552565b9a60c05190600b0b906111519161456c565b8551600f0b61115f91614594565b6101005161116c936145bd565b608094929452929987608051600f0b121561118690613497565b608051906111939161456c565b60c051906111a091614594565b8451600f0b6111ae9161456c565b99600f8b900b8813611dd8576111eb8661120d959493610d85936111dc8f8d60208c01525b60c0519061456c565b600f0b918260408b0152614c54565b60a0516001600160a01b0316939091849161120891908e90614968565b614968565b9260018060a01b036112286020865187010160208701613b0a565b1661127660406112388484613a10565b905061124b8c600f0b8d600b0b14614639565b01516040519061125a8261328e565b63ffffffff421682528b600b0b60208301526040820152614d83565b91813b15611dd4579186916112af938360405180968195829463a1b2bf8b60e01b845260048401526040602484015260448301906134b4565b03925af1801561077757908591611dc0575b505060200151600f0b604051926303e1469160e61b845260208460048160018060a01b0360a051165afa80156102d557600090611d85575b60a05161132795506113159082906001600160a01b0316614b04565b9160018060a01b0360a0511690614e3a565b50855160608101516001600160a01b03908116908516036119a4575b5060208681015160405163289b3c0d60e01b81529091816004817f00000000000000000000000000000000000000000000000000000000000000006001600160a01b03165afa908115610816576064916020918591611977575b5060405163407b865d60e11b81523360048201526001600160a01b038a811660248301527feae305fa863b373417e615b1044222e2806cefc7788d169ce6748a443c3f6cc460448301529093849290918391165afa908115610816578391611945575b50611434877f00000000000000000000000000000000000000000000000000000000000000006001600160a01b0316614159565b5061145463ffffffff611447858b613a10565b9390501688600f0b6146ab565b918061145f84614d34565b1080611939575b611920575b506040611479910151614241565b91838312828481031281169083858103139015161761190c576114a387600f0b88600b0b14614639565b6114cf6040516114b28161328e565b63ffffffff4216815288600b0b6020820152836040820152614d83565b906001600160a01b0389163b1561076c5761150e918591604051938492839263a1b2bf8b60e01b845260048401526040602484015260448301906134b4565b0381836001600160a01b038d165af18015611901579084916118ed575b50506115548560405160018060a01b038a1660208201526020815261154f81613260565b613b29565b61157461156f84840361156a6040850151614241565b6136c5565b614d34565b60408201526040516115858161328e565b600281526040366020830137815160a01b60208301516040840151916115b46001600160601b03841115614639565b6060850151156118d957640100000000600160801b0360ff60015b169360201b169163ffffffff60801b9060801b161717176115ef8261367e565b5260808201516115fe826136a1565b526001600160a01b0389163b1561076c5760405163048620af60e11b81526001600160a01b038816600482015260248101869052606060448201529085908290819061164e9060648301906134b4565b0381836001600160a01b038e165af18015610777578993929186916118ba575b50507f589f74ba61521b98a96e2f65e02028ca5af0c5990e3d9536176b37ee6b62013790604061169d84614d34565b9101516040805160a0519790950385526020850192909252908301526001600160a01b03878116948116931691606090a4855160608101516001600160a01b03858116911614611812575b5050507fc4bd0e4bfe3a83cbd5a7a71bb33bcb6bed9e0c24d710f3fb51c85caf1cd3af369061174060405160018060a01b03861660208201526020815261172e81613260565b60a0516001600160a01b031690613fe7565b91905060018060a01b03606088510151169660408101519561176a87600b0b97600f0b8814614639565b61177b81600f0b82600b0b14614639565b60a0608051600b0b92611794608051600f0b8514614639565b51015196604051998a5260208a0152600b0b6040890152606088015260018060a01b03166080870152600b0b60a086015260e060c086015260018060a01b031693806117f860018060a01b0360a051169560018060a01b03169460e083019061336c565b0390a4604051602081528061038f6020820160e05161336c565b6040908101519051633acd4df360e21b81526001600160a01b03851660048201526024810191909152606081806044810103816001600160a01b038a165afa9081156118af57829161187e575b5082611874575b5050610e20573880806116e8565b1290503880611866565b6118a0915060603d6060116118a8575b61189881836132fb565b8101906134e8565b50503861185f565b503d61188e565b6040513d84823e3d90fd5b6118c7919293945061327b565b6118d557908791843861166e565b8380fd5b640100000000600160801b0360ff896115cf565b6118f69061327b565b61080b57823861152b565b6040513d86823e3d90fd5b634e487b7160e01b84526011600452602484fd5b611479919250611931604091614241565b92915061146b565b508488600f0b13611466565b90506020813d60201161196f575b81611960602093836132fb565b810103126102c9575138611400565b3d9150611953565b6119979150823d841161199d575b61198f81836132fb565b810190613b0a565b3861139d565b503d611985565b82156119bc57604051637b3e931f60e11b8152600490fd5b6040908101519051633acd4df360e21b81526001600160a01b03851660048201526024810191909152606081806044810103816001600160a01b038a165afa9081156118af578291611d64575b50604051908160c08101106001600160401b0360c084011117611d4e5760c082016040908152602080840185905260608085018681526080860187905260a086018781526001600160a01b038c81168089528b8216878a01528e51909401511690528b8301519052825180830191909152908152849291611a9a91611a9390899061154f81613260565b0151614241565b608084015280602084015212600014611d3c5780516060820151611ad691604091611acd916001600160a01b0316613a10565b90500151614241565b8151909190611b2790611b16906001600160a01b03908116907f000000000000000000000000000000000000000000000000000000000000000016614159565b9060208401516080850151906142d9565b91611b3b60208301516080840151906136c5565b90848212611c5857611b5b91611b50916146ab565b6080830151906142a8565b815160608301516001600160a01b03909116928415611c505785925b60ff604051946002602087015216604085015260408452611b978461328e565b60a08201516040909201516001600160a01b03928316921690611bc2611bbc82614d34565b91614694565b91863b15611c4c579288969491928793611c0197956040519a8b998a988997631863e80960e01b8952600489015260e0602489015260e488019061336c565b94604487015215156064860152608485015260a484015260c483015203925af180156118af57908291611c38575b50505b38611343565b611c419061327b565b6102f3578038611c2f565b8880fd5b600192611b77565b925060018060a01b038251169160608101519060405192600260208501526002604085015260408452611c8a8461328e565b60a08201516040909201516001600160a01b0390811696921691611cb190611bbc90614d34565b90853b15611d385792611cef9492889694928793604051998a9889978896631863e80960e01b8852600488015260e0602488015260e487019061336c565b93604486015260006064860152608485015260a484015260c483015203925af180156118af57908291611d24575b5050611c32565b611d2d9061327b565b6102f3578038611d1d565b8780fd5b60405163666f381d60e01b8152600490fd5b634e487b7160e01b600052604160045260246000fd5b611d7d915060603d6060116118a85761189881836132fb565b505038611a09565b506020843d602011611db8575b81611d9f602093836132fb565b810103126102c957611db361132794613419565b6112f9565b3d9150611d92565b611dc99061327b565b6118d55783386112c1565b8680fd5b6111eb8661120d959493610d8593611df56111dc9f600f0b614b72565b600f0b60208a01528b9e8f6111d3565b6040516303e1469160e61b815260a051602090829060049082906001600160a01b03165afa9081156118af578291611e63575b508651606001516001600160a01b0391821691161461106d57604051637761a5e560e01b8152600490fd5b90506020813d602011611e95575b81611e7e602093836132fb565b810103126102f657611e8f90613419565b38611e38565b3d9150611e71565b50604051630cb8599f60e41b815260a051602090829060049082906001600160a01b03165afa9081156118af578291611ed8575b5015611068565b611ef1915060203d6020116105925761058481836132fb565b38611ed1565b6040516315f2566360e01b8152600490fd5b50346102f357806003193601126102f3576040517f00000000000000000000000000000000000000000000000000000000000000006001600160a01b03168152602090f35b50346102f357806003193601126102f3576020611f696135d3565b604051908152f35b50346102f357806003193601126102f3577f360894a13ba1a3210667c828492db98dca3e2076cc3735a920a3ca505d382bbc546040516001600160a01b039091168152602090f35b50346102f35760403660031901126102f357611fd361321e565b90611fdc613234565b604051630bbe4fd560e41b81526020816004817f00000000000000000000000000000000000000000000000000000000000000006001600160a01b03165afa9283156109985792612045575b508161203691604094613503565b90825191151582526020820152f35b9091506020813d602011612072575b81612061602093836132fb565b810103126102c95751906040612028565b3d9150612054565b50346102f3576020806003193601126102f65761209561321e565b604051632b4116f760e01b8152926001600160a01b0383856004818685165afa9182156109985780926120f2575b506120e49394506040519116848201528381526120df81613260565b613fe7565b91505060405190600b0b8152f35b9091508385813d8311612128575b61210a81836132fb565b810103126102f357506121206120e49394613419565b9084936120c3565b503d612100565b50346102f35760803660031901126102f35760409061214c61321e565b612217612157613234565b61221261216261324a565b610282612208612170613409565b89516001600160a01b039889166020808301919091528152909761219382613260565b6121a76121a086896138f9565b9783614317565b941693898b516121b6816132c5565b526121ea6121cd6121c68761436e565b988461451e565b956121e4876121db8b614552565b9c600b0b61456c565b93613fe7565b915050600b0b966122028863ffffffff421694614594565b916145bd565b979150508661456c565b61456c565b9161222a83600b0b93600f0b8414614639565b808361223e84600b0b94600f0b8514614639565b12612254575b50825191600b0b82526020820152f35b915038612244565b50346102f3576020610c14612270366133d4565b91613503565b50346102f3576020806003193601126102f65761229161321e565b6001600160a01b03907f00000000000000000000000000000000000000000000000000000000000000008216330361247a577f360894a13ba1a3210667c828492db98dca3e2076cc3735a920a3ca505d382bbc8281541615612435576122f56135d3565b6040516352d1902d60e01b815293831693908582600481885afa91821561242a5787926123fb575b50036123aa5782301461236557557fe011bc04c286c344a8fcbb8de77f953da762c3e25d8cdea984147fc4168a5dcc916040916123586135d3565b918351928352820152a180f35b60405162461bcd60e51b815260048101859052601960248201527f5555505350726f786961626c653a2070726f7879206c6f6f70000000000000006044820152606490fd5b60405162461bcd60e51b815260048101859052602360248201527f5555505350726f786961626c653a206e6f7420636f6d70617469626c65206c6f60448201526267696360e81b6064820152608490fd5b9091508581813d8311612423575b61241381836132fb565b810103126102c95751903861231d565b503d612409565b6040513d89823e3d90fd5b60405162461bcd60e51b815260048101859052601d60248201527f5555505350726f786961626c653a206e6f742075706772616461626c650000006044820152606490fd5b604051630b00ec8f60e11b8152600490fd5b50346102f35760603660031901126102f3576124a661321e565b6124ae613234565b906124b93382614089565b156102e1576124eb916040519160018060a01b03166020830152602082526124e082613260565b6044359133906140ec565b50602060405160018152f35b50346102f357806003193601126102f35760405173__$6040e6113e0e8355239b974a4a8d52be72$__6001600160a01b03168152602090f35b50346102f357806003193601126102f35760405173__$2951a28f777771557a69daa49d49a765ef$__6001600160a01b03168152602090f35b50346102f35760803660031901126102f35761258361321e565b9061258c613234565b90604435906001600160801b0382168092036102f3576064356001600160401b0381116102f6576125c190369060040161331c565b604051632b4116f760e01b81526001600160a01b039687169660209690929187816004818c5afa908115610ee05790849187916126d6575b5061260b60609161092f36878a613448565b0151166040516303e1469160e61b815288816004818d5afa90811561242a57908591889161269e575b50160361268c578461264b88956044943691613448565b986040519788958694631b16777760e01b865216600485015260248401525af1908115610998575061097b575061038f60405192828493845283019061336c565b604051633a87e56560e01b8152600490fd5b8092508a8092503d83116126cf575b6126b781836132fb565b81010312611dd4576126c98591613419565b38612634565b503d6126ad565b809250898092503d831161270d575b6126ef81836132fb565b81010312610ed557606061260b6127068693613419565b91506125f9565b503d6126e5565b50346102f3576020806003193601126102f6576001600160a01b03908161273961321e565b1692604051632b4116f760e01b81528281600481885afa918215610998578092612795575b505060609361277d91846040519116848201528381526120df81613260565b9290919360405194168452830152600b0b6040820152f35b9091508282813d83116127ce575b6127ad81836132fb565b810103126102f357506060936127c561277d92613419565b9181955061275e565b503d6127a3565b50346102f3576127e436613391565b604051632b4116f760e01b8152926020926001600160a01b03808316929160008688600481885afa978815612a245781986129ed575b5061284261283261282c368986613448565b8a613be5565b9284606085015116973691613448565b9761284e868883613ec2565b50612867575b6040518881528061038f818b018c61336c565b63ffffffff91826040850151166040519063d877ec8760e01b825289600483015282602483015260448201528981606481858c5af19081156118af5782916128b8916128cf94916129d05750613497565b946128c4878a85613ec2565b939050169588613f87565b90853b156102c95760405191632704839760e01b8352600483015260016024830152600082604481838a5af19182156102d55789926129b9575b5001511673__$6040e6113e0e8355239b974a4a8d52be72$__90813b156118d5578390608460405180948193631528e57f60e31b83528960048401528b60248401526001604484015260648301525af48015610816576129a5575b509060a060008051602061500c833981519152920151906129966040519283928352604089840152604083019061336c565b0390a482808080808080612854565b6129af839161327b565b6102f65787612964565b9094506129c6915061327b565b866000938a612909565b6129e791508c8d3d106105925761058481836132fb565b8d6103db565b9097508681813d8311612a1d575b612a0581836132fb565b81010312611d3857612a1690613419565b968861281a565b503d6129fb565b50604051903d90823e3d90fd5b50346102f35760603660031901126102f357612a4b61321e565b906024351515602435036102c957604435906001600160401b0382116102f35750612a7a90369060040161331c565b604051632b4116f760e01b81529192600092906020826004816001600160a01b0385165afa918215611901578492612e5d575b50612ad5612abf610cbd368689613448565b9560018060a01b03606088015116943691613448565b93612aea6001600160a01b0383168585613ec2565b501515602435151503612b0e575b6040516020808252819061038f9082018861336c565b604086810151905163d877ec8760e01b8152600481018690526024803515159082015263ffffffff9091166044820152602081606481856001600160a01b0388165af19081156118af5790612b69918391612e3e5750613497565b60243515612d3757604051630a32470160e41b81526001600160a01b03848116600483018190526024830187905260016044840152600160801b6064840152908416608483015260208260a48173__$6040e6113e0e8355239b974a4a8d52be72$__5af4918215610816578392612cfb575b50612be68487613f87565b604051612bf281613260565b60018060a01b038616815263ffffffff602082019416845260405193612c1785613260565b60018552602036818701375190516001600160a01b031660a09190911b63ffffffff60a01b1617612c478461367e565b52813b156118d557918391612c809383604051809681958294630254d47f60e31b845260048401526040602484015260448301906134b4565b03925af180156118af57612ce7575b505060008051602061500c833981519152612cdb60a061038f975b01516040805160243515158152602081018290526001600160a01b039586169690951694928392909183019061336c565b0390a438808080612af8565b612cf1829161327b565b6102f35780612c8f565b9091506020813d602011612d2f575b81612d17602093836132fb565b8101031261080b57612d2890613fd6565b9038612bdb565b3d9150612d0a565b612d42828585613ec2565b6001600160a01b0385169150612d588487613f87565b823b156118d55760405190632704839760e01b8252600482015260016024820152838160448183875af1801561190157612e24575b50602063ffffffff9101511673__$6040e6113e0e8355239b974a4a8d52be72$__91823b156118d55790608484926040519485938492631528e57f60e31b845260048401528a60248401526001604484015260648301525af480156118af57612e10575b505060008051602061500c833981519152612cdb60a061038f97612caa565b612e1a829161327b565b6102f35780612df1565b63ffffffff9193612e3660209261327b565b939150612d8d565b612e57915060203d6020116105925761058481836132fb565b386103db565b9091506020813d602011612e91575b81612e79602093836132fb565b810103126118d557612e8a90613419565b9038612aad565b3d9150612e6c565b50346102f35760403660031901126102f357612edd612eb661321e565b612ebe613234565b906040519060018060a01b031660208201526020815261154f81613260565b63ffffffff60208201511661038f60408351600b0b9301516040519384938460409194939260608201958252600b0b60208201520152565b50346102f35760803660031901126102f357612f2f61321e565b90612f38613234565b60403660431901126102f657604051612f5081613260565b60443580151581036118d557815260643580151581036118d5576020828101918252946001600160a01b038481169490929085156131dd57612f929083614089565b6131cb5782604051926357677fc760e11b8452817f0000000000000000000000000000000000000000000000000000000000000000166004850152866024850152169384604484015251151560648301525115156084820152858160a48173__$2951a28f777771557a69daa49d49a765ef$__5af4908115610777579082918691613191575b50169360405161302781613260565b60018152863681830137600161303c8261367e565b52833b156102f65781613077916040518093819263048620af60e11b83528a60048401528460248401526060604484015260648301906134b4565b038183885af180156118af57613182575b5090818183806040518a810190632c836c6b60e21b8252600481526130ac81613260565b5190885afa3d1561317a573d906130c28261342d565b916130d060405193846132fb565b82523d868b84013e5b61315e575b5050168061311a575b50507f9c5d829b9b23efc461f9aeef91979ec04bb903feb3bee4f26d22114abfc7335b84604051858152a3604051908152f35b803b156102f6578180916024604051809481936335313c2160e11b83528a60048401525af180156118af57156130e757613154829161327b565b6102f357806130e7565b613172919250888082518301019101613b0a565b1681386130de565b6060906130d9565b61318b9061327b565b38613088565b809250878092503d83116131c4575b6131aa81836132fb565b8101031261076c5751818116810361076c57819038613018565b503d6131a0565b604051634d5c451360e11b8152600490fd5b6040516382c5d83760e01b8152600490fd5b50346102f35760603660031901126102f35760208061320f61083e61321e565b90500151600b0b604051908152f35b600435906001600160a01b03821682036102c957565b602435906001600160a01b03821682036102c957565b604435906001600160a01b03821682036102c957565b604081019081106001600160401b03821117611d4e57604052565b6001600160401b038111611d4e57604052565b606081019081106001600160401b03821117611d4e57604052565b61016081019081106001600160401b03821117611d4e57604052565b602081019081106001600160401b03821117611d4e57604052565b60e081019081106001600160401b03821117611d4e57604052565b90601f801991011681019081106001600160401b03821117611d4e57604052565b9181601f840112156102c9578235916001600160401b0383116102c957602083818601950101116102c957565b60005b83811061335c5750506000910152565b818101518382015260200161334c565b9060209161338581518092818552858086019101613349565b601f01601f1916010190565b9060406003198301126102c9576004356001600160a01b03811681036102c95791602435906001600160401b0382116102c9576133d09160040161331c565b9091565b60609060031901126102c9576001600160a01b039060043582811681036102c9579160243590811681036102c9579060443590565b6064359081600b0b82036102c957565b51906001600160a01b03821682036102c957565b6001600160401b038111611d4e57601f01601f191660200190565b9291926134548261342d565b9161346260405193846132fb565b8294818452818301116102c9578281602093846000960137010152565b908160209103126102c9575180151581036102c95790565b1561349e57565b634e487b7160e01b600052600160045260246000fd5b90815180825260208080930193019160005b8281106134d4575050505090565b8351855293810193928101926001016134c6565b908160609103126102c9578051916040602083015192015190565b604051633acd4df360e21b81526001600160a01b038381166004830152602482019490945281841691606082604481865afa9182156102d5576000926135b0575b5060008212156135a6576040611a9361358561359d936135a3987f000000000000000000000000000000000000000000000000000000000000000016614159565b96909583519060208201526020815261154f81613260565b906142d9565b90565b5050505050600190565b6135ca91925060603d6060116118a85761189881836132fb565b50509038613544565b604051633b982ccf60e11b8152602081600481305afa9081156102d5576000916135fb575090565b90506020813d602011613622575b81613616602093836132fb565b810103126102c9575190565b3d9150613609565b60405190613637826132a9565b81610140600091828152826020820152826040820152826060820152826080820152606060a08201528260c08201528260e082015282610100820152826101208201520152565b80511561368b5760200190565b634e487b7160e01b600052603260045260246000fd5b80516001101561368b5760400190565b805182101561368b5760209160051b010190565b919091600083820193841291129080158216911516176136e157565b634e487b7160e01b600052601160045260246000fd5b929160409182516020916137208160018060a01b0393848a168682015285815261154f81613260565b9661372b8282614089565b1561389c5785516336062c1560e11b815263ffffffff8616600482015284816024818688165afa90811561389157600091613864575b50965b6000986137718484614733565b92909960009b5b8b518d101561383c578989898f8a8f63ffffffff82916137c18e878f6137b2826137a760449b6137b9946136b1565b511680988195613ec2565b9190613497565b511614613497565b519687958694637d6c008d60e01b86521660048501521660248301525afa90811561383157600091613803575b506137fb906001926136c5565b9c019b613778565b908a82813d831161382a575b61381981836132fb565b810103126102f357505160016137ee565b503d61380f565b8c513d6000823e3d90fd5b9650945098509850505061385e94935061385692506136c5565b930151614241565b90600090565b90508481813d831161388a575b61387b81836132fb565b810103126102c9575138613761565b503d613871565b87513d6000823e3d90fd5b6138b56138a8896146ce565b63ffffffff8716906146fa565b96613764565b519081600b0b82036102c957565b90600b0b90600b0b01906b7fffffffffffffffffffffff1982126b7fffffffffffffffffffffff8313176136e157565b60405190602082019246845260806040840152601060a08401526f646973747269627574696f6e466c6f7760801b60c084015260018060a01b03809216606084015216608082015260c0815261394e816132e0565b51902090565b604051906139618261328e565b60006040838281528260208201520152565b6001600160401b038111611d4e5760051b60200190565b9080601f830112156102c9578151906020916139a581613973565b936139b360405195866132fb565b81855260208086019260051b8201019283116102c957602001905b8282106139dc575050505090565b815181529083019083016139ce565b906020828203126102c95781516001600160401b0381116102c9576135a3920161398a565b90600090613a1c613954565b50604051636c2d9f2f60e01b815230600482015260248101919091526001604482015291829060649082906001600160a01b03165afa80156102d557613a6a91600091613aac575b5061367e565b51613a73613954565b8115159182613a8157509091565b8063ffffffff6001600160601b039260c01c1683528060601c600b0b60208401521660408201529091565b613ac991503d806000833e613ac181836132fb565b8101906139eb565b38613a64565b6040519060a082018281106001600160401b03821117611d4e5760405260006080838281528260208201528260408201528260608201520152565b908160209103126102c957516001600160a01b03811681036102c95790565b613b9b91600091613b38613acf565b5080516001600160a01b0391613b5691810160209081019101613b0a565b604051634b61cc3360e01b81523060048201526001600160a01b0390931660248401526000604484015260026064840152919384929190911690829081906084820190565b03915afa80156102d557613bb791600091613bbc575b50614a8c565b905090565b613bd191503d806000833e613ac181836132fb565b38613bb1565b519060ff821682036102c957565b90613bee61362a565b50604080516320bc442560e01b8152909260209291906001600160a01b039084908390600490829085165afa918215613eb757600092613e80575b5033911603613e49578251632fd0a1cd60e21b815260048101839052828180613c55602482018661336c565b0381335afa908115613e3e57600091613e21575b5015613df057906000613c9692845180948192631fb6491d60e11b8352856004840152602483019061336c565b0381335afa928315613de657600093613cb0575b50505090565b9091923d8082863e613cc281866132fb565b84019083858303126102f35784516001600160401b039586821161080b570193610160858403126102f657835195613cf9876132a9565b613d0286613bd7565b8752613d0f828701613bd7565b828801528486015185880152613d2760608701613419565b606088015260808601516001600160e01b0319811681036118d557608088015260a086015190811161080b5785019183601f840112156102f357825193613d79613d708661342d565b965196876132fb565b8486528285850101116102f35750613d9692918482019101613349565b60a083015260c081015160c083015260e081015160e08301526101008082015190830152610120613dc8818301613419565b90830152613dda610140809201613419565b90820152388080613caa565b513d6000823e3d90fd5b50606491519062461bcd60e51b82526004820152600b60248201526a0d2dcecc2d8d2c840c6e8f60ab1b6044820152fd5b613e389150833d85116105925761058481836132fb565b38613c69565b84513d6000823e3d90fd5b50606491519062461bcd60e51b8252600482015260116024820152701d5b985d5d1a1bdc9a5e9959081a1bdcdd607a1b6044820152fd5b9091508381813d8311613eb0575b613e9881836132fb565b810103126102c957613ea990613419565b9038613c29565b503d613e8e565b85513d6000823e3d90fd5b6040516020939291613ed382613260565b60008095838280955201526064613ef260018060a01b03958695613f87565b6040519485938492636c2d9f2f60e01b8452306004850152602484015260016044840152165afa9081156108165790613f31918491613f73575061367e565b519160405191613f4083613260565b818352602083019182528315159384613f5b575b5050509091565b63ffffffff918116845260a01c169052388080613f54565b613ac991503d8086833e613ac181836132fb565b9060018060a01b036040519181602084019446865260806040860152600a60a0860152693837b7b626b2b6b132b960b11b60c086015216606084015216608082015260c0815261394e816132e0565b519063ffffffff821682036102c957565b6040516303e1469160e61b8152909290916020836004816001600160a01b0385165afa9283156102d557600093614046575b506140278361402e92614b04565b809461451e565b9161404183600b0b93600f0b8414614639565b929190565b9092506020813d602011614081575b81614062602093836132fb565b810103126102c95761402761407961402e92613419565b939150614019565b3d9150614055565b604051634b61cc3360e01b81523060048201526001600160a01b039283166024820152600060448201819052600160648301529092909183916084918391165afa80156102d5576140e6600192918392600091613aac575061367e565b51161490565b91906001600160a01b0380821690831614614152576135a3938161414c6141166112089487614317565b926141466141248789614317565b9461412d613954565b50614136613954565b5061414083614dd2565b90614de3565b93614de3565b94614968565b5050905090565b60405163289b3c0d60e01b81526020926001600160a01b039283168483600481845afa9081156102d557846064928795600091614224575b50604051968795869463407b865d60e11b865260048601521660248401527fe420d96e81cb4a6b2abb2366c4f93312d4e2ae878a7d4b22e73472fdad891f786044840152165afa9081156102d5576000916141f7575b5063ffffffff90818116921c1691565b90508181813d831161421d575b61420e81836132fb565b810103126102c95751386141e7565b503d614204565b61423b9150863d881161199d5761198f81836132fb565b38614191565b6001600160ff1b0381116142525790565b60405162461bcd60e51b815260206004820152602860248201527f53616665436173743a2076616c756520646f65736e27742066697420696e2061604482015267371034b73a191a9b60c11b6064820152608490fd5b81156142c357600160ff1b81146000198314166136e1570590565b634e487b7160e01b600052601260045260246000fd5b90929192801561430e576142fa846142f483614300956136c5565b926142a8565b906142a8565b9082039182116136e1571390565b50505050600090565b61432691600091613b38613954565b03915afa9081156102d5576135a39161434691600091613bbc5750614a8c565b90506146ce565b6040519061435a82613260565b81600081526020614369613954565b910152565b61437661434d565b506040805163de7b54d960e01b81529091608090829060049082906001600160a01b03165afa90811561451357600091614475575b506143b461434d565b506143c86001600160801b03825116614241565b9182600f0b928303614422576143dc613954565b5063ffffffff60208301511691606082820151600b0b910151908251936144028561328e565b8452602084015281830152519161441883613260565b8252602082015290565b5162461bcd60e51b815260206004820152602760248201527f53616665436173743a2076616c756520646f65736e27742066697420696e20316044820152663238206269747360c81b6064820152608490fd5b6080813d60801161450b575b8161448e608093836132fb565b810103126102f657825191608083018381106001600160401b038211176144f75784528151906001600160801b03821682036102f3575082526060906144d660208201613fd6565b60208401526144e68482016138bb565b8484015201516060820152386143ab565b634e487b7160e01b82526041600452602482fd5b3d9150614481565b82513d6000823e3d90fd5b80516020926145489290916001600160a01b03916145429181018601908601613b0a565b16613a10565b90500151600b0b90565b6135a39060208082015101519051600f0b90600f0b614b5b565b600f91820b910b0360016001607f1b0319811260016001607f1b038213176136e157600f0b90565b90600f0b90600f0b0160016001607f1b0319811260016001607f1b038213176136e157600f0b90565b929161462c61022f93614636936145d2613954565b506145db61434d565b506145e4613954565b906145ed613954565b506145f6613954565b5061462661460382614552565b9561461e8561461489600f0b614b72565b600f0b8587614b8a565b505096614594565b91614b8a565b94919290956148e6565b92565b1561464057565b60405162461bcd60e51b815260206004820152602660248201527f53616665436173743a2076616c756520646f65736e27742066697420696e203960448201526536206269747360d01b6064820152608490fd5b90816000039180830560001914901517156136e157565b818102929160008212600160ff1b8214166136e15781840514901517156136e157565b9060806146d9613954565b928051600b0b602085015263ffffffff602082015116845201516040830152565b6020810151600f0b9163ffffffff9081808451169116038181116136e1576135a39360409261472a9216906146ab565b910151906136c5565b6040516301a59ea360e21b81526001600160a01b0391821660048201529116602482015260016044820152600160801b60648201526000808260848173__$6040e6113e0e8355239b974a4a8d52be72$__5af4908115610998578092819261479c575b50509091565b91509291503d8084833e6147b081836132fb565b81016040828203126118d55781516001600160401b0390818111610ed55783019282601f85011215610ed5578351936020906147eb86613973565b956147f960405197886132fb565b808752828088019160051b830101918683116148565783809101915b83831061483e5750505050810151918211610ed557614837939495500161398a565b3880614796565b819061484984613fd6565b8152019101908390614815565b8980fd5b919091614865613954565b5061486e61434d565b50600061487961434d565b509261488481614f91565b928151600f0b90816148a3575b50505061463690614140849394614dd2565b614636939295506148ba6148d9926148c5926142a8565b8651600f0b906146ab565b9461414060208201519151600f0b876142a8565b6020840152903880614891565b9190614920602080614953936148fa613954565b9661492663ffffffff91828151168385511680821160001461495d575096878092614e0c565b93614e0c565b9416875261493d60408201516040860151906136c5565b60408801520151910151600f0b90600f0b614594565b600f0b6020830152565b905096878092614e0c565b916020916149768185613b29565b84516001600160a01b03948591614994919088010160208801613b0a565b16604080946060828501519401511515938251946149b18661328e565b6002865283366020880137602083015160a01b63ffffffff60801b845160801b1617906149e76001600160601b03841115614639565b15614a7757640100000000600160801b0360ff60015b169260201b161717614a0e8561367e565b520151614a1a836136a1565b52803b156102c957614a5a946000809486519788958694859363048620af60e11b85521660048401528360248401526060604484015260648301906134b4565b03925af1908115613de65750614a6e575090565b6135a39061327b565b640100000000600160801b0360ff60006149fd565b90614a95613acf565b90614aa9614aa28461367e565b51936136a1565b51831593841594614afa575b84614abe575050565b600181819260a01d600b0b865263ffffffff8160801c1660208701526001600160601b038160201c166040870152161460608401526080830152565b8115159450614ab5565b60405190602082019246845260806040840152601260a084015271706f6f6c41646a7573746d656e74466c6f7760701b60c084015260018060a01b03809216606084015216608082015260c0815261394e816132e0565b90600f0b90600f0b0280600f0b9081036136e15790565b600f0b60016001607f1b031981146136e15760000390565b92614bb261463692614b9a613954565b50614ba361434d565b50614bac61434d565b50614f91565b9060208201614bc2828251614e0c565b90526000614bce61434d565b5091614bd981614f91565b948151600f0b9081614c0a575b505050614bf8614c0191839596614e0c565b91600f0b614b72565b600f0b90614f37565b614bf8929450614c21614c019492614c2c92614fe1565b8551600f0b90614b5b565b93614c4b6020880191614c4583519151600f0b88614fe1565b90614f37565b90529138614be6565b92614cbe61022f91614cc79493614c69613954565b50614c72613954565b50614c7b613954565b90614c84613954565b50614c8d613954565b50614cb86020820151600f0b96614cb185614ca78a614b72565b600f0b8587614f51565b5097614594565b91614f51565b929092946148e6565b91565b91602060848192600060409586519687958694634a0d910160e01b86528051600f0b6004870152015163ffffffff815116602486015287810151600f0b60448601520151606484015260018060a01b03165af180156102d5576135a391600091612e3e5750613497565b60008112614d3f5790565b606460405162461bcd60e51b815260206004820152602060248201527f53616665436173743a2076616c7565206d75737420626520706f7369746976656044820152fd5b90604051614d9081613260565b6001815260203681830137614dcf8193604063ffffffff60c01b825160c01b166001600160601b0360601b602084015160601b1617910151179161367e565b52565b600160ff1b81146136e15760000390565b614df890929192614df2613954565b50614fb5565b91614e08604084019182516136c5565b9052565b919063ffffffff90614e1c613954565b50614e3081614e2a86614fb5565b956146fa565b6040850152168252565b6001600160a01b039593949391929186841687841614614f2d5781614e8e61120892614e74614e6e8a614e9699989761451e565b8961456c565b614e7e8785614317565b614e888786614317565b90614c54565b949091614968565b92614eaa6020855186010160208601613b0a565b1691614ef7614eb98285613a10565b939050614ece81600b0b91600f0b8214614639565b604080940151845191614ee08361328e565b63ffffffff42168352602083015284820152614d83565b833b156102c957614a5a9360009283855180978195829463a1b2bf8b60e01b8452600484015288602484015260448301906134b4565b5094505050505090565b614f4690929192614df2613954565b91600f0b6020830152565b83614f86614f7a6135a395949796614f8c94614f6b613954565b50614f74613954565b50614e0c565b614c0185600f0b614b72565b95614e0c565b614f37565b90614fae6020614f9f61434d565b938051600f0b85520151614fb5565b6020830152565b906040614fc0613954565b9263ffffffff81511684526020810151600f0b602085015201516040830152565b600f0b90600f0b9081156142c35760016001607f1b031981146000198314166136e15705600f0b9056fef357a2e6919da4efedb0301baf1caaed2bca70b115b913f9add41bbefc75c9b3a264697066735822122096789cc3b983675b19d6285a63c49f93d5f54d3784c0db3dee850d83ac303aee64736f6c63430008170033","linkReferences":{"lib/superfluid-protocol-monorepo/packages/ethereum-contracts/contracts/agreements/gdav1/SuperfluidPoolDeployerLibrary.sol":{"SuperfluidPoolDeployerLibrary":[{"start":9754,"length":20},{"start":12486,"length":20}]},"lib/superfluid-protocol-monorepo/packages/ethereum-contracts/contracts/libs/SlotsBitmapLibrary.sol":{"SlotsBitmapLibrary":[{"start":1267,"length":20},{"start":9697,"length":20},{"start":10723,"length":20},{"start":11404,"length":20},{"start":11887,"length":20},{"start":18501,"length":20}]}}},"methodIdentifiers":{"SLOTS_BITMAP_LIBRARY_ADDRESS()":"3fd4176a","SUPERFLUID_POOL_DEPLOYER_ADDRESS()":"3c56f090","agreementType()":"7730599e","appendIndexUpdateByPool(address,(uint32,int128,int256),uint32)":"fa48736d","castrate()":"9903ad38","claimAll(address,address,bytes)":"d2c0d542","connectPool(address,bool,bytes)":"10dc8792","connectPool(address,bytes)":"f0b7b915","createPool(address,address,(bool,bool))":"0779d365","disconnectPool(address,bytes)":"30925b79","distribute(address,address,address,uint256,bytes)":"6d1007a6","distributeFlow(address,address,address,int96,bytes)":"5a6c6dbc","estimateDistributionActualAmount(address,address,address,uint256)":"eccfc6a5","estimateFlowDistributionActualFlowRate(address,address,address,int96)":"4d5c91ec","getAccountFlowInfo(address,address)":"0f1ac495","getCodeAddress()":"50d75d25","getFlow(address,address,address)":"e6a1e888","getFlowRate(address,address,address)":"0735d750","getNetFlow(address,address)":"e8e7e2d1","getPoolAdjustmentFlowInfo(address)":"37bd42e0","getPoolAdjustmentFlowRate(address)":"4e9ced57","isMemberConnected(address,address)":"c782eb9c","isPatricianPeriod(address,address,uint256)":"4b839e0b","isPatricianPeriodNow(address,address)":"4fe9c291","isPool(address,address)":"7b2cc0da","poolSettleClaim(address,address,int256)":"4543b745","proxiableUUID()":"52d1902d","realtimeBalanceOf(address,address,uint256)":"9b2e48bc","realtimeBalanceOfNow(address,address)":"5cfd50d7","superfluidPoolBeacon()":"5437dd97","updateCode(address)":"46951954","updateMemberUnits(address,address,uint128,bytes)":"398c74e1"},"id":69}