{"abi":[{"type":"constructor","inputs":[{"name":"host","type":"address","internalType":"contract ISuperfluid"}],"stateMutability":"nonpayable"},{"type":"function","name":"claimAll","inputs":[{"name":"pool","type":"address","internalType":"contract ISuperfluidPool"},{"name":"memberAddress","type":"address","internalType":"address"},{"name":"userData","type":"bytes","internalType":"bytes"}],"outputs":[{"name":"success","type":"bool","internalType":"bool"}],"stateMutability":"nonpayable"},{"type":"function","name":"connectPool","inputs":[{"name":"pool","type":"address","internalType":"contract ISuperfluidPool"},{"name":"userData","type":"bytes","internalType":"bytes"}],"outputs":[{"name":"","type":"bool","internalType":"bool"}],"stateMutability":"nonpayable"},{"type":"function","name":"createPool","inputs":[{"name":"token","type":"address","internalType":"contract ISuperfluidToken"},{"name":"admin","type":"address","internalType":"address"},{"name":"config","type":"tuple","internalType":"struct PoolConfig","components":[{"name":"transferabilityForUnitsOwner","type":"bool","internalType":"bool"},{"name":"distributionFromAnyAddress","type":"bool","internalType":"bool"}]}],"outputs":[{"name":"success","type":"bool","internalType":"bool"},{"name":"pool","type":"address","internalType":"contract ISuperfluidPool"}],"stateMutability":"nonpayable"},{"type":"function","name":"disconnectPool","inputs":[{"name":"pool","type":"address","internalType":"contract ISuperfluidPool"},{"name":"userData","type":"bytes","internalType":"bytes"}],"outputs":[{"name":"","type":"bool","internalType":"bool"}],"stateMutability":"nonpayable"},{"type":"function","name":"distribute","inputs":[{"name":"token","type":"address","internalType":"contract ISuperfluidToken"},{"name":"from","type":"address","internalType":"address"},{"name":"pool","type":"address","internalType":"contract ISuperfluidPool"},{"name":"requestedAmount","type":"uint256","internalType":"uint256"},{"name":"userData","type":"bytes","internalType":"bytes"}],"outputs":[{"name":"","type":"bool","internalType":"bool"}],"stateMutability":"nonpayable"},{"type":"function","name":"distributeFlow","inputs":[{"name":"token","type":"address","internalType":"contract ISuperfluidToken"},{"name":"from","type":"address","internalType":"address"},{"name":"pool","type":"address","internalType":"contract ISuperfluidPool"},{"name":"requestedFlowRate","type":"int96","internalType":"int96"},{"name":"userData","type":"bytes","internalType":"bytes"}],"outputs":[{"name":"","type":"bool","internalType":"bool"}],"stateMutability":"nonpayable"},{"type":"function","name":"estimateDistributionActualAmount","inputs":[{"name":"token","type":"address","internalType":"contract ISuperfluidToken"},{"name":"from","type":"address","internalType":"address"},{"name":"to","type":"address","internalType":"contract ISuperfluidPool"},{"name":"requestedAmount","type":"uint256","internalType":"uint256"}],"outputs":[{"name":"actualAmount","type":"uint256","internalType":"uint256"}],"stateMutability":"view"},{"type":"function","name":"estimateFlowDistributionActualFlowRate","inputs":[{"name":"token","type":"address","internalType":"contract ISuperfluidToken"},{"name":"from","type":"address","internalType":"address"},{"name":"to","type":"address","internalType":"contract ISuperfluidPool"},{"name":"requestedFlowRate","type":"int96","internalType":"int96"}],"outputs":[{"name":"actualFlowRate","type":"int96","internalType":"int96"},{"name":"totalDistributionFlowRate","type":"int96","internalType":"int96"}],"stateMutability":"view"},{"type":"function","name":"getFlowDistributionFlowRate","inputs":[{"name":"token","type":"address","internalType":"contract ISuperfluidToken"},{"name":"from","type":"address","internalType":"address"},{"name":"to","type":"address","internalType":"contract ISuperfluidPool"}],"outputs":[{"name":"","type":"int96","internalType":"int96"}],"stateMutability":"view"},{"type":"function","name":"getNetFlow","inputs":[{"name":"token","type":"address","internalType":"contract ISuperfluidToken"},{"name":"account","type":"address","internalType":"address"}],"outputs":[{"name":"","type":"int96","internalType":"int96"}],"stateMutability":"view"},{"type":"function","name":"getPoolAdjustmentFlowInfo","inputs":[{"name":"pool","type":"address","internalType":"contract ISuperfluidPool"}],"outputs":[{"name":"","type":"address","internalType":"address"},{"name":"","type":"bytes32","internalType":"bytes32"},{"name":"","type":"int96","internalType":"int96"}],"stateMutability":"view"},{"type":"function","name":"getPoolAdjustmentFlowRate","inputs":[{"name":"pool","type":"address","internalType":"address"}],"outputs":[{"name":"","type":"int96","internalType":"int96"}],"stateMutability":"view"},{"type":"function","name":"isMemberConnected","inputs":[{"name":"pool","type":"address","internalType":"contract ISuperfluidPool"},{"name":"member","type":"address","internalType":"address"}],"outputs":[{"name":"","type":"bool","internalType":"bool"}],"stateMutability":"view"},{"type":"function","name":"isPool","inputs":[{"name":"token","type":"address","internalType":"contract ISuperfluidToken"},{"name":"account","type":"address","internalType":"address"}],"outputs":[{"name":"","type":"bool","internalType":"bool"}],"stateMutability":"view"},{"type":"function","name":"updateMemberUnits","inputs":[{"name":"pool","type":"address","internalType":"contract ISuperfluidPool"},{"name":"memberAddress","type":"address","internalType":"address"},{"name":"newUnits","type":"uint128","internalType":"uint128"},{"name":"userData","type":"bytes","internalType":"bytes"}],"outputs":[{"name":"success","type":"bool","internalType":"bool"}],"stateMutability":"nonpayable"}],"bytecode":{"object":"0x60c080604052346200015a576020816200148180380380916200002382856200015f565b8339810103126200015a57516001600160a01b0390818116908181036200015a57608052604051635b69006f60e11b81527fdfd8ece9bfbcb8c5c540edb935641f63d67686490a1ab97f000288759f30a946600482015290602090829060249082905afa9081156200014e5760009162000105575b501660a0526040516112e790816200019a82396080518161110e015260a051818181610257015281816103d20152818161044e015281816105d60152818161067a015281816107820152818161084501528181610a7a01528181610b4701528181610c930152610d6d0152f35b6020813d60201162000145575b8162000121602093836200015f565b810103126200014157519082821682036200013e57503862000098565b80fd5b5080fd5b3d915062000112565b6040513d6000823e3d90fd5b600080fd5b601f909101601f19168101906001600160401b038211908210176200018357604052565b634e487b7160e01b600052604160045260246000fdfe6080604052600436101561001257600080fd5b60003560e01c80630779d3651461010757806330925b791461010257806337bd42e0146100fd578063398c74e1146100f857806344999ff7146100f35780634d5c91ec146100ee5780634e9ced57146100e95780635a6c6dbc146100e45780636d1007a6146100df5780637b2cc0da146100da578063c782eb9c146100d5578063d2c0d542146100d0578063e8e7e2d1146100cb578063eccfc6a5146100c65763f0b7b915146100c157600080fd5b610de1565b610cf7565b610c4c565b610bad565b610aed565b610a33565b610957565b61088e565b610800565b6106fe565b61060d565b610507565b610409565b610384565b6101b0565b6001600160a01b0381160361011d57565b600080fd5b634e487b7160e01b600052604160045260246000fd5b6040810190811067ffffffffffffffff82111761015457604052565b610122565b6060810190811067ffffffffffffffff82111761015457604052565b90601f8019910116810190811067ffffffffffffffff82111761015457604052565b604051906101a482610159565b565b8015150361011d57565b3461011d57608036600319011261011d576004356101cd8161010c565b602435906101da8261010c565b604036604319011261011d576020906084604051916101f883610138565b604435610204816101a6565b8352600060643593610215856101a6565b808601948552604051630779d36560e01b81526001600160a01b03938416600482015296831660248801525115156044870152925115156064860152849283917f0000000000000000000000000000000000000000000000000000000000000000165af180156102e0576102ad916000916102b1575b5060408051600181526001600160a01b03909216602083015290918291820190565b0390f35b6102d3915060203d6020116102d9575b6102cb8183610175565b810190610e1f565b3861028b565b503d6102c1565b610e34565b67ffffffffffffffff811161015457601f01601f191660200190565b81601f8201121561011d57803590610318826102e5565b926103266040519485610175565b8284526020838301011161011d57816000926020809301838601378301015290565b90604060031983011261011d576004356103618161010c565b916024359067ffffffffffffffff821161011d5761038191600401610301565b90565b3461011d5760206103ff61039736610348565b906103d06103a3610e40565b6040516330925b7960e01b878201529283916103c29160248401610eb1565b03601f198101835282610175565b7f00000000000000000000000000000000000000000000000000000000000000006001600160a01b0316610f79565b6040519015158152f35b3461011d57602036600319011261011d576024606060043561042a8161010c565b6040516301bdea1760e51b81526001600160a01b03918216600482015292839182907f0000000000000000000000000000000000000000000000000000000000000000165afa80156102e057600090819282916104ac575b50604080516001600160a01b039390931683526020830193909352600b0b91810191909152606090f35b9250506060823d6060116104ff575b816104c860609383610175565b810103126104fc57508051906104dd8261010c565b6102ad60406020830151920151926104f4846106f3565b919290610482565b80fd5b3d91506104bb565b3461011d57608036600319011261011d576004356105248161010c565b602435906105318261010c565b604435906fffffffffffffffffffffffffffffffff821680920361011d576064359167ffffffffffffffff831161011d576102ad936105d461057a6105fb953690600401610301565b936105c6610586610e40565b60405195869363398c74e160e01b602086015260018060a01b039687809216602487015216604485015260648401526080608484015260a4830190610e8c565b03601f198101845283610175565b7f000000000000000000000000000000000000000000000000000000000000000016610f79565b60405190151581529081906020820190565b3461011d57606036600319011261011d5760043561062a8161010c565b6020602435916106398361010c565b6064604435916106488361010c565b60405162735d7560e41b81526001600160a01b03918216600482015294811660248601529182166044850152839182907f0000000000000000000000000000000000000000000000000000000000000000165afa80156102e0576102ad916000916106c4575b50604051600b9190910b81529081906020820190565b6106e6915060203d6020116106ec575b6106de8183610175565b810190610ed3565b386106ae565b503d6106d4565b80600b0b0361011d57565b3461011d57608036600319011261011d5760043561071b8161010c565b60406024359161072a8361010c565b6084604435916107398361010c565b60643592610746846106f3565b8451631357247b60e21b81526001600160a01b039283166004820152958216602487015281166044860152600b9290920b6064850152839182907f0000000000000000000000000000000000000000000000000000000000000000165afa9081156102e0576000906000926107ce575b5060408051600b92830b81529290910b602083015290f35b90506107f2915060403d6040116107f9575b6107ea8183610175565b810190610ee8565b90386107b6565b503d6107e0565b3461011d57602036600319011261011d57602460206004356108218161010c565b604051634e9ced5760e01b81526001600160a01b03918216600482015292839182907f0000000000000000000000000000000000000000000000000000000000000000165afa80156102e0576102ad916000916106c45750604051600b9190910b81529081906020820190565b3461011d5760a036600319011261011d576004356108ab8161010c565b602435906108b88261010c565b604435906108c58261010c565b606435906108d2826106f3565b6084359367ffffffffffffffff851161011d576105d46105fb946105c66109006102ad983690600401610301565b95610909610e40565b60405163169b1b6f60e21b60208201526001600160a01b03978816602482015295871660448701529286166064860152600b0b608485015260a060a4850152929392849160c4830190610e8c565b3461011d5760a036600319011261011d576004356109748161010c565b602435906109818261010c565b60443561098d8161010c565b6084359167ffffffffffffffff831161011d576102ad936105d46109b86105fb953690600401610301565b936105c66109c4610e40565b60405195869363368803d360e11b602086015260018060a01b038097818094166024880152166044860152166064840152606435608484015260a060a484015260c4830190610e8c565b604090600319011261011d57600435610a268161010c565b906024356103818161010c565b3461011d57610a766020610a4636610a0e565b604051633d96606d60e11b81526001600160a01b0392831660048201529116602482015291829081906044820190565b03817f00000000000000000000000000000000000000000000000000000000000000006001600160a01b03165afa80156102e057602091600091610ac0575b506040519015158152f35b610ae09150823d8411610ae6575b610ad88183610175565b810190610f0d565b38610ab5565b503d610ace565b3461011d57604036600319011261011d57600435610b0a8161010c565b602060243591610b198361010c565b6040516331e0bae760e21b81526001600160a01b0391821660048201529281166024840152829060449082907f0000000000000000000000000000000000000000000000000000000000000000165afa80156102e0576102ad91600091610b8e575b5060405190151581529081906020820190565b610ba7915060203d602011610ae657610ad88183610175565b38610b7b565b3461011d57606036600319011261011d57600435610bca8161010c565b602435610bd68161010c565b6044359067ffffffffffffffff821161011d576102ad92610bfe6105fb933690600401610301565b916105d4610c0a610e40565b6040516369606aa160e11b60208201526001600160a01b03948516602482015292841660448401526060606484015291929183906105c6906084830190610e8c565b3461011d57610c8f6020610c5f36610a0e565b60405163e8e7e2d160e01b81526001600160a01b0392831660048201529116602482015291829081906044820190565b03817f00000000000000000000000000000000000000000000000000000000000000006001600160a01b03165afa80156102e057602091600091610cda575b5060405190600b0b8152f35b610cf19150823d84116106ec576106de8183610175565b38610cce565b3461011d57608036600319011261011d57600435610d148161010c565b602060243591610d238361010c565b608460443591610d328361010c565b60405163eccfc6a560e01b81526001600160a01b039182166004820152948116602486015291821660448501526064803590850152839182907f0000000000000000000000000000000000000000000000000000000000000000165afa80156102e0576102ad91600091610db2575b506040519081529081906020820190565b610dd4915060203d602011610dda575b610dcc8183610175565b810190610f22565b38610da1565b503d610dc2565b3461011d5760206103ff610df436610348565b906103d0610e00610e40565b60405163f0b7b91560e01b878201529283916103c29160248401610eb1565b9081602091031261011d57516103818161010c565b6040513d6000823e3d90fd5b6040516020810181811067ffffffffffffffff8211176101545760405260008152906000368137565b60005b838110610e7c5750506000910152565b8181015183820152602001610e6c565b90602091610ea581518092818552858086019101610e69565b601f01601f1916010190565b6001600160a01b03909116815260406020820181905261038192910190610e8c565b9081602091031261011d5751610381816106f3565b919082604091031261011d5760208251610f01816106f3565b920151610381816106f3565b9081602091031261011d5751610381816101a6565b9081602091031261011d575190565b9091610f4861038193604084526040840190610e8c565b916020818403910152610e8c565b805115610f635760200190565b634e487b7160e01b600052603260045260246000fd5b906040805194610f8886610138565b6001865260009360005b602080821015610fc457845160209291610fab82610159565b8882528881830152606087830152828b01015201610f92565b505092610fe6919694506103819592506103c260405193849260208401610f31565b611006610ff1610197565b60c98152926001600160a01b03166020840152565b604082015261101482610f56565b5261101e81610f56565b50611085565b60209061103a6014949382815194859201610e69565b01906bffffffffffffffffffffffff199060601b1681520190565b3d15611080573d90611066826102e5565b916110746040519384610175565b82523d6000602084013e565b606090565b604080519160209163670e77e360e01b8385015260448401836024860152825180915260648501918460648360051b8801019401926000915b838310611151575050505050916110fd6111096000949383869503906110ec601f1992838101875286610175565b604051938491820195339087611024565b03908101835282610175565b5190827f00000000000000000000000000000000000000000000000000000000000000006001600160a01b03165af1611140611055565b901561114c5750600190565b6111ee565b909192939486806111956001936063198c820301875289518660609163ffffffff8151168452878060a01b0386820151168685015201519181888201520190610e8c565b970193019301919392906110be565b604051906111b182610138565b602082527f43616c6c5574696c733a207461726765742070616e69636b65643a2030785f5f6020830152565b906020610381928181520190610e8c565b80519060048210156112435760405162461bcd60e51b815260206004820152601a60248201527f43616c6c5574696c733a207461726765742072657665727428290000000000006044820152606490fd5b0390fd5b6020810180516001600160e01b031916634e487b7160e01b036112ad5761123f82602461126e6111a4565b91015160208201908151906030600f81818416019260041c160160081b179061ffff191617905260405191829162461bcd60e51b8352600483016111dd565b9050fdfea26469706673582212205e41415ea75a6914b4b63d9756047aa63adad730cea407e1dc76e989db1c9f8064736f6c63430008170033","linkReferences":{}},"methodIdentifiers":{"claimAll(address,address,bytes)":"d2c0d542","connectPool(address,bytes)":"f0b7b915","createPool(address,address,(bool,bool))":"0779d365","disconnectPool(address,bytes)":"30925b79","distribute(address,address,address,uint256,bytes)":"6d1007a6","distributeFlow(address,address,address,int96,bytes)":"5a6c6dbc","estimateDistributionActualAmount(address,address,address,uint256)":"eccfc6a5","estimateFlowDistributionActualFlowRate(address,address,address,int96)":"4d5c91ec","getFlowDistributionFlowRate(address,address,address)":"44999ff7","getNetFlow(address,address)":"e8e7e2d1","getPoolAdjustmentFlowInfo(address)":"37bd42e0","getPoolAdjustmentFlowRate(address)":"4e9ced57","isMemberConnected(address,address)":"c782eb9c","isPool(address,address)":"7b2cc0da","updateMemberUnits(address,address,uint128,bytes)":"398c74e1"},"id":122}