{"abi":[{"type":"constructor","inputs":[{"name":"resolver","type":"address","internalType":"contract IResolver"}],"stateMutability":"nonpayable"},{"type":"function","name":"loadFramework","inputs":[{"name":"releaseVersion","type":"string","internalType":"string"}],"outputs":[{"name":"result","type":"tuple","internalType":"struct SuperfluidLoader.Framework","components":[{"name":"superfluid","type":"address","internalType":"contract ISuperfluid"},{"name":"superTokenFactory","type":"address","internalType":"contract ISuperTokenFactory"},{"name":"agreementCFAv1","type":"address","internalType":"contract ISuperAgreement"},{"name":"agreementIDAv1","type":"address","internalType":"contract ISuperAgreement"},{"name":"agreementGDAv1","type":"address","internalType":"contract ISuperAgreement"}]}],"stateMutability":"view"}],"bytecode":{"object":"0x60a03461006a57601f61051238819003918201601f19168301916001600160401b0383118484101761006f5780849260209460405283398101031261006a57516001600160a01b038116810361006a5760805260405161048c90816100868239608051816101310152f35b600080fd5b634e487b7160e01b600052604160045260246000fdfe60806004908136101561001157600080fd5b600091823560e01c63f490e2f01461002857600080fd5b346103f6576020806003193601126103f257813567ffffffffffffffff918282116103ee57366023830112156103ee5781840135938385116103ea57602490368287860101116103e65760a08701948511878610176103d55791869391889593604094855286865282860191878352806100ee602b888a01978b8952608060608c019b8d8d52019b808d5260018060a01b039d808c519687946a29bab832b933363ab4b21760a91b8d87015201858501378201908382015203600b8101845201826103fa565b848c885192839163349f642f60e11b835283878401528151918287850152815b8381106103b55750508183916044809484010152601f801991011681010301818d7f0000000000000000000000000000000000000000000000000000000000000000165afa908c82156103aa57849287928d929161036f575b5016808d52885163398d76b760e11b815292839182905afa90811561036557908a918d91610327575b50168352888a5116865185818481635b69006f60e11b958682527fa9214cc96615e0085d3bb077758db69497dc2dce3b2b1e97bc93c3d18d83efd3898301525afa908d82156102ff57908c9261030a575b5016865281858b8d51168951928380928682527f8aedc3b5d4bf031e11a7e2940f7251c005698405d58e02e1c247fed3b1b3a674898301525afa908d82156102ff578794927fdfd8ece9bfbcb8c5c540edb935641f63d67686490a1ab97f000288759f30a9469694928e92916102e2575b50168a528b8d51168951958694859384528301525afa9081156102d857889695949287809593819360a09e916102ab575b501689528186519b51168b525116908901525116908601525116606084015251166080820152f35b6102cb9150853d87116102d1575b6102c381836103fa565b810190610432565b38610283565b503d6102b9565b85513d8c823e3d90fd5b6102f99150863d88116102d1576102c381836103fa565b38610252565b8951903d90823e3d90fd5b6103219150873d89116102d1576102c381836103fa565b386101e1565b809250868092503d831161035e575b61034081836103fa565b8101031261035a5751898116810361035a57899038610190565b8b80fd5b503d610336565b87513d8e823e3d90fd5b9350505081813d83116103a3575b61038781836103fa565b8101031261035a5751898116810361035a57848a849238610167565b503d61037d565b8851903d90823e3d90fd5b818694969295508193500101516044828701015201918e8492899461010e565b634e487b7160e01b88526041905286fd5b8780fd5b8680fd5b8580fd5b8380fd5b8280fd5b90601f8019910116810190811067ffffffffffffffff82111761041c57604052565b634e487b7160e01b600052604160045260246000fd5b9081602091031261045157516001600160a01b03811681036104515790565b600080fdfea2646970667358221220d9318cefeda7effba044e29cde6315376ace59a4ef9aa3df3e12be6b5944ca3664736f6c63430008170033","linkReferences":{}},"methodIdentifiers":{"loadFramework(string)":"f490e2f0"},"id":127}