{"abi":[{"type":"constructor","inputs":[{"name":"gda","type":"address","internalType":"contract GeneralDistributionAgreementV1"}],"stateMutability":"nonpayable"},{"type":"function","name":"GDA","inputs":[],"outputs":[{"name":"","type":"address","internalType":"contract GeneralDistributionAgreementV1"}],"stateMutability":"view"},{"type":"function","name":"admin","inputs":[],"outputs":[{"name":"","type":"address","internalType":"address"}],"stateMutability":"view"},{"type":"function","name":"allowance","inputs":[{"name":"owner","type":"address","internalType":"address"},{"name":"spender","type":"address","internalType":"address"}],"outputs":[{"name":"","type":"uint256","internalType":"uint256"}],"stateMutability":"view"},{"type":"function","name":"approve","inputs":[{"name":"spender","type":"address","internalType":"address"},{"name":"amount","type":"uint256","internalType":"uint256"}],"outputs":[{"name":"","type":"bool","internalType":"bool"}],"stateMutability":"nonpayable"},{"type":"function","name":"balanceOf","inputs":[{"name":"account","type":"address","internalType":"address"}],"outputs":[{"name":"","type":"uint256","internalType":"uint256"}],"stateMutability":"view"},{"type":"function","name":"castrate","inputs":[],"outputs":[],"stateMutability":"nonpayable"},{"type":"function","name":"claimAll","inputs":[{"name":"memberAddr","type":"address","internalType":"address"}],"outputs":[{"name":"","type":"bool","internalType":"bool"}],"stateMutability":"nonpayable"},{"type":"function","name":"claimAll","inputs":[],"outputs":[{"name":"","type":"bool","internalType":"bool"}],"stateMutability":"nonpayable"},{"type":"function","name":"decreaseAllowance","inputs":[{"name":"spender","type":"address","internalType":"address"},{"name":"subtractedValue","type":"uint256","internalType":"uint256"}],"outputs":[{"name":"","type":"bool","internalType":"bool"}],"stateMutability":"nonpayable"},{"type":"function","name":"distributionFromAnyAddress","inputs":[],"outputs":[{"name":"","type":"bool","internalType":"bool"}],"stateMutability":"view"},{"type":"function","name":"getClaimable","inputs":[{"name":"memberAddr","type":"address","internalType":"address"},{"name":"time","type":"uint32","internalType":"uint32"}],"outputs":[{"name":"","type":"int256","internalType":"int256"}],"stateMutability":"view"},{"type":"function","name":"getClaimableNow","inputs":[{"name":"memberAddr","type":"address","internalType":"address"}],"outputs":[{"name":"claimableBalance","type":"int256","internalType":"int256"},{"name":"timestamp","type":"uint256","internalType":"uint256"}],"stateMutability":"view"},{"type":"function","name":"getDisconnectedBalance","inputs":[{"name":"time","type":"uint32","internalType":"uint32"}],"outputs":[{"name":"balance","type":"int256","internalType":"int256"}],"stateMutability":"view"},{"type":"function","name":"getMemberFlowRate","inputs":[{"name":"memberAddr","type":"address","internalType":"address"}],"outputs":[{"name":"","type":"int96","internalType":"int96"}],"stateMutability":"view"},{"type":"function","name":"getTotalAmountReceivedByMember","inputs":[{"name":"memberAddr","type":"address","internalType":"address"}],"outputs":[{"name":"","type":"uint256","internalType":"uint256"}],"stateMutability":"view"},{"type":"function","name":"getTotalConnectedFlowRate","inputs":[],"outputs":[{"name":"","type":"int96","internalType":"int96"}],"stateMutability":"view"},{"type":"function","name":"getTotalConnectedUnits","inputs":[],"outputs":[{"name":"","type":"uint128","internalType":"uint128"}],"stateMutability":"view"},{"type":"function","name":"getTotalDisconnectedFlowRate","inputs":[],"outputs":[{"name":"flowRate","type":"int96","internalType":"int96"}],"stateMutability":"view"},{"type":"function","name":"getTotalDisconnectedUnits","inputs":[],"outputs":[{"name":"","type":"uint128","internalType":"uint128"}],"stateMutability":"view"},{"type":"function","name":"getTotalFlowRate","inputs":[],"outputs":[{"name":"","type":"int96","internalType":"int96"}],"stateMutability":"view"},{"type":"function","name":"getTotalUnits","inputs":[],"outputs":[{"name":"","type":"uint128","internalType":"uint128"}],"stateMutability":"view"},{"type":"function","name":"getUnits","inputs":[{"name":"memberAddr","type":"address","internalType":"address"}],"outputs":[{"name":"","type":"uint128","internalType":"uint128"}],"stateMutability":"view"},{"type":"function","name":"increaseAllowance","inputs":[{"name":"spender","type":"address","internalType":"address"},{"name":"addedValue","type":"uint256","internalType":"uint256"}],"outputs":[{"name":"","type":"bool","internalType":"bool"}],"stateMutability":"nonpayable"},{"type":"function","name":"initialize","inputs":[{"name":"admin_","type":"address","internalType":"address"},{"name":"superToken_","type":"address","internalType":"contract ISuperfluidToken"},{"name":"transferabilityForUnitsOwner_","type":"bool","internalType":"bool"},{"name":"distributionFromAnyAddress_","type":"bool","internalType":"bool"}],"outputs":[],"stateMutability":"nonpayable"},{"type":"function","name":"operatorConnectMember","inputs":[{"name":"memberAddr","type":"address","internalType":"address"},{"name":"doConnect","type":"bool","internalType":"bool"},{"name":"time","type":"uint32","internalType":"uint32"}],"outputs":[{"name":"","type":"bool","internalType":"bool"}],"stateMutability":"nonpayable"},{"type":"function","name":"operatorSetIndex","inputs":[{"name":"index","type":"tuple","internalType":"struct PDPoolIndex","components":[{"name":"total_units","type":"int128","internalType":"Unit"},{"name":"_wrapped_particle","type":"tuple","internalType":"struct BasicParticle","components":[{"name":"_settled_at","type":"uint32","internalType":"Time"},{"name":"_flow_rate","type":"int128","internalType":"FlowRate"},{"name":"_settled_value","type":"int256","internalType":"Value"}]}]}],"outputs":[{"name":"","type":"bool","internalType":"bool"}],"stateMutability":"nonpayable"},{"type":"function","name":"poolOperatorGetIndex","inputs":[],"outputs":[{"name":"","type":"tuple","internalType":"struct SuperfluidPool.PoolIndexData","components":[{"name":"totalUnits","type":"uint128","internalType":"uint128"},{"name":"wrappedSettledAt","type":"uint32","internalType":"uint32"},{"name":"wrappedFlowRate","type":"int96","internalType":"int96"},{"name":"wrappedSettledValue","type":"int256","internalType":"int256"}]}],"stateMutability":"view"},{"type":"function","name":"proxiableUUID","inputs":[],"outputs":[{"name":"","type":"bytes32","internalType":"bytes32"}],"stateMutability":"pure"},{"type":"function","name":"superToken","inputs":[],"outputs":[{"name":"","type":"address","internalType":"contract ISuperfluidToken"}],"stateMutability":"view"},{"type":"function","name":"totalSupply","inputs":[],"outputs":[{"name":"","type":"uint256","internalType":"uint256"}],"stateMutability":"view"},{"type":"function","name":"transfer","inputs":[{"name":"to","type":"address","internalType":"address"},{"name":"amount","type":"uint256","internalType":"uint256"}],"outputs":[{"name":"","type":"bool","internalType":"bool"}],"stateMutability":"nonpayable"},{"type":"function","name":"transferFrom","inputs":[{"name":"from","type":"address","internalType":"address"},{"name":"to","type":"address","internalType":"address"},{"name":"amount","type":"uint256","internalType":"uint256"}],"outputs":[{"name":"","type":"bool","internalType":"bool"}],"stateMutability":"nonpayable"},{"type":"function","name":"transferabilityForUnitsOwner","inputs":[],"outputs":[{"name":"","type":"bool","internalType":"bool"}],"stateMutability":"view"},{"type":"function","name":"updateMemberUnits","inputs":[{"name":"memberAddr","type":"address","internalType":"address"},{"name":"newUnits","type":"uint128","internalType":"uint128"}],"outputs":[{"name":"","type":"bool","internalType":"bool"}],"stateMutability":"nonpayable"},{"type":"event","name":"Approval","inputs":[{"name":"owner","type":"address","indexed":true,"internalType":"address"},{"name":"spender","type":"address","indexed":true,"internalType":"address"},{"name":"value","type":"uint256","indexed":false,"internalType":"uint256"}],"anonymous":false},{"type":"event","name":"DistributionClaimed","inputs":[{"name":"token","type":"address","indexed":true,"internalType":"contract ISuperfluidToken"},{"name":"member","type":"address","indexed":true,"internalType":"address"},{"name":"claimedAmount","type":"int256","indexed":false,"internalType":"int256"},{"name":"totalClaimed","type":"int256","indexed":false,"internalType":"int256"}],"anonymous":false},{"type":"event","name":"Initialized","inputs":[{"name":"version","type":"uint8","indexed":false,"internalType":"uint8"}],"anonymous":false},{"type":"event","name":"MemberUnitsUpdated","inputs":[{"name":"token","type":"address","indexed":true,"internalType":"contract ISuperfluidToken"},{"name":"member","type":"address","indexed":true,"internalType":"address"},{"name":"oldUnits","type":"uint128","indexed":false,"internalType":"uint128"},{"name":"newUnits","type":"uint128","indexed":false,"internalType":"uint128"}],"anonymous":false},{"type":"event","name":"Transfer","inputs":[{"name":"from","type":"address","indexed":true,"internalType":"address"},{"name":"to","type":"address","indexed":true,"internalType":"address"},{"name":"value","type":"uint256","indexed":false,"internalType":"uint256"}],"anonymous":false},{"type":"error","name":"SUPERFLUID_POOL_INVALID_TIME","inputs":[]},{"type":"error","name":"SUPERFLUID_POOL_NOT_GDA","inputs":[]},{"type":"error","name":"SUPERFLUID_POOL_NOT_POOL_ADMIN_OR_GDA","inputs":[]},{"type":"error","name":"SUPERFLUID_POOL_NO_POOL_MEMBERS","inputs":[]},{"type":"error","name":"SUPERFLUID_POOL_NO_ZERO_ADDRESS","inputs":[]},{"type":"error","name":"SUPERFLUID_POOL_SELF_TRANSFER_NOT_ALLOWED","inputs":[]},{"type":"error","name":"SUPERFLUID_POOL_TRANSFER_UNITS_NOT_ALLOWED","inputs":[]}],"bytecode":{"object":"0x60a0346100a257601f612a4c38819003918201601f19168301916001600160401b038311848410176100a7578084926020946040528339810103126100a257516001600160a01b03811681036100a25760805260405161298e90816100be82396080518181816101ff0152818161039b01528181610afe01528181610ebf015281816111ee01528181611663015281816117a801528181611b12015261246a0152f35b600080fd5b634e487b7160e01b600052604160045260246000fdfe6040608081526004908136101561001557600080fd5b600091823560e01c908163095ea7b314610ee85781630fefbc09146109ec57816318160ddd146106685781631b16777714610e4b57816321dd577714610d2f57816323b872dd14610ca85781632b4116f714610c7c5781633950935114610c155781634a0d910114610ae957816352d1902d14610aae578163539e8c1c14610a885781636c0c582a14610a3157816370a08231146109ec57816377329f35146109c6578163785e734c146109575781637d6c008d146109225781637e80bd5e146108fe57816389287e0a146107995781639903ad38146106e0578163a457c2d714610690578163a754a70214610668578163a9059cbb1461063e578163a94ff34014610621578163b3b3f1cc146105e9578163cb8599f0146105c2578163d1058e591461059b578163d4f0d64414610574578163d877ec8714610353578163dd62ed3e1461030a578163de7b54d9146102ae578163df9ad9311461022e57508063f0ca93a2146101eb578063f851a440146101c35763fdbd40f41461019957600080fd5b346101bf57816003193601126101bf576020906001600160801b03600554169051908152f35b5080fd5b50346101bf57816003193601126101bf5760015490516001600160a01b039091168152602090f35b50346101bf57816003193601126101bf57517f00000000000000000000000000000000000000000000000000000000000000006001600160a01b03168152602090f35b8284346102ab57602092836003193601126101bf576102a0610268848694859460018060a01b0361025d610f12565b168252855220611151565b61028161027b6102766110bf565b612281565b91612323565b85519161028d83610f56565b82528382015263ffffffff4216906126a6565b015101519051908152f35b80fd5b5050346101bf57816003193601126101bf576080906102cb61156c565b5060606102d66110bf565b8251926001600160801b03825116845263ffffffff602083015116602085015280820151600b0b9084015201516060820152f35b5050346101bf57806003193601126101bf5780602092610328610f12565b610330610f2d565b6001600160a01b0391821683526009865283832091168252845220549051908152f35b8284346102ab5760603660031901126102ab5761036e610f12565b9060243580151581036101bf576044359263ffffffff92838516948581036101bf576001600160a01b03907f000000000000000000000000000000000000000000000000000000000000000082163303610564576103cc908461241b565b921681526020968088526001600160801b03956103ed878985205416612197565b946103fd86600f0b96871461264a565b156105505760016001607f1b0319851461053d578861044b61045d926104246102766110bf565b61043461042f611100565b612323565b8c519161044083610f56565b8252848201526126a6565b01948303600f0b855151600f0b61289e565b845190600f0b9052878451015182848203941281851281169185139015161761052a575050916104bc61049c8360a09695896104e69651015251612777565b938451166001600160801b03166001600160801b03196005541617600555565b828601516005805463ffffffff60801b19169290911660801b63ffffffff60801b16919091179055565b80830151600580546001600160a01b031660a09290921b6001600160a01b0319169190911790556060810151600655608081015160075501516008555b5160018152f35b634e487b7160e01b825260119052602490fd5b634e487b7160e01b835260118252602483fd5b945050505061055f9250612522565b610523565b8751637e5f1fcf60e11b81528990fd5b5050346101bf57816003193601126101bf576020906105916125e9565b905190600b0b8152f35b5050346101bf57816003193601126101bf576020906105b9336111be565b90519015158152f35b5050346101bf57816003193601126101bf5760209060ff600a5460081c1690519015158152f35b5050346101bf57816003193601126101bf576020906001600160801b036106198160025416826005541690611553565b915191168152f35b5050346101bf57816003193601126101bf57602090610591612610565b5050346101bf57806003193601126101bf5760209061052361065e610f12565b6024359033611fff565b5050346101bf57816003193601126101bf576020906001600160801b03600254169051908152f35b5050346101bf57806003193601126101bf576105236020926106d96106b3610f12565b338352600986528483206001600160a01b03821684528652918490205460243590611026565b9033611591565b5050346101bf57816003193601126101bf57815460ff8160081c16159081809261078c575b8015610775575b610715906114f0565b60ff198116600117845581610764575b5061072e575080f35b60207f7f26b83ff96e1f2b6a682f133852f6798a09c465da95921460cefb38474024989161ff001984541684555160018152a180f35b61ffff191661010117835538610725565b50303b15801561070c575060ff811660011461070c565b50600160ff821610610705565b5050346101bf5760803660031901126101bf576107b4610f12565b6001600160a01b03916024359183831683036108fa576044358015158091036108f657606435948515158096036108f25786549260ff8460081c1615938480956108e5575b80156108ce575b610809906114f0565b60ff1981166001178955846108bd575b50166bffffffffffffffffffffffff60a01b600154161760015585549362010000600160b01b039060101b16948562010000600160b01b0319861617875560ff61ff00600a549260081b1692169061ffff19161717600a55610879578380f35b610100600160b01b0319909116909117825551600181527f7f26b83ff96e1f2b6a682f133852f6798a09c465da95921460cefb384740249890602090a13880808380f35b61ffff191661010117885538610819565b50303b158015610800575060ff8116600114610800565b50600160ff8216106107f9565b8680fd5b8580fd5b8480fd5b5050346101bf57816003193601126101bf5760209060ff600a541690519015158152f35b5050346101bf57806003193601126101bf57602090610950610942610f12565b61094a610f43565b9061145e565b9051908152f35b8383346101bf57816003193601126101bf576109716125e9565b610979612610565b600b0b90600b0b03916b7fffffffffffffffffffffff83136b7fffffffffffffffffffffff198412176109b357602083835190600b0b8152f35b634e487b7160e01b815260118452602490fd5b5050346101bf5760203660031901126101bf576020906105b96109e7610f12565b6111be565b905034610a2d576020366003190112610a2d576020926001600160801b03918391906001600160a01b03610a1e610f12565b16825285522054169051908152f35b8280fd5b905034610a2d576020366003190112610a2d57359163ffffffff83168093036102ab5750610950602092610a666102766110bf565b610a7161042f611100565b845191610a7d83610f56565b8252858201526123a2565b5050346101bf5760203660031901126101bf57602090610591610aa9610f12565b61106c565b5050346101bf57816003193601126101bf57602090517fca2aacef54bd44c838311f7274fc12b435395ce38673a3458ccdb318c9e1115f8152f35b8284346102ab5760803660031901126102ab577f00000000000000000000000000000000000000000000000000000000000000006001600160a01b03163303610c0757815192610b3884610f56565b3580600f0b81036101bf57835260603660231901126102ab57815190610b5d82610f88565b610b65610f43565b82526044359081600f0b82036102ab575060209382610b949286606095015260643585820152858201526120dc565b610bbe6001600160801b038251166001600160801b03166001600160801b03196002541617600255565b80840151600280548584015160809390931b63ffffffff60801b166001600160801b039091161760a09290921b6001600160a01b03191691909117905501516003555160018152f35b5051637e5f1fcf60e11b8152fd5b8284346102ab57816003193601126102ab57610c2f610f12565b338252600960209081528383206001600160a01b0383168452905282822054602435810192908310610c6957602084610523858533611591565b634e487b7160e01b815260118552602490fd5b5050346101bf57816003193601126101bf579054905160109190911c6001600160a01b03168152602090f35b5050346101bf5760603660031901126101bf57610523602092610cc9610f12565b610cd1610f2d565b6001600160a01b038216808452600987528584203385528752858420546044359492939287918660018201610d0b575b5050505050611fff565b610d1491611026565b92815260098952818120338252895220553885818086610d01565b905082346102ab57602091826003193601126101bf57610d4d610f12565b825485516320bc442560e01b815291926001600160a01b039291869083908390829060101c87165afa918215610e4157908692918692610e08575b508751630bbe4fd560e41b81529384928391165afa928315610dfd578093610dc9575b5050610dbe9063ffffffff83169061145e565b918351928352820152f35b909192508382813d8311610df6575b610de28183610ff0565b810103126102ab57505190610dbe85610dab565b503d610dd8565b8551903d90823e3d90fd5b8092508391933d8311610e3a575b610e208183610ff0565b810103126108fa5790610e338692611012565b9088610d88565b503d610e16565b87513d87823e3d90fd5b905034610a2d5781600319360112610a2d57610e65610f12565b90602435936001600160801b03851685036102ab5750600154336001600160a01b0391821614159081610ebb575b50610ead5750602092610ea591611624565b505160018152f35b8251631c5fbdcb60e01b8152fd5b90507f00000000000000000000000000000000000000000000000000000000000000001633141538610e93565b5050346101bf57806003193601126101bf57602090610523610f08610f12565b6024359033611591565b600435906001600160a01b0382168203610f2857565b600080fd5b602435906001600160a01b0382168203610f2857565b6024359063ffffffff82168203610f2857565b6040810190811067ffffffffffffffff821117610f7257604052565b634e487b7160e01b600052604160045260246000fd5b6060810190811067ffffffffffffffff821117610f7257604052565b6080810190811067ffffffffffffffff821117610f7257604052565b60c0810190811067ffffffffffffffff821117610f7257604052565b67ffffffffffffffff8111610f7257604052565b90601f8019910116810190811067ffffffffffffffff821117610f7257604052565b51906001600160a01b0382168203610f2857565b9190820391821161103357565b634e487b7160e01b600052601160045260246000fd5b818102929160008212600160ff1b82141661103357818405149015171561103357565b6001600160a01b03166000908152600460205260409020546001600160801b0316806110985750600090565b6110b76110bc916110ae60025460a01d91612197565b90600b0b611049565b6121fe565b90565b604051906110cc82610fa4565b816002546001600160801b038116825263ffffffff8160801c16602083015260a01d600b0b60408201526060600354910152565b6040519061110d82610fc0565b816005546001600160801b038116825263ffffffff8160801c16602083015260a01d600b0b60408201526006546060820152600754608082015260a0600854910152565b9060405161115e81610fc0565b60a06003829480546001600160801b038116855263ffffffff8160801c166020860152831d600b0b604085015260018101546060850152600281015460808501520154910152565b90816020910312610f2857518015158103610f285790565b604080516331e0bae760e21b81523060048201526001600160a01b038381166024830152926020929083836044817f000000000000000000000000000000000000000000000000000000000000000089165afa9283156113e35760009361142f575b506004848660005460101c168451928380926320bc442560e01b82525afa908115611424579085916000916113ee575b506004845180988193630bbe4fd560e41b8352165afa9485156113e3576000956113b4575b5061128863ffffffff809616809261241b565b9215611299575b5050505050600190565b6112c084916112a96102766110bf565b6112b461042f611100565b85519161044083610f56565b01805151600f0b60016001607f1b03811360016001607f1b0319821217611033578151528381510151600084820394128185128116918513901516176110335760a09461131982611395958761136d9551015251612777565b946113446001600160801b038751166001600160801b03166001600160801b03196005541617600555565b8501516005805463ffffffff60801b19169290911660801b63ffffffff60801b16919091179055565b820151600580546001600160a01b031660a09290921b6001600160a01b031916919091179055565b606081015160065560808101516007550151600855388080808061128f565b9094508381813d83116113dc575b6113cc8183610ff0565b81010312610f2857519338611275565b503d6113c2565b82513d6000823e3d90fd5b82819392503d831161141d575b6114058183610ff0565b81010312610f28576114178591611012565b38611250565b503d6113fb565b83513d6000823e3d90fd5b611450919350843d8611611457575b6114488183610ff0565b8101906111a6565b9138611220565b503d61143e565b906114b161146d6102766110bf565b9260018060a01b03169263ffffffff600093858552600460205261149661042f60408720611151565b604051936114a385610f56565b8452602084015216906123a2565b91815260046020526003604082200154918183820393128184128116918413901516176114dc575090565b634e487b7160e01b81526011600452602490fd5b156114f757565b60405162461bcd60e51b815260206004820152602e60248201527f496e697469616c697a61626c653a20636f6e747261637420697320616c72656160448201526d191e481a5b9a5d1a585b1a5e995960921b6064820152608490fd5b6001600160801b03918216908216039190821161103357565b6040519061157982610fa4565b60006060838281528260208201528260408201520152565b909160207f8c5be1e5ebec7d5bd14f71427d1e84f3dd0314c0f7b2291e5b200ac8c7c3b9259160018060a01b03809416938460005260098352604060002095169485600052825280604060002055604051908152a3565b604051906115f582610f88565b60006040838281528260208201520152565b1561160e57565b634e487b7160e01b600052600160045260246000fd5b600054604051633d96606d60e11b81526001600160a01b0360109290921c821660048201819052838316602483015292939291602090829060449082907f0000000000000000000000000000000000000000000000000000000000000000165afa908115611d0a57600091611fe0575b50611fce576001600160a01b03831615611fbc576020600491604051928380926320bc442560e01b82525afa908115611d0a57600091611f7d575b50604051630bbe4fd560e41b815290602090829060049082906001600160a01b03165afa908115611d0a57600091611f4b575b506117156001600160801b038316612197565b6117238180600f0b1461264a565b61172e6102766110bf565b9060018060a01b038516600052600460205261174d6040600020611151565b926001600160801b0361175f85612323565b945116936040519361177085610f56565b84526020808501919091526040516331e0bae760e21b81523060048201526001600160a01b03881660248201529081806044810103817f00000000000000000000000000000000000000000000000000000000000000006001600160a01b03165afa908115611d0a57600091611f2c575b5015611f03575b6117f06115e8565b916117f9612260565b50611802612300565b5061180b6115e8565b50835151600f0b9261184361183561182684600f0b8761289e565b602088015151600f0b9061274f565b9563ffffffff8516906126a6565b94602080875101510151600f0b9481600f0b15958615600014611eda579061186a916128c7565b94611ec45760001981600f0b1460016001607f1b031986600f0b1416611033576118f86060926118f263ffffffff97846118cd6118c061191d97600f0b84600f0b05600f0b936118ba84866128c7565b9061274f565b925b60208d5101516128de565b60208c510152600f0b8a515260206118e78a8a16856128fe565b930151600f0b61289e565b906128de565b9561191360208251928181015196600f0b875251015161292c565b60408501526120dc565b6119476001600160801b038251166001600160801b03166001600160801b03196002541617600255565b60208101516002805463ffffffff60801b191691871660801b63ffffffff60801b169190911790556040810151600280546001600160a01b031660a09290921b6001600160a01b031916919091179055015160035560018060a01b038716600052600460205260038060406000200154600060a06040516119c781610fc0565b82815282602082015282604082015282606082015282608082015201528251926119fd6001600160801b0385600f0b111561264a565b604081015190611a17602088845116930151600f0b6121fe565b60206040808401510151920151926001600160801b0360405197611a3a89610fc0565b168752602087019081526040870191600b0b8252606087019283526080870193845260a0870194855260018060a01b038d1660005260046020526001600160801b036040600020975116908960801b905160801b16916bffffffffffffffffffffffff60a01b905160a01b16911717855551600185015551600284015551910155604060018060a01b0360005460101c169381519463fa48736d60e01b865260048601528381511660248601526020810151600f0b60448601520151606484015216608482015260208160a481600060018060a01b037f0000000000000000000000000000000000000000000000000000000000000000165af18015611d0a57611b4c91600091611ea5575b50611607565b60018060a01b0360005460101c16906040519081526001600160801b0383166020820152817f58b452da1f241e47a4cf34c1a770df2202ae3743eb13aa99f14cc8c7b5c133ba604060018060a01b03871693a36000808092604051602081019063f5a8b4dd60e01b825260048152611bc381610f56565b51915afa3d15611e9d573d9067ffffffffffffffff8211610f725760405191611bf6601f8201601f191660200184610ff0565b82523d6000602084013e5b611e72575b506001600160a01b03169081611c1f575b505050600190565b604051635ca1c2af60e11b81523060048201526001600160a01b038416602482015290602082604481865afa918215611d0a57600092611e37575b506001600160801b0316611d455760405190630ef6816560e21b82526004820152606081602481855afa908115611d0a57600091611d16575b50602001516001600160a01b0316611cb1575b50505b388080611c17565b803b15610f2857604051635b159b2360e11b81523060048201526001600160a01b039290921660248301526000908290604490829084905af18015611d0a57611cfb575b80611ca6565b611d0490610fdc565b38611cf5565b6040513d6000823e3d90fd5b611d38915060603d606011611d3e575b611d308183610ff0565b810190612816565b38611c93565b503d611d26565b60405190630ef6816560e21b82526004820152606081602481855afa908115611d0a57600091611e18575b50602001516001600160a01b0316611ddd57803b15610f285760405163f1391f7360e01b81523060048201526001600160a01b0390921660248301526000908290818381604481015b03925af18015611d0a57611dce575b50611ca9565b611dd790610fdc565b38611dc8565b803b15610f2857604051630447a2cd60e01b81523060048201526001600160a01b039092166024830152600090829081838160448101611db9565b611e31915060603d606011611d3e57611d308183610ff0565b38611d70565b9091506020813d602011611e6a575b81611e5360209383610ff0565b81010312610f285751906001600160801b03611c5a565b3d9150611e46565b9050602081805181010312610f2857602001516001600160a01b03811690819003610f285738611c06565b606090611c01565b611ebe915060203d602011611457576114488183610ff0565b38611b46565b634e487b7160e01b600052601260045260246000fd5b63ffffffff9650926118f261191d93611ef86118f8946060976128c7565b906118cd60006118c2565b611f2763ffffffff8216611f22602086015151600f0b85600f0b61274f565b612522565b6117e8565b611f45915060203d602011611457576114488183610ff0565b386117e1565b90506020813d602011611f75575b81611f6660209383610ff0565b81010312610f28575138611702565b3d9150611f59565b90506020813d602011611fb4575b81611f9860209383610ff0565b81010312610f28576020611fad600492611012565b91506116cf565b3d9150611f8b565b604051632a75b77360e11b8152600490fd5b604051637087a02d60e11b8152600490fd5b611ff9915060203d602011611457576114488183610ff0565b38611694565b6001600160a01b0382811693908216929091908385146120ca5760ff600a5416156120b857600084815260046020526001600160801b039283604083205416908783526120778560408520541691612071878911159161205e8361264a565b61206b898b168097611553565b90611624565b5061264a565b019283116114dc5750916120ae6020927fddf252ad1be2c89b69c2b068fc378daa952ba7f163c4a11628f55a4df523b3ef94611624565b50604051908152a3565b604051631142f7dd60e11b8152600490fd5b60405163676ee05f60e11b8152600490fd5b6120e461156c565b5080519081600f0b90600082126121535760209061210c6001600160801b038094111561264a565b0180516040612129602063ffffffff845116930151600f0b6121fe565b92510151926040519461213b86610fa4565b1684526020840152600b0b6040830152606082015290565b606460405162461bcd60e51b815260206004820152602060248201527f53616665436173743a2076616c7565206d75737420626520706f7369746976656044820152fd5b6001600160ff1b0381116121a85790565b60405162461bcd60e51b815260206004820152602860248201527f53616665436173743a2076616c756520646f65736e27742066697420696e2061604482015267371034b73a191a9b60c11b6064820152608490fd5b9081600b0b91820361220c57565b60405162461bcd60e51b815260206004820152602660248201527f53616665436173743a2076616c756520646f65736e27742066697420696e203960448201526536206269747360d01b6064820152608490fd5b6040519061226d82610f56565b8160008152602061227c6115e8565b910152565b612289612260565b5061229d6001600160801b03825116612197565b906122ad82600f0b92831461264a565b6122b56115e8565b5063ffffffff6020820151169060606040820151600b0b91015190604051926122dd84610f88565b835260208301526040820152604051916122f683610f56565b8252602082015290565b6040519061230d82610f88565b816000815260006020820152604061227c6115e8565b61232b612300565b5061233f6001600160801b03825116612197565b9061234f82600f0b92831461264a565b608063ffffffff602083015116916040810151600b0b6060820151906040519461237886610f88565b85526020850152604084015201516040519261239384610f88565b83526020830152604082015290565b6123ba60208201926020808551015193510151612865565b916123d260408251015163ffffffff81511690612865565b9260008482039412818512811691851390151617611033576110bc926123fd915151600f0b90611049565b905b9190916000838201938412911290801582169115161761103357565b9190612427908361145e565b9160018060a01b039060009081548360409281845193634543b74560e01b855260101c1660048401521693846024830152866044830152602091828160648188867f0000000000000000000000000000000000000000000000000000000000000000165af190811561251857938093926124cb6003937f9464bfc300bfd9af903ee21453d885a40d7f96864a3eecc0b8b0faf4ae685fa19789916125015750611607565b8787526004845282828820016124e28b82546123ff565b9055865460101c169587815260048452200154825191888352820152a3565b611ebe9150863d8811611457576114488183610ff0565b84513d87823e3d90fd5b61256f90612561602061255460a09561253c6102766110bf565b61254761042f611100565b6040519161044083610f56565b0191825151600f0b61289e565b815190600f0b905251612777565b6125996001600160801b038251166001600160801b03166001600160801b03196005541617600555565b60208101516005805460408401516001600160a01b031960a09190911b166001600160801b0390911663ffffffff60801b608094851b161717905560608201516006558101516007550151600855565b6110bc6110b76002546126046001600160801b038216612197565b9060a01d600b0b611049565b6110bc6126426126216102766110bf565b60208061262f61042f611100565b92015101519051600f0b90600f0b6128c7565b600f0b6121fe565b1561265157565b60405162461bcd60e51b815260206004820152602760248201527f53616665436173743a2076616c756520646f65736e27742066697420696e20316044820152663238206269747360c81b6064820152608490fd5b9190604080516126b581610f56565b6126bd612260565b8152602090612741828201946126d1612300565b8652829780516126df612260565b506126fb866126ec612260565b928051600f0b8452015161292c565b61270b84888401928084526128fe565b90528452848101516127368761271f612300565b928051600f0b84528881015189850152015161292c565b8782015287526123a2565b828551015251015191510152565b600f91820b910b0360016001607f1b0319811260016001607f1b0382131761103357600f0b90565b60a06040805161278681610fc0565b6000928184809352826020820152828482015282606082015282608082015201528251926001600160801b03916127c28386600f0b111561264a565b80820180516020836127e18263ffffffff855116940151600f0b6121fe565b93510151940151948351976127f589610fc0565b1687526020870152600b0b908501526060840152608083015260a082015290565b90816060910312610f2857604080519161282f83610f88565b61283881611012565b835261284660208201611012565b602084015201516001600160801b0381168103610f2857604082015290565b6020810151600f0b9163ffffffff908180845116911603818111611033576110bc93604092612895921690611049565b910151906123ff565b90600f0b90600f0b0160016001607f1b0319811260016001607f1b0382131761103357600f0b90565b90600f0b90600f0b0280600f0b9081036110335790565b6128f3909291926128ed6115e8565b5061292c565b91600f0b6020830152565b919063ffffffff9061290e6115e8565b506129228161291c8661292c565b95612865565b6040850152168252565b9060406129376115e8565b9263ffffffff81511684526020810151600f0b60208501520151604083015256fea2646970667358221220f26600e67638d4dd88f5fbb7ad93051b7c05d1cf0f5a61f69071763cbad2c70d64736f6c63430008170033","linkReferences":{}},"methodIdentifiers":{"GDA()":"f0ca93a2","admin()":"f851a440","allowance(address,address)":"dd62ed3e","approve(address,uint256)":"095ea7b3","balanceOf(address)":"70a08231","castrate()":"9903ad38","claimAll()":"d1058e59","claimAll(address)":"77329f35","decreaseAllowance(address,uint256)":"a457c2d7","distributionFromAnyAddress()":"cb8599f0","getClaimable(address,uint32)":"7d6c008d","getClaimableNow(address)":"21dd5777","getDisconnectedBalance(uint32)":"6c0c582a","getMemberFlowRate(address)":"539e8c1c","getTotalAmountReceivedByMember(address)":"df9ad931","getTotalConnectedFlowRate()":"785e734c","getTotalConnectedUnits()":"b3b3f1cc","getTotalDisconnectedFlowRate()":"a94ff340","getTotalDisconnectedUnits()":"fdbd40f4","getTotalFlowRate()":"d4f0d644","getTotalUnits()":"a754a702","getUnits(address)":"0fefbc09","increaseAllowance(address,uint256)":"39509351","initialize(address,address,bool,bool)":"89287e0a","operatorConnectMember(address,bool,uint32)":"d877ec87","operatorSetIndex((int128,(uint32,int128,int256)))":"4a0d9101","poolOperatorGetIndex()":"de7b54d9","proxiableUUID()":"52d1902d","superToken()":"2b4116f7","totalSupply()":"18160ddd","transfer(address,uint256)":"a9059cbb","transferFrom(address,address,uint256)":"23b872dd","transferabilityForUnitsOwner()":"7e80bd5e","updateMemberUnits(address,uint128)":"1b167777"},"id":73}