{"abi":[{"type":"constructor","inputs":[{"name":"nonUpgradable","type":"bool","internalType":"bool"},{"name":"appWhiteListingEnabled","type":"bool","internalType":"bool"},{"name":"callbackGasLimit","type":"uint64","internalType":"uint64"},{"name":"dmzForwarderAddress","type":"address","internalType":"address"}],"stateMutability":"nonpayable"},{"type":"function","name":"APP_WHITE_LISTING_ENABLED","inputs":[],"outputs":[{"name":"","type":"bool","internalType":"bool"}],"stateMutability":"view"},{"type":"function","name":"CALLBACK_GAS_LIMIT","inputs":[],"outputs":[{"name":"","type":"uint64","internalType":"uint64"}],"stateMutability":"view"},{"type":"function","name":"DMZ_FORWARDER","inputs":[],"outputs":[{"name":"","type":"address","internalType":"contract DMZForwarder"}],"stateMutability":"view"},{"type":"function","name":"MAX_APP_CALLBACK_LEVEL","inputs":[],"outputs":[{"name":"","type":"uint256","internalType":"uint256"}],"stateMutability":"view"},{"type":"function","name":"MAX_NUM_AGREEMENTS","inputs":[],"outputs":[{"name":"","type":"uint32","internalType":"uint32"}],"stateMutability":"view"},{"type":"function","name":"NON_UPGRADABLE_DEPLOYMENT","inputs":[],"outputs":[{"name":"","type":"bool","internalType":"bool"}],"stateMutability":"view"},{"type":"function","name":"addToAgreementClassesBitmap","inputs":[{"name":"bitmap","type":"uint256","internalType":"uint256"},{"name":"agreementType","type":"bytes32","internalType":"bytes32"}],"outputs":[{"name":"newBitmap","type":"uint256","internalType":"uint256"}],"stateMutability":"view"},{"type":"function","name":"allowCompositeApp","inputs":[{"name":"targetApp","type":"address","internalType":"contract ISuperApp"}],"outputs":[],"stateMutability":"nonpayable"},{"type":"function","name":"appCallbackPop","inputs":[{"name":"ctx","type":"bytes","internalType":"bytes"},{"name":"appCreditUsedDelta","type":"int256","internalType":"int256"}],"outputs":[{"name":"newCtx","type":"bytes","internalType":"bytes"}],"stateMutability":"nonpayable"},{"type":"function","name":"appCallbackPush","inputs":[{"name":"ctx","type":"bytes","internalType":"bytes"},{"name":"app","type":"address","internalType":"contract ISuperApp"},{"name":"appCreditGranted","type":"uint256","internalType":"uint256"},{"name":"appCreditUsed","type":"int256","internalType":"int256"},{"name":"appCreditToken","type":"address","internalType":"contract ISuperfluidToken"}],"outputs":[{"name":"appCtx","type":"bytes","internalType":"bytes"}],"stateMutability":"nonpayable"},{"type":"function","name":"batchCall","inputs":[{"name":"operations","type":"tuple[]","internalType":"struct ISuperfluid.Operation[]","components":[{"name":"operationType","type":"uint32","internalType":"uint32"},{"name":"target","type":"address","internalType":"address"},{"name":"data","type":"bytes","internalType":"bytes"}]}],"outputs":[],"stateMutability":"payable"},{"type":"function","name":"callAgreement","inputs":[{"name":"agreementClass","type":"address","internalType":"contract ISuperAgreement"},{"name":"callData","type":"bytes","internalType":"bytes"},{"name":"userData","type":"bytes","internalType":"bytes"}],"outputs":[{"name":"returnedData","type":"bytes","internalType":"bytes"}],"stateMutability":"nonpayable"},{"type":"function","name":"callAgreementWithContext","inputs":[{"name":"agreementClass","type":"address","internalType":"contract ISuperAgreement"},{"name":"callData","type":"bytes","internalType":"bytes"},{"name":"userData","type":"bytes","internalType":"bytes"},{"name":"ctx","type":"bytes","internalType":"bytes"}],"outputs":[{"name":"newCtx","type":"bytes","internalType":"bytes"},{"name":"returnedData","type":"bytes","internalType":"bytes"}],"stateMutability":"nonpayable"},{"type":"function","name":"callAppAction","inputs":[{"name":"app","type":"address","internalType":"contract ISuperApp"},{"name":"callData","type":"bytes","internalType":"bytes"}],"outputs":[{"name":"returnedData","type":"bytes","internalType":"bytes"}],"stateMutability":"nonpayable"},{"type":"function","name":"callAppActionWithContext","inputs":[{"name":"app","type":"address","internalType":"contract ISuperApp"},{"name":"callData","type":"bytes","internalType":"bytes"},{"name":"ctx","type":"bytes","internalType":"bytes"}],"outputs":[{"name":"newCtx","type":"bytes","internalType":"bytes"}],"stateMutability":"nonpayable"},{"type":"function","name":"callAppAfterCallback","inputs":[{"name":"app","type":"address","internalType":"contract ISuperApp"},{"name":"callData","type":"bytes","internalType":"bytes"},{"name":"isTermination","type":"bool","internalType":"bool"},{"name":"ctx","type":"bytes","internalType":"bytes"}],"outputs":[{"name":"newCtx","type":"bytes","internalType":"bytes"}],"stateMutability":"nonpayable"},{"type":"function","name":"callAppBeforeCallback","inputs":[{"name":"app","type":"address","internalType":"contract ISuperApp"},{"name":"callData","type":"bytes","internalType":"bytes"},{"name":"isTermination","type":"bool","internalType":"bool"},{"name":"ctx","type":"bytes","internalType":"bytes"}],"outputs":[{"name":"cbdata","type":"bytes","internalType":"bytes"}],"stateMutability":"nonpayable"},{"type":"function","name":"castrate","inputs":[],"outputs":[],"stateMutability":"nonpayable"},{"type":"function","name":"changeSuperTokenAdmin","inputs":[{"name":"token","type":"address","internalType":"contract ISuperToken"},{"name":"newAdmin","type":"address","internalType":"address"}],"outputs":[],"stateMutability":"nonpayable"},{"type":"function","name":"ctxUseCredit","inputs":[{"name":"ctx","type":"bytes","internalType":"bytes"},{"name":"appCreditUsedMore","type":"int256","internalType":"int256"}],"outputs":[{"name":"newCtx","type":"bytes","internalType":"bytes"}],"stateMutability":"nonpayable"},{"type":"function","name":"decodeCtx","inputs":[{"name":"ctx","type":"bytes","internalType":"bytes"}],"outputs":[{"name":"context","type":"tuple","internalType":"struct ISuperfluid.Context","components":[{"name":"appCallbackLevel","type":"uint8","internalType":"uint8"},{"name":"callType","type":"uint8","internalType":"uint8"},{"name":"timestamp","type":"uint256","internalType":"uint256"},{"name":"msgSender","type":"address","internalType":"address"},{"name":"agreementSelector","type":"bytes4","internalType":"bytes4"},{"name":"userData","type":"bytes","internalType":"bytes"},{"name":"appCreditGranted","type":"uint256","internalType":"uint256"},{"name":"appCreditWantedDeprecated","type":"uint256","internalType":"uint256"},{"name":"appCreditUsed","type":"int256","internalType":"int256"},{"name":"appAddress","type":"address","internalType":"address"},{"name":"appCreditToken","type":"address","internalType":"contract ISuperfluidToken"}]}],"stateMutability":"pure"},{"type":"function","name":"forwardBatchCall","inputs":[{"name":"operations","type":"tuple[]","internalType":"struct ISuperfluid.Operation[]","components":[{"name":"operationType","type":"uint32","internalType":"uint32"},{"name":"target","type":"address","internalType":"address"},{"name":"data","type":"bytes","internalType":"bytes"}]}],"outputs":[],"stateMutability":"payable"},{"type":"function","name":"getAgreementClass","inputs":[{"name":"agreementType","type":"bytes32","internalType":"bytes32"}],"outputs":[{"name":"agreementClass","type":"address","internalType":"contract ISuperAgreement"}],"stateMutability":"view"},{"type":"function","name":"getAppCallbackLevel","inputs":[{"name":"appAddr","type":"address","internalType":"contract ISuperApp"}],"outputs":[{"name":"","type":"uint8","internalType":"uint8"}],"stateMutability":"view"},{"type":"function","name":"getAppManifest","inputs":[{"name":"app","type":"address","internalType":"contract ISuperApp"}],"outputs":[{"name":"isSuperApp","type":"bool","internalType":"bool"},{"name":"isJailed","type":"bool","internalType":"bool"},{"name":"noopMask","type":"uint256","internalType":"uint256"}],"stateMutability":"view"},{"type":"function","name":"getCodeAddress","inputs":[],"outputs":[{"name":"codeAddress","type":"address","internalType":"address"}],"stateMutability":"view"},{"type":"function","name":"getGovernance","inputs":[],"outputs":[{"name":"","type":"address","internalType":"contract ISuperfluidGovernance"}],"stateMutability":"view"},{"type":"function","name":"getNow","inputs":[],"outputs":[{"name":"","type":"uint256","internalType":"uint256"}],"stateMutability":"view"},{"type":"function","name":"getSuperTokenFactory","inputs":[],"outputs":[{"name":"factory","type":"address","internalType":"contract ISuperTokenFactory"}],"stateMutability":"view"},{"type":"function","name":"getSuperTokenFactoryLogic","inputs":[],"outputs":[{"name":"logic","type":"address","internalType":"address"}],"stateMutability":"view"},{"type":"function","name":"initialize","inputs":[{"name":"gov","type":"address","internalType":"contract ISuperfluidGovernance"}],"outputs":[],"stateMutability":"nonpayable"},{"type":"function","name":"isAgreementClassListed","inputs":[{"name":"agreementClass","type":"address","internalType":"contract ISuperAgreement"}],"outputs":[{"name":"yes","type":"bool","internalType":"bool"}],"stateMutability":"view"},{"type":"function","name":"isAgreementTypeListed","inputs":[{"name":"agreementType","type":"bytes32","internalType":"bytes32"}],"outputs":[{"name":"yes","type":"bool","internalType":"bool"}],"stateMutability":"view"},{"type":"function","name":"isApp","inputs":[{"name":"app","type":"address","internalType":"contract ISuperApp"}],"outputs":[{"name":"","type":"bool","internalType":"bool"}],"stateMutability":"view"},{"type":"function","name":"isAppJailed","inputs":[{"name":"app","type":"address","internalType":"contract ISuperApp"}],"outputs":[{"name":"","type":"bool","internalType":"bool"}],"stateMutability":"view"},{"type":"function","name":"isCompositeAppAllowed","inputs":[{"name":"app","type":"address","internalType":"contract ISuperApp"},{"name":"targetApp","type":"address","internalType":"contract ISuperApp"}],"outputs":[{"name":"","type":"bool","internalType":"bool"}],"stateMutability":"view"},{"type":"function","name":"isCtxValid","inputs":[{"name":"ctx","type":"bytes","internalType":"bytes"}],"outputs":[{"name":"","type":"bool","internalType":"bool"}],"stateMutability":"view"},{"type":"function","name":"isTrustedForwarder","inputs":[{"name":"forwarder","type":"address","internalType":"address"}],"outputs":[{"name":"","type":"bool","internalType":"bool"}],"stateMutability":"view"},{"type":"function","name":"jailApp","inputs":[{"name":"ctx","type":"bytes","internalType":"bytes"},{"name":"app","type":"address","internalType":"contract ISuperApp"},{"name":"reason","type":"uint256","internalType":"uint256"}],"outputs":[{"name":"newCtx","type":"bytes","internalType":"bytes"}],"stateMutability":"nonpayable"},{"type":"function","name":"mapAgreementClasses","inputs":[{"name":"bitmap","type":"uint256","internalType":"uint256"}],"outputs":[{"name":"agreementClasses","type":"address[]","internalType":"contract ISuperAgreement[]"}],"stateMutability":"view"},{"type":"function","name":"proxiableUUID","inputs":[],"outputs":[{"name":"","type":"bytes32","internalType":"bytes32"}],"stateMutability":"pure"},{"type":"function","name":"registerAgreementClass","inputs":[{"name":"agreementClassLogic","type":"address","internalType":"contract ISuperAgreement"}],"outputs":[],"stateMutability":"nonpayable"},{"type":"function","name":"registerApp","inputs":[{"name":"configWord","type":"uint256","internalType":"uint256"}],"outputs":[],"stateMutability":"nonpayable"},{"type":"function","name":"registerApp","inputs":[{"name":"app","type":"address","internalType":"contract ISuperApp"},{"name":"configWord","type":"uint256","internalType":"uint256"}],"outputs":[],"stateMutability":"nonpayable"},{"type":"function","name":"registerAppByFactory","inputs":[{"name":"app","type":"address","internalType":"contract ISuperApp"},{"name":"configWord","type":"uint256","internalType":"uint256"}],"outputs":[],"stateMutability":"nonpayable"},{"type":"function","name":"registerAppWithKey","inputs":[{"name":"configWord","type":"uint256","internalType":"uint256"},{"name":"registrationKey","type":"string","internalType":"string"}],"outputs":[],"stateMutability":"nonpayable"},{"type":"function","name":"removeFromAgreementClassesBitmap","inputs":[{"name":"bitmap","type":"uint256","internalType":"uint256"},{"name":"agreementType","type":"bytes32","internalType":"bytes32"}],"outputs":[{"name":"newBitmap","type":"uint256","internalType":"uint256"}],"stateMutability":"view"},{"type":"function","name":"replaceGovernance","inputs":[{"name":"newGov","type":"address","internalType":"contract ISuperfluidGovernance"}],"outputs":[],"stateMutability":"nonpayable"},{"type":"function","name":"updateAgreementClass","inputs":[{"name":"agreementClassLogic","type":"address","internalType":"contract ISuperAgreement"}],"outputs":[],"stateMutability":"nonpayable"},{"type":"function","name":"updateCode","inputs":[{"name":"newAddress","type":"address","internalType":"address"}],"outputs":[],"stateMutability":"nonpayable"},{"type":"function","name":"updatePoolBeaconLogic","inputs":[{"name":"newLogic","type":"address","internalType":"address"}],"outputs":[],"stateMutability":"nonpayable"},{"type":"function","name":"updateSuperTokenFactory","inputs":[{"name":"newFactory","type":"address","internalType":"contract ISuperTokenFactory"}],"outputs":[],"stateMutability":"nonpayable"},{"type":"function","name":"updateSuperTokenLogic","inputs":[{"name":"token","type":"address","internalType":"contract ISuperToken"},{"name":"newLogicOverride","type":"address","internalType":"address"}],"outputs":[],"stateMutability":"nonpayable"},{"type":"function","name":"versionRecipient","inputs":[],"outputs":[{"name":"","type":"string","internalType":"string"}],"stateMutability":"pure"},{"type":"event","name":"AgreementClassRegistered","inputs":[{"name":"agreementType","type":"bytes32","indexed":false,"internalType":"bytes32"},{"name":"code","type":"address","indexed":false,"internalType":"address"}],"anonymous":false},{"type":"event","name":"AgreementClassUpdated","inputs":[{"name":"agreementType","type":"bytes32","indexed":false,"internalType":"bytes32"},{"name":"code","type":"address","indexed":false,"internalType":"address"}],"anonymous":false},{"type":"event","name":"AppRegistered","inputs":[{"name":"app","type":"address","indexed":true,"internalType":"contract ISuperApp"}],"anonymous":false},{"type":"event","name":"CodeUpdated","inputs":[{"name":"uuid","type":"bytes32","indexed":false,"internalType":"bytes32"},{"name":"codeAddress","type":"address","indexed":false,"internalType":"address"}],"anonymous":false},{"type":"event","name":"GovernanceReplaced","inputs":[{"name":"oldGov","type":"address","indexed":false,"internalType":"contract ISuperfluidGovernance"},{"name":"newGov","type":"address","indexed":false,"internalType":"contract ISuperfluidGovernance"}],"anonymous":false},{"type":"event","name":"Initialized","inputs":[{"name":"version","type":"uint8","indexed":false,"internalType":"uint8"}],"anonymous":false},{"type":"event","name":"Jail","inputs":[{"name":"app","type":"address","indexed":true,"internalType":"contract ISuperApp"},{"name":"reason","type":"uint256","indexed":false,"internalType":"uint256"}],"anonymous":false},{"type":"event","name":"PoolBeaconLogicUpdated","inputs":[{"name":"beaconProxy","type":"address","indexed":true,"internalType":"address"},{"name":"newBeaconLogic","type":"address","indexed":false,"internalType":"address"}],"anonymous":false},{"type":"event","name":"SuperTokenFactoryUpdated","inputs":[{"name":"newFactory","type":"address","indexed":false,"internalType":"contract ISuperTokenFactory"}],"anonymous":false},{"type":"event","name":"SuperTokenLogicUpdated","inputs":[{"name":"token","type":"address","indexed":true,"internalType":"contract ISuperToken"},{"name":"code","type":"address","indexed":false,"internalType":"address"}],"anonymous":false},{"type":"error","name":"APP_RULE","inputs":[{"name":"_code","type":"uint256","internalType":"uint256"}]},{"type":"error","name":"HOST_AGREEMENT_ALREADY_REGISTERED","inputs":[]},{"type":"error","name":"HOST_AGREEMENT_CALLBACK_IS_NOT_ACTION","inputs":[]},{"type":"error","name":"HOST_AGREEMENT_IS_NOT_REGISTERED","inputs":[]},{"type":"error","name":"HOST_CALL_AGREEMENT_WITH_CTX_FROM_WRONG_ADDRESS","inputs":[]},{"type":"error","name":"HOST_CALL_APP_ACTION_WITH_CTX_FROM_WRONG_ADDRESS","inputs":[]},{"type":"error","name":"HOST_CANNOT_DOWNGRADE_TO_NON_UPGRADEABLE","inputs":[]},{"type":"error","name":"HOST_INVALID_CONFIG_WORD","inputs":[]},{"type":"error","name":"HOST_MAX_256_AGREEMENTS","inputs":[]},{"type":"error","name":"HOST_MUST_BE_CONTRACT","inputs":[]},{"type":"error","name":"HOST_NEED_MORE_GAS","inputs":[]},{"type":"error","name":"HOST_NON_UPGRADEABLE","inputs":[]},{"type":"error","name":"HOST_NON_ZERO_LENGTH_PLACEHOLDER_CTX","inputs":[]},{"type":"error","name":"HOST_NOT_A_SUPER_APP","inputs":[]},{"type":"error","name":"HOST_NO_APP_REGISTRATION_PERMISSION","inputs":[]},{"type":"error","name":"HOST_ONLY_GOVERNANCE","inputs":[]},{"type":"error","name":"HOST_ONLY_LISTED_AGREEMENT","inputs":[]},{"type":"error","name":"HOST_RECEIVER_IS_NOT_SUPER_APP","inputs":[]},{"type":"error","name":"HOST_SENDER_IS_NOT_SUPER_APP","inputs":[]},{"type":"error","name":"HOST_SOURCE_APP_NEEDS_HIGHER_APP_LEVEL","inputs":[]},{"type":"error","name":"HOST_SUPER_APP_ALREADY_REGISTERED","inputs":[]},{"type":"error","name":"HOST_SUPER_APP_IS_JAILED","inputs":[]},{"type":"error","name":"HOST_UNKNOWN_BATCH_CALL_OPERATION_TYPE","inputs":[]}],"bytecode":{"object":"0x6101003462000121576001600160401b03601f62004db838819003918201601f191684019183831185841017620001265780859260809460405283398101031262000121576200004f826200013c565b916200005e602082016200013c565b90604081015192831683036200012157606001516001600160a01b0381169390849003620001215760805260a05260c05260e052604051614c6d90816200014b82396080518181816103cd015281816106af015281816111b7015281816113cb015281816115570152818161250f0152612f9d015260a051818181611d5a01528181611dff015281816121bd015281816124a701526125be015260c051818181610eea015281816130640152613142015260e051818181611307015261457d0152f35b600080fd5b634e487b7160e01b600052604160045260246000fd5b51908115158203620001215756fe6080604052600436101561001257600080fd5b60003560e01c806306cecba8146103775780630c5650751461037257806315a024e11461036d5780631e6d0a84146103685780631e855cf314610363578063289b3c0d1461035e5780632f89bf891461035957806333d608f11461035457806339255d5b1461034f5780633ca3ad4e1461034a5780633f6c923a146103455780634329d29314610340578063469519541461033b578063486ff0cd1461033657806350d75d251461033157806351e3bb821461032c57806352d1902d1461032757806354fbc4931461032257806357121e0c1461031d578063572b6c051461031857806359a2914114610313578063670e77e31461030e5780636ad3ca7d146103095780636b4f3335146103045780637283100c146102ff578063731aed6e146102fa57806374041e02146102f5578063768fabb0146102f05780638ca48484146102eb5780638ceddd7a146102e65780639378fa13146102e1578063989b0c3e146102dc5780639903ad38146102d75780639d297e30146102d2578063a5dbbbcd146102cd578063ad3915c8146102c8578063b6d200de146102c3578063b724211e146102be578063ba48b5f8146102b9578063bb84cfa1146102b4578063bbe4fd50146102af578063bced3ddc146102aa578063bd1c448b146102a5578063bd3252c8146102a0578063bf4287341461029b578063c4d66de814610296578063c56a069d14610291578063c60944a61461028c578063cd312ec414610287578063e8dccb7d14610282578063f2e55caf1461027d578063f373305214610278578063f9f522f4146102735763fa6e0cfe1461026e57600080fd5b612727565b612694565b61258f565b612562565b612534565b6124f7565b612474565b6123a1565b612257565b61221f565b612203565b61218b565b612145565b61212a565b6120c2565b611f35565b611ec4565b611e45565b611dec565b611d7f565b611d42565b611c64565b611c38565b611bf8565b611bdb565b611bb4565b611a35565b611966565b61193d565b6118a8565b611865565b611852565b6117db565b611752565b6116f9565b6115ea565b611371565b611336565b6112f1565b6112a9565b611266565b611181565b6110f4565b610fcf565b610f86565b610f0e565b610eca565b610d3f565b610d12565b610ba5565b610921565b610625565b6105a2565b610392565b6001600160a01b0381160361038d57565b600080fd5b3461038d57602036600319011261038d5760048035906103b18261037c565b6000805490926001600160a01b039160101c82163303610569577f00000000000000000000000000000000000000000000000000000000000000006105585716604051633b982ccf60e11b81526020818481855afa90811561050f578491610529575b50610429816000526002602052604060002090565b5480156105185761046f61046361046361046361044e6104498a9661286c565b612891565b905460039190911b1c6001600160a01b031690565b6001600160a01b031690565b93843b15610514576040516311a5465560e21b81526001600160a01b03851691810191825294859182908490829060200103925af192831561050f577f9279aa773f2b588996032d8de89911555039f28b13a11a7c17074330bc082d9a936104f6575b50604080519182526001600160a01b03909216602082015290819081015b0390a180f35b8061050361050992610a93565b80610d07565b386104d2565b61284a565b5080fd5b604051630e4f4df560e11b81528490fd5b61054b915060203d602011610551575b6105438183610af7565b81019061283b565b38610414565b503d610539565b6040516314f72c9f60e01b81528390fd5b6040516362e9152760e11b81528390fd5b604090600319011261038d576004356105928161037c565b9060243561059f8161037c565b90565b3461038d576105b03661057a565b600080549092906001600160a01b039060101c81163303610613578084921692833b1561060f576024908360405195869485936308f2839760e41b85521660048401525af1801561050f57610603575080f35b61060c90610a93565b80f35b8280fd5b6040516362e9152760e11b8152600490fd5b3461038d57602036600319011261038d5760048035906106448261037c565b6000805490926001600160a01b039160101c8216330361056957811690604092835191633b982ccf60e11b83526020838381875afa92831561050f57869361080b575b5061069c836000526002602052604060002090565b546107fc5761010060015410156107ed577f00000000000000000000000000000000000000000000000000000000000000006107bd5784516101bc8082018281106001600160401b038211176107b8578291614a5c8339039087f0801561050f57169385853b156107b5578151634a0687ef60e01b81526001600160a01b0386169381019384529283908190602001038183895af1801561050f577f878135063a6cfb3bc333e534b1fdc83f4f12221cad6705c31c0567048a8bd3d1956104f09361076c926107a2575b506128c8565b600154610783846000526002602052604060002090565b55519182526001600160a01b0390921660208201529081906040820190565b806105036107af92610a93565b38610766565b80fd5b610a7d565b50506104f07f878135063a6cfb3bc333e534b1fdc83f4f12221cad6705c31c0567048a8bd3d19361076c846128c8565b508351630f85034f60e31b8152fd5b508351631b93bb7560e31b8152fd5b61082591935060203d602011610551576105438183610af7565b9138610687565b9181601f8401121561038d578235916001600160401b03831161038d576020838186019501011161038d57565b8015150361038d57565b90608060031983011261038d5760043561087c8161037c565b916001600160401b039060243582811161038d578161089d9160040161082c565b939093926044356108ad81610859565b9260643591821161038d576108c49160040161082c565b9091565b60005b8381106108db5750506000910152565b81810151838201526020016108cb565b90602091610904815180928185528580860191016108c8565b601f01601f1916010190565b90602061059f9281815201906108eb565b3461038d5761092f36610863565b949261093e9491929433612d94565b15610a6b576109809161096d9161096661096161095c368b89610b53565b613007565b612931565b3691610b53565b610978368785610b53565b908585613024565b9015610a585761098f816131a1565b15610a1b57806020806109a793518301019101612990565b926109b86109b485613007565b1590565b6109d6575b5050506109d291505b60405191829182610910565b0390f35b919250906109fb5760405163a85ba64f60e01b815260146004820152602490fd5b0390fd5b610a0d610a13916109d2943691610b53565b9161322c565b3880806109bd565b509091610a3b5760405163a85ba64f60e01b815260166004820152602490fd5b610a4d610a53916109d2943691610b53565b916131db565b6109c6565b509050610a5391506109d2923691610b53565b60405163619c535960e01b8152600490fd5b634e487b7160e01b600052604160045260246000fd5b6001600160401b0381116107b857604052565b602081019081106001600160401b038211176107b857604052565b604081019081106001600160401b038211176107b857604052565b60c081019081106001600160401b038211176107b857604052565b90601f801991011681019081106001600160401b038211176107b857604052565b6040519061016082018281106001600160401b038211176107b857604052565b6001600160401b0381116107b857601f01601f191660200190565b929192610b5f82610b38565b91610b6d6040519384610af7565b82948184528183011161038d578281602093846000960137010152565b9080601f8301121561038d5781602061059f93359101610b53565b3461038d5760408060031936011261038d576004908135610bc58161037c565b6024356001600160401b03811161038d57610be39036908501610b8a565b92600654610cf0576001600160a01b03821660009081526020829052839020548015610ce15761800016610cd4576001600160e01b0319610c2385614821565b166330d9c91560e01b8114908115610cc3575b8115610cb2575b8115610ca1575b8115610c90575b8115610c7f575b50610c7157506109d292610c669133613446565b905191829182610910565b82516377a14afb60e11b8152fd5b6353c11f9960e01b14905038610c52565b635f9e7d7760e01b81149150610c4b565b63230dbd2960e01b81149150610c44565b630221347d60e61b81149150610c3d565b63d86ed3e560e01b81149150610c36565b8251628e12d960e21b8152fd5b50825163163cbe4360e01b8152fd5b602490601584519163a85ba64f60e01b8352820152fd5b600091031261038d57565b3461038d57600036600319011261038d5760005460405160109190911c6001600160a01b03168152602090f35b3461038d5760208060031936011261038d57600435610d5d8161037c565b6000805490926001600160a01b039160101c8216330361061357604051635b69006f60e11b81527fdfd8ece9bfbcb8c5c540edb935641f63d67686490a1ab97f000288759f30a94660048201528181602481305afa90811561050f57839183918791610ead575b50600460405180948193635437dd9760e01b8352165afa91821561050f578592610e80575b50501690813b1561060f57604051631b2ce7f360e11b81526001600160a01b038216600482015290838260248183875af190811561050f577f052cea8931962dd445ef48b0b998d3056bd0705f437087d60fe3c46a3fa09e1f92610e6792610e6d575b506040516001600160a01b0390911681529081906020820190565b0390a280f35b80610503610e7a92610a93565b38610e4c565b610e9f9250803d10610ea6575b610e978183610af7565b8101906129b5565b3880610de9565b503d610e8d565b610ec49150823d8411610ea657610e978183610af7565b38610dc4565b3461038d57600036600319011261038d5760206040516001600160401b037f0000000000000000000000000000000000000000000000000000000000000000168152f35b3461038d57606036600319011261038d57600435610f2b8161037c565b6001600160401b0360243581811161038d57610f4b903690600401610b8a565b9160443591821161038d576109d292610f6b610f72933690600401610b8a565b9133613587565b6040519182916020835260208301906108eb565b3461038d57602036600319011261038d576020610fc5600435610fa88161037c565b6001600160a01b0316600090815260046020526040902054151590565b6040519015158152f35b3461038d57602036600319011261038d576004356001600160401b03811161038d57611002611007913690600401610b8a565b612a2f565b60405180916020825261102060208301825160ff169052565b602081015160ff16604083015260408101516060838101919091528101516001600160a01b0316608083015260808101516001600160e01b03191660a08301526109d260a0820151611080610160918260c08701526101808601906108eb565b9260c081015160e086015260e081015161010090818701528101516101209081870152810151906110be610140928388019060018060a01b03169052565b01516001600160a01b031690840152565b90916110e661059f936040845260408401906108eb565b9160208184039101526108eb565b3461038d57608036600319011261038d576004356111118161037c565b6001600160401b039060243582811161038d5761113290369060040161082c565b60449291923584811161038d5761114d90369060040161082c565b9160643595861161038d5761116961117196369060040161082c565b959094612b28565b906109d2604051928392836110cf565b3461038d57602036600319011261038d5760043561119e8161037c565b6000546001600160a01b039060101c81163303610613577f00000000000000000000000000000000000000000000000000000000000000006112545760206004916040519283809263334c4bb160e21b825286165afa90811561050f57600091611225575b506112135761121190613b32565b005b60405163474e764160e01b8152600490fd5b611247915060203d60201161124d575b61123f8183610af7565b810190612c39565b38611203565b503d611235565b6040516314f72c9f60e01b8152600490fd5b3461038d57600036600319011261038d576109d260405161128681610ac1565b6002815261763160f01b60208201526040519182916020835260208301906108eb565b3461038d57600036600319011261038d577f360894a13ba1a3210667c828492db98dca3e2076cc3735a920a3ca505d382bbc546040516001600160a01b039091168152602090f35b3461038d57600036600319011261038d576040517f00000000000000000000000000000000000000000000000000000000000000006001600160a01b03168152602090f35b3461038d57600036600319011261038d5760206040517fcd355cae2c435f8c5e0c626c4691d22fd85aa7422a424c6f0bced6e64c7aba748152f35b3461038d57602036600319011261038d576004803561138f8161037c565b600080549092906001600160a01b039060101c811633036115da5760035481906113c1906001600160a01b0316610463565b16806115545750837f000000000000000000000000000000000000000000000000000000000000000061152e57506040516101bc8082018281106001600160401b038211176107b8578291614a5c8339039085f0801561050f578185911691823b1561051457604051634a0687ef60e01b815294166001600160a01b031683850190815284908190602001038183855af190811561050f5784936114879261151b575b5060018060a01b03166bffffffffffffffffffffffff60a01b6003541617600355565b60035461149c906001600160a01b0316610463565b803b156115175782916040518094819363204a7f0760e21b83525af1801561050f57611504575b505b6003546040516001600160a01b0390911681527fce13a9895a1719ad4493b2ac1a9bfb36070566161abab408e7ecbe586da8d4999080602081016104f0565b8061050361151192610a93565b386114c3565b5050fd5b8061050361152892610a93565b38611464565b600380546001600160a01b0319166001600160a01b039095169490941790935550611487565b907f00000000000000000000000000000000000000000000000000000000000000006105585790849291813b156115d6576040516311a5465560e21b815294166001600160a01b0316918401918252839182908490829060200103925af1801561050f576115c3575b506114c5565b806105036115d092610a93565b386115bd565b8380fd5b506040516362e9152760e11b8152fd5b3461038d57602036600319011261038d576004356116078161037c565b33600090815260046020526040902054156116e7576001600160a01b038116600090815260046020526040902054156116d557336000908152600460205260409020611655905b5460ff1690565b60ff61167f61167961164e8560018060a01b03166000526004602052604060002090565b60ff1690565b911611156116c357336000908152600560205260409020611211916116b6915b9060018060a01b0316600052602052604060002090565b805460ff19166001179055565b604051630447252760e41b8152600490fd5b604051634b5518af60e11b8152600490fd5b6040516302eb3f7160e61b8152600490fd5b3461038d57602036600319011261038d576020610fc560043561171b8161037c565b612c61565b604060031982011261038d57600435906001600160401b03821161038d5761174a9160040161082c565b909160243590565b3461038d5761176036611720565b61176c92919233612d94565b15610a6b576109d292610f729261178a61096161095c368585610b53565b612d4b565b90602060031983011261038d576004356001600160401b039283821161038d578060238301121561038d57816004013593841161038d5760248460051b8301011161038d576024019190565b6117e43661178f565b601836101580611843575b15611806576112119136601319013560601c613ebe565b60405162461bcd60e51b81526020600482015260156024820152742737ba103a393ab9ba32b2103337b93bb0b93232b960591b6044820152606490fd5b5061184d33612c61565b6117ef565b61121161185e3661178f565b9033613ebe565b3461038d57602036600319011261038d576004356118828161037c565b60018060a01b031660005260046020526020618000604060002054161515604051908152f35b3461038d57602036600319011261038d576004356118c58161037c565b6000546001600160a01b03919060101c8216338190036106135760407f13abda02e63c790d0e2818b251282cfe5cbe0a8abd69c54bf5d2260c0907bd2e9161121194825191825284166020820152a16000805462010000600160b01b03191660109290921b62010000600160b01b0316919091179055565b3461038d57600036600319011261038d576003546040516001600160a01b039091168152602090f35b3461038d5761197436610863565b909194929361198233612d94565b15610a6b576119bd926119ad6119b5926119a361096161095c368887610b53565b6060973691610b53565b923691610b53565b90858461310a565b93906119d2575b604051806109d28582610910565b6119de849392936131a1565b15611a03575050506119fc816020806109d294518301019101612990565b38806119c4565b91925090611a245760405163a85ba64f60e01b815260166004820152602490fd5b611a306109d2926131db565b6119fc565b3461038d5760a036600319011261038d576004356001600160401b03811161038d57611a6590369060040161082c565b60243591611a728361037c565b60843591611a7f8361037c565b611a8833612d94565b15610a6b57611aa6916110029161096661096161095c368486610b53565b606081018051919391611ac590610fa8906001600160a01b0316610463565b80611b9c575b611b3b575b6109d26109c685611b3686611b2587611afc611af5611af0875160ff1690565b612d83565b60ff168652565b6003602086015260443560c08601526064356101008601526001600160a01b0316610120850152565b6001600160a01b0316610140830152565b613750565b6109b461164e8361169f611b5e610463611b78969997995160018060a01b031690565b6001600160a01b0316600090815260056020526040902090565b611b83579138611ad0565b60405163a85ba64f60e01b8152601e6004820152602490fd5b50600160ff611bac865160ff1690565b161015611acb565b3461038d57602036600319011261038d576020610fc5600435611bd68161037c565b612d94565b3461038d57600036600319011261038d5760206040516101008152f35b3461038d57602036600319011261038d57600435611c158161037c565b60018060a01b03166000526004602052602060ff60406000205416604051908152f35b3461038d57611c4636611720565b611c5292919233612d94565b15610a6b576109d292610f7292612d4b565b3461038d576000806003193601126107b5578054611c9960ff8260081c161580928193611d34575b8115611d14575b50612e25565b80611cac600160ff196000541617600055565b611cfb575b611cb85780f35b611cc861ff001960005416600055565b604051600181527f7f26b83ff96e1f2b6a682f133852f6798a09c465da95921460cefb38474024989080602081016104f0565b611d0f61010061ff00196000541617600055565b611cb1565b303b15915081611d26575b5038611c93565b6001915060ff161438611d1f565b600160ff8216109150611c8c565b3461038d57600036600319011261038d5760206040517f000000000000000000000000000000000000000000000000000000000000000015158152f35b3461038d57604036600319011261038d5760243560005260026020526040600020548015611dcb576000198101908111611dc6576020906001604051911b19600435168152f35b612856565b604051630e4f4df560e11b8152600490fd5b9081602091031261038d573590565b3461038d57602036600319011261038d577f0000000000000000000000000000000000000000000000000000000000000000611e2f575b6112116004353361474a565b611e4032611e3b612e88565b61464f565b611e23565b3461038d57602036600319011261038d5760043560005260026020526040600020548015611dcb576000198101818111611dc6576001541115611ebf5760016000527fb10e2d527612073b26eecdfd717e6a320cf44b4afac2b0732d9fcbe2b7fa0cf501546040516001600160a01b039091168152602090f35b61287b565b3461038d57606036600319011261038d576004356001600160401b03811161038d57611ef490369060040161082c565b9060243590611f028261037c565b611f0b33612d94565b15610a6b576109d2926109666109c693611f2c61096161095c368688610b53565b604435906132cc565b3461038d57606036600319011261038d576004803590611f548261037c565b6001600160401b0360243581811161038d57611f73903690840161082c565b9160443590811161038d57611f8b903690850161082c565b949093611f9c61095c368888610b53565b156120aa576001600160a01b038216600090815260208290526040902054801561209a576180001661208c576001600160e01b0319611fe4611fdf368787610b53565b614821565b166330d9c91560e01b811490811561207b575b811561206a575b8115612059575b8115612048575b8115612037575b50612028576109d26109c68787878787612ea6565b6040516377a14afb60e11b8152fd5b6353c11f9960e01b14905038612013565b635f9e7d7760e01b8114915061200c565b63230dbd2960e01b81149150612005565b630221347d60e61b81149150611ffe565b63d86ed3e560e01b81149150611ff7565b604051628e12d960e21b8152fd5b5060405163163cbe4360e01b8152fd5b60249060146040519163a85ba64f60e01b8352820152fd5b3461038d57604036600319011261038d57602060ff61211e6004356120e68161037c565b602435906120f38261037c565b60018060a01b03166000526005845260406000209060018060a01b0316600052602052604060002090565b54166040519015158152f35b3461038d57600036600319011261038d576020604051428152f35b3461038d57604036600319011261038d5760243560005260026020526040600020548015611dcb576000198101908111611dc6576020906001604051911b600435178152f35b3461038d57604036600319011261038d576024356001600160401b03811161038d576121bb90369060040161082c565b7f00000000000000000000000000000000000000000000000000000000000000006121ec576112116004353361474a565b611e3b6121fc9232923691610b53565b3880611e23565b3461038d57600036600319011261038d57602060405160018152f35b3461038d57602036600319011261038d576004356001600160401b03811161038d57610fc561095c610966602093369060040161082c565b3461038d57602036600319011261038d576004356122748161037c565b6122da6000549161229a60ff8460081c161580948195611d34578115611d145750612e25565b826122ad600160ff196000541617600055565b61231f576000805462010000600160b01b03191660109290921b62010000600160b01b0316919091179055565b6122e057005b6122f061ff001960005416600055565b604051600181527f7f26b83ff96e1f2b6a682f133852f6798a09c465da95921460cefb384740249890602090a1005b61233361010061ff00196000541617600055565b6000805462010000600160b01b03191660109290921b62010000600160b01b0316919091179055565b602090602060408183019282815285518094520193019160005b828110612384575050505090565b83516001600160a01b031685529381019392810192600101612376565b3461038d57602036600319011261038d576004356000906001916001546123c781612f4a565b926123d56040519485610af7565b818452601f196123e483612f4a565b01366020860137825b82811061240557838552604051806109d2878261235c565b808680921b8316612417575b016123ed565b60008290527fb10e2d527612073b26eecdfd717e6a320cf44b4afac2b0732d9fcbe2b7fa0cf681015461246f906001600160a01b031661246061245988612f61565b9789612f70565b6001600160a01b039091169052565b612411565b3461038d57604036600319011261038d576004356124918161037c565b6001600160a01b0381163b156124e557611211907f00000000000000000000000000000000000000000000000000000000000000006124d4575b6024359061474a565b6124e033611e3b612e88565b6124cb565b60405163353dacc360e21b8152600490fd5b3461038d57600036600319011261038d5760206040517f000000000000000000000000000000000000000000000000000000000000000015158152f35b3461038d57602036600319011261038d57600435600052600260205260206040600020541515604051908152f35b3461038d57600036600319011261038d57602061257d612f84565b6040516001600160a01b039091168152f35b3461038d57604036600319011261038d576004356125ac8161037c565b6001600160a01b0381163b156124e5577f00000000000000000000000000000000000000000000000000000000000000006125ef575b611211906024359061474a565b61264760206125fd33614876565b6000546126159060101c6001600160a01b0316610463565b60405163407b865d60e11b81523060048201526000602482015260448101929092529092839190829081906064820190565b03915afa801561050f57600191600091612675575b50146125e2575b604051630b56455f60e41b8152600490fd5b61268e915060203d602011610551576105438183610af7565b3861265c565b3461038d57602036600319011261038d576004356126b18161037c565b6001600160a01b031660009081526004602090815260408083209051918201929081906001600160401b038511848610176107b85760609460405254809352821515928361270f575b50604051928352151560208301526040820152f35b64ff00000000811692506180001615159050386126fa565b3461038d576127353661057a565b600080549092916001600160a01b039160101c8216330361061357808216156127d557915b1690813b1561060f576040516311a5465560e21b81526001600160a01b038216600482015290838260248183875af190811561050f577f840acbd291b38534819f47f875839277e502f40e1c7bfea2c5fc2c8017442cd392610e6792610e6d57506040516001600160a01b0390911681529081906020820190565b506003546004906020906127f1906001600160a01b0316610463565b604051634a3852d960e11b815292839182905afa801561050f578291859161281c575b50169161275a565b612835915060203d602011610ea657610e978183610af7565b38612814565b9081602091031261038d575190565b6040513d6000823e3d90fd5b634e487b7160e01b600052601160045260246000fd5b600019810191908211611dc657565b634e487b7160e01b600052603260045260246000fd5b600154811015611ebf5760016000527fb10e2d527612073b26eecdfd717e6a320cf44b4afac2b0732d9fcbe2b7fa0cf60190600090565b600154680100000000000000008110156107b8576001810180600155811015611ebf5760016000527fb10e2d527612073b26eecdfd717e6a320cf44b4afac2b0732d9fcbe2b7fa0cf60180546001600160a01b0319166001600160a01b03909216919091179055565b1561293857565b634e487b7160e01b600052600160045260246000fd5b81601f8201121561038d57805161296481610b38565b926129726040519485610af7565b8184526020828401011161038d5761059f91602080850191016108c8565b9060208282031261038d5781516001600160401b03811161038d5761059f920161294e565b9081602091031261038d575161059f8161037c565b6040519061016082018281106001600160401b038211176107b85760405281610140600091828152826020820152826040820152826060820152826080820152606060a08201528260c08201528260e082015282610100820152826101208201520152565b612a376129ca565b50612a9c612af6612b08612ade612a81612a4f6129ca565b95612ad1612aca612ac060808a612a7186519660208080998301019101613643565b9790878082518301019101613686565b60a08601526001600160e01b0319169390940192909252919a565b6001600160a01b039a8b1660608d015260408c015290600f60ff83169260201c1690565b60ff168a85015290565b60ff168852565b80825183010191016136de565b6001600160a01b031661014088015291949093909190565b166001600160a01b0316610120850152565b6101008301526001600160801b03811660c083015260801c60e082015290565b9296959490919394612b3e61095c368385610b53565b15612c2057612b4c84612d94565b15610a6b57612b6091611002913691610b53565b61012081015190946001600160a01b039290913390841603612c0e57612bb386612ba9612ba39a612bbb956109666060612bc29c019d8e5160018060a01b031690565b33909e52565b60a0820152613750565b943691610b53565b9116613908565b929015612c0857612c0490611b36612bf2612be66020875188010160208801612990565b61100261096182613007565b6001600160a01b039092166060830152565b9190565b826139cf565b60405163066875e160e11b8152600490fd5b60405163a85ba64f60e01b815260146004820152602490fd5b9081602091031261038d575161059f81610859565b60405190612c5b82610aa6565b60008252565b6020612d139160018060a01b03908160005460101c1691604051908482019260408452603260608401527f6f72672e7375706572666c7569642d66696e616e63652e7375706572666c756960808401527132173a393ab9ba32b22337b93bb0b93232b960711b60a084015216604082015260a08152612cdf81610adc565b51902060405163407b865d60e11b815230600482015260006024820152604481019190915292839190829081906064820190565b03915afa90811561050f57600091612d2c575b50151590565b612d45915060203d602011610551576105438183610af7565b38612d26565b61100290612d5a923691610b53565b610100810191825160008282019283129112908015821691151617611dc65761059f9252613750565b60ff1660ff8114611dc65760010190565b604051633b982ccf60e11b81526001600160a01b0391821690602081600481855afa90811561050f57600091612e06575b506000526002602052604060002054918215159283612de5575b50505090565b612df5919293506104499061286c565b90549060031b1c1614388080612ddf565b612e1f915060203d602011610551576105438183610af7565b38612dc5565b15612e2c57565b60405162461bcd60e51b815260206004820152602e60248201527f496e697469616c697a61626c653a20636f6e747261637420697320616c72656160448201526d191e481a5b9a5d1a585b1a5e995960921b6064820152608490fd5b60405190612e9582610ac1565b60028252616b3160f01b6020830152565b93612eb79193611002913691610b53565b6101208101519093906001600160a01b03903390821603612f3857612bbb612efa94612bb36060880197611b36612ef48a5160018060a01b031690565b33909a52565b9015612f335780602080612f1393518301019101612990565b90612f206109b483613007565b612c2057611b36612bf261059f93612a2f565b6139cf565b6040516311cfdef560e21b8152600490fd5b6001600160401b0381116107b85760051b60200190565b6000198114611dc65760010190565b8051821015611ebf5760209160051b010190565b6003546001600160a01b0316612f9b811515612931565b7f000000000000000000000000000000000000000000000000000000000000000015612fc45790565b6020600491604051928380926350d75d2560e01b82525afa90811561050f57600091612fee575090565b61059f915060203d602011610ea657610e978183610af7565b8051801515918261301757505090565b6020012060065414919050565b9290916130a0916001600160a01b0385169161304b9190613046841515612931565b6148f5565b60008080925a9482602083519301916001600160401b037f000000000000000000000000000000000000000000000000000000000000000016f161308d6138d8565b9281156130ef575b501515929015159190565b9491939092859385156130b7575b50505090919250565b6130dd576130c557846139cf565b6130d2919293945061327c565b9082913880806130ae565b604051636a7aea4b60e11b8152600490fd5b5a9060061c1015613101575b38613095565b600191506130fb565b936001600160a01b038516939192909161312991613046861515612931565b9360008080965a96602082519201906001600160401b037f000000000000000000000000000000000000000000000000000000000000000016fa9261316c6138d8565b9584159586613187575b508694956130b75750505090919250565b5a9060061c1015613199575b38613176565b506001613193565b805190604082106131d457602080820151036131d45760406131c49101516149b6565b6040019081604011611dc6571490565b5050600090565b6001600160a01b0316600081815260046020526040902080546180009081811615613207575b50505050565b179055600080516020614c18833981519152602060405160168152a238808080613201565b6001600160a01b03166000818152600460205260409020805461800090818116156132575750505050565b179055600080516020614c18833981519152602060405160148152a238808080613201565b6001600160a01b03166000818152600460205260409020805461800090818116156132a75750505050565b179055600080516020614c188339815191526020604051600a8152a238808080613201565b6001600160a01b03166000818152600460205260409020805491926180009291838316156132fc575b5050505050565b600080516020614c1883398151915293602093179055604051908152a238808080806132f5565b92919060065461342d576001600160a01b038116600090815260046020526040902054801561341b576180001661340a576001600160e01b031961336684614821565b166330d9c91560e01b81149081156133f9575b81156133e8575b81156133d7575b81156133c6575b81156133b5575b506133a35761059f9361350e565b6040516377a14afb60e11b8152600490fd5b6353c11f9960e01b14905038613395565b635f9e7d7760e01b8114915061338e565b63230dbd2960e01b81149150613387565b630221347d60e61b81149150613380565b63d86ed3e560e01b81149150613379565b604051628e12d960e21b8152600490fd5b60405163163cbe4360e01b8152600490fd5b60405163a85ba64f60e01b815260156004820152602490fd5b6134db926001600160a01b0390921691906134d590613463610b18565b9061349060009182845261347a6020850160029052565b4260408501526001600160a01b03166060840152565b80608083015261349e612c4e565b60a083015260c0820181905260e0820181905261010082018190526001600160a01b0385166101208301525b610140820152613750565b91613908565b809291600014612f33576109b461095c826020806134fe95518301019101612990565b612c205761350c6000600655565b565b6134db936001600160a01b039092169291906135819061352c610b18565b9061354360009182845261347a6020850160029052565b806080830152613551612c4e565b60a083015260c0820181905260e0820181905261010082018190526001600160a01b0386166101208301526134ca565b92613964565b91909160065461342d5761359a83612d94565b15610a6b5761363393613624916135b084614821565b916135fa6135bc610b18565b936135e96000948587526135d36020880160019052565b4260408801526001600160a01b03166060870152565b6001600160e01b0319166080850152565b60a08301528060c08301528060e08301528061010083015280610120830152610140820152613750565b916001600160a01b0316613908565b9015612f335761059f6000600655565b91909160408184031261038d578051926001600160401b039384811161038d578161366f91840161294e565b93602083015190811161038d5761059f920161294e565b91909160a08184031261038d5780519260208201519260408301516136aa8161037c565b92606081015163ffffffff60e01b8116810361038d579260808201516001600160401b03811161038d5761059f920161294e565b919082608091031261038d57815191602081015191606060408301516137038161037c565b92015161059f8161037c565b90815260208101919091526001600160a01b0390911660408201526001600160e01b0319909116606082015260a06080820181905261059f929101906108eb565b90600160ff613760845160ff1690565b16116138bf5761350c826138b661379961377e6138aa965160ff1690565b602084015160ff1664ff0000000060ff9160201b1691161790565b916001600160801b036138996137b260c08401516149f2565b61388d6137da6137d46137c860e08801516149f2565b6001600160801b031690565b60801b90565b60408601516060870151909890613818906001600160a01b031660808901516001600160e01b03191660a08a0151916040519c8d956020870161370f565b039561382c601f19978881018b528a610af7565b61010081015161012082015161385890610140906001600160a01b03169301516001600160a01b031690565b926040519788961617602086019290949360609260808501968552602085015260018060a01b03809216604085015216910152565b03838101835282610af7565b6040519687916020830195866110cf565b03908101865285610af7565b83519020600655565b60405163a85ba64f60e01b815260286004820152602490fd5b3d15613903573d906138e982610b38565b916138f76040519384610af7565b82523d6000602084013e565b606090565b600092839261392691906130466001600160a01b0385161515612931565b9082602083519301915af19061393a6138d8565b908261394257565b81511561394b57565b60405163a85ba64f60e01b815260166004820152602490fd5b60009384939261398391906130466001600160a01b0385161515612931565b91602083519301915af19061393a6138d8565b604051906139a382610ac1565b602082527f43616c6c5574696c733a207461726765742070616e69636b65643a2030785f5f6020830152565b8051906004821015613a205760405162461bcd60e51b815260206004820152601a60248201527f43616c6c5574696c733a207461726765742072657665727428290000000000006044820152606490fd5b6020810180516001600160e01b031916634e487b7160e01b03613a8a576109f7826024613a4b613996565b91015160208201908151906030600f81818416019260041c160160081b179061ffff191617905260405191829162461bcd60e51b835260048301610910565b9050fd5b15613a9557565b60405162461bcd60e51b815260206004820152602360248201527f5555505350726f786961626c653a206e6f7420636f6d70617469626c65206c6f60448201526267696360e81b6064820152608490fd5b15613aed57565b60405162461bcd60e51b815260206004820152601960248201527f5555505350726f786961626c653a2070726f7879206c6f6f70000000000000006044820152606490fd5b7f360894a13ba1a3210667c828492db98dca3e2076cc3735a920a3ca505d382bbc546001600160a01b0390811615613c75576040516352d1902d60e01b815290821691602082600481865afa801561050f577fe011bc04c286c344a8fcbb8de77f953da762c3e25d8cdea984147fc4168a5dcc93613be1613be992613c5195600091613c56575b507fcd355cae2c435f8c5e0c626c4691d22fd85aa7422a424c6f0bced6e64c7aba7414613a8e565b301415613ae6565b613c11817f360894a13ba1a3210667c828492db98dca3e2076cc3735a920a3ca505d382bbc55565b604080517fcd355cae2c435f8c5e0c626c4691d22fd85aa7422a424c6f0bced6e64c7aba7481526001600160a01b03909216602083015290918291820190565b0390a1565b613c6f915060203d602011610551576105438183610af7565b38613bb9565b60405162461bcd60e51b815260206004820152601d60248201527f5555505350726f786961626c653a206e6f742075706772616461626c650000006044820152606490fd5b9190811015611ebf5760051b81013590605e198136030182121561038d570190565b3563ffffffff8116810361038d5790565b3561059f8161037c565b903590601e198136030182121561038d57018035906001600160401b03821161038d5760200191813603831361038d57565b91909160408184031261038d578051613d4181610859565b9260208201516001600160401b03811161038d5761059f920161294e565b908060209392818452848401376000828201840152601f01601f1916010190565b6001600160a01b0391821681529116602082015260606040820181905261059f93910191613d5f565b6001600160a01b03909116815260406020820181905261059f93910191613d5f565b91909160408184031261038d576001600160401b0392813584811161038d5781613df6918401610b8a565b93602083013590811161038d5761059f9201610b8a565b919082604091031261038d5760208235613e268161037c565b92013590565b9160608383031261038d578235613e428161037c565b9260208101359260408201356001600160401b03811161038d5761059f9201610b8a565b6001600160a01b03918216815291166020820152604081019190915260806060820181905261059f929101906108eb565b9081606091031261038d578035613ead8161037c565b9160406020830135613e268161037c565b9160005b818110613f015750505047613ed45750565b600080808093479082908215613ef7575b6001600160a01b031690f11561050f57565b6108fc9150613ee5565b80613f22613f19613f1486948686613cba565b613cdc565b63ffffffff1690565b60018103613fda5750908183613f3792613cba565b90613f52613f4a60409384810190613cf7565b810190613e0d565b613f716104636104636020613f6b878a8c9a989a613cba565b01613ced565b803b1561038d5791516362aa528760e01b81526001600160a01b03888116600483015294909416602485015260448401526000908390606490829084905af191821561050f57600192613fc7575b505b01613ec2565b80610503613fd492610a93565b38613fbf565b600281036140a15750613fee818484613cba565b61400861400060409283810190613cf7565b810190613e97565b6140296104636104636020613f6b898c60018060a09e9b9a9e1b0399613cba565b91823b1561038d579351630b682aeb60e11b81526001600160a01b038a811660048301529484168516602482015295909216909216604485015260648401526000908390818381608481015b03925af191821561050f5760019261408e575b50613fc1565b8061050361409b92610a93565b38614088565b9091506003810361412357506140b8818385613cba565b906140d36140cb60409384810190613cf7565b810190613e2c565b93916140eb6104636104636020613f6b888b8d613cba565b90813b1561038d57925163ca0c1e7f60e01b815294600093869384928692849261407592916001600160a01b03168e60048601613e66565b6004908082036141c257509061413a818486613cba565b61414c613f4a60409283810190613cf7565b93906141646104636104636020613f6b888b8d613cba565b90813b1561038d579251634b2763b360e01b81526001600160a01b03808a1693820193845290931660208301526040820194909452909260009184919082908490829060600103925af191821561050f5760019261408e5750613fc1565b6005810361424c5750906141d7818486613cba565b6141e9613f4a60409283810190613cf7565b93906142016104636104636020613f6b888b8d613cba565b90813b1561038d5792516363c07ec160e11b81526001600160a01b03808a16938201938452909316602083015260408201949094529092600091849190829084908290606001614075565b606581036142e557509061426c6104636104636020613f6b85888a613cba565b614277828587613cba565b9061429261428a60409384810190613cf7565b810190611ddd565b90803b1561038d57915163329e251960e21b81526001600160a01b038816948101948552602085019190915292600091849182908490829060400103925af191821561050f5760019261408e5750613fc1565b606681036143635750906143056104636104636020613f6b85888a613cba565b614310828587613cba565b9061432361428a60409384810190613cf7565b90803b1561038d57915163091621ff60e21b81526001600160a01b0388169481019485526020850191909152926000918491829084908290604001614075565b60678103614400575090614378818486613cba565b61438a613f4a60409283810190613cf7565b93906143a26104636104636020613f6b888b8d613cba565b90813b1561038d5792516306ba23ff60e21b81526001600160a01b03808a1693820193845290931660208301526040820194909452909260009184919082908490829060600103925af191821561050f5760019261408e5750613fc1565b6068810361448a575090614415818486613cba565b614427613f4a60409283810190613cf7565b939061443f6104636104636020613f6b888b8d613cba565b90813b1561038d5792516347ba7ad160e01b81526001600160a01b03808a16938201938452909316602083015260408201949094529092600091849190829084908290606001614075565b60c981036144de575050806140886144bd6144b56144ab6001958789613cba565b6040810190613cf7565b810190613dcb565b906144d16104636020613f6b878a8c613cba565b858060a01b038916613587565b60ca8103614521575050806140886145016104636020613f6b600196888a613cba565b476145136109666144ab86898b613cba565b91858060a01b038916613323565b61012d81036145eb5750600061457991476145426020613f6b87898b613cba565b61454d86888a613cba565b9261455d60409485810190613cf7565b96909451968795869485946308afb92560e21b86528501613da9565b03917f00000000000000000000000000000000000000000000000000000000000000006001600160a01b03165af190811561050f5760009081926145c7575b5015612f335750600190613fc1565b906145e492503d8091833e6145dc8183610af7565b810190613d29565b90386145b8565b61012e0361464057600085476146076020613f6b87898b613cba565b61461286888a613cba565b9461457961462560409788810190613cf7565b909751978896879586956305dfb16560e21b87528601613d80565b60405163b477011560e01b8152fd5b61470f916146e66146f46020936040519283918683019560608752604160808501527f6f72672e7375706572666c7569642d66696e616e63652e7375706572666c756960a08501527f642e61707057686974654c697374696e672e726567697374726174696f6e4b6560c0850152607960f81b60e085015260018060a01b0316604084015260e060608401526101008301906108eb565b03601f198101835282610af7565b5190206000546126159060101c6001600160a01b0316610463565b03915afa90811561050f5760009161472b575b50421161266357565b614744915060203d602011610551576105438183610af7565b38614722565b9064ff000080ff19811615801590614816575b8015614809575b6147f7576001600160a01b0382166000908152600460205260409020546147e5576040516147b59161479582610aa6565b81526001600160a01b038316600090815260046020526040902090519055565b6001600160a01b03167f0d540ad8f39e07d19909687352b9fa017405d93c91a6760981fbae9cf28bfef7600080a2565b6040516301b0a93560e01b8152600490fd5b604051633d3200a960e21b8152600490fd5b5061800081161515614764565b5060ff81161561475d565b6004815110614831576020015190565b60405162461bcd60e51b815260206004820152601b60248201527f43616c6c5574696c733a20696e76616c69642063616c6c4461746100000000006044820152606490fd5b604051602081019160408352603960608301527f6f72672e7375706572666c7569642d66696e616e63652e7375706572666c756960808301527f642e61707057686974654c697374696e672e666163746f72790000000000000060a083015260018060a01b0316604082015260a081526148ef81610adc565b51902090565b90815191828101516149a457601f199283018152815192614915846149b6565b9183518303928311611dc65761059f938361499661494c614937604097610b38565b9261494488519485610af7565b808452610b38565b9260209586840194013685378651988561496f8b975180928a808b0191016108c8565b8601908782015261498882518093898b850191016108c8565b0191518093878401906108c8565b010390810184520182610af7565b6040516367e9985b60e01b8152600490fd5b600581901c90601f16156149e95760ff60015b168101809111611dc6578060051b9080820460201490151715611dc65790565b60ff60006149c9565b6001600160801b0390818111614a06571690565b60405162461bcd60e51b815260206004820152602760248201527f53616665436173743a2076616c756520646f65736e27742066697420696e20316044820152663238206269747360c81b6064820152608490fdfe60808060405234610016576101a0908161001c8239f35b600080fdfe60806040526004361015610018575b3661012957610129565b6000803560e01c634a0687ef1461002f575061000e565b34610126576020366003190112610126576004356001600160a01b0380821680830361012257156100e4577f360894a13ba1a3210667c828492db98dca3e2076cc3735a920a3ca505d382bbc54166100a6577f360894a13ba1a3210667c828492db98dca3e2076cc3735a920a3ca505d382bbc5580f35b62461bcd60e51b6080526020608452601e60a4527f5555505350726f78793a20616c726561647920696e697469616c697a6564000060c45260646080fd5b62461bcd60e51b6080526020608452601760a4527f5555505350726f78793a207a65726f206164647265737300000000000000000060c45260646080fd5b8380fd5b80fd5b7f360894a13ba1a3210667c828492db98dca3e2076cc3735a920a3ca505d382bbc546000808092368280378136915af43d82803e15610166573d90f35b3d90fdfea264697066735822122089e7b7b2a0eb2d44bff951d65e8c8b61c6602fc31e0dcbfa4b8bbd501cc89b7b64736f6c63430008170033be3aa33bd245135e4e26b223d79d14ea479a47bff09f2b03c53838af1edbb14ba264697066735822122049c08a20822683342a1af9628ce5b4b2f7f75ce1537193f210b0b819af47ea4664736f6c63430008170033","linkReferences":{}},"methodIdentifiers":{"APP_WHITE_LISTING_ENABLED()":"9d297e30","CALLBACK_GAS_LIMIT()":"33d608f1","DMZ_FORWARDER()":"51e3bb82","MAX_APP_CALLBACK_LEVEL()":"bd3252c8","MAX_NUM_AGREEMENTS()":"8ceddd7a","NON_UPGRADABLE_DEPLOYMENT()":"cd312ec4","addToAgreementClassesBitmap(uint256,bytes32)":"bced3ddc","allowCompositeApp(address)":"57121e0c","appCallbackPop(bytes,int256)":"989b0c3e","appCallbackPush(bytes,address,uint256,int256,address)":"768fabb0","batchCall((uint32,address,bytes)[])":"6ad3ca7d","callAgreement(address,bytes,bytes)":"39255d5b","callAgreementWithContext(address,bytes,bytes,bytes)":"4329d293","callAppAction(address,bytes)":"1e855cf3","callAppActionWithContext(address,bytes,bytes)":"ba48b5f8","callAppAfterCallback(address,bytes,bool,bytes)":"1e6d0a84","callAppBeforeCallback(address,bytes,bool,bytes)":"74041e02","castrate()":"9903ad38","changeSuperTokenAdmin(address,address)":"0c565075","ctxUseCredit(bytes,int256)":"59a29141","decodeCtx(bytes)":"3f6c923a","forwardBatchCall((uint32,address,bytes)[])":"670e77e3","getAgreementClass(bytes32)":"b6d200de","getAppCallbackLevel(address)":"9378fa13","getAppManifest(address)":"f9f522f4","getCodeAddress()":"50d75d25","getGovernance()":"289b3c0d","getNow()":"bbe4fd50","getSuperTokenFactory()":"731aed6e","getSuperTokenFactoryLogic()":"f2e55caf","initialize(address)":"c4d66de8","isAgreementClassListed(address)":"8ca48484","isAgreementTypeListed(bytes32)":"e8dccb7d","isApp(address)":"3ca3ad4e","isAppJailed(address)":"6b4f3335","isCompositeAppAllowed(address,address)":"bb84cfa1","isCtxValid(bytes)":"bf428734","isTrustedForwarder(address)":"572b6c05","jailApp(bytes,address,uint256)":"b724211e","mapAgreementClasses(uint256)":"c56a069d","proxiableUUID()":"52d1902d","registerAgreementClass(address)":"15a024e1","registerApp(address,uint256)":"c60944a6","registerApp(uint256)":"ad3915c8","registerAppByFactory(address,uint256)":"f3733052","registerAppWithKey(uint256,string)":"bd1c448b","removeFromAgreementClassesBitmap(uint256,bytes32)":"a5dbbbcd","replaceGovernance(address)":"7283100c","updateAgreementClass(address)":"06cecba8","updateCode(address)":"46951954","updatePoolBeaconLogic(address)":"2f89bf89","updateSuperTokenFactory(address)":"54fbc493","updateSuperTokenLogic(address,address)":"fa6e0cfe","versionRecipient()":"486ff0cd"},"id":109}