{"abi":[{"type":"constructor","inputs":[{"name":"host","type":"address","internalType":"contract ISuperfluid"},{"name":"gdaV1","type":"address","internalType":"contract IGeneralDistributionAgreementV1"}],"stateMutability":"nonpayable"},{"type":"function","name":"DEFAULT_BASE_URI","inputs":[],"outputs":[{"name":"","type":"string","internalType":"string"}],"stateMutability":"view"},{"type":"function","name":"GENERAL_DISTRIBUTION_AGREEMENT_V1","inputs":[],"outputs":[{"name":"","type":"address","internalType":"contract IGeneralDistributionAgreementV1"}],"stateMutability":"view"},{"type":"function","name":"HOST","inputs":[],"outputs":[{"name":"","type":"address","internalType":"contract ISuperfluid"}],"stateMutability":"view"},{"type":"function","name":"approve","inputs":[{"name":"to","type":"address","internalType":"address"},{"name":"tokenId","type":"uint256","internalType":"uint256"}],"outputs":[],"stateMutability":"nonpayable"},{"type":"function","name":"balanceOf","inputs":[{"name":"","type":"address","internalType":"address"}],"outputs":[{"name":"balance","type":"uint256","internalType":"uint256"}],"stateMutability":"pure"},{"type":"function","name":"baseURI","inputs":[],"outputs":[{"name":"","type":"string","internalType":"string"}],"stateMutability":"pure"},{"type":"function","name":"castrate","inputs":[],"outputs":[],"stateMutability":"nonpayable"},{"type":"function","name":"getApproved","inputs":[{"name":"tokenId","type":"uint256","internalType":"uint256"}],"outputs":[{"name":"","type":"address","internalType":"address"}],"stateMutability":"view"},{"type":"function","name":"getCodeAddress","inputs":[],"outputs":[{"name":"codeAddress","type":"address","internalType":"address"}],"stateMutability":"view"},{"type":"function","name":"getTokenId","inputs":[{"name":"pool","type":"address","internalType":"address"},{"name":"member","type":"address","internalType":"address"}],"outputs":[{"name":"tokenId","type":"uint256","internalType":"uint256"}],"stateMutability":"view"},{"type":"function","name":"initialize","inputs":[{"name":"nftName","type":"string","internalType":"string"},{"name":"nftSymbol","type":"string","internalType":"string"}],"outputs":[],"stateMutability":"nonpayable"},{"type":"function","name":"isApprovedForAll","inputs":[{"name":"owner","type":"address","internalType":"address"},{"name":"operator","type":"address","internalType":"address"}],"outputs":[{"name":"","type":"bool","internalType":"bool"}],"stateMutability":"view"},{"type":"function","name":"name","inputs":[],"outputs":[{"name":"","type":"string","internalType":"string"}],"stateMutability":"view"},{"type":"function","name":"onCreate","inputs":[{"name":"pool","type":"address","internalType":"address"},{"name":"member","type":"address","internalType":"address"}],"outputs":[],"stateMutability":"nonpayable"},{"type":"function","name":"onDelete","inputs":[{"name":"pool","type":"address","internalType":"address"},{"name":"member","type":"address","internalType":"address"}],"outputs":[],"stateMutability":"nonpayable"},{"type":"function","name":"onUpdate","inputs":[{"name":"pool","type":"address","internalType":"address"},{"name":"member","type":"address","internalType":"address"}],"outputs":[],"stateMutability":"nonpayable"},{"type":"function","name":"ownerOf","inputs":[{"name":"tokenId","type":"uint256","internalType":"uint256"}],"outputs":[{"name":"","type":"address","internalType":"address"}],"stateMutability":"view"},{"type":"function","name":"poolMemberDataByTokenId","inputs":[{"name":"tokenId","type":"uint256","internalType":"uint256"}],"outputs":[{"name":"data","type":"tuple","internalType":"struct IPoolMemberNFT.PoolMemberNFTData","components":[{"name":"pool","type":"address","internalType":"address"},{"name":"member","type":"address","internalType":"address"},{"name":"units","type":"uint128","internalType":"uint128"}]}],"stateMutability":"view"},{"type":"function","name":"proxiableUUID","inputs":[],"outputs":[{"name":"","type":"bytes32","internalType":"bytes32"}],"stateMutability":"pure"},{"type":"function","name":"safeTransferFrom","inputs":[{"name":"from","type":"address","internalType":"address"},{"name":"to","type":"address","internalType":"address"},{"name":"tokenId","type":"uint256","internalType":"uint256"}],"outputs":[],"stateMutability":"nonpayable"},{"type":"function","name":"safeTransferFrom","inputs":[{"name":"from","type":"address","internalType":"address"},{"name":"to","type":"address","internalType":"address"},{"name":"tokenId","type":"uint256","internalType":"uint256"},{"name":"data","type":"bytes","internalType":"bytes"}],"outputs":[],"stateMutability":"nonpayable"},{"type":"function","name":"setApprovalForAll","inputs":[{"name":"operator","type":"address","internalType":"address"},{"name":"approved","type":"bool","internalType":"bool"}],"outputs":[],"stateMutability":"nonpayable"},{"type":"function","name":"supportsInterface","inputs":[{"name":"interfaceId","type":"bytes4","internalType":"bytes4"}],"outputs":[{"name":"","type":"bool","internalType":"bool"}],"stateMutability":"pure"},{"type":"function","name":"symbol","inputs":[],"outputs":[{"name":"","type":"string","internalType":"string"}],"stateMutability":"view"},{"type":"function","name":"tokenURI","inputs":[{"name":"tokenId","type":"uint256","internalType":"uint256"}],"outputs":[{"name":"","type":"string","internalType":"string"}],"stateMutability":"view"},{"type":"function","name":"transferFrom","inputs":[{"name":"from","type":"address","internalType":"address"},{"name":"to","type":"address","internalType":"address"},{"name":"tokenId","type":"uint256","internalType":"uint256"}],"outputs":[],"stateMutability":"nonpayable"},{"type":"function","name":"triggerMetadataUpdate","inputs":[{"name":"tokenId","type":"uint256","internalType":"uint256"}],"outputs":[],"stateMutability":"nonpayable"},{"type":"function","name":"updateCode","inputs":[{"name":"newAddress","type":"address","internalType":"address"}],"outputs":[],"stateMutability":"nonpayable"},{"type":"event","name":"Approval","inputs":[{"name":"owner","type":"address","indexed":true,"internalType":"address"},{"name":"approved","type":"address","indexed":true,"internalType":"address"},{"name":"tokenId","type":"uint256","indexed":true,"internalType":"uint256"}],"anonymous":false},{"type":"event","name":"ApprovalForAll","inputs":[{"name":"owner","type":"address","indexed":true,"internalType":"address"},{"name":"operator","type":"address","indexed":true,"internalType":"address"},{"name":"approved","type":"bool","indexed":false,"internalType":"bool"}],"anonymous":false},{"type":"event","name":"CodeUpdated","inputs":[{"name":"uuid","type":"bytes32","indexed":false,"internalType":"bytes32"},{"name":"codeAddress","type":"address","indexed":false,"internalType":"address"}],"anonymous":false},{"type":"event","name":"Initialized","inputs":[{"name":"version","type":"uint8","indexed":false,"internalType":"uint8"}],"anonymous":false},{"type":"event","name":"MetadataUpdate","inputs":[{"name":"tokenId","type":"uint256","indexed":false,"internalType":"uint256"}],"anonymous":false},{"type":"event","name":"Transfer","inputs":[{"name":"from","type":"address","indexed":true,"internalType":"address"},{"name":"to","type":"address","indexed":true,"internalType":"address"},{"name":"tokenId","type":"uint256","indexed":true,"internalType":"uint256"}],"anonymous":false},{"type":"error","name":"POOL_MEMBER_NFT_HAS_UNITS","inputs":[]},{"type":"error","name":"POOL_MEMBER_NFT_NO_UNITS","inputs":[]},{"type":"error","name":"POOL_MEMBER_NFT_NO_ZERO_MEMBER","inputs":[]},{"type":"error","name":"POOL_MEMBER_NFT_NO_ZERO_POOL","inputs":[]},{"type":"error","name":"POOL_NFT_APPROVE_CALLER_NOT_OWNER_OR_APPROVED_FOR_ALL","inputs":[]},{"type":"error","name":"POOL_NFT_APPROVE_TO_CALLER","inputs":[]},{"type":"error","name":"POOL_NFT_APPROVE_TO_CURRENT_OWNER","inputs":[]},{"type":"error","name":"POOL_NFT_INVALID_TOKEN_ID","inputs":[]},{"type":"error","name":"POOL_NFT_NOT_REGISTERED_POOL","inputs":[]},{"type":"error","name":"POOL_NFT_ONLY_SUPER_TOKEN_FACTORY","inputs":[]},{"type":"error","name":"POOL_NFT_TRANSFER_CALLER_NOT_OWNER_OR_APPROVED_FOR_ALL","inputs":[]},{"type":"error","name":"POOL_NFT_TRANSFER_NOT_ALLOWED","inputs":[]}],"bytecode":{"object":"0x60c03461009357601f61196238819003918201601f19168301916001600160401b038311848410176100985780849260409485528339810103126100935780516001600160a01b03918282168203610093576020015191821682036100935760805260a0526040516118b390816100af8239608051818181610d5c0152610dc5015260a0518181816101cd01526111470152f35b600080fd5b634e487b7160e01b600052604160045260246000fdfe6080604081815260048036101561001557600080fd5b600092833560e01c90816301ffc9a714611432575080630447a2cd1461133557806306fdde031461128e578063081812fc1461126e578063095ea7b31461119357806323b872dd146111765780632925af7e146111325780632f388560146110f15780633bda05941461106557806342842e0e146110185780634695195414610d8b57806349f289dc14610d475780634cd88b76146109a457806350d75d251461095c57806352d1902d146109215780636352211e146108f05780636c0360eb1461067a57806370a08231146108ca57806395d89b41146107f45780639903ad381461073b578063a22cb465146106a3578063a497325b1461067a578063b62b36461461055e578063b88d4fde146104d8578063b943855e146104a3578063c87b56dd14610449578063e985e9c5146103fc5763f1391f731461015757600080fd5b346103f857816003193601126103f85761016f61149e565b906101786114b9565b8351632b4116f760e01b81526001600160a01b039491848616916020919082818781875afa9081156103b85789916103c2575b508451633d96606d60e11b8152908816868201526024810184905282816044817f00000000000000000000000000000000000000000000000000000000000000008c165afa9081156103b857899161037e575b501561036e576102339061021384151561165c565b8781169661022288151561165c565b61022e8886141561165c565b6117a6565b60008181526016602052604090206001015490969061025b906001600160a01b03161561165c565b8351630fefbc0960e01b8152858101879052938285602481875afa948515610364578995610335575b506001600160801b038095169586156103275750908082600295949351946102ab86611553565b85526016848601948a8652828701998a528b8d52528a20935116906bffffffffffffffffffffffff60a01b91828554161784556001840192511690825416179055019151166001600160801b0319825416179055827fddf252ad1be2c89b69c2b068fc378daa952ba7f163c4a11628f55a4df523b3ef8180a480f35b9051630750d46b60e51b8152fd5b610356919550833d851161035d575b61034e8183611585565b810190611679565b9338610284565b503d610344565b81513d8b823e3d90fd5b50505051633210c89760e11b8152fd5b90508281813d83116103b1575b6103958183611585565b810103126103ad575180151581036103ad57386101fe565b8880fd5b503d61038b565b85513d8b823e3d90fd5b90508281813d83116103f1575b6103d98183611585565b810103126103ad575187811681036103ad57386101ab565b503d6103cf565b8280fd5b50346103f857816003193601126103f8578160209360ff9261041c61149e565b6104246114b9565b6001600160a01b03918216845291875283832091168252855220549151911615158152f35b50503461049f57602036600319011261049f5761049b9061046861160c565b90610491602082518461048482965180928580860191016114cf565b8101038085520183611585565b51918291826114f2565b0390f35b5080fd5b50503461049f578060031936011261049f576020906104d16104c361149e565b6104cb6114b9565b906117a6565b9051908152f35b50913461055b57608036600319011261055b576104f361149e565b506104fc6114b9565b506064359067ffffffffffffffff821161055b573660238301121561055b575061052f90369060248186013591016115a7565b5061053c6044353361180f565b1561054e57516302197d8b60e51b8152fd5b51632014770760e11b8152fd5b80fd5b50346103f857816003193601126103f85761057a6104c361149e565b91828452602091601683528185209060018060a01b03918483600181845416930154166024865180948193630fefbc0960e01b8352878301525afa90811561067057906001600160801b03918891610653575b501661064557506002859392601685938785528186526001838620015416946105f786151561165c565b8785526003815282852080546001600160a01b03191690555282208281556001810183905501557fddf252ad1be2c89b69c2b068fc378daa952ba7f163c4a11628f55a4df523b3ef8280a480f35b825163067aab1760e01b8152fd5b61066a9150863d881161035d5761034e8183611585565b386105cd565b84513d89823e3d90fd5b50503461049f578160031936011261049f5761049b9061069861160c565b9051918291826114f2565b5090346103f857806003193601126103f8576106bd61149e565b9060243591821515809303610737576001600160a01b0316923384146107295733855260205280842083855260205280842060ff1981541660ff8416179055519081527f17307eab39ab6107e8899845ad3d59bd9653f200f220920489ca2b5937696c3160203392a380f35b9051639212b33360e01b8152fd5b8480fd5b50503461049f578160031936011261049f57815460ff8160081c1615908180926107e7575b80156107d0575b6107709061171f565b60ff1981166001178455816107bf575b50610789575080f35b60207f7f26b83ff96e1f2b6a682f133852f6798a09c465da95921460cefb38474024989161ff001984541684555160018152a180f35b61ffff191661010117835538610780565b50303b158015610767575060ff8116600114610767565b50600160ff821610610760565b82843461055b578060031936011261055b57815190806002549061081782611698565b8085529160209160019182811690811561089d5750600114610845575b61049b868861049182890383611585565b9350600284527f405787fa12a823e0f2b7631cc41b3ba8828b3321ca811111fa75cd3aa3bb5ace5b83851061088a575050505081016020016104918261049b86610834565b805486860184015293820193810161086d565b905061049b9795508693506020925061049194915060ff191682840152151560051b820101929486610834565b50503461049f57602036600319011261049f576020906108e861149e565b505160018152f35b50913461055b57602036600319011261055b575061091060209235611782565b90516001600160a01b039091168152f35b50503461049f578160031936011261049f57602090517f6f373bc57ad79a3d1860bb8cc8471063d3883c0ce9afa665d14337e5fb3966538152f35b50503461049f578160031936011261049f577f360894a13ba1a3210667c828492db98dca3e2076cc3735a920a3ca505d382bbc5490516001600160a01b039091168152602090f35b5090346103f857806003193601126103f85767ffffffffffffffff918035838111610737576109d690369083016115ee565b92602435818111610d43576109ee90369084016115ee565b9385549460ff8660081c161593848095610d36575b8015610d1f575b610a139061171f565b600196858860ff198316178a55610d0e575b508251848111610cfb5780610a3a8954611698565b94601f95868111610c8e575b50602090868311600114610c11578b92610c06575b5050600019600383901b1c191690881b1787555b8151938411610bf35750908291610a87600254611698565b828111610b83575b506020918311600114610b04578792610af9575b5050600019600383901b1c191690841b176002555b610ac0578280f35b825461ff0019168355519081527f7f26b83ff96e1f2b6a682f133852f6798a09c465da95921460cefb384740249890602090a138808280f35b015190503880610aa3565b600288528693507f405787fa12a823e0f2b7631cc41b3ba8828b3321ca811111fa75cd3aa3bb5ace9190601f198416895b818110610b6b57508411610b52575b505050811b01600255610ab8565b015160001960f88460031b161c19169055388080610b44565b82840151855589969094019360209384019301610b35565b90919250600288527f405787fa12a823e0f2b7631cc41b3ba8828b3321ca811111fa75cd3aa3bb5ace8380860160051c82019260208710610bea575b9186958a929594930160051c01915b828110610bdc575050610a8f565b8a8155869550899101610bce565b92508192610bbf565b634e487b7160e01b885260419052602487fd5b015190503880610a5b565b8a8c528a93507fb10e2d527612073b26eecdfd717e6a320cf44b4afac2b0732d9fcbe2b7fa0cf69190601f1984168d5b818110610c7657508411610c5d575b505050811b018755610a6f565b015160001960f88460031b161c19169055388080610c50565b8284015185558d969094019360209384019301610c41565b909150898b527fb10e2d527612073b26eecdfd717e6a320cf44b4afac2b0732d9fcbe2b7fa0cf68680850160051c82019260208610610cf2575b918c91869594930160051c01915b828110610ce4575050610a46565b8d81558594508c9101610cd6565b92508192610cc8565b634e487b7160e01b895260418252602489fd5b61ffff191661010117885538610a25565b50303b158015610a0a575060ff8716600114610a0a565b50600160ff881610610a03565b8580fd5b50503461049f578160031936011261049f57517f00000000000000000000000000000000000000000000000000000000000000006001600160a01b03168152602090f35b5091903461049f57602092836003193601126103f857610da961149e565b825163398d76b760e11b81526001600160a01b039590818185817f00000000000000000000000000000000000000000000000000000000000000008b165afa90811561100e579087918791610fd4575b50163303610fc4577f360894a13ba1a3210667c828492db98dca3e2076cc3735a920a3ca505d382bbc958087541615610f81578216918451936352d1902d60e01b855282858281875afa948515610f77578795610f44575b507f6f373bc57ad79a3d1860bb8cc8471063d3883c0ce9afa665d14337e5fb396653948503610ef557833014610eb257507fe011bc04c286c344a8fcbb8de77f953da762c3e25d8cdea984147fc4168a5dcc9596558351928352820152a180f35b855162461bcd60e51b8152908101839052601960248201527f5555505350726f786961626c653a2070726f7879206c6f6f70000000000000006044820152606490fd5b855162461bcd60e51b8152908101839052602360248201527f5555505350726f786961626c653a206e6f7420636f6d70617469626c65206c6f60448201526267696360e81b6064820152608490fd5b9094508281813d8311610f70575b610f5c8183611585565b81010312610f6c57519338610e51565b8680fd5b503d610f52565b86513d89823e3d90fd5b845162461bcd60e51b8152808501839052601d60248201527f5555505350726f786961626c653a206e6f742075706772616461626c650000006044820152606490fd5b83516303fafc7b60e31b81528390fd5b809250838092503d8311611007575b610fed8183611585565b81010312610d4357518681168103610d4357869038610df9565b503d610fe3565b85513d88823e3d90fd5b50913461055b576110283661151e565b9291505082516020810181811067ffffffffffffffff8211176110525784525261053c903361180f565b634e487b7160e01b835260418652602483fd5b50346103f85760203660031901126103f85782829160609483805161108981611553565b828152826020820152015235815260166020522090600281516110ab81611553565b60018060a01b038085541694858352848260018301541691602085019283526001600160801b039586910154169301928352845195865251166020850152511690820152f35b5090346103f85760203660031901126103f8577ff8e1a15aba9398e019f0b49df1a4fde98ee17ae345cb5f6b5e2c27f5033e8ce7916020915190358152a180f35b50503461049f578160031936011261049f57517f00000000000000000000000000000000000000000000000000000000000000006001600160a01b03168152602090f35b50913461055b575061053c61118a3661151e565b9150503361180f565b50346103f857816003193601126103f8576111ac61149e565b6024359290916001600160a01b03919082806111c787611782565b1694169380851461125f57803314159081611240575b5061123257508385526003602090815281862080546001600160a01b0319168517905560169052842060010154167f8c5be1e5ebec7d5bd14f71427d1e84f3dd0314c0f7b2291e5b200ac8c7c3b9258480a480f35b9051631e82f25560e01b8152fd5b905086528060205281862033875260205260ff828720541615386111dd565b50905163020226d360e01b8152fd5b50913461055b57602036600319011261055b5750610910602092356116d2565b82843461055b578060031936011261055b578151908060018054906112b282611698565b808652926020926001811690811561089d57506001146112dd5761049b868861049182890383611585565b9350600184527fb10e2d527612073b26eecdfd717e6a320cf44b4afac2b0732d9fcbe2b7fa0cf65b838510611322575050505081016020016104918261049b86610834565b8054868601840152938201938101611305565b5090346103f857806003193601126103f8576113526104c361149e565b8084526020916016835260018060a01b0393611377856001848920015416151561165c565b828652601684528382872091602487845416976001850154169185519889938492630fefbc0960e01b84528301525afa908115611428577ff8e1a15aba9398e019f0b49df1a4fde98ee17ae345cb5f6b5e2c27f5033e8ce79587926113fd575b5060026001600160801b03910191166001600160801b031982541617905551908152a180f35b6001600160801b03919250611420600291873d891161035d5761034e8183611585565b9291506113d7565b82513d88823e3d90fd5b925050346103f85760203660031901126103f8573563ffffffff60e01b81168091036103f857602092506301ffc9a760e01b811490811561148d575b811561147c575b5015158152f35b635b5e139f60e01b14905038611475565b6380ac58cd60e01b8114915061146e565b600435906001600160a01b03821682036114b457565b600080fd5b602435906001600160a01b03821682036114b457565b60005b8381106114e25750506000910152565b81810151838201526020016114d2565b6040916020825261151281518092816020860152602086860191016114cf565b601f01601f1916010190565b60609060031901126114b4576001600160a01b039060043582811681036114b4579160243590811681036114b4579060443590565b6060810190811067ffffffffffffffff82111761156f57604052565b634e487b7160e01b600052604160045260246000fd5b90601f8019910116810190811067ffffffffffffffff82111761156f57604052565b92919267ffffffffffffffff821161156f57604051916115d1601f8201601f191660200184611585565b8294818452818301116114b4578281602093846000960137010152565b9080601f830112156114b457816020611609933591016115a7565b90565b6040519061161982611553565b602e82526d6f6f6c2f76322f6765746d65746160901b6040837f68747470733a2f2f6e66742e7375706572666c7569642e66696e616e63652f7060208201520152565b1561166357565b634e487b7160e01b600052600160045260246000fd5b908160209103126114b457516001600160801b03811681036114b45790565b90600182811c921680156116c8575b60208310146116b257565b634e487b7160e01b600052602260045260246000fd5b91607f16916116a7565b6000818152601660205260409020600101546001600160a01b03161561170d576000908152600360205260409020546001600160a01b031690565b604051630249d66560e21b8152600490fd5b1561172657565b60405162461bcd60e51b815260206004820152602e60248201527f496e697469616c697a61626c653a20636f6e747261637420697320616c72656160448201526d191e481a5b9a5d1a585b1a5e995960921b6064820152608490fd5b6000908152601660205260409020600101546001600160a01b0316801561170d5790565b60405190602082019260808452600d60a08401526c141bdbdb13595b58995c939195609a1b60c084015246604084015260018060a01b03809216606084015216608082015260c0815260e0810181811067ffffffffffffffff82111761156f5760405251902090565b906001600160a01b03808061182384611782565b16931691838314938415611856575b508315611840575b50505090565b61184c919293506116d2565b161438808061183a565b909350600052600460205260406000208260005260205260ff60406000205416923861183256fea2646970667358221220ea021a3ad79fd47f266337bd39d514241a9d13ec87bb4396065d1e943b26d09164736f6c63430008170033","linkReferences":{}},"methodIdentifiers":{"DEFAULT_BASE_URI()":"a497325b","GENERAL_DISTRIBUTION_AGREEMENT_V1()":"2925af7e","HOST()":"49f289dc","approve(address,uint256)":"095ea7b3","balanceOf(address)":"70a08231","baseURI()":"6c0360eb","castrate()":"9903ad38","getApproved(uint256)":"081812fc","getCodeAddress()":"50d75d25","getTokenId(address,address)":"b943855e","initialize(string,string)":"4cd88b76","isApprovedForAll(address,address)":"e985e9c5","name()":"06fdde03","onCreate(address,address)":"f1391f73","onDelete(address,address)":"b62b3646","onUpdate(address,address)":"0447a2cd","ownerOf(uint256)":"6352211e","poolMemberDataByTokenId(uint256)":"3bda0594","proxiableUUID()":"52d1902d","safeTransferFrom(address,address,uint256)":"42842e0e","safeTransferFrom(address,address,uint256,bytes)":"b88d4fde","setApprovalForAll(address,bool)":"a22cb465","supportsInterface(bytes4)":"01ffc9a7","symbol()":"95d89b41","tokenURI(uint256)":"c87b56dd","transferFrom(address,address,uint256)":"23b872dd","triggerMetadataUpdate(uint256)":"2f388560","updateCode(address)":"46951954"},"id":71}