{"abi":[{"type":"fallback","stateMutability":"payable"},{"type":"receive","stateMutability":"payable"},{"type":"function","name":"initialize","inputs":[],"outputs":[],"stateMutability":"nonpayable"},{"type":"error","name":"FUSTP_ALREADY_INITIALIZED","inputs":[]}],"bytecode":{"object":"0x60808060405234610016576101e2908161001c8239f35b600080fdfe60806040526004361015610018575b3661008957610089565b6000803560e01c638129fc1c1461002f575061000e565b346100865780600319360112610086577fb8fcd5719b3ddf8626f3664705a89b7fc476129a58c1aa5eda57c600cc1821a080546001600160a01b03166100755733905580f35b6305c5d81960e01b60805260046080fd5b80fd5b7fb8fcd5719b3ddf8626f3664705a89b7fc476129a58c1aa5eda57c600cc1821a0546001600160a01b03908116801561015357602060049160405192838092634a3852d960e11b82525afa908115610147576000916100ea575b501661018d565b602091503d821161013f575b601f8201601f191681019167ffffffffffffffff8311828410176101295761012392604052810190610169565b386100e3565b634e487b7160e01b600052604160045260246000fd5b3d91506100f6565b6040513d6000823e3d90fd5b634e487b7160e01b600052600160045260246000fd5b9081602091031261018857516001600160a01b03811681036101885790565b600080fd5b6000808092368280378136915af43d82803e156101a8573d90f35b3d90fdfea26469706673582212204593893ffbb997e03bf93382ada89f203c02589d4529ba21aafe98d1f8d586b964736f6c63430008170033","linkReferences":{}},"methodIdentifiers":{"initialize()":"8129fc1c"},"id":106}