{"abi":[{"type":"constructor","inputs":[{"name":"host","type":"address","internalType":"contract ISuperfluid"}],"stateMutability":"nonpayable"},{"type":"function","name":"CFA_HOOK_GAS_LIMIT","inputs":[],"outputs":[{"name":"","type":"uint64","internalType":"uint64"}],"stateMutability":"view"},{"type":"function","name":"DEFAULT_MINIMUM_DEPOSIT","inputs":[],"outputs":[{"name":"","type":"uint256","internalType":"uint256"}],"stateMutability":"view"},{"type":"function","name":"MAXIMUM_DEPOSIT","inputs":[],"outputs":[{"name":"","type":"uint256","internalType":"uint256"}],"stateMutability":"view"},{"type":"function","name":"MAXIMUM_FLOW_RATE","inputs":[],"outputs":[{"name":"","type":"uint256","internalType":"uint256"}],"stateMutability":"view"},{"type":"function","name":"addPermissions","inputs":[{"name":"existingPermissions","type":"uint8","internalType":"uint8"},{"name":"permissionDelta","type":"uint8","internalType":"uint8"}],"outputs":[{"name":"","type":"uint8","internalType":"uint8"}],"stateMutability":"pure"},{"type":"function","name":"agreementType","inputs":[],"outputs":[{"name":"","type":"bytes32","internalType":"bytes32"}],"stateMutability":"pure"},{"type":"function","name":"authorizeFlowOperatorWithFullControl","inputs":[{"name":"token","type":"address","internalType":"contract ISuperfluidToken"},{"name":"flowOperator","type":"address","internalType":"address"},{"name":"ctx","type":"bytes","internalType":"bytes"}],"outputs":[{"name":"newCtx","type":"bytes","internalType":"bytes"}],"stateMutability":"nonpayable"},{"type":"function","name":"castrate","inputs":[],"outputs":[],"stateMutability":"nonpayable"},{"type":"function","name":"createFlow","inputs":[{"name":"token","type":"address","internalType":"contract ISuperfluidToken"},{"name":"receiver","type":"address","internalType":"address"},{"name":"flowRate","type":"int96","internalType":"int96"},{"name":"ctx","type":"bytes","internalType":"bytes"}],"outputs":[{"name":"newCtx","type":"bytes","internalType":"bytes"}],"stateMutability":"nonpayable"},{"type":"function","name":"createFlowByOperator","inputs":[{"name":"token","type":"address","internalType":"contract ISuperfluidToken"},{"name":"sender","type":"address","internalType":"address"},{"name":"receiver","type":"address","internalType":"address"},{"name":"flowRate","type":"int96","internalType":"int96"},{"name":"ctx","type":"bytes","internalType":"bytes"}],"outputs":[{"name":"newCtx","type":"bytes","internalType":"bytes"}],"stateMutability":"nonpayable"},{"type":"function","name":"decreaseFlowRateAllowance","inputs":[{"name":"token","type":"address","internalType":"contract ISuperfluidToken"},{"name":"flowOperator","type":"address","internalType":"address"},{"name":"subtractedFlowRateAllowance","type":"int96","internalType":"int96"},{"name":"ctx","type":"bytes","internalType":"bytes"}],"outputs":[{"name":"newCtx","type":"bytes","internalType":"bytes"}],"stateMutability":"nonpayable"},{"type":"function","name":"decreaseFlowRateAllowanceWithPermissions","inputs":[{"name":"token","type":"address","internalType":"contract ISuperfluidToken"},{"name":"flowOperator","type":"address","internalType":"address"},{"name":"permissionsToRemove","type":"uint8","internalType":"uint8"},{"name":"subtractedFlowRateAllowance","type":"int96","internalType":"int96"},{"name":"ctx","type":"bytes","internalType":"bytes"}],"outputs":[{"name":"newCtx","type":"bytes","internalType":"bytes"}],"stateMutability":"nonpayable"},{"type":"function","name":"deleteFlow","inputs":[{"name":"token","type":"address","internalType":"contract ISuperfluidToken"},{"name":"sender","type":"address","internalType":"address"},{"name":"receiver","type":"address","internalType":"address"},{"name":"ctx","type":"bytes","internalType":"bytes"}],"outputs":[{"name":"newCtx","type":"bytes","internalType":"bytes"}],"stateMutability":"nonpayable"},{"type":"function","name":"deleteFlowByOperator","inputs":[{"name":"token","type":"address","internalType":"contract ISuperfluidToken"},{"name":"sender","type":"address","internalType":"address"},{"name":"receiver","type":"address","internalType":"address"},{"name":"ctx","type":"bytes","internalType":"bytes"}],"outputs":[{"name":"newCtx","type":"bytes","internalType":"bytes"}],"stateMutability":"nonpayable"},{"type":"function","name":"getAccountFlowInfo","inputs":[{"name":"token","type":"address","internalType":"contract ISuperfluidToken"},{"name":"account","type":"address","internalType":"address"}],"outputs":[{"name":"timestamp","type":"uint256","internalType":"uint256"},{"name":"flowRate","type":"int96","internalType":"int96"},{"name":"deposit","type":"uint256","internalType":"uint256"},{"name":"owedDeposit","type":"uint256","internalType":"uint256"}],"stateMutability":"view"},{"type":"function","name":"getCodeAddress","inputs":[],"outputs":[{"name":"codeAddress","type":"address","internalType":"address"}],"stateMutability":"view"},{"type":"function","name":"getDepositRequiredForFlowRate","inputs":[{"name":"token","type":"address","internalType":"contract ISuperfluidToken"},{"name":"flowRate","type":"int96","internalType":"int96"}],"outputs":[{"name":"deposit","type":"uint256","internalType":"uint256"}],"stateMutability":"view"},{"type":"function","name":"getFlow","inputs":[{"name":"token","type":"address","internalType":"contract ISuperfluidToken"},{"name":"sender","type":"address","internalType":"address"},{"name":"receiver","type":"address","internalType":"address"}],"outputs":[{"name":"timestamp","type":"uint256","internalType":"uint256"},{"name":"flowRate","type":"int96","internalType":"int96"},{"name":"deposit","type":"uint256","internalType":"uint256"},{"name":"owedDeposit","type":"uint256","internalType":"uint256"}],"stateMutability":"view"},{"type":"function","name":"getFlowByID","inputs":[{"name":"token","type":"address","internalType":"contract ISuperfluidToken"},{"name":"flowId","type":"bytes32","internalType":"bytes32"}],"outputs":[{"name":"timestamp","type":"uint256","internalType":"uint256"},{"name":"flowRate","type":"int96","internalType":"int96"},{"name":"deposit","type":"uint256","internalType":"uint256"},{"name":"owedDeposit","type":"uint256","internalType":"uint256"}],"stateMutability":"view"},{"type":"function","name":"getFlowOperatorData","inputs":[{"name":"token","type":"address","internalType":"contract ISuperfluidToken"},{"name":"sender","type":"address","internalType":"address"},{"name":"flowOperator","type":"address","internalType":"address"}],"outputs":[{"name":"flowOperatorId","type":"bytes32","internalType":"bytes32"},{"name":"permissions","type":"uint8","internalType":"uint8"},{"name":"flowRateAllowance","type":"int96","internalType":"int96"}],"stateMutability":"view"},{"type":"function","name":"getFlowOperatorDataByID","inputs":[{"name":"token","type":"address","internalType":"contract ISuperfluidToken"},{"name":"flowOperatorId","type":"bytes32","internalType":"bytes32"}],"outputs":[{"name":"permissions","type":"uint8","internalType":"uint8"},{"name":"flowRateAllowance","type":"int96","internalType":"int96"}],"stateMutability":"view"},{"type":"function","name":"getMaximumFlowRateFromDeposit","inputs":[{"name":"token","type":"address","internalType":"contract ISuperfluidToken"},{"name":"deposit","type":"uint256","internalType":"uint256"}],"outputs":[{"name":"flowRate","type":"int96","internalType":"int96"}],"stateMutability":"view"},{"type":"function","name":"getNetFlow","inputs":[{"name":"token","type":"address","internalType":"contract ISuperfluidToken"},{"name":"account","type":"address","internalType":"address"}],"outputs":[{"name":"flowRate","type":"int96","internalType":"int96"}],"stateMutability":"view"},{"type":"function","name":"increaseFlowRateAllowance","inputs":[{"name":"token","type":"address","internalType":"contract ISuperfluidToken"},{"name":"flowOperator","type":"address","internalType":"address"},{"name":"addedFlowRateAllowance","type":"int96","internalType":"int96"},{"name":"ctx","type":"bytes","internalType":"bytes"}],"outputs":[{"name":"newCtx","type":"bytes","internalType":"bytes"}],"stateMutability":"nonpayable"},{"type":"function","name":"increaseFlowRateAllowanceWithPermissions","inputs":[{"name":"token","type":"address","internalType":"contract ISuperfluidToken"},{"name":"flowOperator","type":"address","internalType":"address"},{"name":"permissionsToAdd","type":"uint8","internalType":"uint8"},{"name":"addedFlowRateAllowance","type":"int96","internalType":"int96"},{"name":"ctx","type":"bytes","internalType":"bytes"}],"outputs":[{"name":"newCtx","type":"bytes","internalType":"bytes"}],"stateMutability":"nonpayable"},{"type":"function","name":"isPatricianPeriod","inputs":[{"name":"token","type":"address","internalType":"contract ISuperfluidToken"},{"name":"account","type":"address","internalType":"address"},{"name":"timestamp","type":"uint256","internalType":"uint256"}],"outputs":[{"name":"","type":"bool","internalType":"bool"}],"stateMutability":"view"},{"type":"function","name":"isPatricianPeriodNow","inputs":[{"name":"token","type":"address","internalType":"contract ISuperfluidToken"},{"name":"account","type":"address","internalType":"address"}],"outputs":[{"name":"isCurrentlyPatricianPeriod","type":"bool","internalType":"bool"},{"name":"timestamp","type":"uint256","internalType":"uint256"}],"stateMutability":"view"},{"type":"function","name":"proxiableUUID","inputs":[],"outputs":[{"name":"","type":"bytes32","internalType":"bytes32"}],"stateMutability":"view"},{"type":"function","name":"realtimeBalanceOf","inputs":[{"name":"token","type":"address","internalType":"contract ISuperfluidToken"},{"name":"account","type":"address","internalType":"address"},{"name":"time","type":"uint256","internalType":"uint256"}],"outputs":[{"name":"dynamicBalance","type":"int256","internalType":"int256"},{"name":"deposit","type":"uint256","internalType":"uint256"},{"name":"owedDeposit","type":"uint256","internalType":"uint256"}],"stateMutability":"view"},{"type":"function","name":"removePermissions","inputs":[{"name":"existingPermissions","type":"uint8","internalType":"uint8"},{"name":"permissionDelta","type":"uint8","internalType":"uint8"}],"outputs":[{"name":"","type":"uint8","internalType":"uint8"}],"stateMutability":"pure"},{"type":"function","name":"revokeFlowOperatorWithFullControl","inputs":[{"name":"token","type":"address","internalType":"contract ISuperfluidToken"},{"name":"flowOperator","type":"address","internalType":"address"},{"name":"ctx","type":"bytes","internalType":"bytes"}],"outputs":[{"name":"newCtx","type":"bytes","internalType":"bytes"}],"stateMutability":"nonpayable"},{"type":"function","name":"updateCode","inputs":[{"name":"newAddress","type":"address","internalType":"address"}],"outputs":[],"stateMutability":"nonpayable"},{"type":"function","name":"updateFlow","inputs":[{"name":"token","type":"address","internalType":"contract ISuperfluidToken"},{"name":"receiver","type":"address","internalType":"address"},{"name":"flowRate","type":"int96","internalType":"int96"},{"name":"ctx","type":"bytes","internalType":"bytes"}],"outputs":[{"name":"newCtx","type":"bytes","internalType":"bytes"}],"stateMutability":"nonpayable"},{"type":"function","name":"updateFlowByOperator","inputs":[{"name":"token","type":"address","internalType":"contract ISuperfluidToken"},{"name":"sender","type":"address","internalType":"address"},{"name":"receiver","type":"address","internalType":"address"},{"name":"flowRate","type":"int96","internalType":"int96"},{"name":"ctx","type":"bytes","internalType":"bytes"}],"outputs":[{"name":"newCtx","type":"bytes","internalType":"bytes"}],"stateMutability":"nonpayable"},{"type":"function","name":"updateFlowOperatorPermissions","inputs":[{"name":"token","type":"address","internalType":"contract ISuperfluidToken"},{"name":"flowOperator","type":"address","internalType":"address"},{"name":"permissions","type":"uint8","internalType":"uint8"},{"name":"flowRateAllowance","type":"int96","internalType":"int96"},{"name":"ctx","type":"bytes","internalType":"bytes"}],"outputs":[{"name":"newCtx","type":"bytes","internalType":"bytes"}],"stateMutability":"nonpayable"},{"type":"event","name":"CodeUpdated","inputs":[{"name":"uuid","type":"bytes32","indexed":false,"internalType":"bytes32"},{"name":"codeAddress","type":"address","indexed":false,"internalType":"address"}],"anonymous":false},{"type":"event","name":"FlowOperatorUpdated","inputs":[{"name":"token","type":"address","indexed":true,"internalType":"contract ISuperfluidToken"},{"name":"sender","type":"address","indexed":true,"internalType":"address"},{"name":"flowOperator","type":"address","indexed":true,"internalType":"address"},{"name":"permissions","type":"uint8","indexed":false,"internalType":"uint8"},{"name":"flowRateAllowance","type":"int96","indexed":false,"internalType":"int96"}],"anonymous":false},{"type":"event","name":"FlowUpdated","inputs":[{"name":"token","type":"address","indexed":true,"internalType":"contract ISuperfluidToken"},{"name":"sender","type":"address","indexed":true,"internalType":"address"},{"name":"receiver","type":"address","indexed":true,"internalType":"address"},{"name":"flowRate","type":"int96","indexed":false,"internalType":"int96"},{"name":"totalSenderFlowRate","type":"int256","indexed":false,"internalType":"int256"},{"name":"totalReceiverFlowRate","type":"int256","indexed":false,"internalType":"int256"},{"name":"userData","type":"bytes","indexed":false,"internalType":"bytes"}],"anonymous":false},{"type":"event","name":"FlowUpdatedExtension","inputs":[{"name":"flowOperator","type":"address","indexed":true,"internalType":"address"},{"name":"deposit","type":"uint256","indexed":false,"internalType":"uint256"}],"anonymous":false},{"type":"event","name":"Initialized","inputs":[{"name":"version","type":"uint8","indexed":false,"internalType":"uint8"}],"anonymous":false},{"type":"error","name":"AGREEMENT_BASE_ONLY_HOST","inputs":[]},{"type":"error","name":"APP_RULE","inputs":[{"name":"_code","type":"uint256","internalType":"uint256"}]},{"type":"error","name":"CFA_ACL_FLOW_RATE_ALLOWANCE_EXCEEDED","inputs":[]},{"type":"error","name":"CFA_ACL_NO_NEGATIVE_ALLOWANCE","inputs":[]},{"type":"error","name":"CFA_ACL_NO_SENDER_CREATE","inputs":[]},{"type":"error","name":"CFA_ACL_NO_SENDER_FLOW_OPERATOR","inputs":[]},{"type":"error","name":"CFA_ACL_NO_SENDER_UPDATE","inputs":[]},{"type":"error","name":"CFA_ACL_OPERATOR_NO_CREATE_PERMISSIONS","inputs":[]},{"type":"error","name":"CFA_ACL_OPERATOR_NO_DELETE_PERMISSIONS","inputs":[]},{"type":"error","name":"CFA_ACL_OPERATOR_NO_UPDATE_PERMISSIONS","inputs":[]},{"type":"error","name":"CFA_ACL_UNCLEAN_PERMISSIONS","inputs":[]},{"type":"error","name":"CFA_DEPOSIT_TOO_BIG","inputs":[]},{"type":"error","name":"CFA_FLOW_ALREADY_EXISTS","inputs":[]},{"type":"error","name":"CFA_FLOW_DOES_NOT_EXIST","inputs":[]},{"type":"error","name":"CFA_FLOW_RATE_TOO_BIG","inputs":[]},{"type":"error","name":"CFA_HOOK_OUT_OF_GAS","inputs":[]},{"type":"error","name":"CFA_INSUFFICIENT_BALANCE","inputs":[]},{"type":"error","name":"CFA_INVALID_FLOW_RATE","inputs":[]},{"type":"error","name":"CFA_NON_CRITICAL_SENDER","inputs":[]},{"type":"error","name":"CFA_NO_SELF_FLOW","inputs":[]},{"type":"error","name":"CFA_ZERO_ADDRESS_RECEIVER","inputs":[]},{"type":"error","name":"CFA_ZERO_ADDRESS_SENDER","inputs":[]}],"bytecode":{"object":"0x60a0346200009c57601f620066cc38819003918201601f19168301916001600160401b03831184841017620000a1578084926020946040528339810103126200009c57516001600160a01b038116908190036200009c576080526040516166149081620000b88239608051818181610c4901528181610dc9015281816112be015281816118f901528181611a7d01528181614c3e0152615a550152f35b600080fd5b634e487b7160e01b600052604160045260246000fdfe60406080815260048036101561001457600080fd5b600090813560e01c908162422bbe1461135a57816304aafa491461133a5781630602f7db14611299578163062e56ec1461118d57816309d256ef146111455781630f1ac495146111275781632567f578146110f657816326b0f53614610531578163354b959014610fb25781634695195414610da25781634b839e0b14610d7d5781634c8b181f14610ce35781634fe9c29114610c1157816350209a6214610b9157816350d75d2514610b4957816352d1902d14610b2c57816354b770e314610a1e5781635f51fb23146109c657816362fc305e1461096a578163729764901461093a5781637730599e146108ff578163811b3d40146107ee5781638d997f6e146107b257816394229ecb146106b85781639903ad38146105a75781639b2e48bc146105365781639cb28b7214610531578163aabd26681461050a578163ac5f5d0014610492578163b4b333c614610405578163bf3fbc28146103e7578163da6b5f301461030b57508063e6a1e88814610298578063e8e7e2d1146102575763f31f88f0146101a257600080fd5b3461025457506101b13661164d565b959493906101c03688836117e7565b966101ce91848685896156ad565b60600180516001600160a01b03929183916101ed9084908416896116b6565b966101f89197611cdb565b968796179687610208928a612426565b51875160ff969096168652600b9490940b60208601529082169492169291169060008051602061659f83398151915290604090a4518091602082526020820161025091611492565b0390f35b80fd5b509034610294578060031936011261029457602090816102866102786113aa565b6102806113c5565b90611f9c565b90500151600b0b9051908152f35b5080fd5b503461025457606036600319011261025457506102d56102b66113aa565b6102cf6102c16113c5565b6102c96113db565b9061238d565b906123c8565b8051602080830151858401516060948501519651938452600b9190910b9183019190915260408201529081019290925250608090f35b905082346103e3576060610343929360ff6103253661164d565b6103399b949598929b9a919a36828d6117e7565b9a8c85888c6156ad565b019161036a60018060a01b039a61035e868d8751168b6116b6565b9891951916169661181e565b9586600b0b126103d55750916103c0896102509a9361039a888860008051602061659f833981519152988c612426565b511695838951948594169816958390929160209060ff6040840195168352600b0b910152565b0390a451918291602083526020830190611492565b87516386e0377d60e01b8152fd5b8280fd5b828434610294578160031936011261029457602090516203d0908152f35b8284346102945761047f6102509260018061041f36611597565b9592909491966104396104333689896117e7565b866121bf565b97838060a01b0390816104538160608d015116868a6116b6565b509590508161046061185e565b99168952166020880152168a860152606085015260021c16149061307c565b9051918291602083526020830190611492565b5050346102545761025060008051602061659f8339815191528360606104d86105016104bd366115f1565b6104cf9994979296919936828c6117e7565b9987858a615661565b01906103c060018060a01b038361039a6104f78584809851168c6116b6565b909a8b9a91611cdb565b998a918c612426565b505034610254578160031936011261025457506102d56105286113aa565b602435906123c8565b6114d7565b8284346102945760609161054936611562565b929384939092849261055a91611f9c565b9190610572575b505081519384526020840152820152f35b9061059693955080945061058892505190611c88565b6020830151600b0b90611cb8565b918381830151920151918580610561565b839150346103e357826003193601126103e357825460ff8160081c1615918280936106ab575b8015610694575b1561063a575060ff198116600117845581610629575b506105f3575080f35b60207f7f26b83ff96e1f2b6a682f133852f6798a09c465da95921460cefb38474024989161ff001984541684555160018152a180f35b61ffff1916610101178355836105ea565b608490602085519162461bcd60e51b8352820152602e60248201527f496e697469616c697a61626c653a20636f6e747261637420697320616c72656160448201526d191e481a5b9a5d1a585b1a5e995960921b6064820152fd5b50303b1580156105d45750600160ff8316146105d4565b50600160ff8316106105cd565b839150346103e3576106c9366114f9565b956106de6104339695939492963689896117e7565b9860608a019160018060a01b039485845116938682168095146107a257908661070a92511690896116b6565b6001808395931603610793578860016001605f1b0382600b0b146000146107845750935b84600b0b1261077657506102509b98969492889694926107529261047f9c9a612426565b8261075b61185e565b9516855260208501521687830152600b0b6060820152614fbb565b8b5163a0645c1f60e01b8152fd5b61078d9161181e565b9361072e565b508b516328faadab60e21b8152fd5b8b516325cc989b60e11b81528390fd5b8284346102945780600319360112610294576107cc6113aa565b6024359283600b0b840361025457506020926107e791611a51565b9051908152f35b905082346103e35761082391926108043661164d565b6108199994939692959998919836828b6117e7565b988688868d6156ad565b92606061082e6119d5565b9460ff8816865286600b0b6020870152019160018060a01b03996108618b6108598782885116611d01565b921696615704565b92863b156103e3579082916108938b51958693849363a1b2bf8b60e01b85528401528c602484015260448301906119fe565b038183895af19081156108f45750896102509a9360008051602061659f83398151915295936103c0936108e5575b50511695885193849316978390929160209060ff6040840195168352600b0b910152565b6108ee90611710565b8c6108c1565b8851903d90823e3d90fd5b828434610294578160031936011261029457602090517fa9214cc96615e0085d3bb077758db69497dc2dce3b2b1e97bc93c3d18d83efd38152f35b82843461029457806003193601126102945760209060ff6109596114b7565b6109616114c7565b17915191168152f35b828434610294576102509061047f610981366115f1565b9290916109926104333686866117e7565b9461099b61185e565b9260018060a01b0380921684528160608801511660208501521687830152600b0b6060820152614fbb565b905082346103e3576109f8606092936109de366115f1565b6109ef98929496919836828b6117e7565b98858589615661565b0160ff60018060a01b039861036a610a14858c8651168a6116b6565b979194169661181e565b905082346103e357610a4e9192610a343661141e565b610a46979293979691963682896117e7565b968489615613565b92610a576119d5565b9160078352606060016001605f1b0395866020860152019160018060a01b0398610a908a610a888882885116611d01565b921695615704565b92853b156103e357908291610ac28a51958693849363a1b2bf8b60e01b85528401528b602484015260448301906119fe565b038183885af1908115610b215750978060008051602061659f8339815191529388936102509b610b12575b505116948251966007885260208801521694a451918291602083526020830190611492565b610b1b90611710565b8b610aed565b8751903d90823e3d90fd5b8284346102945781600319360112610294576020906107e761197e565b8284346102945781600319360112610294577f360894a13ba1a3210667c828492db98dca3e2076cc3735a920a3ca505d382bbc5490516001600160a01b039091168152602090f35b828434610294576102509061047f610c0a610bab366115f1565b93610c01610bc8610bc297939594973688886117e7565b836121bf565b96610bd161185e565b9460018060a01b038094168652838060608b015116918260208901521691828c880152600b0b606087015261238d565b908351166123c8565b90916124a5565b905034610294578260031936011261029457610c2b6113aa565b610c336113c5565b8451630bbe4fd560e41b815290926020908290817f00000000000000000000000000000000000000000000000000000000000000006001600160a01b03165afa938415610cd8578094610c9d575b5050610c8e91839161189e565b90825191151582526020820152f35b90919293506020823d602011610cd0575b81610cbb602093836117ab565b810103126102545750519190610c8e38610c81565b3d9150610cae565b8551903d90823e3d90fd5b839150346103e3576060610cf636611597565b9593929791610d12610d0c9692963689896117e7565b856121bf565b98600180610d2d8c828060a01b0396879101511684896116b6565b50905060021c1614958615610d6f57509161047f97959391816102509b98969481610d5661185e565b961686521660208501521688830152606082015261307c565b895163e30f1bff60e01b8152fd5b82843461029457602090610d99610d9336611562565b9161189e565b90519015158152f35b828434610294576020806003193601126103e357610dbe6113aa565b6001600160a01b03907f000000000000000000000000000000000000000000000000000000000000000082163303610fa2577f360894a13ba1a3210667c828492db98dca3e2076cc3735a920a3ca505d382bbc958287541615610f5f57610e2361197e565b85516352d1902d60e01b8152938316939085828481885afa918215610f55578892610f22575b5003610ed357823014610e9057507fe011bc04c286c344a8fcbb8de77f953da762c3e25d8cdea984147fc4168a5dcc949555610e8361197e565b918351928352820152a180f35b845162461bcd60e51b8152908101849052601960248201527f5555505350726f786961626c653a2070726f7879206c6f6f70000000000000006044820152606490fd5b845162461bcd60e51b8152908101849052602360248201527f5555505350726f786961626c653a206e6f7420636f6d70617469626c65206c6f60448201526267696360e81b6064820152608490fd5b9091508581813d8311610f4e575b610f3a81836117ab565b81010312610f4a57519089610e49565b8780fd5b503d610f30565b87513d8a823e3d90fd5b845162461bcd60e51b8152908101849052601d60248201527f5555505350726f786961626c653a206e6f742075706772616461626c650000006044820152606490fd5b8351630b00ec8f60e11b81528690fd5b83833461025457610fc2366114f9565b959297610fdd610fd7969392963689896117e7565b846121bf565b9860608a019560018060a01b039586885116918781168093146110e657906110218261101561100f878c98979661238d565b8a6123c8565b9a909b511690896116b6565b9660018083819594951c16036110d857600b978b60016001605f1b03828b0b1480156110c6575b156110a65750935b84890b126110985750889694926102509f9c9a989694926110769261047f9f9d9b612426565b8261107f61185e565b961686526020860152168a8401520b60608201526124a5565b8e5163a0645c1f60e01b8152fd5b906110ba60206110c09301518b0b8c61181e565b9061181e565b93611050565b5060208101518a0b8b8b0b1315611048565b8e5163ac434b5f60e01b8152fd5b8b5163edfa0d3b60e01b81528590fd5b82843461029457806003193601126102945760209060ff6111156114b7565b61111d6114c7565b1916169051908152f35b505034610254578160031936011261025457506102d56102786113aa565b5050346102545781600319360112610254575061116c6111636113aa565b60243590611e00565b8051602091820151935160ff9091168152600b9390930b9083015250604090f35b8284346102945761119d3661141e565b926111b8869296946111b036828a6117e7565b978584615613565b9160606111c36119d5565b93828552826020860152019060018060a01b03926111e884610a888882875116611d01565b99853b156103e35790829161121a8a519c8d93849363a1b2bf8b60e01b85528401528b602484015260448301906119fe565b038183885af198891561128d5761025099611267575b505051855160ff86168152600b9590950b60208601529281169392169160008051602061659f8339815191529080604081016103c0565b839296509061128560008051602061659f8339815191529492611710565b959192611230565b508651903d90823e3d90fd5b8383346102545781600319360112610254576112b36113aa565b60243592906112eb907f00000000000000000000000000000000000000000000000000000000000000006001600160a01b0316611eb4565b509160016001605f1b03841161132a578215611317575060209350519163ffffffff191604600b0b8152f35b634e487b7160e01b815260128552602490fd5b8151631d4b0ae760e21b81528590fd5b828434610294578160031936011261029457602090516401000000008152f35b50503461025457606036600319011261025457606060ff8361139361137d6113aa565b6113856113c5565b61138d6113db565b916116b6565b9193908351948552166020840152600b0b90820152f35b600435906001600160a01b03821682036113c057565b600080fd5b602435906001600160a01b03821682036113c057565b604435906001600160a01b03821682036113c057565b9181601f840112156113c0578235916001600160401b0383116113c057602083818601950101116113c057565b60606003198201126113c0576001600160a01b039160043583811681036113c0579260243590811681036113c05791604435906001600160401b0382116113c05761146b916004016113f1565b9091565b60005b8381106114825750506000910152565b8181015183820152602001611472565b906020916114ab8151809281855285808601910161146f565b601f01601f1916010190565b6004359060ff821682036113c057565b6024359060ff821682036113c057565b346113c05760003660031901126113c057602060405160016001605f1b038152f35b9060a06003198301126113c0576001600160a01b039060043582811681036113c0579260243583811681036113c0579260443590811681036113c0579160643580600b0b81036113c05791608435906001600160401b0382116113c05761146b916004016113f1565b60609060031901126113c0576001600160a01b039060043582811681036113c0579160243590811681036113c0579060443590565b60806003198201126113c0576001600160a01b039060043582811681036113c0579260243583811681036113c0579260443590811681036113c05791606435906001600160401b0382116113c05761146b916004016113f1565b9060806003198301126113c0576001600160a01b039160043583811681036113c0579260243590811681036113c0579160443580600b0b81036113c05791606435906001600160401b0382116113c05761146b916004016113f1565b60a06003198201126113c0576001600160a01b039160043583811681036113c0579260243590811681036113c0579160443560ff811681036113c0579160643580600b0b81036113c05791608435906001600160401b0382116113c05761146b916004016113f1565b92916116c5906116cc92611d01565b8093611e00565b919050602060ff835116920151600b0b90565b608081019081106001600160401b038211176116fa57604052565b634e487b7160e01b600052604160045260246000fd5b6001600160401b0381116116fa57604052565b61016081019081106001600160401b038211176116fa57604052565b606081019081106001600160401b038211176116fa57604052565b60e081019081106001600160401b038211176116fa57604052565b602081019081106001600160401b038211176116fa57604052565b604081019081106001600160401b038211176116fa57604052565b90601f801991011681019081106001600160401b038211176116fa57604052565b6001600160401b0381116116fa57601f01601f191660200190565b9291926117f3826117cc565b9161180160405193846117ab565b8294818452818301116113c0578281602093846000960137010152565b600b91820b910b03906b7fffffffffffffffffffffff19821260016001605f1b0383131761184857565b634e487b7160e01b600052601160045260246000fd5b6040519061186b826116df565b60006060838281528260208201528260408201520152565b908160609103126113c0578051916040602083015192015190565b604051633acd4df360e21b81526001600160a01b03838116600483015260248201949094526060816044818588165afa90811561197257600091611941575b5060008112156119385761192f604061192661191e85611935987f000000000000000000000000000000000000000000000000000000000000000016611eb4565b969095611f9c565b90500151612f13565b90612fd4565b90565b50505050600190565b611963915060603d60601161196b575b61195b81836117ab565b810190611883565b5050386118dd565b503d611951565b6040513d6000823e3d90fd5b604051633b982ccf60e11b8152602081600481305afa908115611972576000916119a6575090565b90506020813d6020116119cd575b816119c1602093836117ab565b810103126113c0575190565b3d91506119b4565b60405190604082018281106001600160401b038211176116fa5760405260006020838281520152565b90815180825260208080930193019160005b828110611a1e575050505090565b835185529381019392810192600101611a10565b908160209103126113c057516001600160a01b03811681036113c05790565b9080600b0b908115611c80576040805163289b3c0d60e01b81526001600160a01b0394600492916020907f000000000000000000000000000000000000000000000000000000000000000088169082818781855afa908115611c7557908991600091611c48575b50169284519863407b865d60e11b91828b5283888c015216938460248b01526000805160206165bf83398151915260448b0152838a606481845afa998a15611c3d5760009a611c08575b508392916064918751968794859384528a84015260248301527fe420d96e81cb4a6b2abb2366c4f93312d4e2ae878a7d4b22e73472fdad891f7860448301525afa908115611bfd57600091611bca575b63ffffffff92501c169360008112611bbc578481029081048503611ba75760016001605f1b0310611b9a57505090611b89916159d4565b80821115611b95575090565b905090565b51630c9c55c160e01b8152fd5b601183634e487b7160e01b6000525260246000fd5b50516348d6568b60e11b8152fd5b80915082813d8311611bf6575b611be181836117ab565b810103126113c05763ffffffff915190611b52565b503d611bd7565b83513d6000823e3d90fd5b9099508381819493943d8311611c36575b611c2381836117ab565b810103126113c057519890919083611b02565b503d611c19565b86513d6000823e3d90fd5b611c689150843d8611611c6e575b611c6081836117ab565b810190611a32565b38611ab8565b503d611c56565b85513d6000823e3d90fd5b505050600090565b8181039291600013801582851316918412161761184857565b908160000391808305600019149015171561184857565b818102929160008212600160ff1b82141661184857818405149015171561184857565b90600b0b90600b0b019060016001605f1b0319821260016001605f1b0383131761184857565b60405190602082019260608452600c60808401526b333637bba7b832b930ba37b960a11b60a084015260018060a01b03809216604084015216606082015260a0815260c081018181106001600160401b038211176116fa5760405251902090565b9060209081838203126113c05782516001600160401b03938482116113c0570181601f820112156113c05780519384116116fa578360051b9060405194611dab858401876117ab565b855283808601928201019283116113c0578301905b828210611dce575050505090565b81518152908301908301611dc0565b805115611dea5760200190565b634e487b7160e01b600052603260045260246000fd5b90600090611e0c6119d5565b50604051636c2d9f2f60e01b815230600482015260248101919091526001604482015291829060649082906001600160a01b03165afa801561197257611e5a91600091611e91575b50611ddd565b5190611e646119d5565b918015159081611e7357509190565b60016001605f1b038116600b0b602085015260801c60ff1683529190565b611eae91503d806000833e611ea681836117ab565b810190611d62565b38611e54565b60405163289b3c0d60e01b81526020926001600160a01b039283168483600481845afa90811561197257846064928795600091611f7f575b50604051968795869463407b865d60e11b865260048601521660248401527fe420d96e81cb4a6b2abb2366c4f93312d4e2ae878a7d4b22e73472fdad891f786044840152165afa90811561197257600091611f52575b5063ffffffff90818116921c1691565b90508181813d8311611f78575b611f6981836117ab565b810103126113c0575138611f42565b503d611f5f565b611f969150863d8811611c6e57611c6081836117ab565b38611eec565b90600090611fa861185e565b50604051634b61cc3360e01b81523060048201526001600160a01b03918216602482015260448101839052600160648201529283916084918391165afa9081156119725761146b9161200191600091611e915750611ddd565b51615751565b6040519061201482611723565b81610140600091828152826020820152826040820152826060820152826080820152606060a08201528260c08201528260e082015282610100820152826101208201520152565b51906001600160a01b03821682036113c057565b519081151582036113c057565b519060ff821682036113c057565b81601f820112156113c05780516120a0816117cc565b926120ae60405194856117ab565b818452602082840101116113c057611935916020808501910161146f565b6020818303126113c05780516001600160401b03918282116113c0570190610160828403126113c0576040519261210284611723565b61210b8361207c565b84526121196020840161207c565b6020850152604083015160408501526121346060840161205b565b606085015260808301516001600160e01b0319811681036113c057608085015260a08301519182116113c05761216b91830161208a565b60a083015260c081015160c083015260e081015160e0830152610100808201519083015261012061219d81830161205b565b9083015261014090810151906001600160a01b03821682036113c05782015290565b906121c8612007565b50604080516320bc442560e01b81529092602091906001600160a01b039083908390600490829085165afa918215611c7557600092612356575b503391160361231f578251632fd0a1cd60e21b81526004810182905281818061222e6024820187611492565b0381335afa908115612314576000916122df575b50156122ae5761226f9160009184519384928392631fb6491d60e11b845260048401526024830190611492565b0381335afa9182156122a45750600091612287575090565b61193591503d806000833e61229c81836117ab565b8101906120cc565b513d6000823e3d90fd5b60649083519062461bcd60e51b82526004820152600b60248201526a0d2dcecc2d8d2c840c6e8f60ab1b6044820152fd5b90508181813d831161230d575b6122f681836117ab565b810103126113c0576123079061206f565b38612242565b503d6122ec565b84513d6000823e3d90fd5b60649083519062461bcd60e51b8252600482015260116024820152701d5b985d5d1a1bdc9a5e9959081a1bdcdd607a1b6044820152fd5b9091508281813d8311612386575b61236e81836117ab565b810103126113c05761237f9061205b565b9038612202565b503d612364565b604080516001600160a01b039283166020820190815293909216908201526123c281606081015b03601f1981018352826117ab565b51902090565b906000906123d461185e565b50604051636c2d9f2f60e01b815230600482015260248101919091526001604482015291829060649082906001600160a01b03165afa9081156119725761146b9161200191600091611e915750611ddd565b61245191929360ff6124366119d5565b95168552600b0b60208501526001600160a01b031692615704565b823b156113c057612489926000928360405180968195829463a1b2bf8b60e01b845260048401526040602484015260448301906119fe565b03925af180156119725761249a5750565b6124a390611710565b565b9594939190916124b585886157a6565b92905015612f0157604087810180519151631e51d6a760e11b81526001600160a01b03909216600483015290602081602481335afa90811561197257600091612ec7575b5015612e99575187516001600160a01b039182169591169161251d913691906117e7565b604051909360008561252e8461173f565b6060845261253a61185e565b6020850152612547612007565b60408501528715612e645750845160208087015160408089015181516001600160a01b03938416948101949094529091169082015290979061258c81606081016123b4565b604051986125998a61175a565b8360808b01528360a08b0152868a528260208b015260408a0152606089015264040000000060c089015260609060405190633e7d48bd60e21b82526004820152606081602481335afa908115612e5957839084908593612e35575b5081612e2c575b50612d15575b50835260405163289b3c0d60e01b8152602081600481335afa90811561298a57896064928589896020958894612cf4575b506040850151610140909501519394612654946001600160a01b031690615a3e565b5060808c01525060405163407b865d60e11b8152336004820152602481018890526000805160206165bf833981519152604482015292839182906001600160a01b03165afa801561298a578290612cc0575b60808901516126be92509081612ca2575082906158f9565b60808801526126d06060830151612f13565b60a08801529464080000000060c08801528251906126ec612007565b6020890151604051633e7d48bd60e21b81526001600160a01b03909116600482015290989092606084602481335afa9081156119725760008095600093612c6b575b50849581612c62575b50612a7d575b505050509061277b919660408401526127578551856123c8565b6020850152505b612775606061010060408601510151920151612f13565b90611c88565b9061279e61279983612794604060208601510151612f13565b612f7a565b61613b565b6040602083015101526127bf61279983612794606060208601510151612f13565b6060602083015101526127d76020855192015161618a565b90833b15612a795761280d918691604051938492839263a1b2bf8b60e01b845260048401526040602484015260448301906119fe565b038183875af180156129d357908591612a61575b5050604060018060a01b03602085015116936128448289019584875191876161e3565b5001805184519192916128629183906001600160a01b031686616346565b506101408701516001600160a01b031680159084908215612a57575b50506129de575b508051604051631e51d6a760e11b81526001600160a01b039091166004820152602081602481335afa9081156129d3578591612995575b506128e7575b50505050906124a391935b80516020909101516001600160a01b039081169116615917565b519151604051633acd4df360e21b81526001600160a01b0390931660048401526024830152606090829060449082905afa90811561298a579082918291612969575b5012612937578080806128c2565b806129555760405163a85ba64f60e01b8152600c6004820152602490fd5b634e487b7160e01b81526021600452602490fd5b612982915060603d60601161196b5761195b81836117ab565b505038612929565b6040513d84823e3d90fd5b90506020813d6020116129cb575b816129b0602093836117ab565b810103126129c7576129c19061206f565b386128bc565b8480fd5b3d91506129a3565b6040513d87823e3d90fd5b9094612a08859160405193849283926359a2914160e01b8452604060048501526044840190611492565b906024830152038183335af1908115612a4c578491612a2a575b509338612885565b612a4691503d8086833e612a3e81836117ab565b810190613057565b38612a22565b6040513d86823e3d90fd5b149050833861287e565b612a6a90611710565b612a75578338612821565b8380fd5b8580fd5b9091929350612a8c8385616423565b9160c084015180911615612abd575b5050505090612ab361277b9261010089015190616575565b909138808061273d565b600092939a50612ad2612b4f91969596616498565b6123b460018060a01b038d5116938d612b40612b2d6060604084015193015160405193612afe85611775565b8a8552604051998a9860208a01526024890152306044890152606488015260c0608488015260e4870190611492565b60231993848783030160a4880152611492565b918483030160c4850152611492565b60208a015160c08b015160405163079b42a160e21b81529485938493612b8a936420000000001491906001600160a01b0316600486016160ff565b038183335af190811561197257612bc8916000918291612c48575b5060405180938192631fb6491d60e11b8352602060048401526024830190611492565b0381335afa9283156119725761277b93612ab392600091612c2d575b506101006080829b0151910190612bfc825191612f13565b81811315612c2657505b80600013600014612c2057506000905b5291923880612a9b565b90612c16565b9050612c06565b612c4291503d806000833e61229c81836117ab565b38612be4565b612c5c91503d8084833e612a3e81836117ab565b38612ba5565b90501538612737565b91955050612c91915060603d606011612c9b575b612c8981836117ab565b8101906160d6565b949094913861272e565b503d612c7f565b6401000000009080821115612cb957505b906158f9565b9050612cb3565b506020813d602011612cec575b81612cda602093836117ab565b81010312610294576126be90516126a6565b3d9150612ccd565b6126549450612d0f90873d8911611c6e57611c6081836117ab565b93612632565b82612d208a8a616423565b9160c08b015180911615612d42575b505050612d3b87616518565b5038612601565b612d4e91929350616498565b612dbb60018060a01b038b5116916123b48c612da96060604083015192015160405192612d7a84611775565b88845260405197889660208801526024870152306044870152606486015260a0608486015260c4850190611492565b8381036023190160a485015290611492565b60208a015160c08b0151604051633a020f0160e11b81529485938493612df593600160241b1491906001600160a01b0316600486016160ff565b038183335af190811561298a578291612e12575b50388281612d2f565b612e2691503d8084833e612a3e81836117ab565b38612e09565b905015386125fb565b915050612e51915060603d606011612c9b57612c8981836117ab565b9190386125f4565b6040513d85823e3d90fd5b9650945080612e8c61277b92868660408c01518c61014060018060a01b039101511690615a3e565b915050602084015261275e565b50612ec192859492612ebb6124a3979460018060a01b038b51169436916117e7565b92615850565b936128cd565b90506020813d602011612ef9575b81612ee2602093836117ab565b810103126113c057612ef39061206f565b386124f9565b3d9150612ed5565b60405163168cafc960e21b8152600490fd5b6001600160ff1b038111612f245790565b60405162461bcd60e51b815260206004820152602860248201527f53616665436173743a2076616c756520646f65736e27742066697420696e2061604482015267371034b73a191a9b60c11b6064820152608490fd5b9190916000838201938412911290801582169115161761184857565b8115612fb157600160ff1b8114600019831416611848570590565b634e487b7160e01b600052601260045260246000fd5b9190820391821161184857565b9290919282156130095782612ff985612ff361300596612fff95612f7a565b92612f96565b90612f96565b92612fc7565b1290565b50505050600090565b6040519060c082018281106001600160401b038211176116fa57604052606060a083600081526000602082015260006040820152600083820152600060808201520152565b906020828203126113c05781516001600160401b0381116113c057611935920161208a565b9392919091613089613012565b602086015190926000916001600160a01b031615614fa95760408701516001600160a01b031615614f975760208701516040880151613124916130d8916001600160a01b03908116911661238d565b8086526020898101516001600160a01b03908116918801919091526040808b01518216908801526060898101518216908801526080870185905260a089810151908801528951166123c8565b939015612f0157875160208901516040898101519051633acd4df360e21b81526001600160a01b0392831660048201526024810191909152979160609189916044918391165afa968715612a4c578497614f74575b50606088015160208a01516001600160a01b0390811692911682811415919082614f5c575b5081614f53575b50614e48575b508286129586614be5575b50906131c39136916117e7565b6060860151602088015191956001600160a01b0392831692909116828103613c01575050506040868101519051631e51d6a760e11b81526001600160a01b039091166004820152602081602481335afa918215613bf5578092613bb8575b505015613ba257604085810151955190516001600160a01b03968716969091169160008561324e8461173f565b6060845261325a61185e565b6020850152613267612007565b60408501528815613b7b5750845160208087015160408089015181516001600160a01b0393841694810194909452909116908201529098906132ac81606081016123b4565b604051996132b98b61175a565b8360808c01528360a08c0152868b528260208c015260408b015260608a0152600160241b60c08a015260609060405190633e7d48bd60e21b82526004820152606081602481335afa908115612e5957839084908593613b57575b5081613b4e575b50613a78575b50835260405163289b3c0d60e01b8152602081600481335afa90811561298a576064916020918491613a5b575b5060408a01516101408b01516133729187918b918b916001600160a01b031690615a3e565b5060808d01525060405163407b865d60e11b8152336004820152602481018890526000805160206165bf833981519152604482015292839182906001600160a01b03165afa801561298a578290613a27575b60808a01516133dc92509081612ca2575082906158f9565b60808901526133ee6060830151612f13565b60a08901529464200000000060c089015282519061340a612007565b60208a0151604051633e7d48bd60e21b81526001600160a01b03909116600482015290999092606084602481335afa9081156119725760008095600093613a00575b508495816139f7575b5061387c575b5050505090613475919760408401526127578551856123c8565b9061348e61279983612794604060208601510151612f13565b6040602083015101526134af61279983612794606060208601510151612f13565b6060602083015101526134c76020855192015161618a565b90833b15612a79576134fd918691604051938492839263a1b2bf8b60e01b845260048401526040602484015260448301906119fe565b038183875af180156129d357908591613868575b5050602083015160408601516135329183906001600160a01b0316856161e3565b50604083810151908601516135529183906001600160a01b031685616346565b506101408501516001600160a01b03168015908390821561385e575b50506137fb575b6040838101519051631e51d6a760e11b81526001600160a01b039091166004820152602081602481335afa9081156129d35785916137c1575b506135bc575b505050505090565b604083810151958101519051633acd4df360e21b81526001600160a01b0390961660048701526024860152606085604481855afa948515612a4c57849561379e575b50838512156135b45790919293948461378a576040848101519051635b92108f60e11b81526060600482015291600091839182916001600160a01b03169061364a906064840190611492565b906024830152600c6044830152038183335af1908115611972576136819161367b9160009161376f575b5096615906565b91615906565b90818113156137675750915b60208101516001600160a01b0316906136a584615906565b833b156113c05760405163cf97256d60e01b8082526001600160a01b03949094166004820152602481019190915260008160448183885af1801561197257613753575b50604001516001600160a01b031690823b156129c7576040519081526001600160a01b039091166004820152602481019290925282908290818381604481015b03925af1801561298a5761373f575b8080806135b4565b6137498291611710565b6102545780613737565b61375e919550611710565b600093386136e8565b90509161368d565b61378491503d806000833e612a3e81836117ab565b38613674565b634e487b7160e01b85526021600452602485fd5b6137b891955060603d60601161196b5761195b81836117ab565b505093386135fe565b90506020813d6020116137f3575b816137dc602093836117ab565b810103126129c7576137ed9061206f565b386135ae565b3d91506137cf565b948361382391604051809381926359a2914160e01b8352604060048401526044830190611492565b896024830152038183335af1908115612a4c578491613844575b5094613575565b61385891503d8086833e612a3e81836117ab565b3861383d565b149050823861356e565b61387190611710565b612a75578338613511565b909192935061388b8385616423565b9160c0840151809116156138bc575b50505050906138b2613475926101008a015190616575565b909138808061345b565b839b5060009293916123b46138d66138ff93989798616498565b9160018060a01b0385511694612b40612b2d6060604084015193015160405193612afe85611775565b60208b015160c08c015160405163079b42a160e21b8152948593849361393a936420000000001491906001600160a01b0316600486016160ff565b038183335af190811561197257613977916000918291612c48575060405180938192631fb6491d60e11b8352602060048401526024830190611492565b0381335afa92831561197257613475936138b2926000916139dc575b506101006080829c01519101906139ab825191612f13565b818113156139d557505b806000136000146139cf57506000905b529192388061389a565b906139c5565b90506139b5565b6139f191503d806000833e61229c81836117ab565b38613993565b90501538613455565b91955050613a1d915060603d606011612c9b57612c8981836117ab565b949094913861344c565b506020813d602011613a53575b81613a41602093836117ab565b81010312610294576133dc90516133c4565b3d9150613a34565b613a729150823d8411611c6e57611c6081836117ab565b3861334d565b82613a838b8a616423565b9160c08c015180911615613aa5575b505050613a9e87616518565b5038613320565b613ab191929350616498565b613add60018060a01b038c5116916123b48d612da96060604083015192015160405192612d7a84611775565b60208b015160c08c0151604051633a020f0160e11b81529485938493613b1793600160241b1491906001600160a01b0316600486016160ff565b038183335af190811561298a578291613b34575b50388281613a92565b613b4891503d8084833e612a3e81836117ab565b38613b2b565b9050153861331a565b915050613b73915060603d606011612c9b57612c8981836117ab565b919038613313565b9750945080612e8c61347592868660408b015160018060a01b036101408d01511690615a3e565b93516119359491906001600160a01b0316615850565b9091506020823d602011613bed575b81613bd4602093836117ab565b810103126102545750613be69061206f565b3880613221565b3d9150613bc7565b604051903d90823e3d90fd5b60408901516001600160a01b031603614194575050602086810151604051631e51d6a760e11b81526001600160a01b0390911660048201529081602481335afa90811561298a57829161415a575b5015613c7c5750602085015194516040516001600160a01b03968716969091169160008561324e8461173f565b6040868101519051631e51d6a760e11b81526001600160a01b03909116600482015293959193602081602481335afa918215613bf557809261411d575b50501561410757516040516001600160a01b039091169085613cda8261173f565b60608252613ce661185e565b6020830152613cf3612007565b6040830152613d3d600095613d1e81878760408c01518c61014060018060a01b039101511690615a3e565b9150506020850152612775606061010060408701510151920151612f13565b91613d5661279984612794604060208601510151612f13565b604060208301510152613d7761279984612794606060208601510151612f13565b606060208301510152613d8f6020865192015161618a565b90843b1561410357613dc5918791604051938492839263a1b2bf8b60e01b845260048401526040602484015260448301906119fe565b038183885af18015614000576140f4575b5060208401516040870151613df69184906001600160a01b0316866161e3565b5060408481015190870151613e169184906001600160a01b031686616346565b506101408601516001600160a01b0316801590849082156140ea575b5050614084575b506040838101519051631e51d6a760e11b81526001600160a01b039091166004820152602081602481335afa9081156129d357859161404a575b50613e8057505050505090565b604083810151958101519051633acd4df360e21b81526001600160a01b0390961660048701526024860152606085604481855afa948515612a4c578495614027575b50838512156135b457909192939484613f0560018060a01b03604087015116926040519384928392635b92108f60e11b8452606060048501526064840190611492565b906024830152600c6044830152038183335af19081156129d357613f349161367b918791614013575096615906565b908181131561400b5750915b60208101516001600160a01b031690613f5884615906565b833b15612a795760405163cf97256d60e01b8082526001600160a01b039490941660048201526024810191909152858160448183885af1801561400057613fed5750604001516001600160a01b031690823b156129c7576040519081526001600160a01b03919091166004820152602481019290925282908290604490829084905af1801561298a5761373f578080806135b4565b613ff990959195611710565b93386136e8565b6040513d88823e3d90fd5b905091613f40565b61378491503d8089833e612a3e81836117ab565b61404191955060603d60601161196b5761195b81836117ab565b50509338613ec2565b90506020813d60201161407c575b81614065602093836117ab565b810103126129c7576140769061206f565b38613e73565b3d9150614058565b6140ae9196508490604051809381926359a2914160e01b8352604060048401526044830190611492565b896024830152038183335af1908115612a4c5784916140d0575b509438613e39565b6140e491503d8086833e612a3e81836117ab565b386140c8565b1490508338613e32565b6140fd90611710565b38613dd6565b8680fd5b51611935949291906001600160a01b0316615850565b9091506020823d602011614152575b81614139602093836117ab565b81010312610254575061414b9061206f565b3880613cb9565b3d915061412c565b90506020813d60201161418c575b81614175602093836117ab565b81010312610294576141869061206f565b38613c4f565b3d9150614168565b60405191631e51d6a760e11b83526004830152602082602481335afa918215612e59578392614ba9575b5081614ba1575b50614b26575b6040868101519051631e51d6a760e11b81526001600160a01b039091166004820152602081602481335afa918215613bf5578092614ae9575b505015613ba257604085810151955190516001600160a01b0396871696909116916000856142318461173f565b6060845261423d61185e565b602085015261424a612007565b60408501528815614ac25750845160208087015160408089015181516001600160a01b03938416948101949094529091169082015290989061428f81606081016123b4565b6040519961429c8b61175a565b8360808c01528360a08c0152868b528260208c015260408b015260608a0152600160241b60c08a015260609060405190633e7d48bd60e21b82526004820152606081602481335afa908115612e5957839084908593614a9e575b5081614a95575b506149bf575b50835260405163289b3c0d60e01b8152602081600481335afa90811561298a5760649160209184916149a2575b5060408a01516101408b01516143559187918b918b916001600160a01b031690615a3e565b5060808d01525060405163407b865d60e11b8152336004820152602481018890526000805160206165bf833981519152604482015292839182906001600160a01b03165afa801561298a57829061496e575b60808a01516143bf92509081612ca2575082906158f9565b60808901526143d16060830151612f13565b60a08901529464200000000060c08901528251906143ed612007565b60208a0151604051633e7d48bd60e21b81526001600160a01b03909116600482015290999092606084602481335afa9081156119725760008095600093614947575b5084958161493e575b506147ec575b5050505090614458919760408401526127578551856123c8565b9061447161279983612794604060208601510151612f13565b60406020830151015261449261279983612794606060208601510151612f13565b6060602083015101526144aa6020855192015161618a565b90833b15612a79576144e0918691604051938492839263a1b2bf8b60e01b845260048401526040602484015260448301906119fe565b038183875af180156129d3579085916147d8575b5050602083015160408601516145159183906001600160a01b0316856161e3565b50604083810151908601516145359183906001600160a01b031685616346565b506101408501516001600160a01b0316801590839082156147ce575b505061476b575b6040838101519051631e51d6a760e11b81526001600160a01b039091166004820152602081602481335afa9081156129d3578591614731575b5061459e57505050505090565b604083810151958101519051633acd4df360e21b81526001600160a01b0390961660048701526024860152606085604481855afa948515612a4c57849561470e575b50838512156135b45790919293948461378a576040848101519051635b92108f60e11b81526060600482015291600091839182916001600160a01b03169061462c906064840190611492565b906024830152600c6044830152038183335af19081156119725761465c9161367b9160009161376f575096615906565b90818113156147065750915b60208101516001600160a01b03169061468084615906565b833b156113c05760405163cf97256d60e01b8082526001600160a01b03949094166004820152602481019190915260008160448183885af18015611972576137535750604001516001600160a01b031690823b156129c7576040519081526001600160a01b03909116600482015260248101929092528290829081838160448101613728565b905091614668565b61472891955060603d60601161196b5761195b81836117ab565b505093386145e0565b90506020813d602011614763575b8161474c602093836117ab565b810103126129c75761475d9061206f565b38614591565b3d915061473f565b948361479391604051809381926359a2914160e01b8352604060048401526044830190611492565b896024830152038183335af1908115612a4c5784916147b4575b5094614558565b6147c891503d8086833e612a3e81836117ab565b386147ad565b1490508238614551565b6147e190611710565b612a755783386144f4565b90919293506147fb8385616423565b9160c08401518091161561482c575b5050505090614822614458926101008a015190616575565b909138808061443e565b839b5060009293916123b46138d661484693989798616498565b60208b015160c08c015160405163079b42a160e21b81529485938493614881936420000000001491906001600160a01b0316600486016160ff565b038183335af1908115611972576148be916000918291612c48575060405180938192631fb6491d60e11b8352602060048401526024830190611492565b0381335afa928315611972576144589361482292600091614923575b506101006080829c01519101906148f2825191612f13565b8181131561491c57505b8060001360001461491657506000905b529192388061480a565b9061490c565b90506148fc565b61493891503d806000833e61229c81836117ab565b386148da565b90501538614438565b91955050614964915060603d606011612c9b57612c8981836117ab565b949094913861442f565b506020813d60201161499a575b81614988602093836117ab565b81010312610294576143bf90516143a7565b3d915061497b565b6149b99150823d8411611c6e57611c6081836117ab565b38614330565b826149ca8b8a616423565b9160c08c0151809116156149ec575b5050506149e587616518565b5038614303565b6149f891929350616498565b614a2460018060a01b038c5116916123b48d612da96060604083015192015160405192612d7a84611775565b60208b015160c08c0151604051633a020f0160e11b81529485938493614a5e93600160241b1491906001600160a01b0316600486016160ff565b038183335af190811561298a578291614a7b575b503882816149d9565b614a8f91503d8084833e612a3e81836117ab565b38614a72565b905015386142fd565b915050614aba915060603d606011612c9b57612c8981836117ab565b9190386142f6565b9750945080612e8c61445892868660408b015160018060a01b036101408d01511690615a3e565b9091506020823d602011614b1e575b81614b05602093836117ab565b810103126102545750614b179061206f565b3880614204565b3d9150614af8565b6020860151604051635b92108f60e11b81526060600482015291948591839182916001600160a01b031690614b5f906064840190611492565b906024830152600b6044830152038183335af1908115612a4c578491614b87575b50926141cb565b614b9b91503d8086833e612a3e81836117ab565b38614b80565b9050386141c5565b9091506020813d602011614bdd575b81614bc5602093836117ab565b810103126103e357614bd69061206f565b90386141be565b3d9150614bb8565b8851606089015160208801516001600160a01b039283169291821691614c0c911683611f9c565b939050614c286040614c20818b0151612f13565b950151612f13565b90614c7382614c378184612f7a565b92614c6b877f00000000000000000000000000000000000000000000000000000000000000006001600160a01b0316611eb4565b929091612fd4565b94888212614d7657614c8e9291614c8991611cb8565b612f96565b8315614d6e5786915b60ff604051936001602086015216604084015260408352614cb78361173f565b89519160018060a01b0360208c01511690614cda614cd48261613b565b91611ca1565b91863b15614d6a57928a969491928793614d1997956040519a8b998a988997631863e80960e01b8952600489015260e0602489015260e4880190611492565b94604487015215156064860152608485015260a484015260c483015203925af18015612a4c57908491614d56575b5050906131c3915b90916131b6565b614d5f90611710565b6103e3578238614d47565b8a80fd5b600191614c97565b945090506040969594965191600160208401526002604084015260408352614d9d8361173f565b895160208b01516001600160a01b031695909290614dbe90614cd49061613b565b90853b15614e445792614dfc9492899694928793604051998a9889978896631863e80960e01b8852600488015260e0602488015260e4870190611492565b936044860152856064860152608485015260a484015260c483015203925af18015612e5957614e31575b506131c39192614d4f565b91614e3e6131c393611710565b91614e26565b8880fd5b60405190636b4f333560e01b82526004820152602081602481335afa908115612a4c578491614f19575b501580614e9e575b614e85575b386131ab565b828612614e7f5760405163ce11b5d160e01b8152600490fd5b506040888101519051636b4f333560e01b81526001600160a01b039091166004820152602081602481335afa908115612a4c578491614edf575b5015614e7a565b90506020813d602011614f11575b81614efa602093836117ab565b81010312612a7557614f0b9061206f565b38614ed8565b3d9150614eed565b90506020813d602011614f4b575b81614f34602093836117ab565b81010312612a7557614f459061206f565b38614e72565b3d9150614f27565b905015386131a5565b60408c01516001600160a01b0316141591503861319e565b614f8e91975060603d60601161196b5761195b81836117ab565b50509538613179565b604051633c70159560e11b8152600490fd5b604051631ce9b06760e01b8152600490fd5b93929190614fe0614fcc84876157a6565b8751909291906001600160a01b03166123c8565b939061560157604087810180519151631e51d6a760e11b81526001600160a01b03909216600483015290602081602481335afa908115611972576000916155c7575b50156155a6575187516001600160a01b0391821694911691615046913691906117e7565b60405190948560006150578461173f565b6060845261506361185e565b6020850152615070612007565b6040850152861561557e575050835160208086015160408088015181516001600160a01b0393841694810194909452909116908201529096906150b681606081016123b4565b604051976150c38961175a565b600060808a0152600060a08a01528589528760208a01526040890152606088015260009564010000000060c089015260609060405190633e7d48bd60e21b82526004820152606081602481335afa90811561557357889089908a9361554f575b5081615546575b50615470575b50835260405163289b3c0d60e01b8152602081600481335afa9081156153b457896064928589896020958d9461544f575b506040850151610140909501519394615183946001600160a01b031690615a3e565b5060808c01525060405163407b865d60e11b8152336004820152602481018890526000805160206165bf833981519152604482015292839182906001600160a01b03165afa80156153b457879061541b575b60808901516151ed925090816153fa575087906158f9565b60808801526151ff6060830151612f13565b60a088015264020000000060c088015282519061521a612007565b6020890151604051633e7d48bd60e21b81526001600160a01b03909116600482015290989092606084602481335afa9081156153ef57898a958b936153c8575b508495816153bf575b5061528257505050509061277b919660408401526127578551856123c8565b90919293506152918385616423565b9160c0840151809116156152b7575050505090612ab361277b9261010089015190616575565b8992939a50612ad26152c891616498565b60208a015160c08b015160405163079b42a160e21b81529485938493615303936420000000001491906001600160a01b0316600486016160ff565b038183335af19081156153b45761533f9188918291612c48575060405180938192631fb6491d60e11b8352602060048401526024830190611492565b0381335afa9081156153b45791612ab39161277b9493899161539a575b506101006080829b0151910190615374825191612f13565b8181131561539357505b808a1315612c20575088905291923880612a9b565b905061537e565b6153ae91503d808b833e61229c81836117ab565b3861535c565b6040513d89823e3d90fd5b90501538615263565b919550506153e5915060603d606011612c9b57612c8981836117ab565b949094913861525a565b6040513d8b823e3d90fd5b80640100000000116000146154165750640100000000906158f9565b612cb3565b506020813d602011615447575b81615435602093836117ab565b81010312614103576151ed90516151d5565b3d9150615428565b615183945061546a90873d8911611c6e57611c6081836117ab565b93615161565b8761547b8a85616423565b9160c08b01518091161561549d575b50505061549682616518565b5038615130565b6154a991929350616498565b6154d560018060a01b038b5116916123b48c612da96060604083015192015160405192612d7a84611775565b60208a015160c08b0151604051633a020f0160e11b8152948593849361550f93600160241b1491906001600160a01b0316600486016160ff565b038183335af19081156153b457879161552c575b5038878161548a565b61554091503d8089833e612a3e81836117ab565b38615523565b9050153861512a565b91505061556b915060603d606011612c9b57612c8981836117ab565b919038615123565b6040513d8a823e3d90fd5b9550955080612e8c61277b92868660408c01518c61014060018060a01b039101511690615a3e565b5084936124a39592612ebb612ec19560018060a01b038b51169436916117e7565b90506020813d6020116155f9575b816155e2602093836117ab565b810103126113c0576155f39061206f565b38615022565b3d91506155d5565b60405163801b686360e01b8152600490fd5b9093926156349261562e91615626612007565b5036916117e7565b906121bf565b606081015190926001600160a01b0390811691161461564f57565b60405163b0ed394d60e01b8152600490fd5b909493615675929361562e91615626612007565b606081015190936001600160a01b0390811691161461564f57600090600b0b1261569b57565b6040516386e0377d60e01b8152600490fd5b9160f890969591969493946156c0612007565b50166156d5576156759261562e9136916117e7565b604051631e4e759b60e21b8152600490fd5b156156ee57565b634e487b7160e01b600052600160045260246000fd5b906020820161571a60008251600b0b12156156e7565b61574e6040519161572a83611790565b6001835260203681850137829460ff60801b905160801b169051600b0b1791611ddd565b52565b9061575a61185e565b9082151592836157675750565b8060e01c83526001600160601b038160801c16600b0b60208401526bffffffffffffffff0000000090818160201c16604085015260201b166060830152565b916157af613012565b6040840180519193916001600160a01b039190821615614f975760a06060602088019784806157e5818c5116828851169061238d565b9a8b8b525116948560208b01525116948560408a01528287015116828901520151936080870194600b0b8552015160a08601521461583e5760009051600b0b131561582c57565b6040516348d6568b60e11b8152600490fd5b60405163a47338ef60e01b8152600490fd5b919361588e8392956158666060820151156156e7565b61586e61185e565b50610140604084015193019660018060a01b03948594858a511690615a3e565b5050945116911614600014611b95576158c660009160405193849283926359a2914160e01b8452604060048501526044840190611492565b906024830152038183335af1908115611972576000916158e4575090565b61193591503d806000833e612a3e81836117ab565b9190820180921161184857565b600160ff1b81146118485760000390565b9190600360ff602084015116148015906159b9575b61593557505050565b6040918201519151633acd4df360e21b81526001600160a01b0391821660048201526024810192909252909160609183916044918391165afa8015611972576000918291615998575b501261598657565b60405163ea76c9b360e01b8152600490fd5b6159b1915060603d60601161196b5761195b81836117ab565b50503861597e565b506101408201516001600160a01b038481169116141561592c565b600b0b908115615a3757806159fa60016001605f1b036001600160601b039311156156e7565b16600b0b0280600b0b81810361184857615a289163ffffffff1615615a2e5760ff60015b169060201c6158f9565b60201b90565b60ff6000615a1e565b5050600090565b9094919392615a4b61185e565b50600091615a82867f00000000000000000000000000000000000000000000000000000000000000006001600160a01b0316611eb4565b5060405163289b3c0d60e01b8152602081600481335afa9081156129d35760649160209187916160b9575b5060405163407b865d60e11b81523360048201526001600160a01b038b811660248301526000805160206165bf83398151915260448301529093849290918391165afa948515613bf5578095616080575b5050615b11906080840151600b0b6159d4565b95615b41615b2e615b2189612f13565b61277560408a0151612f13565b615b3b6060890151612f13565b90612f7a565b97615b566127998a61279460408b0151612f13565b948086108061606f575b616054575b506001600160a01b03168015159081616040575b50616037575b6080830151600b0b95600087131561602f5782965b60608201519060405198615ba78a6116df565b89526020890152856040890152606088015286615bc585519161618a565b906001600160a01b0384163b156113c057615c0591600091604051938492839263a1b2bf8b60e01b845260048401526040602484015260448301906119fe565b0381836001600160a01b0388165af1801561197257616020575b50615c286119d5565b9260018060a01b03602086015116615c4f6020840151600b0b6080880151600b0b9061181e565b90600090615c5d8187611f9c565b939050615c84615c76615c71865188612fc7565b612f13565b6020860151600b0b90611cb8565b80615fb6575b50615c9c906020850151600b0b611cdb565b600b0b60208401528383528c615cbd61279960408601926127948451612f13565b905260608301615cd4612799846127948451612f13565b9052615cdf8361618a565b906001600160a01b0387163b156103e357615d24918391604051938492839263048620af60e11b845260048401528460248401526060604484015260648301906119fe565b0381836001600160a01b038b165af1801561298a57615fa2575b505060200151600b0b8452615d7060018060a01b036040870151169260206080880151600b0b910151600b0b9061181e565b91600091615d7e8286611f9c565b949050615da0615d92615c71875185612fc7565b6020870151600b0b90611cb8565b80615f38575b50615db8906020860151600b0b611cdb565b600b0b6020850152835260408301615dd7612799846127948451612f13565b905260608301615dee612799846127948451612f13565b9052615df98361618a565b906001600160a01b0385163b156103e357615e3e918391604051938492839263048620af60e11b845260048401528460248401526060604484015260648301906119fe565b0381836001600160a01b0389165af1801561298a57615f24575b5050917f71e0c98e270fc3084227b473f176924d5303ece8c639e679998a2d7dc8e70f749391602080940151600b0b80858401527f57269d2ebcccecdcc0d9d2c0a0b80ead95f344e28ec20f50f709811f209d4e0e60018060a01b0386860151169260018060a01b0360408701511694615f0a6080880151600b0b9151600b0b9260a08901519560405194859485528b85015260408401526080606084015260018060a01b0316946080830190611492565b0390a4606001516040519384526001600160a01b031692a2565b615f2e8291611710565b6102545780615e58565b6001600160a01b0387163b156129c75760405163cf97256d60e01b81526001600160a01b03851660048201526024810191909152848180604481010381836001600160a01b038c165af180156129d35715615da65793615f9b615db89295611710565b9390615da6565b615fac8291611710565b6102545780615d3e565b6001600160a01b0388163b15612a755760405163cf97256d60e01b81526001600160a01b03841660048201526024810191909152838180604481010381836001600160a01b038d165af18015612a4c5715615c8a5792616019615c9c9294611710565b9290615c8a565b61602990611710565b38615c1f565b600096615b94565b60009650615b7f565b6001600160a01b0383161415905038615b79565b98509350616067615b2e615b218a612f13565b979338615b65565b5060006080860151600b0b13615b60565b909194506020823d6020116160b1575b8161609d602093836117ab565b8101031261025457505192615b1138615afe565b3d9150616090565b6160d09150823d8411611c6e57611c6081836117ab565b38615aad565b908160609103126113c0576160ea8161206f565b9160406160f96020840161206f565b92015190565b6001600160a01b039091168152608060208201819052611935949261612691830190611492565b92151560408201526060818403910152611492565b600081126161465790565b606460405162461bcd60e51b815260206004820152602060248201527f53616665436173743a2076616c7565206d75737420626520706f7369746976656044820152fd5b9060405161619781611790565b600181526020368183013761574e81936060815160e01b6001600160601b0360801b602084015160801b16176001600160401b0319604084015160201b161791015160201c1791611ddd565b916000926161f18382611f9c565b929050616202615c71845188612fc7565b9561621660208501978851600b0b90611cb8565b806162e4575b5061622b868851600b0b611cdb565b600b0b8752835261624761279960408501926127948451612f13565b90526060820161625e612799866127948451612f13565b90526001600160a01b03908116916162759061618a565b92823b156129c75760405163048620af60e11b815291166004820152602481018490526060604482015291839183918290849082906162b89060648301906119fe565b03925af1801561298a576162d0575b505051600b0b90565b6162da8291611710565b61025457806162c7565b6001600160a01b03841690813b15610f4a5760405163cf97256d60e01b81526001600160a01b038816600482015260248101919091529087908290604490829084905af180156153b4571561621c5761633f90969196611710565b943861621c565b916000926163548382611f9c565b929050616365615c71845188612fc7565b9561637960208501978851600b0b90611cb8565b806163c1575b5061638e868851600b0b611cdb565b600b0b87528352604083016163aa612799876127948451612f13565b905261625e61279960608501926127948451612f13565b6001600160a01b03841690813b15610f4a5760405163cf97256d60e01b81526001600160a01b038816600482015260248101919091529087908290604490829084905af180156153b4571561637f5761641c90969196611710565b943861637f565b61646b60009160018060a01b0393846020820151169060808101519560a0820151915116906040519687958695630768fabb60e41b875260a0600488015260a4870190611492565b936024860152604485015260648401526084830152038183335af1908115611972576000916158e4575090565b64010000000081036164b057506330d9c91560e01b90565b64040000000081036164c85750630221347d60e61b90565b600160241b81036164df5750635f9e7d7760e01b90565b64020000000081036164f7575063d86ed3e560e01b90565b6408000000000361650d5763230dbd2960e01b90565b6353c11f9960e01b90565b61653d90604051918291634c4d861f60e11b8352604060048401526044830190611492565b816000938492836024830152038183335af1918215613bf557809261656157505090565b61193592503d8091833e612a3e81836117ab565b6158c66000916040519384928392634c4d861f60e11b845260406004850152604484019061149256fec0d5d3a6ac18cc1769788c925e6e7fc89cd47e4270a42884736fa9b3ec09f3a8eae305fa863b373417e615b1044222e2806cefc7788d169ce6748a443c3f6cc4a26469706673582212203613a13dd3e4c3b18cb6a8739382d6448bfe75823e662ae516d5f8620dca853f64736f6c63430008170033","linkReferences":{}},"methodIdentifiers":{"CFA_HOOK_GAS_LIMIT()":"bf3fbc28","DEFAULT_MINIMUM_DEPOSIT()":"04aafa49","MAXIMUM_DEPOSIT()":"9cb28b72","MAXIMUM_FLOW_RATE()":"26b0f536","addPermissions(uint8,uint8)":"72976490","agreementType()":"7730599e","authorizeFlowOperatorWithFullControl(address,address,bytes)":"54b770e3","castrate()":"9903ad38","createFlow(address,address,int96,bytes)":"62fc305e","createFlowByOperator(address,address,address,int96,bytes)":"94229ecb","decreaseFlowRateAllowance(address,address,int96,bytes)":"5f51fb23","decreaseFlowRateAllowanceWithPermissions(address,address,uint8,int96,bytes)":"da6b5f30","deleteFlow(address,address,address,bytes)":"b4b333c6","deleteFlowByOperator(address,address,address,bytes)":"4c8b181f","getAccountFlowInfo(address,address)":"0f1ac495","getCodeAddress()":"50d75d25","getDepositRequiredForFlowRate(address,int96)":"8d997f6e","getFlow(address,address,address)":"e6a1e888","getFlowByID(address,bytes32)":"aabd2668","getFlowOperatorData(address,address,address)":"00422bbe","getFlowOperatorDataByID(address,bytes32)":"09d256ef","getMaximumFlowRateFromDeposit(address,uint256)":"0602f7db","getNetFlow(address,address)":"e8e7e2d1","increaseFlowRateAllowance(address,address,int96,bytes)":"ac5f5d00","increaseFlowRateAllowanceWithPermissions(address,address,uint8,int96,bytes)":"f31f88f0","isPatricianPeriod(address,address,uint256)":"4b839e0b","isPatricianPeriodNow(address,address)":"4fe9c291","proxiableUUID()":"52d1902d","realtimeBalanceOf(address,address,uint256)":"9b2e48bc","removePermissions(uint8,uint8)":"2567f578","revokeFlowOperatorWithFullControl(address,address,bytes)":"062e56ec","updateCode(address)":"46951954","updateFlow(address,address,int96,bytes)":"50209a62","updateFlowByOperator(address,address,address,int96,bytes)":"354b9590","updateFlowOperatorPermissions(address,address,uint8,int96,bytes)":"811b3d40"},"id":67}