{"abi":[{"type":"function","name":"DEFAULT_APP_WHITELISTING_ENABLED","inputs":[],"outputs":[{"name":"","type":"bool","internalType":"bool"}],"stateMutability":"view"},{"type":"function","name":"DEFAULT_LIQUIDATION_PERIOD","inputs":[],"outputs":[{"name":"","type":"uint256","internalType":"uint256"}],"stateMutability":"view"},{"type":"function","name":"DEFAULT_NON_UPGRADEABLE","inputs":[],"outputs":[{"name":"","type":"bool","internalType":"bool"}],"stateMutability":"view"},{"type":"function","name":"DEFAULT_PATRICIAN_PERIOD","inputs":[],"outputs":[{"name":"","type":"uint256","internalType":"uint256"}],"stateMutability":"view"},{"type":"function","name":"DEFAULT_REWARD_ADDRESS","inputs":[],"outputs":[{"name":"","type":"address","internalType":"address"}],"stateMutability":"view"},{"type":"function","name":"DEFAULT_TOGA_MIN_BOND_DURATION","inputs":[],"outputs":[{"name":"","type":"uint256","internalType":"uint256"}],"stateMutability":"view"},{"type":"function","name":"RESOLVER_BASE_SUPER_TOKEN_KEY","inputs":[],"outputs":[{"name":"","type":"string","internalType":"string"}],"stateMutability":"view"},{"type":"function","name":"RESOLVER_BASE_TOKEN_KEY","inputs":[],"outputs":[{"name":"","type":"string","internalType":"string"}],"stateMutability":"view"},{"type":"function","name":"deployNativeAssetSuperToken","inputs":[{"name":"_name","type":"string","internalType":"string"},{"name":"_symbol","type":"string","internalType":"string"}],"outputs":[{"name":"nativeAssetSuperToken","type":"address","internalType":"contract ISETH"}],"stateMutability":"nonpayable"},{"type":"function","name":"deployPureSuperToken","inputs":[{"name":"_name","type":"string","internalType":"string"},{"name":"_symbol","type":"string","internalType":"string"},{"name":"_initialSupply","type":"uint256","internalType":"uint256"}],"outputs":[{"name":"pureSuperToken","type":"address","internalType":"contract IPureSuperToken"}],"stateMutability":"nonpayable"},{"type":"function","name":"deployTestFramework","inputs":[],"outputs":[],"stateMutability":"nonpayable"},{"type":"function","name":"deployWrapperSuperToken","inputs":[{"name":"_underlyingName","type":"string","internalType":"string"},{"name":"_underlyingSymbol","type":"string","internalType":"string"},{"name":"_decimals","type":"uint8","internalType":"uint8"},{"name":"_mintLimit","type":"uint256","internalType":"uint256"},{"name":"_admin","type":"address","internalType":"address"}],"outputs":[{"name":"underlyingToken","type":"address","internalType":"contract TestToken"},{"name":"superToken","type":"address","internalType":"contract SuperToken"}],"stateMutability":"nonpayable"},{"type":"function","name":"executeStep","inputs":[{"name":"step","type":"uint8","internalType":"uint8"}],"outputs":[],"stateMutability":"nonpayable"},{"type":"function","name":"getFramework","inputs":[],"outputs":[{"name":"sf","type":"tuple","internalType":"struct SuperfluidFrameworkDeploymentSteps.Framework","components":[{"name":"governance","type":"address","internalType":"contract TestGovernance"},{"name":"host","type":"address","internalType":"contract Superfluid"},{"name":"cfa","type":"address","internalType":"contract ConstantFlowAgreementV1"},{"name":"cfaLib","type":"tuple","internalType":"struct CFAv1Library.InitData","components":[{"name":"host","type":"address","internalType":"contract ISuperfluid"},{"name":"cfa","type":"address","internalType":"contract IConstantFlowAgreementV1"}]},{"name":"ida","type":"address","internalType":"contract InstantDistributionAgreementV1"},{"name":"gda","type":"address","internalType":"contract GeneralDistributionAgreementV1"},{"name":"idaLib","type":"tuple","internalType":"struct IDAv1Library.InitData","components":[{"name":"host","type":"address","internalType":"contract ISuperfluid"},{"name":"ida","type":"address","internalType":"contract IInstantDistributionAgreementV1"}]},{"name":"superTokenFactory","type":"address","internalType":"contract SuperTokenFactory"},{"name":"superTokenLogic","type":"address","internalType":"contract ISuperToken"},{"name":"resolver","type":"address","internalType":"contract TestResolver"},{"name":"superfluidLoader","type":"address","internalType":"contract SuperfluidLoader"},{"name":"cfaV1Forwarder","type":"address","internalType":"contract CFAv1Forwarder"},{"name":"idaV1Forwarder","type":"address","internalType":"contract IDAv1Forwarder"},{"name":"gdaV1Forwarder","type":"address","internalType":"contract GDAv1Forwarder"},{"name":"batchLiquidator","type":"address","internalType":"contract BatchLiquidator"},{"name":"toga","type":"address","internalType":"contract TOGA"}]}],"stateMutability":"view"},{"type":"function","name":"getNumSteps","inputs":[],"outputs":[{"name":"","type":"uint8","internalType":"uint8"}],"stateMutability":"pure"},{"type":"function","name":"transferOwnership","inputs":[{"name":"newOwner","type":"address","internalType":"address"}],"outputs":[],"stateMutability":"nonpayable"},{"type":"error","name":"DEPLOY_SUPER_TOKEN_REQUIRES_1820","inputs":[]},{"type":"error","name":"DEPLOY_SUPER_TOKEN_REQUIRES_DEPLOY_SUPER_TOKEN_CONTRACTS","inputs":[]},{"type":"error","name":"DEPLOY_TOGA_REQUIRES_1820","inputs":[]},{"type":"error","name":"RESOLVER_LIST_REQUIRES_DEPLOY_PERIPHERALS","inputs":[]}],"bytecode":{"object":"0x6080806040523461001657612e78908161001c8239f35b600080fdfe60a080604052600436101561001357600080fd5b600090813560e01c90816305bfa3e014610e07575080633df285fe14610deb5780634d59c13614610dce5780635209947014610cfc57806362a32e1e14610d9a57806376f30be814610d66578063888a37b114610d4857806393786bf014610d2c578063acbeaa0714610d01578063b3083cf814610cfc578063c8c25ad514610ce0578063cbcd744914610b0a578063dac4ea8214610766578063dfa98ad5146103f3578063f2fde38b146103765763fa0215fc146100d157600080fd5b346102af576003196060368201126102b25767ffffffffffffffff916004358381116102b257610105903690600401610f7d565b936024359081116103725761011e903690600401610f7d565b6008546001600160a01b0396604435949293929188161561036057731820a4b7618bde71dce8cdc73aab6c95905fad243b1561034f5760405196630f968c4b60e11b8852602098898960048173__$836f3661f552aa3d46ab242591622d7b50$__5af4988915610308578899610317575b508060085416981697803b156103135787809160248b6040519485938492633504b4d160e21b845260048401525af18015610308579088916102f4575b5050873b156102f05760405163588ca48760e11b815260606004820152928792849283926102149261020391606486019190612cb0565b908382030160248401528787612cb0565b8760448301520381838a5af180156102e55786929186916102c8575b505061024c9261024791610242610ec4565b612cd1565b612d0f565b6040519063a9059cbb60e01b82523360048301526024820152838160448185875af180156102bd57610283575b5050604051908152f35b8381813d83116102b6575b6102988183610ea2565b810103126102b25751801515036102af5780610279565b80fd5b5080fd5b503d61028e565b6040513d84823e3d90fd5b6102d491929350610e23565b6102e15784908438610230565b8380fd5b6040513d87823e3d90fd5b8680fd5b6102fd90610e23565b6102f05786386101cc565b6040513d8a823e3d90fd5b8780fd5b9098508981813d8311610348575b61032f8183610ea2565b810103126103135751888116810361031357973861018f565b503d610325565b604051622b682760e71b8152600490fd5b604051635006ee6d60e11b8152600490fd5b8280fd5b50346102af5760203660031901126102af576001600160a01b03600435818116908190036103ee578291825460081c1690813b156103ea57829160248392604051948593849263f2fde38b60e01b845260048401525af180156102bd576103da5750f35b6103e390610e23565b6102af5780f35b5050fd5b600080fd5b50346102af57806003193601126102af5780610240916101e060405161041881610e4d565b82815282602082015282604082015260405161043381610e6a565b600081526000602082015260608201528260808201528260a082015260405161045b81610e6a565b600081526000602082015260c08201528260e08201528261010082015282610120820152826101408201528261016082015282610180820152826101a0820152826101c0820152015260018060a01b03905460081c168060018060a01b036001541660018060a01b03600254166040516104d481610e6a565b82815281602082015260018060a01b03600354166040516104f481610e6a565b84815281602082015260018060a01b03600454169060018060a01b036008541660018060a01b03600754169060018060a01b03600c54169260018060a01b03600d54169460018060a01b03600954169660018060a01b03600a54169860018060a01b03600b54169a60018060a01b03600e54169c60018060a01b03600f54169e604051608052610585608051610e4d565b6080515260206080510152604060805101526060608051015260808051015260a0608051015260c0608051015260e06080510152610100608051015261012060805101526101406080510152610160608051015261018060805101526101a060805101526101c060805101526101e0608051015260405190815260018060a01b036020608051015116602082015260018060a01b03604060805101511660408201526060608051015160018060a01b038151166060830152602060018060a01b0391015116608082015260018060a01b036080805101511660a082015260018060a01b0360a060805101511660c082015260c0608051015160018060a01b0381511660e0830152602060018060a01b039101511661010082015260018060a01b0360e060805101511661012082015260018060a01b0361010060805101511661014082015260018060a01b0361012060805101511661016082015260018060a01b0361014060805101511661018082015260018060a01b036101606080510151166101a082015260018060a01b036101806080510151166101c082015260018060a01b036101a06080510151166101e082015260018060a01b036101c060805101511661020082015260018060a01b036101e0608051015116610220820152f35b50346102af5760031960a0368201126102b25767ffffffffffffffff6004358181116102e15761079a903690600401610f7d565b929091602435908111610a7e576107b5903690600401610f7d565b91906044359260ff84168094036103ee576001600160a01b03608435818116979195908890036103ee5785600854161561036057731820a4b7618bde71dce8cdc73aab6c95905fad243b1561034f5761083c61082b6040519889946302a510b960e61b8652608060048701526084860191612cb0565b868482030160248501528486612cb0565b9060448301526064356064830152816020978892038173__$836f3661f552aa3d46ab242591622d7b50$__5af4908115610308578891610ad4575b506040518284888301376108a1602182858101600f60fb1b8b820152036001810184520182610ea2565b60085460405163313ce56760e01b815292871698908716928a9189826004818e5afa938415610ac9578a978c938596610a89575b50876040519889928b840165029bab832b9160d51b9052602684013781018560268201520360068101885260260161090d9088610ea2565b604051988997889687956338252f8960e21b8752600487015260ff16602486015260448501600190526064850160c0905260c4850161094b91610f14565b9084820301608485015261095e91610f14565b9060a483015203925af19081156102e5578591610a4f575b501690610981610f55565b6040516395d89b4160e01b808252918682600481895afa918215610a44576109b6928792610247928a92610a28575b50612e01565b6109be610ec4565b6040519182528582600481875afa918215610a1d576109ee928592610247928960409a936109f8575b5050612e01565b8351928352820152f35b610a159293503d8091833e610a0d8183610ea2565b810190612d95565b9038806109e7565b6040513d88823e3d90fd5b610a3d9192503d808c833e610a0d8183610ea2565b90386109b0565b6040513d89823e3d90fd5b90508281813d8311610a82575b610a668183610ea2565b81010312610a7e57518181168103610a7e5738610976565b8480fd5b503d610a5c565b92935094509681813d8311610ac2575b610aa38183610ea2565b8101031261037257519060ff821682036103725789968b9294386108d5565b503d610a99565b6040513d85823e3d90fd5b90508581813d8311610b03575b610aeb8183610ea2565b81010312610313575184811681036103135738610877565b503d610ae1565b50346102af576003196040368201126102b25767ffffffffffffffff916004358381116102b257610b3f903690600401610f7d565b9190936024359081116102b257610b5a903690600401610f7d565b94909260018060a01b039485600854161561036057731820a4b7618bde71dce8cdc73aab6c95905fad243b1561034f5760405163f7c3bdc960e01b815260208160048173__$836f3661f552aa3d46ab242591622d7b50$__5af49081156102e5579087918691610ca2575b50169560085416803b15610a7e57848091602460405180948193633504b4d160e21b83528c60048401525af180156102e557610c8f575b50853b156102e157918391610c4e610c3d9460405195869485946285fc1360e71b865287600487015260126024870152608060448701526084860191612cb0565b908382030160648401528988612cb0565b038183885af180156102bd57610c7b575b602084610c73816102478988610242610ec4565b604051908152f35b610c858291610e23565b6102af5780610c5f565b610c9b90949194610e23565b9238610bfc565b9150506020813d602011610cd8575b81610cbe60209383610ea2565b81010312610a7e57518681168103610a7e57869038610bc5565b3d9150610cb1565b50346102af57806003193601126102af57602060405160078152f35b610f39565b50346102af5760203660031901126102af5760043560ff811681036102b257610d2990611007565b80f35b50346102af57806003193601126102af57602060405160458152f35b50346102af57806003193601126102af57602060405162093a808152f35b50346102af57806003193601126102af57805b60078110610d85575080f35b80610d9460ff60019316611007565b01610d79565b50346102af57806003193601126102af57610dca610db6610f55565b604051918291602083526020830190610f14565b0390f35b50346102af57806003193601126102af5760206040516138408152f35b50346102af57806003193601126102af57610dca610db6610ec4565b9050346102b257816003193601126102b2578061070860209252f35b67ffffffffffffffff8111610e3757604052565b634e487b7160e01b600052604160045260246000fd5b610200810190811067ffffffffffffffff821117610e3757604052565b6040810190811067ffffffffffffffff821117610e3757604052565b6020810190811067ffffffffffffffff821117610e3757604052565b90601f8019910116810190811067ffffffffffffffff821117610e3757604052565b60405190610ed182610e6a565b601182527039bab832b93a37b5b2b739973a32b9ba1760791b6020830152565b60005b838110610f045750506000910152565b8181015183820152602001610ef4565b90602091610f2d81518092818552858086019101610ef1565b601f01601f1916010190565b346103ee5760003660031901126103ee57602060405160008152f35b60405190610f6282610e6a565b600c82526b3a37b5b2b739973a32b9ba1760a11b6020830152565b9181601f840112156103ee5782359167ffffffffffffffff83116103ee57602083818601950101116103ee57565b908160209103126103ee57516001600160a01b03811681036103ee5790565b90815180825260208080930193019160005b828110610fea575050505090565b83516001600160a01b031685529381019392810192600101610fdc565b60009060ff808354169116908103612c7a578061114f575060405163c3acf1b360e01b815273__$ec364b5f847687f411f7aac97ee63693c7$__90602081600481855af4908115610ac957839161110d575b508254610100600160a81b03191660089190911b610100600160a81b031617808355813b1561037257604051633f5b172b60e11b815260089190911c6001600160a01b03166004820152306024820152908290829060449082905af480156102bd579082916110f9575b50505b805460ff811660ff81146110e557600160ff9101169060ff1916179055565b634e487b7160e01b83526011600452602483fd5b61110290610e23565b6102af5780386110c3565b90506020813d602011611147575b8161112860209383610ea2565b8101031261037257516001600160a01b03811681036103725738611059565b3d915061111b565b600181036113e8575060408051631dd70c0360e21b81526020808260048173__$6b8381f2c4cb8b80cb17ca25b332cbc17a$__5af49182156113405784926113a9575b5082516308ddc89960e01b81526001600482015260248101859052622dc6c060448201526001600160a01b03928316606482018190529190818160848173__$b64dc458336693064dc03316c87e5ccace$__5af491821561139f57908492918792611365575b5050169060015490826001600160601b0360a01b831617600155803b1561136157602486928380938851968795869463f2fde38b60e01b8652161760048401525af180156113405790849161134d575b505080600154168354813b15610a7e578260248692838751958694859363189acdbd60e31b855260081c1660048401525af180156113405790849161132c575b5081905460081c169060015416908251916112a283610e86565b848352813b15610a7e579184918493836112f49651809781958294630b520f0360e31b84526004840152604560248401526138406044840152610708606484015260a0608484015260a4830190610fca565b03925af1908115611323575090829161130f575b50506110c6565b61131890610e23565b6102af578038611308565b513d84823e3d90fd5b61133590610e23565b610372578238611288565b50505051903d90823e3d90fd5b61135690610e23565b610372578238611248565b8580fd5b8193508092503d8311611398575b61137d8183610ea2565b81010312610a7e57518281168103610a7e57829038806111f8565b503d611373565b85513d88823e3d90fd5b9080925081813d83116113e1575b6113c18183610ea2565b810103126102e157516001600160a01b03811681036102e1579038611192565b503d6113b7565b60028103611c125750600154604051636f6b2c2b60e11b8082526001600160a01b0390921660048201529060208260248173__$d412c98dbcef62e4a5e577aa712fa982a3$__5af4918215610ac9578392611bce575b506001546040519182526001600160a01b0316600482015260208160248173__$5d450739ee6302481014c8888f319cbb05$__5af4908115610ac9578391611b8c575b5060405163624956a560e11b8152600481018490529060208260248173__$a9797461e4c493464310df275eb0a00ab5$__5af4918215611979578492611b6b575b5060405163185b40e560e31b81526001600160a01b03909216600483015260208260248173__$1b2510be4c6ffe8748904f5f776507ce3a$__5af4918215611979578492611b4a575b50600154604051634d9475c160e11b81526001600160a01b0391821660048201529216602483015260208260448173__$9e87c784df0e91bc26ed141b541d088fe1$__5af4918215611979578492611b06575b5083546001546001600160a01b039485169460089290921c82169116813b156113615760405163cadf8f8560e01b81526001600160a01b03918216600482015290851660248201529085908290604490829084905af180156102e557908591611af2575b5050600154604051633b982ccf60e11b81526001600160a01b0390911693602090829060049082905afa9081156102e5578591611ac0575b5060405190635b69006f60e11b82526004820152602081602481875afa9081156102e5578591611aa1575b50600280546001600160a01b0319166001600160a01b0392831617905584549181169360089290921c1690813b15610a7e5760405163cadf8f8560e01b81526001600160a01b03918216600482015290841660248201529084908290604490829084905af1801561197957908491611a8d575b5050600154604051633b982ccf60e11b81526001600160a01b0390911692602090829060049082905afa908115611979578491611a5b575b5060405190635b69006f60e11b82526004820152602081602481865afa908115611979578491611a3c575b50600380546001600160a01b0319166001600160a01b0392831617905583549181169260089290921c1690813b156102e15760405163cadf8f8560e01b81526001600160a01b03918216600482015290831660248201529083908290604490829084905af18015610ac957908391611a28575b5050600154604051633b982ccf60e11b81526001600160a01b0390911690602081600481865afa80156119795784906119f5575b60209150602460405180948193635b69006f60e11b835260048301525afa908115610ac95783916119d6575b50600480546001600160a01b03929092166001600160a01b031983168117825560405163624956a560e11b8152928516179082015260208160248173__$a9797461e4c493464310df275eb0a00ab5$__5af4908115610ac95783916119b7575b506001600160a01b0316803b156103725760405163132075a760e31b8152838160048183865af18015611979579084916119a3575b5050604051635437dd9760e01b8082529190602081600481875afa9081156102e5578591611984575b506001600160a01b031690813b15610a7e578491602483926040519485938492631b2ce7f360e11b845260048401525af1801561197957908491611965575b505060209060046040518094819382525afa9081156102bd578291611936575b506001546001600160a01b039182169116813b1561037257829160248392604051948593849263f2fde38b60e01b845260048401525af180156102bd5790829161130f5750506110c6565b611958915060203d60201161195e575b6119508183610ea2565b810190610fab565b386118eb565b503d611946565b61196e90610e23565b6103725782386118cb565b6040513d86823e3d90fd5b61199d915060203d60201161195e576119508183610ea2565b3861188c565b6119ac90610e23565b610372578238611863565b6119d0915060203d60201161195e576119508183610ea2565b3861182e565b6119ef915060203d60201161195e576119508183610ea2565b386117ce565b506020813d602011611a20575b81611a0f60209383610ea2565b810103126103ee57602090516117a2565b3d9150611a02565b611a3190610e23565b6102b257813861176e565b611a55915060203d60201161195e576119508183610ea2565b386116fb565b90506020813d602011611a85575b81611a7660209383610ea2565b810103126103ee5751386116d0565b3d9150611a69565b611a9690610e23565b610372578238611698565b611aba915060203d60201161195e576119508183610ea2565b38611625565b90506020813d602011611aea575b81611adb60209383610ea2565b810103126103ee5751386115fa565b3d9150611ace565b611afb90610e23565b6102e15783386115c2565b9091506020813d602011611b42575b81611b2260209383610ea2565b810103126102e157516001600160a01b03811681036102e157903861155e565b3d9150611b15565b611b6491925060203d60201161195e576119508183610ea2565b903861150b565b611b8591925060203d60201161195e576119508183610ea2565b90386114c2565b90506020813d602011611bc6575b81611ba760209383610ea2565b8101031261037257516001600160a01b03811681036103725738611481565b3d9150611b9a565b9091506020813d602011611c0a575b81611bea60209383610ea2565b8101031261037257516001600160a01b038116810361037257903861143e565b3d9150611bdd565b6003810361205b575060408051633119781b60e21b80825260049190602073__$1b2510be4c6ffe8748904f5f776507ce3a$__81848681845af4938415611f4a57879461203c575b50600580546001600160a01b03199081166001600160a01b03968716179091556001548654885163068f199b60e41b8152918716828901908152908716602082015273__$0f74b5553fa5ec2d5517b1d2edf11c4f6f$__9391908590829081906040010381875af4908115611fb5579087918b91612002575b501694853b15611ffe57885163132075a760e31b80825296908b818b8183865af18015611fdc57908c91611fea575b5050876005541690813b15611fe6578b8a98979695949392602482938e519485938492634a0687ef60e01b9e8f85528401525af18015611fdc578692918d91611fbf575b5050898b518094819382525af4908115611fb5579187611db6949286948d91611f98575b5060068054909316911617905560015488548a5163760cde4560e11b81526001600160a01b03928a168316818c01908152918a1692909216602082015290938492918391829160400190565b03915af4918215611f8e57908592918992611f54575b50501690813b156102f05785519081528681868183865af18015611f4a57908791611f36575b5050826006541691823b156102f057906024879283885195869485938452898401525af18015611f2c57908591611f18575b5050806005541690813b15610a7e578351858160c4818363266c45bb60e11b978883528a8a840152600e60448401526d141bdbdb0810591b5a5b8813919560921b6064840152608060248401526002608484015261504160f01b60a48401525af1801561139f57908691611f04575b505060065416803b15610a7e579160c48592838695865197889586948552840152600f60448401526e141bdbdb0813595b58995c88139195608a1b6064840152608060248401526002608484015261504d60f01b60a48401525af1908115611323575090829161130f5750506110c6565b611f0d90610e23565b610a7e578438611e93565b611f2190610e23565b6102e1578338611e24565b84513d87823e3d90fd5b611f3f90610e23565b611361578538611df2565b86513d89823e3d90fd5b8193508092503d8311611f87575b611f6c8183610ea2565b810103126102f0575183811681036102f05783903880611dcc565b503d611f62565b87513d8a823e3d90fd5b611faf9150853d871161195e576119508183610ea2565b38611d6a565b89513d8c823e3d90fd5b611fcb91929350610e23565b611fd85784908b38611d46565b8a80fd5b8b513d8e823e3d90fd5b8b80fd5b611ff390610e23565b611fd8578a38611d02565b8980fd5b809250868092503d8311612035575b61201b8183610ea2565b81010312611ffe57518681168103611ffe57869038611cd3565b503d612011565b612054919450823d841161195e576119508183610ea2565b9238611c5a565b600490808203612394575060015460408051636f6b2c2b60e11b8082526001600160a01b0393841685830152919291602091828160248173__$fc84b0432f3e058b09e50f9d35a0fabfa6$__5af490811561238a579084918891612350575b501691600954916001600160601b0360a01b93808585161760095585895460081c1690866001541690823b15611fd85788516355c2378d60e11b8082526001600160a01b03938416828d0190815260006020820152978d169092179290921660408701529490918a9183919082908490829060600103925af180156122f45790899161233c575b5050846001541686519082825288820152828160248173__$8e0f7691e0f43a60839c100eec89c3f84c$__5af49081156122f4579086918a916122fe575b5016600a548186821617600a55868a5460081c16908760015416823b15611fe65789518781526001600160a01b03918216818d0190815260006020820152928d169094171660408201528a91839182908490829060600103925af180156122f4579089916122e0575b50508460015416865191825287820152818160248173__$92493311da9087504ab80cedb203fb2629$__5af49182156122d65790859291899261229c575b5050169485600b5493841617600b5583875460081c169360015416843b156103135785519283526001600160a01b0390811691830191825260006020830152928716909517919091166040850152928491849182908490829060600103925af1908115611323575090829161130f5750506110c6565b8193508092503d83116122cf575b6122b48183610ea2565b810103126102f0575183811681036102f05783903880612226565b503d6122aa565b86513d8a823e3d90fd5b6122e990610e23565b6103135787386121e8565b87513d8b823e3d90fd5b809250848092503d8311612335575b6123178183610ea2565b81010312612331575185811681036123315785903861217f565b8880fd5b503d61230d565b61234590610e23565b610313578738612141565b809250848092503d8311612383575b6123698183610ea2565b810103126102f0575183811681036102f0578390386120ba565b503d61235f565b85513d89823e3d90fd5b6005810361267e57506001546005546006546040805163f928dc3560e01b81526001600160a01b0394851681870152928416602484015290831660448301526020939091848160648173__$11bab9f39d2a090f71d030c5089fd7ebe6$__5af4908115612674579084918791612657575b5016936007546001600160601b0360a01b958087831617600755856001541691866005541691865191858388816350d75d2560e01b978882525afa92831561262e578b93612638575b5085896006541694888a518097819382525afa93841561262e57918b8a9594928694829661260f575b508a5197631d56fc4b60e31b89528a89015216176024860152166044840152166064820152818160848173__$1abca30d2885e481301a095bba0bfae094$__5af49081156125cf5787916125d9575b5084875460081c169085600154168551916124e083610e86565b898352833b15611ffe5792899283612522938a968a5197889687958694638e12552f60e01b86528d86015285602486015260a0604486015260a4850190610fca565b9116606483015282608483015203925af180156125cf579087916125bb575b505080846001541684519384809263398d76b760e11b82525afa9283156125b25750859261257b575b5050169060085416176008556110c6565b90809250813d83116125ab575b6125928183610ea2565b810103126102e1575181811681036102e157388061256a565b503d612588565b513d87823e3d90fd5b6125c490610e23565b611361578538612541565b84513d89823e3d90fd5b90508181813d8311612608575b6125f08183610ea2565b810103126102f0575184811681036102f057386124c6565b503d6125e6565b612627919650893d8b1161195e576119508183610ea2565b9438612477565b88513d8d823e3d90fd5b612650919350863d881161195e576119508183610ea2565b913861244e565b61266e9150863d881161195e576119508183610ea2565b38612405565b83513d88823e3d90fd5b600603612c475760408051632f0f279d60e01b8152308382015273__$87aa05c2eb3f6f4a9d1b2a30ab6857af1a$__906020602481838281875af492831561238a578793612c08575b50600c80546001600160a01b039485166001600160a01b0319918216811783558751630b5bd8c560e01b8152898101919091529095919084818581865af4908115612b16579086918b91612bce575b501686600d541617600d5584815416895490803b15611fd857888a9493928c92838351809263a815ff1560e01b9586835260449a83015260138a8301528c6064957215195cdd11dbdd995c9b985b98d94b9d195cdd606a1b8785015260081c168b8301528160849788925af18015612b7357612bbb575b50888454168960015416813b15612b57578d8f91858f94849089938e600f8f8a519a8b998a9889528801528601526e14dd5c195c999b1d5a590b9d195cdd608a1b8a8601528401525af18015612b7357908e91612ba7575b50508884541689600d5416813b15612b57578d8f91858f94849089938e60138f8a519a8b998a988952880152860152725375706572666c7569644c6f616465722d763160681b8a8601528401525af18015612b7357908e91612b93575b5050888454168960095416813b15612b57578d8f91858f94849089938e600e8f8a519a8b998a9889528801528601526d21a320bb18a337b93bb0b93232b960911b8a8601528401525af18015612b7357908e91612b7f575b50508884541689600a5416813b15612b57578d8f91858f94849089938e600e8f8a519a8b998a9889528801528601526d24a220bb18a337b93bb0b93232b960911b8a8601528401525af18015612b7357908e91612b5b575b5050888454169089600b541690823b15612b5757928e8e938e96936d23a220bb18a337b93bb0b93232b960911b83978951998a9889978852870152600e8d8701528501528b8401525af18015612b4d578792918c91612b34575b50505416803b15611ffe578751637048027560e01b815233818b0152908a9082908690829084905af18015612b1657908a91612b20575b50506001548751639e4121e360e01b81529086168982015284818581855af4908115612b16579086918b91612adc575b501686600e541617600e55731820a4b7618bde71dce8cdc73aab6c95905fad243b15612acc576001548751634f88f8b560e01b81529086168982015262093a80938101939093528391839182905af491821561238a57908392918892612a92575b5050169182600f5491821617600f5581865460081c16916001541694823b156102f057845163064aa52160e31b81526001600160a01b0396871691810191825260006020830152918716909317949094166040830152849184919082908490829060600103925af1908115611323575090829161130f5750506110c6565b8193508092503d8311612ac5575b612aaa8183610ea2565b81010312611361575181811681036113615781903880612a14565b503d612aa0565b8651630c9b12e760e01b81528890fd5b809250868092503d8311612b0f575b612af58183610ea2565b81010312611ffe57518581168103611ffe578590386129b3565b503d612aeb565b88513d8c823e3d90fd5b612b2990610e23565b612331578838612983565b612b4091929350610e23565b611ffe5785908a3861294c565b89513d8d823e3d90fd5b8e80fd5b612b6490610e23565b612b6f578c386128f2565b8c80fd5b8e8d51903d90823e3d90fd5b612b8890610e23565b612b6f578c3861289a565b612b9c90610e23565b612b6f578c38612842565b612bb090610e23565b612b6f578c386127e5565b612bc7909d919d610e23565b9b3861278d565b809250868092503d8311612c01575b612be78183610ea2565b81010312611ffe57518581168103611ffe57859038612716565b503d612bdd565b9092508181813d8311612c40575b612c208183610ea2565b810103126102f057516001600160a01b03811681036102f05791386126c7565b503d612c16565b60649060206040519162461bcd60e51b8352820152600c60248201526b0496e76616c696420737465760a41b6044820152fd5b60405162461bcd60e51b815260206004820152600e60248201526d0496e636f727265637420737465760941b6044820152606490fd5b908060209392818452848401376000828201840152601f01601f1916010190565b60209083612d0d939594956040519683612cf48995518092888089019101610ef1565b8401918583013701600083820152038085520183610ea2565b565b600c546001600160a01b039081168015612d8357803b156103ee57612d56600080946040519687958694859363a815ff1560e01b8552604060048601526044850190610f14565b9116602483015203925af18015612d7757612d6e5750565b612d0d90610e23565b6040513d6000823e3d90fd5b60405163521c4a7d60e01b8152600490fd5b6020818303126103ee57805167ffffffffffffffff918282116103ee57019082601f830112156103ee578151908111610e375760405192612de0601f8301601f191660200185610ea2565b818452602082840101116103ee57612dfe9160208085019101610ef1565b90565b6020612d0d919392936040519481612e228793518092868087019101610ef1565b8201612e3682518093868085019101610ef1565b01038085520183610ea256fea26469706673582212206e6859adf607d27992a2de9e195d20a2602bf2f205c70be56e1bdf4ded79840464736f6c63430008170033","linkReferences":{"lib/superfluid-protocol-monorepo/packages/ethereum-contracts/contracts/utils/SuperfluidFrameworkDeploymentSteps.sol":{"CFAv1ForwarderDeployerLibrary":[{"start":8368,"length":20}],"GDAv1ForwarderDeployerLibrary":[{"start":8731,"length":20}],"IDAv1ForwarderDeployerLibrary":[{"start":8565,"length":20}],"ProxyDeployerLibrary":[{"start":5380,"length":20},{"start":7246,"length":20}],"SuperTokenDeployerLibrary":[{"start":9211,"length":20}],"SuperTokenFactoryDeployerLibrary":[{"start":9407,"length":20}],"SuperfluidCFAv1DeployerLibrary":[{"start":5175,"length":20}],"SuperfluidDMZForwarderDeployerLibrary":[{"start":4491,"length":20}],"SuperfluidGDAv1DeployerLibrary":[{"start":5463,"length":20}],"SuperfluidGovDeployerLibrary":[{"start":4170,"length":20}],"SuperfluidHostDeployerLibrary":[{"start":4589,"length":20}],"SuperfluidIDAv1DeployerLibrary":[{"start":5242,"length":20}],"SuperfluidPeripheryDeployerLibrary":[{"start":9910,"length":20}],"SuperfluidPoolLogicDeployerLibrary":[{"start":5307,"length":20},{"start":6183,"length":20}],"SuperfluidPoolNFTLogicDeployerLibrary":[{"start":7354,"length":20}],"TokenDeployerLibrary":[{"start":392,"length":20},{"start":2160,"length":20},{"start":3003,"length":20}]}}},"methodIdentifiers":{"DEFAULT_APP_WHITELISTING_ENABLED()":"b3083cf8","DEFAULT_LIQUIDATION_PERIOD()":"4d59c136","DEFAULT_NON_UPGRADEABLE()":"52099470","DEFAULT_PATRICIAN_PERIOD()":"05bfa3e0","DEFAULT_REWARD_ADDRESS()":"93786bf0","DEFAULT_TOGA_MIN_BOND_DURATION()":"888a37b1","RESOLVER_BASE_SUPER_TOKEN_KEY()":"3df285fe","RESOLVER_BASE_TOKEN_KEY()":"62a32e1e","deployNativeAssetSuperToken(string,string)":"cbcd7449","deployPureSuperToken(string,string,uint256)":"fa0215fc","deployTestFramework()":"76f30be8","deployWrapperSuperToken(string,string,uint8,uint256,address)":"dac4ea82","executeStep(uint8)":"acbeaa07","getFramework()":"dfa98ad5","getNumSteps()":"c8c25ad5","transferOwnership(address)":"f2fde38b"},"id":125}