{"abi":[{"type":"fallback","stateMutability":"payable"},{"type":"receive","stateMutability":"payable"},{"type":"function","name":"initializeProxy","inputs":[{"name":"initialAddress","type":"address","internalType":"address"}],"outputs":[],"stateMutability":"nonpayable"},{"type":"error","name":"Initialized","inputs":[]},{"type":"error","name":"ZeroAddress","inputs":[]}],"bytecode":{"object":"0x608080604052346100165761011c908161001c8239f35b600080fdfe608060405260043610156015575b3660a65760a6565b6000803560e01c634a0687ef14602a5750600d565b3460a357602036600319011260a3576004356001600160a01b03808216808303609f5715608e577f360894a13ba1a3210667c828492db98dca3e2076cc3735a920a3ca505d382bbc90815416607d575580f35b6302ed543d60e51b60805260046080fd5b63d92e233d60e01b60805260046080fd5b8380fd5b80fd5b7f360894a13ba1a3210667c828492db98dca3e2076cc3735a920a3ca505d382bbc546000808092368280378136915af43d82803e1560e2573d90f35b3d90fdfea2646970667358221220dfbdf97e3ab91c4ae0e1b7efd445fe9a91297ff63a177b1646dd3c0b92bfc91d64736f6c63430008170033","linkReferences":{}},"methodIdentifiers":{"initializeProxy(address)":"4a0687ef"},"id":137}