{"abi":[{"type":"constructor","inputs":[{"name":"host","type":"address","internalType":"contract ISuperfluid"},{"name":"superTokenLogic","type":"address","internalType":"contract ISuperToken"},{"name":"constantOutflowNFTLogic","type":"address","internalType":"contract IConstantOutflowNFT"},{"name":"constantInflowNFTLogic","type":"address","internalType":"contract IConstantInflowNFT"},{"name":"poolAdminNFTLogic","type":"address","internalType":"contract IPoolAdminNFT"},{"name":"poolMemberNFTLogic","type":"address","internalType":"contract IPoolMemberNFT"}],"stateMutability":"nonpayable"},{"type":"function","name":"CONSTANT_INFLOW_NFT_LOGIC","inputs":[],"outputs":[{"name":"","type":"address","internalType":"contract IConstantInflowNFT"}],"stateMutability":"view"},{"type":"function","name":"CONSTANT_OUTFLOW_NFT_LOGIC","inputs":[],"outputs":[{"name":"","type":"address","internalType":"contract IConstantOutflowNFT"}],"stateMutability":"view"},{"type":"function","name":"POOL_ADMIN_NFT_LOGIC","inputs":[],"outputs":[{"name":"","type":"address","internalType":"contract IPoolAdminNFT"}],"stateMutability":"view"},{"type":"function","name":"POOL_MEMBER_NFT_LOGIC","inputs":[],"outputs":[{"name":"","type":"address","internalType":"contract IPoolMemberNFT"}],"stateMutability":"view"},{"type":"function","name":"_SUPER_TOKEN_LOGIC","inputs":[],"outputs":[{"name":"","type":"address","internalType":"contract ISuperToken"}],"stateMutability":"view"},{"type":"function","name":"castrate","inputs":[],"outputs":[],"stateMutability":"nonpayable"},{"type":"function","name":"computeCanonicalERC20WrapperAddress","inputs":[{"name":"_underlyingToken","type":"address","internalType":"address"}],"outputs":[{"name":"superTokenAddress","type":"address","internalType":"address"},{"name":"isDeployed","type":"bool","internalType":"bool"}],"stateMutability":"view"},{"type":"function","name":"createCanonicalERC20Wrapper","inputs":[{"name":"_underlyingToken","type":"address","internalType":"contract IERC20Metadata"}],"outputs":[{"name":"","type":"address","internalType":"contract ISuperToken"}],"stateMutability":"nonpayable"},{"type":"function","name":"createERC20Wrapper","inputs":[{"name":"underlyingToken","type":"address","internalType":"contract IERC20Metadata"},{"name":"upgradability","type":"uint8","internalType":"enum ISuperTokenFactory.Upgradability"},{"name":"name","type":"string","internalType":"string"},{"name":"symbol","type":"string","internalType":"string"}],"outputs":[{"name":"superToken","type":"address","internalType":"contract ISuperToken"}],"stateMutability":"nonpayable"},{"type":"function","name":"createERC20Wrapper","inputs":[{"name":"underlyingToken","type":"address","internalType":"contract IERC20Metadata"},{"name":"upgradability","type":"uint8","internalType":"enum ISuperTokenFactory.Upgradability"},{"name":"name","type":"string","internalType":"string"},{"name":"symbol","type":"string","internalType":"string"},{"name":"admin","type":"address","internalType":"address"}],"outputs":[{"name":"superToken","type":"address","internalType":"contract ISuperToken"}],"stateMutability":"nonpayable"},{"type":"function","name":"createERC20Wrapper","inputs":[{"name":"underlyingToken","type":"address","internalType":"contract IERC20Metadata"},{"name":"underlyingDecimals","type":"uint8","internalType":"uint8"},{"name":"upgradability","type":"uint8","internalType":"enum ISuperTokenFactory.Upgradability"},{"name":"name","type":"string","internalType":"string"},{"name":"symbol","type":"string","internalType":"string"}],"outputs":[{"name":"superToken","type":"address","internalType":"contract ISuperToken"}],"stateMutability":"nonpayable"},{"type":"function","name":"createERC20Wrapper","inputs":[{"name":"underlyingToken","type":"address","internalType":"contract IERC20Metadata"},{"name":"underlyingDecimals","type":"uint8","internalType":"uint8"},{"name":"upgradability","type":"uint8","internalType":"enum ISuperTokenFactory.Upgradability"},{"name":"name","type":"string","internalType":"string"},{"name":"symbol","type":"string","internalType":"string"},{"name":"admin","type":"address","internalType":"address"}],"outputs":[{"name":"superToken","type":"address","internalType":"contract ISuperToken"}],"stateMutability":"nonpayable"},{"type":"function","name":"getCanonicalERC20Wrapper","inputs":[{"name":"_underlyingTokenAddress","type":"address","internalType":"address"}],"outputs":[{"name":"superTokenAddress","type":"address","internalType":"address"}],"stateMutability":"view"},{"type":"function","name":"getCodeAddress","inputs":[],"outputs":[{"name":"codeAddress","type":"address","internalType":"address"}],"stateMutability":"view"},{"type":"function","name":"getHost","inputs":[],"outputs":[{"name":"host","type":"address","internalType":"address"}],"stateMutability":"view"},{"type":"function","name":"getSuperTokenLogic","inputs":[],"outputs":[{"name":"","type":"address","internalType":"contract ISuperToken"}],"stateMutability":"view"},{"type":"function","name":"initialize","inputs":[],"outputs":[],"stateMutability":"nonpayable"},{"type":"function","name":"initializeCanonicalWrapperSuperTokens","inputs":[{"name":"_data","type":"tuple[]","internalType":"struct SuperTokenFactoryBase.InitializeData[]","components":[{"name":"underlyingToken","type":"address","internalType":"address"},{"name":"superToken","type":"address","internalType":"address"}]}],"outputs":[],"stateMutability":"nonpayable"},{"type":"function","name":"initializeCustomSuperToken","inputs":[{"name":"customSuperTokenProxy","type":"address","internalType":"address"}],"outputs":[],"stateMutability":"nonpayable"},{"type":"function","name":"proxiableUUID","inputs":[],"outputs":[{"name":"","type":"bytes32","internalType":"bytes32"}],"stateMutability":"pure"},{"type":"function","name":"updateCode","inputs":[{"name":"newAddress","type":"address","internalType":"address"}],"outputs":[],"stateMutability":"nonpayable"},{"type":"event","name":"CodeUpdated","inputs":[{"name":"uuid","type":"bytes32","indexed":false,"internalType":"bytes32"},{"name":"codeAddress","type":"address","indexed":false,"internalType":"address"}],"anonymous":false},{"type":"event","name":"CustomSuperTokenCreated","inputs":[{"name":"token","type":"address","indexed":true,"internalType":"contract ISuperToken"}],"anonymous":false},{"type":"event","name":"Initialized","inputs":[{"name":"version","type":"uint8","indexed":false,"internalType":"uint8"}],"anonymous":false},{"type":"event","name":"SuperTokenCreated","inputs":[{"name":"token","type":"address","indexed":true,"internalType":"contract ISuperToken"}],"anonymous":false},{"type":"event","name":"SuperTokenLogicCreated","inputs":[{"name":"tokenLogic","type":"address","indexed":true,"internalType":"contract ISuperToken"}],"anonymous":false},{"type":"error","name":"SUPER_TOKEN_FACTORY_ALREADY_EXISTS","inputs":[]},{"type":"error","name":"SUPER_TOKEN_FACTORY_DOES_NOT_EXIST","inputs":[]},{"type":"error","name":"SUPER_TOKEN_FACTORY_NON_UPGRADEABLE_IS_DEPRECATED","inputs":[]},{"type":"error","name":"SUPER_TOKEN_FACTORY_ONLY_GOVERNANCE_OWNER","inputs":[]},{"type":"error","name":"SUPER_TOKEN_FACTORY_ONLY_HOST","inputs":[]},{"type":"error","name":"SUPER_TOKEN_FACTORY_UNINITIALIZED","inputs":[]},{"type":"error","name":"SUPER_TOKEN_FACTORY_ZERO_ADDRESS","inputs":[]}],"bytecode":{"object":"0x61014034620001f45760006001600160401b0362001fe43881900390601f8201601f1916850183811186821017620001e0579180869260c094604052833981010312620001dc578251906001600160a01b03908183168303620001d85760208501519082821690818303620001d4576040870151918483168303620001c8576060880151938585168503620001d057608089015198868a168a03620001cc5760a00151968688168803620001cc5760a052608052803b15620001c8579086809260046040518095819363132075a760e31b83525af16200019e575b505060c05260e052610100938452610120918252608051167fc13fb19d60857980e565bf5dae406b8802d3c1cec50c6156b30b12b8740297836040519380a2611dea9283620001fa843960805183818161023101528181610a8601528181610bb701528181610fa40152818161128d01528181611605015261185b015260a0518381816104c5015281816108f20152610ea6015260c05183610817015260e0518361078f0152518281816107d301526109f80152518181816106550152610a4b0152f35b8196929611620001b457604052933880620000da565b634e487b7160e01b82526041600452602482fd5b8680fd5b8880fd5b8780fd5b8580fd5b8380fd5b5080fd5b634e487b7160e01b85526041600452602485fd5b600080fdfe608060408181526004918236101561001657600080fd5b600092833560e01c918263151188dc14610ed55750816320bc442514610e91578163431f148114610dc057816346951954146108c957816350d75d251461088157816352d1902d146108465781635365d19f146108025781635928afaa146107be5781635a7792df1461077a5781636c684bb0146106845781638129fc1c1461043b5781639470a5b2146102b2578163975c53961461064057816397e011ed146104575781639903ad381461043b578163a6d0c534146103ac578163bab74c89146102b7578163cbf927b3146102b257838263d412d344146101f457508163e094be241461014b575063eff0a89d1461010e57600080fd5b34610147576020366003190112610147576020916001600160a01b0390829082610136611234565b168152600185522054169051908152f35b5080fd5b9050346101f05760c03660031901126101f057610166611234565b61016e6112bc565b93604435926003841015610147576001600160401b03906064358281116101ec5761019c903690830161124a565b9290936084359182116101e957506101b69136910161124a565b6001600160a01b039560a435949193919087861686036101e4576020996101dc976117d2565b915191168152f35b600080fd5b80fd5b8380fd5b8280fd5b91509134610147576020366003190112610147576001600160a01b03908161021a611234565b1693843b156101ec578151634a0687ef60e01b81527f000000000000000000000000000000000000000000000000000000000000000090931690830152828260248183885af19081156102a95750610295575b50807f437790724a6e97b75d23117f28cdd4b1beeafc34f7a0911ef256e9334f4369a591a280f35b61029e906112cc565b61014757813861026d565b513d84823e3d90fd5b611277565b8391503461014757602090816003193601126101f0576102d5611234565b6001600160a01b039081168085526001845285852054919491851692831561030d57505050916001905b845193168352151590820152f35b90919492506101bc86519261032486830185611310565b81845285840191611bf983398751868101918252868152610344816112f5565b51902092519020908651918583019360ff60f81b85523060601b6021850152603584015260558301526055825260808201908282106001600160401b0383111761039757508652519020811692906102ff565b604190634e487b7160e01b6000525260246000fd5b9050346101f05760a03660031901126101f0576103c7611234565b906103d06112bc565b936044356003811015610147576001600160401b03926064358481116101ec576103fd903690830161124a565b9490936084359182116101e957509161042261042a969492602099969436910161124a565b959094611579565b90516001600160a01b039091168152f35b83346101e957806003193601126101e95761045461141c565b80f35b919050346101f0576020806003193601126101ec578235906001600160401b039283831161063c573660238401121561063c578285013593841161063c576024830192602436918660061b01011161063c57805163289b3c0d60e01b81526001600160a01b039290818188817f000000000000000000000000000000000000000000000000000000000000000088165afa9081156105f957849183918a91610603575b5088855180948193638da5cb5b60e01b8352165afa9081156105f95790849189916105bb575b501633036105ab578680526001956001825283838920541661059d5750865b85811061054a578780f35b806105618361055b8a948a8a61151e565b01611544565b85610575610570848b8b61151e565b611544565b168a5282845285858b2091166bffffffffffffffffffffffff60a01b8254161790550161053f565b82516348eb3cb960e11b8152fd5b8151632bf2a63360e21b81528690fd5b809250838092503d83116105f2575b6105d48183611310565b810103126105ee575183811681036105ee57839038610520565b8780fd5b503d6105ca565b83513d8a823e3d90fd5b92505081813d8311610635575b61061a8183611310565b810103126105ee575183811681036105ee57818491386104fa565b503d610610565b8580fd5b505034610147578160031936011261014757517f00000000000000000000000000000000000000000000000000000000000000006001600160a01b03168152602090f35b9050346101f05760a03660031901126101f05761069f611234565b906024356003811015610776576001600160401b0390604435828111610772576106cc903690850161124a565b90926064359081116105ee576106e5903690860161124a565b6001600160a01b03966084359691959294919088881688036101e45760208a51809363313ce56760e01b8252818c85165afa91821561076857906101dc989796959493929160209c92610739575b506117d2565b61075a9192508c3d8e11610761575b6107528183611310565b810190611331565b9038610733565b503d610748565b8a513d8d823e3d90fd5b8680fd5b8480fd5b505034610147578160031936011261014757517f00000000000000000000000000000000000000000000000000000000000000006001600160a01b03168152602090f35b505034610147578160031936011261014757517f00000000000000000000000000000000000000000000000000000000000000006001600160a01b03168152602090f35b505034610147578160031936011261014757517f00000000000000000000000000000000000000000000000000000000000000006001600160a01b03168152602090f35b505034610147578160031936011261014757602090517fb146a22bc9644a3313a7e28592f37d32718a2b618d3d136aa524b0d86b87b6208152f35b5050346101475781600319360112610147577f360894a13ba1a3210667c828492db98dca3e2076cc3735a920a3ca505d382bbc5490516001600160a01b039091168152602090f35b8391503461014757602092836003193601126101f0576108e7611234565b936001600160a01b037f000000000000000000000000000000000000000000000000000000000000000081163303610db1577f360894a13ba1a3210667c828492db98dca3e2076cc3735a920a3ca505d382bbc958187541615610d6e5783516352d1902d60e01b815296818316919084898881865afa988915610b7e578899610d3f575b507fb146a22bc9644a3313a7e28592f37d32718a2b618d3d136aa524b0d86b87b620988903610cf057823014610cad5787987fe011bc04c286c344a8fcbb8de77f953da762c3e25d8cdea984147fc4168a5dcc9287925581519081528386820152a18351632c9457d560e11b8082529084818881865afa908115610b7e579084918991610c90575b5016837f00000000000000000000000000000000000000000000000000000000000000001603610ba5575b508351634bae29cb60e11b808252919084818881855afa908115610b7e579084918991610b88575b5016837f00000000000000000000000000000000000000000000000000000000000000001603610a74578680f35b845163f5a8b4dd60e01b8152848188817f000000000000000000000000000000000000000000000000000000000000000088165afa908115610b7e57859185918a91610b61575b5016928787518094819382525afa938415610b57578794610b28575b5050803b1561063c57859283602492865197889586946311a5465560e21b865216908401525af19081156102a95750610b14575b80808080808680f35b610b1d906112cc565b6101e9578082610b0b565b610b48929450803d10610b50575b610b408183611310565b8101906113fd565b918780610ad7565b503d610b36565b85513d89823e3d90fd5b610b789150833d8511610b5057610b408183611310565b8b610abb565b86513d8a823e3d90fd5b610b9f9150863d8811610b5057610b408183611310565b8a610a46565b8451632c836c6b60e21b8152848188817f000000000000000000000000000000000000000000000000000000000000000088165afa908115610b7e579084918991610c73575b501690855190815284818881865afa908115610b7e578891610c56575b50813b156105ee57836024899283895195869485936311a5465560e21b8552168c8401525af18015610b5757908791610c42575b50610a1e565b610c4b906112cc565b61063c578588610c3c565b610c6d9150853d8711610b5057610b408183611310565b89610c08565b610c8a9150863d8811610b5057610b408183611310565b8a610beb565b610ca79150863d8811610b5057610b408183611310565b8a6109f3565b855162461bcd60e51b8152808801869052601960248201527f5555505350726f786961626c653a2070726f7879206c6f6f70000000000000006044820152606490fd5b855162461bcd60e51b8152808801869052602360248201527f5555505350726f786961626c653a206e6f7420636f6d70617469626c65206c6f60448201526267696360e81b6064820152608490fd5b9098508481813d8311610d67575b610d578183611310565b810103126105ee5751978961096b565b503d610d4d565b835162461bcd60e51b8152808601849052601d60248201527f5555505350726f786961626c653a206e6f742075706772616461626c650000006044820152606490fd5b50505163478b8e8360e01b8152fd5b9050346101f05760803660031901126101f057610ddb611234565b90602435906003821015610776576001600160401b0360443581811161077257610e08903690840161124a565b916064359081116105ee57610e20903690850161124a565b875163313ce56760e01b81526001600160a01b039791969295909190602090839081848c165afa918215610e8757906101dc9796959493929160209b92610e68575b50611579565b610e809192508b3d8d11610761576107528183611310565b9038610e62565b89513d8c823e3d90fd5b505034610147578160031936011261014757517f00000000000000000000000000000000000000000000000000000000000000006001600160a01b03168152602090f35b849084346101f05760209360031990858236011261077657610ef5611234565b85805260018752838620546001600160a01b03959086161561122657508416908186526001875284848720541661121857835187810190838252888152610f3b816112f5565b51902084516101bc808201908282106001600160401b0383111761120557908291611bf98339039088f580156111fb5785169482875260018852848720866bffffffffffffffffffffffff60a01b825416179055853b15610772578451634a0687ef60e01b81527f0000000000000000000000000000000000000000000000000000000000000000909116828201528681602481838a5af18015610b57576111e8575b50835163313ce56760e01b81529287848381865afa938415610b575787946111c9575b5084516306fdde0360e01b815287818481875afa908115610b7e5788916111af575b5085516395d89b4160e01b81529088828581885afa9182156111a5576021600f60fb1b938c611083946110bf948e8094611176575b5050611093916026918d51978265029bab832b9160d51b8a948501528251928391868601910161134a565b8101036006810187520185611310565b8c8a5195826110ab889451809285808801910161134a565b830191820152036001810185520183611310565b873b15611172579161110d916110fe8a96959460ff8a51998a9889986285fc1360e71b8a528901521660248701526080604487015260848601906113d8565b918483030160648501526113d8565b038183875af1801561116857839291859161114f575b50507fb52c6d9d122e8c07769b96d7bb14e66db58ee03fdebaaa2f92547e9c7ef0e65f90519380a28152f35b61115b919293506112cc565b6101f05781908386611123565b82513d86823e3d90fd5b8880fd5b6026929450611093939161119b913d8091833e6111938183611310565b81019061136d565b939150918e611058565b87513d8b823e3d90fd5b6111c391503d808a833e6111938183611310565b89611023565b6111e1919450883d8a11610761576107528183611310565b9288611001565b6111f4909691966112cc565b9487610fde565b84513d88823e3d90fd5b634e487b7160e01b8a526041855260248afd5b83516348eb3cb960e11b8152fd5b6306ce6e6d60e21b81529050fd5b600435906001600160a01b03821682036101e457565b9181601f840112156101e4578235916001600160401b0383116101e457602083818601950101116101e457565b346101e45760003660031901126101e4576040517f00000000000000000000000000000000000000000000000000000000000000006001600160a01b03168152602090f35b6024359060ff821682036101e457565b6001600160401b0381116112df57604052565b634e487b7160e01b600052604160045260246000fd5b604081019081106001600160401b038211176112df57604052565b90601f801991011681019081106001600160401b038211176112df57604052565b908160209103126101e4575160ff811681036101e45790565b60005b83811061135d5750506000910152565b818101518382015260200161134d565b6020818303126101e45780516001600160401b03918282116101e457019082601f830112156101e45781519081116112df57604051926113b7601f8301601f191660200185611310565b818452602082840101116101e4576113d5916020808501910161134a565b90565b906020916113f18151809281855285808601910161134a565b601f01601f1916010190565b908160209103126101e457516001600160a01b03811681036101e45790565b60005460ff8160081c161590818092611511575b80156114fa575b1561149e5760ff1981166001176000558161148c575b5061145457565b61ff0019600054166000557f7f26b83ff96e1f2b6a682f133852f6798a09c465da95921460cefb3847402498602060405160018152a1565b61ffff1916610101176000553861144d565b60405162461bcd60e51b815260206004820152602e60248201527f496e697469616c697a61626c653a20636f6e747261637420697320616c72656160448201526d191e481a5b9a5d1a585b1a5e995960921b6064820152608490fd5b50303b1580156114375750600160ff821614611437565b50600160ff821610611430565b919081101561152e5760061b0190565b634e487b7160e01b600052603260045260246000fd5b356001600160a01b03811681036101e45790565b908060209392818452848401376000828201840152601f01601f1916010190565b6001600160a01b03979694956000959294918916939092919084156117c05760038110156117ac57806115b85760405163c4901a4360e01b8152600490fd5b60010361173a576040516101bc808201908282106001600160401b0383111761172657908291611bf98339039087f0801561171b578916803b1561077257604051634a0687ef60e01b81527f00000000000000000000000000000000000000000000000000000000000000008b166004820152878160248183865af18015611710579088916116fc575b5050985b891696873b15610772579286949261168d61169f9360ff9896604051998a98899863ec0d634360e01b8a5260048a015216602488015260a0604488015260a4870191611558565b84810360031901606486015291611558565b836084830152038183875af180156116f1576116dd575b50807fb52c6d9d122e8c07769b96d7bb14e66db58ee03fdebaaa2f92547e9c7ef0e65f91a2565b6116e782916112cc565b6101e957386116b6565b6040513d84823e3d90fd5b611705906112cc565b610772578638611642565b6040513d8a823e3d90fd5b6040513d88823e3d90fd5b634e487b7160e01b89526041600452602489fd5b6040516101fe808201908282106001600160401b03831117611726579082916119fb8339039087f0801561171b578916803b156107725760405163204a7f0760e21b8152878160048183865af1801561171057611799575b5098611646565b6117a5909791976112cc565b9538611792565b634e487b7160e01b87526021600452602487fd5b60405163182e4f4160e11b8152600490fd5b909395929796919460018060a01b038092169360009685156117c05760038110156119e6578061180e5760405163c4901a4360e01b8152600490fd5b600103611974576040516101bc808201908282106001600160401b0383111761196057908291611bf98339039088f08015611955578316803b156105ee57604051634a0687ef60e01b81527f000000000000000000000000000000000000000000000000000000000000000085166004820152888160248183865af1801561194a57908991611936575b5050995b838b1698893b156111725792889694926118e66118f89360ff9a98966040519b8c9a8b9a63ec0d634360e01b8c5260048c01521660248a015260a060448a015260a4890191611558565b86810360031901606488015291611558565b91166084830152038183875af180156116f1576116dd5750807fb52c6d9d122e8c07769b96d7bb14e66db58ee03fdebaaa2f92547e9c7ef0e65f91a2565b61193f906112cc565b6105ee578738611898565b6040513d8b823e3d90fd5b6040513d89823e3d90fd5b634e487b7160e01b8a52604160045260248afd5b6040516101fe808201908282106001600160401b03831117611960579082916119fb8339039088f08015611955578316803b156105ee5760405163204a7f0760e21b8152888160048183865af1801561194a576119d3575b509961189c565b6119df909891986112cc565b96386119cc565b634e487b7160e01b88526021600452602488fdfe60808060405234610016576101e2908161001c8239f35b600080fdfe60806040526004361015610018575b3661008957610089565b6000803560e01c638129fc1c1461002f575061000e565b346100865780600319360112610086577fb8fcd5719b3ddf8626f3664705a89b7fc476129a58c1aa5eda57c600cc1821a080546001600160a01b03166100755733905580f35b6305c5d81960e01b60805260046080fd5b80fd5b7fb8fcd5719b3ddf8626f3664705a89b7fc476129a58c1aa5eda57c600cc1821a0546001600160a01b03908116801561015357602060049160405192838092634a3852d960e11b82525afa908115610147576000916100ea575b501661018d565b602091503d821161013f575b601f8201601f191681019167ffffffffffffffff8311828410176101295761012392604052810190610169565b386100e3565b634e487b7160e01b600052604160045260246000fd5b3d91506100f6565b6040513d6000823e3d90fd5b634e487b7160e01b600052600160045260246000fd5b9081602091031261018857516001600160a01b03811681036101885790565b600080fd5b6000808092368280378136915af43d82803e156101a8573d90f35b3d90fdfea26469706673582212204593893ffbb997e03bf93382ada89f203c02589d4529ba21aafe98d1f8d586b964736f6c6343000817003360808060405234610016576101a0908161001c8239f35b600080fdfe60806040526004361015610018575b3661012957610129565b6000803560e01c634a0687ef1461002f575061000e565b34610126576020366003190112610126576004356001600160a01b0380821680830361012257156100e4577f360894a13ba1a3210667c828492db98dca3e2076cc3735a920a3ca505d382bbc54166100a6577f360894a13ba1a3210667c828492db98dca3e2076cc3735a920a3ca505d382bbc5580f35b62461bcd60e51b6080526020608452601e60a4527f5555505350726f78793a20616c726561647920696e697469616c697a6564000060c45260646080fd5b62461bcd60e51b6080526020608452601760a4527f5555505350726f78793a207a65726f206164647265737300000000000000000060c45260646080fd5b8380fd5b80fd5b7f360894a13ba1a3210667c828492db98dca3e2076cc3735a920a3ca505d382bbc546000808092368280378136915af43d82803e15610166573d90f35b3d90fdfea264697066735822122089e7b7b2a0eb2d44bff951d65e8c8b61c6602fc31e0dcbfa4b8bbd501cc89b7b64736f6c63430008170033a2646970667358221220defbc606ef6faf424820a66b7f79d4e2f4350ed4e29e4edcbcf0c48c74cc908e64736f6c63430008170033","linkReferences":{}},"methodIdentifiers":{"CONSTANT_INFLOW_NFT_LOGIC()":"5a7792df","CONSTANT_OUTFLOW_NFT_LOGIC()":"5365d19f","POOL_ADMIN_NFT_LOGIC()":"5928afaa","POOL_MEMBER_NFT_LOGIC()":"975c5396","_SUPER_TOKEN_LOGIC()":"cbf927b3","castrate()":"9903ad38","computeCanonicalERC20WrapperAddress(address)":"bab74c89","createCanonicalERC20Wrapper(address)":"151188dc","createERC20Wrapper(address,uint8,string,string)":"431f1481","createERC20Wrapper(address,uint8,string,string,address)":"6c684bb0","createERC20Wrapper(address,uint8,uint8,string,string)":"a6d0c534","createERC20Wrapper(address,uint8,uint8,string,string,address)":"e094be24","getCanonicalERC20Wrapper(address)":"eff0a89d","getCodeAddress()":"50d75d25","getHost()":"20bc4425","getSuperTokenLogic()":"9470a5b2","initialize()":"8129fc1c","initializeCanonicalWrapperSuperTokens((address,address)[])":"97e011ed","initializeCustomSuperToken(address)":"d412d344","proxiableUUID()":"52d1902d","updateCode(address)":"46951954"},"id":108}