{"abi":[{"type":"constructor","inputs":[{"name":"host","type":"address","internalType":"contract ISuperfluid"},{"name":"constantOutflowNFT","type":"address","internalType":"contract IConstantOutflowNFT"},{"name":"constantInflowNFT","type":"address","internalType":"contract IConstantInflowNFT"},{"name":"poolAdminNFT","type":"address","internalType":"contract IPoolAdminNFT"},{"name":"poolMemberNFT","type":"address","internalType":"contract IPoolMemberNFT"}],"stateMutability":"nonpayable"},{"type":"function","name":"CONSTANT_INFLOW_NFT","inputs":[],"outputs":[{"name":"","type":"address","internalType":"contract IConstantInflowNFT"}],"stateMutability":"view"},{"type":"function","name":"CONSTANT_OUTFLOW_NFT","inputs":[],"outputs":[{"name":"","type":"address","internalType":"contract IConstantOutflowNFT"}],"stateMutability":"view"},{"type":"function","name":"POOL_ADMIN_NFT","inputs":[],"outputs":[{"name":"","type":"address","internalType":"contract IPoolAdminNFT"}],"stateMutability":"view"},{"type":"function","name":"POOL_MEMBER_NFT","inputs":[],"outputs":[{"name":"","type":"address","internalType":"contract IPoolMemberNFT"}],"stateMutability":"view"},{"type":"function","name":"allowance","inputs":[{"name":"account","type":"address","internalType":"address"},{"name":"spender","type":"address","internalType":"address"}],"outputs":[{"name":"","type":"uint256","internalType":"uint256"}],"stateMutability":"view"},{"type":"function","name":"approve","inputs":[{"name":"spender","type":"address","internalType":"address"},{"name":"amount","type":"uint256","internalType":"uint256"}],"outputs":[{"name":"","type":"bool","internalType":"bool"}],"stateMutability":"nonpayable"},{"type":"function","name":"authorizeOperator","inputs":[{"name":"operator","type":"address","internalType":"address"}],"outputs":[],"stateMutability":"nonpayable"},{"type":"function","name":"balanceOf","inputs":[{"name":"account","type":"address","internalType":"address"}],"outputs":[{"name":"balance","type":"uint256","internalType":"uint256"}],"stateMutability":"view"},{"type":"function","name":"burn","inputs":[{"name":"amount","type":"uint256","internalType":"uint256"},{"name":"userData","type":"bytes","internalType":"bytes"}],"outputs":[],"stateMutability":"nonpayable"},{"type":"function","name":"castrate","inputs":[],"outputs":[],"stateMutability":"nonpayable"},{"type":"function","name":"changeAdmin","inputs":[{"name":"newAdmin","type":"address","internalType":"address"}],"outputs":[],"stateMutability":"nonpayable"},{"type":"function","name":"createAgreement","inputs":[{"name":"id","type":"bytes32","internalType":"bytes32"},{"name":"data","type":"bytes32[]","internalType":"bytes32[]"}],"outputs":[],"stateMutability":"nonpayable"},{"type":"function","name":"decimals","inputs":[],"outputs":[{"name":"","type":"uint8","internalType":"uint8"}],"stateMutability":"pure"},{"type":"function","name":"decreaseAllowance","inputs":[{"name":"spender","type":"address","internalType":"address"},{"name":"subtractedValue","type":"uint256","internalType":"uint256"}],"outputs":[{"name":"","type":"bool","internalType":"bool"}],"stateMutability":"nonpayable"},{"type":"function","name":"defaultOperators","inputs":[],"outputs":[{"name":"","type":"address[]","internalType":"address[]"}],"stateMutability":"view"},{"type":"function","name":"downgrade","inputs":[{"name":"amount","type":"uint256","internalType":"uint256"}],"outputs":[],"stateMutability":"nonpayable"},{"type":"function","name":"downgradeTo","inputs":[{"name":"to","type":"address","internalType":"address"},{"name":"amount","type":"uint256","internalType":"uint256"}],"outputs":[],"stateMutability":"nonpayable"},{"type":"function","name":"getAccountActiveAgreements","inputs":[{"name":"account","type":"address","internalType":"address"}],"outputs":[{"name":"","type":"address[]","internalType":"contract ISuperAgreement[]"}],"stateMutability":"view"},{"type":"function","name":"getAdmin","inputs":[],"outputs":[{"name":"","type":"address","internalType":"address"}],"stateMutability":"view"},{"type":"function","name":"getAgreementData","inputs":[{"name":"agreementClass","type":"address","internalType":"address"},{"name":"id","type":"bytes32","internalType":"bytes32"},{"name":"dataLength","type":"uint256","internalType":"uint256"}],"outputs":[{"name":"data","type":"bytes32[]","internalType":"bytes32[]"}],"stateMutability":"view"},{"type":"function","name":"getAgreementStateSlot","inputs":[{"name":"agreementClass","type":"address","internalType":"address"},{"name":"account","type":"address","internalType":"address"},{"name":"slotId","type":"uint256","internalType":"uint256"},{"name":"dataLength","type":"uint256","internalType":"uint256"}],"outputs":[{"name":"slotData","type":"bytes32[]","internalType":"bytes32[]"}],"stateMutability":"view"},{"type":"function","name":"getCodeAddress","inputs":[],"outputs":[{"name":"codeAddress","type":"address","internalType":"address"}],"stateMutability":"view"},{"type":"function","name":"getHost","inputs":[],"outputs":[{"name":"host","type":"address","internalType":"address"}],"stateMutability":"view"},{"type":"function","name":"getUnderlyingDecimals","inputs":[],"outputs":[{"name":"","type":"uint8","internalType":"uint8"}],"stateMutability":"view"},{"type":"function","name":"getUnderlyingToken","inputs":[],"outputs":[{"name":"","type":"address","internalType":"address"}],"stateMutability":"view"},{"type":"function","name":"granularity","inputs":[],"outputs":[{"name":"","type":"uint256","internalType":"uint256"}],"stateMutability":"pure"},{"type":"function","name":"increaseAllowance","inputs":[{"name":"spender","type":"address","internalType":"address"},{"name":"addedValue","type":"uint256","internalType":"uint256"}],"outputs":[{"name":"","type":"bool","internalType":"bool"}],"stateMutability":"nonpayable"},{"type":"function","name":"initialize","inputs":[{"name":"underlyingToken","type":"address","internalType":"contract IERC20"},{"name":"underlyingDecimals","type":"uint8","internalType":"uint8"},{"name":"n","type":"string","internalType":"string"},{"name":"s","type":"string","internalType":"string"}],"outputs":[],"stateMutability":"nonpayable"},{"type":"function","name":"initializeWithAdmin","inputs":[{"name":"underlyingToken","type":"address","internalType":"contract IERC20"},{"name":"underlyingDecimals","type":"uint8","internalType":"uint8"},{"name":"n","type":"string","internalType":"string"},{"name":"s","type":"string","internalType":"string"},{"name":"admin","type":"address","internalType":"address"}],"outputs":[],"stateMutability":"nonpayable"},{"type":"function","name":"isAccountCritical","inputs":[{"name":"account","type":"address","internalType":"address"},{"name":"timestamp","type":"uint256","internalType":"uint256"}],"outputs":[{"name":"isCritical","type":"bool","internalType":"bool"}],"stateMutability":"view"},{"type":"function","name":"isAccountCriticalNow","inputs":[{"name":"account","type":"address","internalType":"address"}],"outputs":[{"name":"isCritical","type":"bool","internalType":"bool"}],"stateMutability":"view"},{"type":"function","name":"isAccountSolvent","inputs":[{"name":"account","type":"address","internalType":"address"},{"name":"timestamp","type":"uint256","internalType":"uint256"}],"outputs":[{"name":"isSolvent","type":"bool","internalType":"bool"}],"stateMutability":"view"},{"type":"function","name":"isAccountSolventNow","inputs":[{"name":"account","type":"address","internalType":"address"}],"outputs":[{"name":"isSolvent","type":"bool","internalType":"bool"}],"stateMutability":"view"},{"type":"function","name":"isOperatorFor","inputs":[{"name":"operator","type":"address","internalType":"address"},{"name":"tokenHolder","type":"address","internalType":"address"}],"outputs":[{"name":"","type":"bool","internalType":"bool"}],"stateMutability":"view"},{"type":"function","name":"makeLiquidationPayoutsV2","inputs":[{"name":"id","type":"bytes32","internalType":"bytes32"},{"name":"liquidationTypeData","type":"bytes","internalType":"bytes"},{"name":"liquidatorAccount","type":"address","internalType":"address"},{"name":"useDefaultRewardAccount","type":"bool","internalType":"bool"},{"name":"targetAccount","type":"address","internalType":"address"},{"name":"rewardAmount","type":"uint256","internalType":"uint256"},{"name":"targetAccountBalanceDelta","type":"int256","internalType":"int256"}],"outputs":[],"stateMutability":"nonpayable"},{"type":"function","name":"name","inputs":[],"outputs":[{"name":"","type":"string","internalType":"string"}],"stateMutability":"view"},{"type":"function","name":"operationApprove","inputs":[{"name":"account","type":"address","internalType":"address"},{"name":"spender","type":"address","internalType":"address"},{"name":"amount","type":"uint256","internalType":"uint256"}],"outputs":[],"stateMutability":"nonpayable"},{"type":"function","name":"operationDecreaseAllowance","inputs":[{"name":"account","type":"address","internalType":"address"},{"name":"spender","type":"address","internalType":"address"},{"name":"subtractedValue","type":"uint256","internalType":"uint256"}],"outputs":[],"stateMutability":"nonpayable"},{"type":"function","name":"operationDowngrade","inputs":[{"name":"account","type":"address","internalType":"address"},{"name":"amount","type":"uint256","internalType":"uint256"}],"outputs":[],"stateMutability":"nonpayable"},{"type":"function","name":"operationDowngradeTo","inputs":[{"name":"account","type":"address","internalType":"address"},{"name":"to","type":"address","internalType":"address"},{"name":"amount","type":"uint256","internalType":"uint256"}],"outputs":[],"stateMutability":"nonpayable"},{"type":"function","name":"operationIncreaseAllowance","inputs":[{"name":"account","type":"address","internalType":"address"},{"name":"spender","type":"address","internalType":"address"},{"name":"addedValue","type":"uint256","internalType":"uint256"}],"outputs":[],"stateMutability":"nonpayable"},{"type":"function","name":"operationSend","inputs":[{"name":"spender","type":"address","internalType":"address"},{"name":"recipient","type":"address","internalType":"address"},{"name":"amount","type":"uint256","internalType":"uint256"},{"name":"userData","type":"bytes","internalType":"bytes"}],"outputs":[],"stateMutability":"nonpayable"},{"type":"function","name":"operationTransferFrom","inputs":[{"name":"account","type":"address","internalType":"address"},{"name":"spender","type":"address","internalType":"address"},{"name":"recipient","type":"address","internalType":"address"},{"name":"amount","type":"uint256","internalType":"uint256"}],"outputs":[],"stateMutability":"nonpayable"},{"type":"function","name":"operationUpgrade","inputs":[{"name":"account","type":"address","internalType":"address"},{"name":"amount","type":"uint256","internalType":"uint256"}],"outputs":[],"stateMutability":"nonpayable"},{"type":"function","name":"operationUpgradeTo","inputs":[{"name":"account","type":"address","internalType":"address"},{"name":"to","type":"address","internalType":"address"},{"name":"amount","type":"uint256","internalType":"uint256"}],"outputs":[],"stateMutability":"nonpayable"},{"type":"function","name":"operatorBurn","inputs":[{"name":"account","type":"address","internalType":"address"},{"name":"amount","type":"uint256","internalType":"uint256"},{"name":"userData","type":"bytes","internalType":"bytes"},{"name":"operatorData","type":"bytes","internalType":"bytes"}],"outputs":[],"stateMutability":"nonpayable"},{"type":"function","name":"operatorSend","inputs":[{"name":"sender","type":"address","internalType":"address"},{"name":"recipient","type":"address","internalType":"address"},{"name":"amount","type":"uint256","internalType":"uint256"},{"name":"userData","type":"bytes","internalType":"bytes"},{"name":"operatorData","type":"bytes","internalType":"bytes"}],"outputs":[],"stateMutability":"nonpayable"},{"type":"function","name":"proxiableUUID","inputs":[],"outputs":[{"name":"","type":"bytes32","internalType":"bytes32"}],"stateMutability":"pure"},{"type":"function","name":"realtimeBalanceOf","inputs":[{"name":"account","type":"address","internalType":"address"},{"name":"timestamp","type":"uint256","internalType":"uint256"}],"outputs":[{"name":"availableBalance","type":"int256","internalType":"int256"},{"name":"deposit","type":"uint256","internalType":"uint256"},{"name":"owedDeposit","type":"uint256","internalType":"uint256"}],"stateMutability":"view"},{"type":"function","name":"realtimeBalanceOfNow","inputs":[{"name":"account","type":"address","internalType":"address"}],"outputs":[{"name":"availableBalance","type":"int256","internalType":"int256"},{"name":"deposit","type":"uint256","internalType":"uint256"},{"name":"owedDeposit","type":"uint256","internalType":"uint256"},{"name":"timestamp","type":"uint256","internalType":"uint256"}],"stateMutability":"view"},{"type":"function","name":"revokeOperator","inputs":[{"name":"operator","type":"address","internalType":"address"}],"outputs":[],"stateMutability":"nonpayable"},{"type":"function","name":"selfApproveFor","inputs":[{"name":"account","type":"address","internalType":"address"},{"name":"spender","type":"address","internalType":"address"},{"name":"amount","type":"uint256","internalType":"uint256"}],"outputs":[],"stateMutability":"nonpayable"},{"type":"function","name":"selfBurn","inputs":[{"name":"account","type":"address","internalType":"address"},{"name":"amount","type":"uint256","internalType":"uint256"},{"name":"userData","type":"bytes","internalType":"bytes"}],"outputs":[],"stateMutability":"nonpayable"},{"type":"function","name":"selfMint","inputs":[{"name":"account","type":"address","internalType":"address"},{"name":"amount","type":"uint256","internalType":"uint256"},{"name":"userData","type":"bytes","internalType":"bytes"}],"outputs":[],"stateMutability":"nonpayable"},{"type":"function","name":"selfTransferFrom","inputs":[{"name":"holder","type":"address","internalType":"address"},{"name":"spender","type":"address","internalType":"address"},{"name":"recipient","type":"address","internalType":"address"},{"name":"amount","type":"uint256","internalType":"uint256"}],"outputs":[],"stateMutability":"nonpayable"},{"type":"function","name":"send","inputs":[{"name":"recipient","type":"address","internalType":"address"},{"name":"amount","type":"uint256","internalType":"uint256"},{"name":"userData","type":"bytes","internalType":"bytes"}],"outputs":[],"stateMutability":"nonpayable"},{"type":"function","name":"settleBalance","inputs":[{"name":"account","type":"address","internalType":"address"},{"name":"delta","type":"int256","internalType":"int256"}],"outputs":[],"stateMutability":"nonpayable"},{"type":"function","name":"symbol","inputs":[],"outputs":[{"name":"","type":"string","internalType":"string"}],"stateMutability":"view"},{"type":"function","name":"terminateAgreement","inputs":[{"name":"id","type":"bytes32","internalType":"bytes32"},{"name":"dataLength","type":"uint256","internalType":"uint256"}],"outputs":[],"stateMutability":"nonpayable"},{"type":"function","name":"toUnderlyingAmount","inputs":[{"name":"amount","type":"uint256","internalType":"uint256"}],"outputs":[{"name":"underlyingAmount","type":"uint256","internalType":"uint256"},{"name":"adjustedAmount","type":"uint256","internalType":"uint256"}],"stateMutability":"view"},{"type":"function","name":"totalSupply","inputs":[],"outputs":[{"name":"","type":"uint256","internalType":"uint256"}],"stateMutability":"view"},{"type":"function","name":"transfer","inputs":[{"name":"recipient","type":"address","internalType":"address"},{"name":"amount","type":"uint256","internalType":"uint256"}],"outputs":[{"name":"","type":"bool","internalType":"bool"}],"stateMutability":"nonpayable"},{"type":"function","name":"transferAll","inputs":[{"name":"recipient","type":"address","internalType":"address"}],"outputs":[],"stateMutability":"nonpayable"},{"type":"function","name":"transferFrom","inputs":[{"name":"holder","type":"address","internalType":"address"},{"name":"recipient","type":"address","internalType":"address"},{"name":"amount","type":"uint256","internalType":"uint256"}],"outputs":[{"name":"","type":"bool","internalType":"bool"}],"stateMutability":"nonpayable"},{"type":"function","name":"updateAgreementData","inputs":[{"name":"id","type":"bytes32","internalType":"bytes32"},{"name":"data","type":"bytes32[]","internalType":"bytes32[]"}],"outputs":[],"stateMutability":"nonpayable"},{"type":"function","name":"updateAgreementStateSlot","inputs":[{"name":"account","type":"address","internalType":"address"},{"name":"slotId","type":"uint256","internalType":"uint256"},{"name":"slotData","type":"bytes32[]","internalType":"bytes32[]"}],"outputs":[],"stateMutability":"nonpayable"},{"type":"function","name":"updateCode","inputs":[{"name":"newAddress","type":"address","internalType":"address"}],"outputs":[],"stateMutability":"nonpayable"},{"type":"function","name":"upgrade","inputs":[{"name":"amount","type":"uint256","internalType":"uint256"}],"outputs":[],"stateMutability":"nonpayable"},{"type":"function","name":"upgradeTo","inputs":[{"name":"to","type":"address","internalType":"address"},{"name":"amount","type":"uint256","internalType":"uint256"},{"name":"userData","type":"bytes","internalType":"bytes"}],"outputs":[],"stateMutability":"nonpayable"},{"type":"event","name":"AdminChanged","inputs":[{"name":"oldAdmin","type":"address","indexed":true,"internalType":"address"},{"name":"newAdmin","type":"address","indexed":true,"internalType":"address"}],"anonymous":false},{"type":"event","name":"AgreementCreated","inputs":[{"name":"agreementClass","type":"address","indexed":true,"internalType":"address"},{"name":"id","type":"bytes32","indexed":false,"internalType":"bytes32"},{"name":"data","type":"bytes32[]","indexed":false,"internalType":"bytes32[]"}],"anonymous":false},{"type":"event","name":"AgreementLiquidated","inputs":[{"name":"agreementClass","type":"address","indexed":true,"internalType":"address"},{"name":"id","type":"bytes32","indexed":false,"internalType":"bytes32"},{"name":"penaltyAccount","type":"address","indexed":true,"internalType":"address"},{"name":"rewardAccount","type":"address","indexed":true,"internalType":"address"},{"name":"rewardAmount","type":"uint256","indexed":false,"internalType":"uint256"}],"anonymous":false},{"type":"event","name":"AgreementLiquidatedBy","inputs":[{"name":"liquidatorAccount","type":"address","indexed":false,"internalType":"address"},{"name":"agreementClass","type":"address","indexed":true,"internalType":"address"},{"name":"id","type":"bytes32","indexed":false,"internalType":"bytes32"},{"name":"penaltyAccount","type":"address","indexed":true,"internalType":"address"},{"name":"bondAccount","type":"address","indexed":true,"internalType":"address"},{"name":"rewardAmount","type":"uint256","indexed":false,"internalType":"uint256"},{"name":"bailoutAmount","type":"uint256","indexed":false,"internalType":"uint256"}],"anonymous":false},{"type":"event","name":"AgreementLiquidatedV2","inputs":[{"name":"agreementClass","type":"address","indexed":true,"internalType":"address"},{"name":"id","type":"bytes32","indexed":false,"internalType":"bytes32"},{"name":"liquidatorAccount","type":"address","indexed":true,"internalType":"address"},{"name":"targetAccount","type":"address","indexed":true,"internalType":"address"},{"name":"rewardAmountReceiver","type":"address","indexed":false,"internalType":"address"},{"name":"rewardAmount","type":"uint256","indexed":false,"internalType":"uint256"},{"name":"targetAccountBalanceDelta","type":"int256","indexed":false,"internalType":"int256"},{"name":"liquidationTypeData","type":"bytes","indexed":false,"internalType":"bytes"}],"anonymous":false},{"type":"event","name":"AgreementStateUpdated","inputs":[{"name":"agreementClass","type":"address","indexed":true,"internalType":"address"},{"name":"account","type":"address","indexed":true,"internalType":"address"},{"name":"slotId","type":"uint256","indexed":false,"internalType":"uint256"}],"anonymous":false},{"type":"event","name":"AgreementTerminated","inputs":[{"name":"agreementClass","type":"address","indexed":true,"internalType":"address"},{"name":"id","type":"bytes32","indexed":false,"internalType":"bytes32"}],"anonymous":false},{"type":"event","name":"AgreementUpdated","inputs":[{"name":"agreementClass","type":"address","indexed":true,"internalType":"address"},{"name":"id","type":"bytes32","indexed":false,"internalType":"bytes32"},{"name":"data","type":"bytes32[]","indexed":false,"internalType":"bytes32[]"}],"anonymous":false},{"type":"event","name":"Approval","inputs":[{"name":"owner","type":"address","indexed":true,"internalType":"address"},{"name":"spender","type":"address","indexed":true,"internalType":"address"},{"name":"value","type":"uint256","indexed":false,"internalType":"uint256"}],"anonymous":false},{"type":"event","name":"AuthorizedOperator","inputs":[{"name":"operator","type":"address","indexed":true,"internalType":"address"},{"name":"tokenHolder","type":"address","indexed":true,"internalType":"address"}],"anonymous":false},{"type":"event","name":"Bailout","inputs":[{"name":"bailoutAccount","type":"address","indexed":true,"internalType":"address"},{"name":"bailoutAmount","type":"uint256","indexed":false,"internalType":"uint256"}],"anonymous":false},{"type":"event","name":"Burned","inputs":[{"name":"operator","type":"address","indexed":true,"internalType":"address"},{"name":"from","type":"address","indexed":true,"internalType":"address"},{"name":"amount","type":"uint256","indexed":false,"internalType":"uint256"},{"name":"data","type":"bytes","indexed":false,"internalType":"bytes"},{"name":"operatorData","type":"bytes","indexed":false,"internalType":"bytes"}],"anonymous":false},{"type":"event","name":"CodeUpdated","inputs":[{"name":"uuid","type":"bytes32","indexed":false,"internalType":"bytes32"},{"name":"codeAddress","type":"address","indexed":false,"internalType":"address"}],"anonymous":false},{"type":"event","name":"Initialized","inputs":[{"name":"version","type":"uint8","indexed":false,"internalType":"uint8"}],"anonymous":false},{"type":"event","name":"Minted","inputs":[{"name":"operator","type":"address","indexed":true,"internalType":"address"},{"name":"to","type":"address","indexed":true,"internalType":"address"},{"name":"amount","type":"uint256","indexed":false,"internalType":"uint256"},{"name":"data","type":"bytes","indexed":false,"internalType":"bytes"},{"name":"operatorData","type":"bytes","indexed":false,"internalType":"bytes"}],"anonymous":false},{"type":"event","name":"PoolAdminNFTCreated","inputs":[{"name":"poolAdminNFT","type":"address","indexed":true,"internalType":"contract IPoolAdminNFT"}],"anonymous":false},{"type":"event","name":"PoolMemberNFTCreated","inputs":[{"name":"poolMemberNFT","type":"address","indexed":true,"internalType":"contract IPoolMemberNFT"}],"anonymous":false},{"type":"event","name":"RevokedOperator","inputs":[{"name":"operator","type":"address","indexed":true,"internalType":"address"},{"name":"tokenHolder","type":"address","indexed":true,"internalType":"address"}],"anonymous":false},{"type":"event","name":"Sent","inputs":[{"name":"operator","type":"address","indexed":true,"internalType":"address"},{"name":"from","type":"address","indexed":true,"internalType":"address"},{"name":"to","type":"address","indexed":true,"internalType":"address"},{"name":"amount","type":"uint256","indexed":false,"internalType":"uint256"},{"name":"data","type":"bytes","indexed":false,"internalType":"bytes"},{"name":"operatorData","type":"bytes","indexed":false,"internalType":"bytes"}],"anonymous":false},{"type":"event","name":"TokenDowngraded","inputs":[{"name":"account","type":"address","indexed":true,"internalType":"address"},{"name":"amount","type":"uint256","indexed":false,"internalType":"uint256"}],"anonymous":false},{"type":"event","name":"TokenUpgraded","inputs":[{"name":"account","type":"address","indexed":true,"internalType":"address"},{"name":"amount","type":"uint256","indexed":false,"internalType":"uint256"}],"anonymous":false},{"type":"event","name":"Transfer","inputs":[{"name":"from","type":"address","indexed":true,"internalType":"address"},{"name":"to","type":"address","indexed":true,"internalType":"address"},{"name":"value","type":"uint256","indexed":false,"internalType":"uint256"}],"anonymous":false},{"type":"error","name":"SF_TOKEN_AGREEMENT_ALREADY_EXISTS","inputs":[]},{"type":"error","name":"SF_TOKEN_AGREEMENT_DOES_NOT_EXIST","inputs":[]},{"type":"error","name":"SF_TOKEN_BURN_INSUFFICIENT_BALANCE","inputs":[]},{"type":"error","name":"SF_TOKEN_MOVE_INSUFFICIENT_BALANCE","inputs":[]},{"type":"error","name":"SF_TOKEN_ONLY_HOST","inputs":[]},{"type":"error","name":"SF_TOKEN_ONLY_LISTED_AGREEMENT","inputs":[]},{"type":"error","name":"SUPER_TOKEN_APPROVE_FROM_ZERO_ADDRESS","inputs":[]},{"type":"error","name":"SUPER_TOKEN_APPROVE_TO_ZERO_ADDRESS","inputs":[]},{"type":"error","name":"SUPER_TOKEN_BURN_FROM_ZERO_ADDRESS","inputs":[]},{"type":"error","name":"SUPER_TOKEN_CALLER_IS_NOT_OPERATOR_FOR_HOLDER","inputs":[]},{"type":"error","name":"SUPER_TOKEN_INFLATIONARY_DEFLATIONARY_NOT_SUPPORTED","inputs":[]},{"type":"error","name":"SUPER_TOKEN_MINT_TO_ZERO_ADDRESS","inputs":[]},{"type":"error","name":"SUPER_TOKEN_NFT_PROXY_ADDRESS_CHANGED","inputs":[]},{"type":"error","name":"SUPER_TOKEN_NOT_ERC777_TOKENS_RECIPIENT","inputs":[]},{"type":"error","name":"SUPER_TOKEN_NO_UNDERLYING_TOKEN","inputs":[]},{"type":"error","name":"SUPER_TOKEN_ONLY_ADMIN","inputs":[]},{"type":"error","name":"SUPER_TOKEN_ONLY_GOV_OWNER","inputs":[]},{"type":"error","name":"SUPER_TOKEN_ONLY_SELF","inputs":[]},{"type":"error","name":"SUPER_TOKEN_TRANSFER_FROM_ZERO_ADDRESS","inputs":[]},{"type":"error","name":"SUPER_TOKEN_TRANSFER_TO_ZERO_ADDRESS","inputs":[]}],"bytecode":{"object":"0x61012034620001b757601f620048cd38819003918201601f19168301916001600160401b03831184841017620001bc5780849260a094604052833981010312620001b75780516001600160a01b0391908281168103620001b7576020820151928084168403620001b75760408301518181168103620001b75760608401519482861694858703620001b7576080015192831693848403620001b75760805260a05260c05261010093845260e052604051917feb87fb34067547f3dc0b85096c3da73c99d4fbb08ff41212b8d7c0b5008b42e6600080a27fc1050c54a299c837fe281a2623c29ec8e34b455daef48760b6a29f4b6cc99060600080a26146fa9182620001d38339608051828181610c4001528181610d0401528181610db601528181610e1d01528181610ef90152818161147f0152818161156101528181611770015281816119200152818161198501528181611a1f0152818161232b015281816123b8015281816123fa015281816124bd0152818161282c0152818161303b015281816130ef01528181613df50152614338015260a05182610588015260c05182611888015260e0518261054301525181610faa0152f35b600080fd5b634e487b7160e01b600052604160045260246000fdfe608080604052600436101561001357600080fd5b60003560e01c90816306e4853814612a6f5750806306fdde03146129d3578063090c415e14612932578063095ea7b31461290c57806311bcc81e146128db57806312a6a3f81461286257806316d055d61461281a57806318160ddd146127fc5780631863e809146124535780631ae88ffc146123e757806320bc4425146123a257806323b872dd14612388578063245887fc1461230f5780632704839714612276578063282a050b1461224c5780632ec8eec714612216578063313ce567146121fa578063386fa2211461218c578063395093511461214257806341b706be1461212257806342fe098014611c4b57806345977d0314611c0b57806346951954146119de57806347ba7ad1146119725780634b2763b3146119055780634b61cc33146118b75780634c5c0c851461187257806350d75d251461182a57806352d1902d146117ef578063556f0dc7146117d35780635b9d09cc146117a657806362aa52871461175e57806362ad1b83146116cc57806366a12fb6146116ad5780636c2d9f2f1461164e5780636e9960c31461161857806370a08231146115d557806379359f6f1461153257806383ba2525146114ea5780638f2839701461143a57806392081a4714611416578063959b8c3f146112f857806395d89b41146112235780639903ad38146111a05780639bd9bbc6146111685780639d87674114611130578063a1b2bf8b146110ab578063a3a7e7f314611068578063a457c2d714611002578063a9059cbb14610fd9578063b20db1ac14610f94578063b84cdd4a14610f6d578063bb0d196e14610eca578063c68d428314610e7f578063c780fd8214610e02578063ca0c1e7f14610d73578063ca78946414610ce8578063cf97256d14610c02578063d95b637114610bcc578063d9d078d614610ba1578063dd62ed3e14610b50578063eb3537cc14610b16578063ec0d6343146105e0578063ee719bc8146105b7578063ef43d2c614610572578063f5a8b4dd1461052d578063fad8b32a14610412578063fc673c4f146103765763fe9d93031461031657600080fd5b34610371576040366003190112610371576024356001600160401b0381116103715761035361034c61036f923690600401612d7a565b3691612ce0565b6040519061036082612c6e565b600082526004353333336134e8565b005b600080fd5b346103715760803660031901126103715761038f612b75565b6001600160401b0390604435828111610371576103b0903690600401612d7a565b92606435908111610371576103c9903690600401612d7a565b91906103d58433613ae6565b15610400576103ec6103f49261036f963691612ce0565b923691612ce0565b916024359080336134e8565b60405163f7f0222760e01b8152600490fd5b346103715760203660031901126103715761042b612b75565b6001600160a01b038116903382146104d5576001600160a01b031660009081526013602052604090205460ff16156104ad57336000908152601560205260409020816000526020526040600020600160ff198254161790555b33907f50546e66e5f44d728365dc3908c63bc5cfeeab470722c1677e3073a6ac294aa1600080a3005b33600090815260146020526040902081600052602052604060002060ff198154169055610484565b60405162461bcd60e51b815260206004820152602a60248201527f4552433737374f70657261746f72733a207265766f6b696e672073656c662061604482015269399037b832b930ba37b960b11b6064820152608490fd5b34610371576000366003190112610371576040517f00000000000000000000000000000000000000000000000000000000000000006001600160a01b03168152602090f35b34610371576000366003190112610371576040517f00000000000000000000000000000000000000000000000000000000000000006001600160a01b03168152602090f35b3461037157600036600319011261037157600e546040516001600160a01b039091168152602090f35b346103715760a0366003190112610371576105f9612b75565b610601612d6a565b906044356001600160401b03811161037157610621903690600401612d7a565b92906064356001600160401b03811161037157610642903690600401612d7a565b909461064c612b8b565b926000549560ff8760081c161596878098610b09575b8015610af2575b610672906131de565b60ff19811660011760005587610ae0575b50600e5460009660ff60a01b9060a01b169160018060a01b0316906affffffffffffffffffffff60a81b161717600e556001600160401b0382116109d35781906106ce600f54612e67565b601f8111610a69575b50600090601f83116001146109f4576000926109e9575b50508160011b916000199060031b1c191617600f555b6001600160401b0381116109d35761071d601054612e67565b601f8111610980575b506000601f821160011461090d578192939495600092610902575b50508160011b916000199060031b1c1916176010555b8060008051602061464583398151915255731820a4b7618bde71dce8cdc73aab6c95905fad24803b15610371576040516329965a1d60e01b80825230600483018190527fac7fbab5f54a3ca8194167523c6753bfeb96a445279294b6125b68cce2177054602484015260448301529060008160648183875af180156108f6576108e2575b50813b156108de57839160648392604051948593849283523060048401527faea199e31a596269b42cdafd93407f14436db6e4cad65417994c2eb37381e05a60248401523060448401525af180156108d3579083916108bb575b50806000805160206146658339815191526020604051838152a36001600160a01b0316907f7e644d79422f17c01e4894b5f4f588d331ebfa28653d42ae832dc59e38c9798f8180a361088357005b61ff0019600054166000557f7f26b83ff96e1f2b6a682f133852f6798a09c465da95921460cefb3847402498602060405160018152a1005b6108c490612c5b565b6108cf578184610835565b5080fd5b6040513d85823e3d90fd5b8380fd5b6108ed919450612c5b565b600092856107db565b6040513d6000823e3d90fd5b013590508580610741565b601f1982169560106000526000805160206146858339815191529160005b8881106109685750836001959697981061094e575b505050811b01601055610757565b0135600019600384901b60f8161c19169055858080610940565b9092602060018192868601358155019401910161092b565b6010600052600080516020614685833981519152601f830160051c810191602084106109c9575b601f0160051c01905b8181106109bd5750610726565b600081556001016109b0565b90915081906109a7565b634e487b7160e01b600052604160045260246000fd5b0135905087806106ee565b600f600090815293506000805160206146a5833981519152915b601f1984168510610a51576001945083601f19811610610a37575b505050811b01600f55610704565b0135600019600384901b60f8161c19169055878080610a29565b81810135835560209485019460019093019201610a0e565b909150600f600052601f830160051c6000805160206146a5833981519152019060208410610aca575b90601f8493920160051c6000805160206146a583398151915201905b818110610abb57506106d7565b60008155849350600101610aae565b6000805160206146a58339815191529150610a92565b61ffff19166101011760005588610683565b50303b158015610669575060ff8116600114610669565b50600160ff821610610662565b34610371576040366003190112610371576060610b3d610b34612b75565b60243590613305565b9060405192835260208301526040820152f35b3461037157604036600319011261037157610b69612b75565b610b71612ba1565b9060018060a01b038091166000526011602052604060002091166000526020526020604060002054604051908152f35b34610371576040366003190112610371576020610bbf610b34612b75565b5050600060405191128152f35b34610371576040366003190112610371576020610bf8610bea612b75565b610bf2612ba1565b90613ae6565b6040519015158152f35b3461037157604036600319011261037157610c1b612b75565b604051632329212160e21b81523360048201526001600160a01b0391906020816024817f000000000000000000000000000000000000000000000000000000000000000087165afa9081156108f657600091610cb9575b5015610ca75716806000526002602052610c93602435604060002054612ff1565b906000526002602052604060002055600080f35b60405163327fd99160e21b8152600490fd5b610cdb915060203d602011610ce1575b610cd38183612ca4565b810190612fbc565b83610c72565b503d610cc9565b3461037157604036600319011261037157610d01612b75565b337f00000000000000000000000000000000000000000000000000000000000000006001600160a01b031603610d615761036f90604051610d4181612c6e565b6000815260405191610d5283612c6e565b60008352602435908033613844565b60405163c51efddd60e01b8152600490fd5b3461037157608036600319011261037157610d8c612b75565b610d94612ba1565b6064356001600160401b03811161037157610db3903690600401612d17565b337f00000000000000000000000000000000000000000000000000000000000000006001600160a01b031603610d615761036f9260405192610df484612c6e565b600084526044359133613b70565b3461037157610e1036612d35565b91906001600160a01b03337f0000000000000000000000000000000000000000000000000000000000000000821603610d615761036f9381610e799285166000526011602052604060002090841660005260205260406000205490610e73613241565b9161402f565b91613463565b3461037157610e8d36612e25565b919091303303610eb85761036f9281511515809160405194610eae86612c6e565b6000865233614065565b604051630fff4cc960e31b8152600490fd5b346103715760208060031936011261037157610ee4612b75565b604051630bbe4fd560e41b81529082826004817f00000000000000000000000000000000000000000000000000000000000000006001600160a01b03165afa9081156108f657600091610f3c575b610bf8925061329a565b90508282813d8311610f66575b610f538183612ca4565b8101031261037157610bf8915190610f32565b503d610f49565b34610371576040366003190112610371576020610bf8610f8b612b75565b6024359061329a565b34610371576000366003190112610371576040517f00000000000000000000000000000000000000000000000000000000000000006001600160a01b03168152602090f35b34610371576040366003190112610371576020610bf8610ff7612b75565b6024359033336136be565b346103715760403660031901126103715761105d61101e612b75565b336000526011602052604060002060018060a01b03821660005260205261105660406000205461104c613241565b906024359061402f565b9033613463565b602060405160018152f35b346103715760203660031901126103715761036f611084612b75565b61108d33613026565b50505060008112156110a557506000905b33336136be565b9061109e565b34610371577f0c4c547b3a4fcaa5be8353b3111472b124155bccc86de811d4a481c9e6e9faca6110da36612be7565b9061111a6040949394516020810190611106816110f8893386612f4d565b03601f198101835282612ca4565b519020611114368585612eff565b90613436565b61112b604051928392339684612f8c565b0390a2005b346103715761113e36612e25565b919091303303610eb85761036f9281511515906040519361115e85612c6e565b6000855233613dbc565b346103715761036f61118761117c36612de3565b939192933691612ce0565b906040519261119584612c6e565b600084523333613b70565b346103715760003660031901126103715760005460ff8160081c161590818092611216575b80156111ff575b6111d5906131de565b60ff198116600117600055816111ed575b5061088357005b61ffff191661010117600055816111e6565b50303b1580156111cc575060ff81166001146111cc565b50600160ff8216106111c5565b346103715760003660031901126103715760405160105460008261124683612e67565b91828252602093600190856001821691826000146112d857505060011461128d575b5061127592500383612ca4565b611289604051928284938452830190612b35565b0390f35b8491506010600052600080516020614685833981519152906000915b8583106112c0575050611275935082010185611268565b805483890185015287945086939092019181016112a9565b60ff19168582015261127595151560051b85010192508791506112689050565b3461037157602036600319011261037157611311612b75565b6001600160a01b038116903382146113bb576001600160a01b031660009081526013602052604090205460ff16156113905733600090815260156020526040902081600052602052604060002060ff1981541690555b33907ff4caeb2d6ca8932a215a353d0703c326ec2d81fc68170f320eb2ab49e9df61f9600080a3005b336000908152601460205260409020816000526020526040600020600160ff19825416179055611367565b60405162461bcd60e51b815260206004820152602d60248201527f4552433737374f70657261746f72733a20617574686f72697a696e672073656c60448201526c331030b99037b832b930ba37b960991b6064820152608490fd5b3461037157600036600319011261037157602060ff600e5460a01c16604051908152f35b3461037157602036600319011261037157611453612b75565b60008051602061464583398151915280546001600160a01b0380821693909290918390856114e55750807f0000000000000000000000000000000000000000000000000000000000000000165b1633036114d35781905516907f7e644d79422f17c01e4894b5f4f588d331ebfa28653d42ae832dc59e38c9798f600080a3005b604051630484acab60e01b8152600490fd5b6114a0565b346103715760403660031901126103715761036f611506612b75565b60405161151281612c6e565b600081526040519161152383612c6e565b600083526024359033336134e8565b34610371576020806003193601126103715761154c612b75565b604051630bbe4fd560e41b81529082826004817f00000000000000000000000000000000000000000000000000000000000000006001600160a01b03165afa9081156108f6576000916115a4575b610bbf9250613305565b90508282813d83116115ce575b6115bb8183612ca4565b8101031261037157610bbf91519061159a565b503d6115b1565b34610371576020366003190112610371576115f66115f1612b75565b613026565b50505060008112156116105750602060005b604051908152f35b602090611608565b3461037157600036600319011261037157600080516020614645833981519152546040516001600160a01b039091168152602090f35b34610371576060366003190112610371576112896116a161166d612b75565b604051906116958261168760208201936024359085612f4d565b03601f198101845283612ca4565b60443591519020613a8e565b60405191829182612da7565b34610371576116bb36612d35565b90303303610eb85761036f92613463565b346103715760a0366003190112610371576116e5612b75565b6116ed612ba1565b6001600160401b036064358181116103715761170d903690600401612d7a565b93909160843590811161037157611728903690600401612d7a565b92906117348333613ae6565b156104005761174b6117539261036f973691612ce0565b933691612ce0565b926044359133613b70565b346103715761176c36612d35565b90337f00000000000000000000000000000000000000000000000000000000000000006001600160a01b031603610d615761036f92613463565b346103715761036f6117ba61117c36612de3565b90604051926117c884612c6e565b600084523333613844565b3461037157600036600319011261037157602060405160018152f35b346103715760003660031901126103715760206040517f6bfbb132610e56cb96575dba244667b9d6dbfeffe22b68a79fa16f2d18eb00198152f35b34610371576000366003190112610371577f360894a13ba1a3210667c828492db98dca3e2076cc3735a920a3ca505d382bbc546040516001600160a01b039091168152602090f35b34610371576000366003190112610371576040517f00000000000000000000000000000000000000000000000000000000000000006001600160a01b03168152602090f35b34610371576080366003190112610371576112896116a16116876118d9612b75565b6118f96118e4612ba1565b60405193602085019385926044359186612ea1565b60643591519020613a8e565b346103715761191336612d35565b91906001600160a01b03337f0000000000000000000000000000000000000000000000000000000000000000821603610d615761036f9381610e79928516600052601160205260406000209084166000526020526040600020546131d1565b346103715761198036612d35565b9190337f00000000000000000000000000000000000000000000000000000000000000006001600160a01b031603610d615761036f92604051916119c383612c6e565b60008352604051936119d485612c6e565b60008552336134e8565b3461037157602080600319360112610371576119f8612b75565b600080516020614645833981519152546001600160a01b0391908290818116611c065750807f0000000000000000000000000000000000000000000000000000000000000000165b1633036114d3577f360894a13ba1a3210667c828492db98dca3e2076cc3735a920a3ca505d382bbc918083541615611bc157811690604051926352d1902d60e01b84528484600481865afa9384156108f657600094611b92575b507f6bfbb132610e56cb96575dba244667b9d6dbfeffe22b68a79fa16f2d18eb0019938403611b4157823014611afc575560408051928352928201527fe011bc04c286c344a8fcbb8de77f953da762c3e25d8cdea984147fc4168a5dcc9190a1005b60405162461bcd60e51b815260048101869052601960248201527f5555505350726f786961626c653a2070726f7879206c6f6f70000000000000006044820152606490fd5b60405162461bcd60e51b815260048101869052602360248201527f5555505350726f786961626c653a206e6f7420636f6d70617469626c65206c6f60448201526267696360e81b6064820152608490fd5b9093508481813d8311611bba575b611baa8183612ca4565b8101031261037157519285611a9a565b503d611ba0565b60405162461bcd60e51b815260048101859052601d60248201527f5555505350726f786961626c653a206e6f742075706772616461626c650000006044820152606490fd5b611a40565b346103715760203660031901126103715761036f604051611c2b81612c6e565b6000815260405190611c3c82612c6e565b60008252600435333333613844565b3461037157608036600319011261037157611c64612b75565b611c6c612d6a565b6001600160401b03919060443583811161037157611c8e903690600401612d7a565b9360643581811161037157611ca7903690600401612d7a565b9290916000549660ff8860081c161596878098612115575b80156120fe575b611ccf906131de565b600198888a60ff198316176000556120ec575b50600096600e549060ff60a01b9060a01b169160018060a01b0316906affffffffffffffffffffff60a81b161717600e558181116109d35780611d26600f54612e67565b93601f9485811161208e575b5060009085831160011461201e57600092612013575b5050600019600383901b1c191690881b17600f555b83116109d3578291611d70601054612e67565b828111611fb3575b506000918311600114611f4357600092611f38575b5050600019600383901b1c191690841b176010555b600060008051602061464583398151915255731820a4b7618bde71dce8cdc73aab6c95905fad24803b15610371576040516329965a1d60e01b80825230600483018190527fac7fbab5f54a3ca8194167523c6753bfeb96a445279294b6125b68cce2177054602484015260448301529060008160648183875af180156108f657611f24575b50813b15611f2057829160648392604051948593849283523060048401527faea199e31a596269b42cdafd93407f14436db6e4cad65417994c2eb37381e05a60248401523060448401525af18015611f1557908291611efe575b50806000805160206146658339815191526020604051838152a3807f7e644d79422f17c01e4894b5f4f588d331ebfa28653d42ae832dc59e38c9798f8180a3611ec657005b60207f7f26b83ff96e1f2b6a682f133852f6798a09c465da95921460cefb38474024989161ff001960005416600055604051908152a1005b611f0790612c5b565b611f12578084611e81565b80fd5b6040513d84823e3d90fd5b8280fd5b611f2f919350612c5b565b60009185611e27565b013590508580611d8d565b869350601f1983169160106000526000805160206146858339815191529260005b818110611f9b57508411611f81575b505050811b01601055611da2565b0135600019600384901b60f8161c19169055858080611f73565b82840135855589969094019360209283019201611f64565b9091925060106000526000805160206146858339815191528380860160051c8201926020871061200a575b9186958a929594930160051c01915b828110611ffb575050611d78565b60008155869550899101611fed565b92508192611fde565b013590508980611d48565b8a9350601f19831691600f6000526000805160206146a58339815191529260005b8181106120765750841161205c575b505050811b01600f55611d5d565b0135600019600384901b60f8161c1916905589808061204e565b8284013585558d96909401936020928301920161203f565b909150600f6000526000805160206146a58339815191528580850160051c820192602086106120e3575b918c91869594930160051c01915b8281106120d4575050611d32565b600081558594508c91016120c6565b925081926120b8565b61ffff19166101011760005589611ce2565b50303b158015611cc6575060ff8916600114611cc6565b50600160ff8a1610611cbf565b346103715761213036612c1a565b9192303303610eb85761036f936136be565b346103715760403660031901126103715761105d61215e612b75565b336000526011602052604060002060018060a01b0382166000526020526110566024356040600020546131d1565b3461037157602080600319360112610371576121ae6121a9612b75565b6130ba565b906040519181839283018184528251809152816040850193019160005b8281106121da57505050500390f35b83516001600160a01b0316855286955093810193928101926001016121cb565b3461037157600036600319011261037157602060405160128152f35b346103715760203660031901126103715760806122346115f1612b75565b91604051938452602084015260408301526060820152f35b3461037157602036600319011261037157604061226a600435613a0b565b82519182526020820152f35b346103715760403660031901126103715760043560243560405160208101906122a4816110f8863386612f4d565b5190206122b18282613694565b156122fd5760005b8281106122ef57836040519081527f71a63dc095de07aa5512ad57a7596a39516317e316981a1cd71000057be1537b60203392a2005b6000828201556001016122b9565b60405163dae1880960e01b8152600490fd5b3461037157604036600319011261037157612328612b75565b337f00000000000000000000000000000000000000000000000000000000000000006001600160a01b031603610d615761036f9060405161236881612c6e565b600081526040519161237983612c6e565b600083526024359080336134e8565b34610371576020610bf861239b36612d35565b91336136be565b34610371576000366003190112610371576040517f00000000000000000000000000000000000000000000000000000000000000006001600160a01b03168152602090f35b34610371576123f536612d35565b9190337f00000000000000000000000000000000000000000000000000000000000000006001600160a01b031603610d615761036f926040519161243883612c6e565b600083526040519361244985612c6e565b6000855233613844565b346103715760e0366003190112610371576024356001600160401b03811161037157612483903690600401612d17565b604435906001600160a01b038083169190828403610371576064359081159485158303610371576124b2612b8b565b9060a43560c43591847f0000000000000000000000000000000000000000000000000000000000000000169060405196632329212160e21b88523360048901526020978881602481875afa9081156108f6576000916127df575b5015610ca75760405163289b3c0d60e01b81528881600481875afa80156108f65788948a926000926127a0575b506064906040519687938492638369a0f160e01b845260048401523060248401527f9f60ae461adf056670e03ae602566409933242392cb06744f5747c9f38b05d096044840152165afa9283156108f657600093612771575b5086831615612768575b15612762575080985b6000841361269c5750506125b8816137dd565b94600160ff1b8314612686576125f37fb8381a3ce157650e06186e3e8f4dd4dc29236f2688b6eed1893d0a60d7c6386f968460000314612fd4565b6125fc826137dd565b858a169081600052600283526126186040600020918254612ff1565b905585851680600052600283526040600020612635868254612ff1565b905560008051602061466583398151915283604051868152a35b84604051996004358b5216908901526040880152606087015260a06080870152169380612681339460a0830190612b35565b0390a4005b634e487b7160e01b600052601160045260246000fd5b906126c87fb8381a3ce157650e06186e3e8f4dd4dc29236f2688b6eed1893d0a60d7c6386f9792612fd4565b856126db856126d6866137dd565b612ff1565b91169081600052600283526126f6604060002091825461300d565b9055612701836137dd565b89600052600283526127196040600020918254612ff1565b90558585169081600052600283526040600020612737868254612ff1565b9055828a82604051878152600080516020614665833981519152938491a383604051878152a361264f565b986125a5565b9150809161259c565b612792919350883d8a11612799575b61278a8183612ca4565b8101906137be565b918b612592565b503d612780565b92839196508092503d83116127d8575b6127ba8183612ca4565b81010312610371575187811681036103715787938991906064612539565b503d6127b0565b6127f69150893d8b11610ce157610cd38183612ca4565b8c61250c565b34610371576000366003190112610371576020600354604051908152f35b346103715761282836612c1a565b91337f00000000000000000000000000000000000000000000000000000000000000006001600160a01b031603610d615761036f936136be565b346103715761287036612be7565b6040516020810190612887816110f8873386612f4d565b519020916128958284613694565b6128c95761111a7f770ea40a13a4644573ed785e5c7116890709947918747febc5add46feb531e2d93611114368585612eff565b60405163782a90fb60e11b8152600490fd5b346103715760203660031901126103715761036f6040516128fb81612c6e565b600081526040519061036082612c6e565b346103715760403660031901126103715761105d612928612b75565b6024359033613463565b346103715760603660031901126103715761294b612b75565b602435906044356001600160401b03811161037157611114612974612999923690600401612bb7565b9190604051602081019061298e816110f88a8a3387612ea1565b519020923691612eff565b6040519182526001600160a01b03169033907f30f416fa68fca014a0f334464c64b000ba53e99b6d2afdea9d5ca756372d598590602090a3005b3461037157600036600319011261037157604051600f546000826129f683612e67565b91828252602093600190856001821691826000146112d8575050600114612a24575061127592500383612ca4565b849150600f6000526000805160206146a5833981519152906000915b858310612a57575050611275935082010185611268565b80548389018501528794508693909201918101612a40565b346103715760003660031901126103715760125490818152602091828201809160126000527fbb8a6a4669ba250d26cd7a459eca9d215f8307e33aebe50379bc5a3617ec34449060005b86828210612b18578686612acf82880383612ca4565b604051928392818401908285525180915260408401929160005b828110612af857505050500390f35b83516001600160a01b031685528695509381019392810192600101612ae9565b83546001600160a01b031685529093019260019283019201612ab9565b919082519283825260005b848110612b61575050826000602080949584010152601f8019910116010190565b602081830181015184830182015201612b40565b600435906001600160a01b038216820361037157565b608435906001600160a01b038216820361037157565b602435906001600160a01b038216820361037157565b9181601f84011215610371578235916001600160401b038311610371576020808501948460051b01011161037157565b9060406003198301126103715760043591602435906001600160401b03821161037157612c1691600401612bb7565b9091565b6080906003190112610371576001600160a01b0360043581811681036103715791602435828116810361037157916044359081168103610371579060643590565b6001600160401b0381116109d357604052565b602081019081106001600160401b038211176109d357604052565b606081019081106001600160401b038211176109d357604052565b90601f801991011681019081106001600160401b038211176109d357604052565b6001600160401b0381116109d357601f01601f191660200190565b929192612cec82612cc5565b91612cfa6040519384612ca4565b829481845281830111610371578281602093846000960137010152565b9080601f8301121561037157816020612d3293359101612ce0565b90565b6060906003190112610371576001600160a01b0390600435828116810361037157916024359081168103610371579060443590565b6024359060ff8216820361037157565b9181601f84011215610371578235916001600160401b038311610371576020838186019501011161037157565b602090602060408183019282815285518094520193019160005b828110612dcf575050505090565b835185529381019392810192600101612dc1565b6060600319820112610371576004356001600160a01b0381168103610371579160243591604435906001600160401b03821161037157612c1691600401612d7a565b6060600319820112610371576004356001600160a01b0381168103610371579160243591604435906001600160401b03821161037157612d3291600401612d17565b90600182811c92168015612e97575b6020831014612e8157565b634e487b7160e01b600052602260045260246000fd5b91607f1691612e76565b6080808252600e908201526d41677265656d656e74537461746560901b60a08201526001600160a01b03918216602082015291166040820152606081019190915260c00190565b6001600160401b0381116109d35760051b60200190565b9291612f0a82612ee8565b91612f186040519384612ca4565b829481845260208094019160051b810192831161037157905b828210612f3e5750505050565b81358152908301908301612f31565b6060808252600d908201526c41677265656d656e744461746160981b60808201526001600160a01b039091166020820152604081019190915260a00190565b90815260406020820181905281018390526001600160fb1b0383116103715760609260051b809284830137010190565b90816020910312610371575180151581036103715790565b15612fdb57565b634e487b7160e01b600052600160045260246000fd5b9190916000838201938412911290801582169115161761268657565b8181039291600013801582851316918412161761268657565b604051630bbe4fd560e41b81526020816004817f00000000000000000000000000000000000000000000000000000000000000006001600160a01b03165afa80156108f657600090613086575b61307f91508092613305565b9193909290565b506020813d6020116130b2575b816130a060209383612ca4565b810103126103715761307f9051613073565b3d9150613093565b60018060a01b03806000921682526020600181526040832054196040519063c56a069d60e01b825260048201528381602481867f0000000000000000000000000000000000000000000000000000000000000000165afa9384156131c5578094613126575b5050505090565b90919293503d8082843e61313a8184612ca4565b82019183818403126108cf578051906001600160401b038211611f2057019382601f860112156108cf5784519161317083612ee8565b9561317e6040519788612ca4565b838752858088019460051b8201019485116108cf578501925b8484106131ad575050505050503880808061311f565b83518381168103611f20578152928501928501613197565b604051903d90823e3d90fd5b9190820180921161268657565b156131e557565b60405162461bcd60e51b815260206004820152602e60248201527f496e697469616c697a61626c653a20636f6e747261637420697320616c72656160448201526d191e481a5b9a5d1a585b1a5e995960921b6064820152608490fd5b6040519061324e82612c89565b602a82526962656c6f77207a65726f60b01b6040837f5375706572546f6b656e3a2064656372656173656420616c6c6f77616e63652060208201520152565b9190820391821161268657565b6132a96000926132cb92613305565b9081811185146132d0576132c5916132c09161328d565b6137dd565b90612ff1565b121590565b50506132c5836137dd565b80518210156132ef5760209160051b010190565b634e487b7160e01b600052603260045260246000fd5b919060008093849160018060a01b0391828116938488526020600260205260409461333460408b2054946130ba565b8a955b8151871015613428578b8361334c89856132db565b511691895180936326cb922f60e21b82523060048301528c60248301528d604483015281606460609687935afa91821561341e578391849585946133e0575b505092826133b66133c9936133b088966133aa60019a6133cf9a6131d1565b9d6131d1565b9c612ff1565b93818111156133d9576132c0925061328d565b9061300d565b9601959493613337565b50506137dd565b92509250935081813d8311613417575b6133fa8183612ca4565b810103126108cf57805186820151918b01519193846133b661338b565b503d6133f0565b8b513d85823e3d90fd5b999750505050945095505050565b91909160005b835181101561345d5780613452600192866132db565b51818401550161343c565b50509050565b6001600160a01b039081169182156134d657169182156134c45760207f8c5be1e5ebec7d5bd14f71427d1e84f3dd0314c0f7b2291e5b200ac8c7c3b925918360005260118252604060002085600052825280604060002055604051908152a3565b6040516337c1c09d60e21b8152600490fd5b604051638163862760e01b8152600490fd5b600e5490969592936001600160a01b039390918416156136825761350e61351d92613a0b565b96909887858351151592613dbc565b81600e54169560409687516370a0823160e01b918282523060048301526020968783602481855afa92831561367757600093613648575b508a5163a9059cbb60e01b8982015290871660248201526044808201869052815260808101916001600160401b038311828410176109d357613597928c526144b5565b8585600e54169260248b518095819382523060048301525afa90811561363d5760009161360c575b6135c9925061328d565b036135fb577f3bc27981aebbb57f9247dc00fde9d6cd91e4b230083fec3238fedbcba1f9ab3d939495519485521692a2565b8551631c7c26d360e31b8152600490fd5b90508582813d8311613636575b6136238183612ca4565b81010312610371576135c99151906135bf565b503d613619565b89513d6000823e3d90fd5b9092508781813d8311613670575b6136608183612ca4565b8101031261037157519138613554565b503d613656565b8b513d6000823e3d90fd5b604051637bce7b2b60e11b8152600490fd5b60005b8281106136a657505050600090565b808201546136b657600101613697565b505050600190565b91929091906001600160a01b038084169182156137ac578186161561379a5760409161370c8351976136ef89612c6e565b6000988981528486519261370284612c6e565b8b84528a33614306565b841692808403613723575b50505050505050600190565b86610e7994849261378e9952601160205282822090825260205220546c65647320616c6c6f77616e636560981b83519361375c85612c89565b602d85527f5375706572546f6b656e3a207472616e7366657220616d6f756e742065786365602086015284015261402f565b38808080808080613717565b60405163e219bd3960e01b8152600490fd5b60405163eecd6c9b60e01b8152600490fd5b9081602091031261037157516001600160a01b03811681036103715790565b6001600160ff1b0381116137ee5790565b60405162461bcd60e51b815260206004820152602860248201527f53616665436173743a2076616c756520646f65736e27742066697420696e2061604482015267371034b73a191a9b60c11b6064820152608490fd5b600e5491969590946001600160a01b039283169492939285156136825761386a90613a0b565b96906040998a8051986370a0823160e01b808b523060048c015260209a8b81602481865afa9384156139dd578b916000956139aa575b50516323b872dd60e01b8d820152941660248501523060448501526064808501869052845260a084016001600160401b038111858210176109d3578e948c936138ea9287526144b5565b60248a600e541694518095819382523060048301525afa801561399f57600090613970575b613919925061328d565b0361395f5791818488999a947f25ca84076773b0455db53621c459ddc84fe40840e4932a62706a032566f399df9961395695511515928392614065565b519485521692a2565b8851631c7c26d360e31b8152600490fd5b508882813d8311613998575b6139868183612ca4565b8101031261037157613919915161390f565b503d61397c565b8c513d6000823e3d90fd5b945050508a83813d83116139d6575b6139c38183612ca4565b8101031261037157898e935193386138a0565b503d6139b9565b513d6000823e3d90fd5b60ff16604d811161268657600a0a90565b8181029291811591840414171561268657565b9060ff600e5460a01c1660128110600014613a5e5760120360ff811161268657613a34906139e7565b918215613a485782612d32910492836139f8565b634e487b7160e01b600052601260045260246000fd5b6012811115613a89576011190160ff811161268657613a7f613a85916139e7565b836139f8565b9190565b508190565b9190613a9981612ee8565b613aa66040519182612ca4565b818152601f19613ab583612ee8565b01366020830137809360005b838110613ace5750505050565b80600191830154613adf82866132db565b5201613ac1565b6001600160a01b039182169116818114918215613b2c575b8215613b0957505090565b909150600052601460205260406000209060005260205260ff6040600020541690565b91506000818152601360205260ff6040822054169081613b4e575b5091613afe565b60ff915080846040925260156020528181208482526020522054161538613b47565b92946001600160a01b03808316959492919086156137ac5780851696871561379a5760409788519063555ddc6560e11b9283835260048301527f29ddb589b1fb5fc7cf394961c1adf5f8c6454761adf795e67fe149f658abe8956024830152602092731820a4b7618bde71dce8cdc73aab6c95905fad24928481604481875afa90811561399f578b8e8c8b8d8b8b9998978e97600091613d74575b501680613cfa575b5091604496959391613c259593614306565b8c519485938492835260048301527fb281fc8c12954d22544db45de3159a39272895b169a852b314f9cc762e44c53b60248301525afa91821561363d57600092613cdd575b505016928315613cbd57833b1561037157613c9f60009692879389519a8b98899788966223de2960e01b88526004880161446b565b03925af19081156139dd5750613cb25750565b613cbb90612c5b565b565b50505050919250503b613ccd5750565b5163fe737d0560e01b8152600490fd5b613cf39250803d106127995761278a8183612ca4565b3880613c6a565b96979850505050505050803b156103715760008a8e928a8f8f613d378f918e90889451998a9889978896633ad5cbc160e11b88526004880161446b565b03925af1801561399f5791613c25888f8e908e8d8f6044988d9b9a613d65575b509193955091939596613c13565b613d6e90612c5b565b38613d57565b613d8b91508b3d8d116127995761278a8183612ca4565b38613c0b565b91613dae90612d3294928452606060208501526060840190612b35565b916040818403910152612b35565b9495946001600160a01b03808316959294909190861561401d57613f09575b6040978851630bbe4fd560e41b81526020968782600481887f0000000000000000000000000000000000000000000000000000000000000000165afa90811561367757600091613ed8575b613e309250613305565b5050613e3b866137dd565b13613ec757927fa78a9be3a7b862d26933ad85fb11d80ef66b8f972d7cbba06621d583943a409860009899938893613ebd600080516020614665833981519152999897868d5260028a52613e95888e20546133c98b6137dd565b878e5260028b52888e2055613eac8960035461328d565b600355875193849316958984613d91565b0390a351908152a3565b885163043b37d160e21b8152600490fd5b90508782813d8311613f02575b613eef8183612ca4565b8101031261037157613e30915190613e26565b503d613ee5565b60405163555ddc6560e11b8152600481018790527f29ddb589b1fb5fc7cf394961c1adf5f8c6454761adf795e67fe149f658abe8956024820152602081604481731820a4b7618bde71dce8cdc73aab6c95905fad245afa80156108f6578391600091613ffe575b501680613f7e575b50613ddb565b803b1561037157600089613fe0928983604051809681958294633ad5cbc160e11b84528b8b16600485015260248401528360448401528c606484015260c06084840152613fce60c484018d612b35565b8381036003190160a485015290612b35565b03925af180156108f65715613f7857613ff890612c5b565b38613f78565b614017915060203d6020116127995761278a8183612ca4565b38613f70565b604051632e8aac6160e21b8152600490fd5b909181831161403d57500390565b60405162461bcd60e51b815260206004820152908190614061906024830190612b35565b0390fd5b6001600160a01b0380831697959690959294929188156142f4578892600098848a52602097600289526040966140a1888d20546132c58b6137dd565b878d5260028b52888d20556140b8896003546131d1565b600355614106575b5050967f2fe5be0146f74c5bce36c0b80911af6c7d86ff27e89d5cfa61fc681327954e5d91613ebd60008051602061466583398151915299875193849316958984613d91565b90919293958097989995505163555ddc6560e11b81528b60048201527fb281fc8c12954d22544db45de3159a39272895b169a852b314f9cc762e44c53b60248201528981604481731820a4b7618bde71dce8cdc73aab6c95905fad245afa9081156142ea578c929187918d916142cd575b501692831561425457505050803b156142505788865180926223de2960e01b825286861660048301528260248301528c604483015289606483015260c060848301528183816141de6141cc60c483018d612b35565b8281036003190160a484015289612b35565b03925af180156142465792613ebd7f2fe5be0146f74c5bce36c0b80911af6c7d86ff27e89d5cfa61fc681327954e5d938c96936000805160206146658339815191529b9a999896614237575b505b9299508193506140c0565b61424090612c5b565b3861422a565b86513d8b823e3d90fd5b8880fd5b90919599989796949392506142a0575b50967f2fe5be0146f74c5bce36c0b80911af6c7d86ff27e89d5cfa61fc681327954e5d91613ebd6000805160206146658339815191529961422c565b9091929495969793503b6142bc57908892969594939138614264565b845163fe737d0560e01b8152600490fd5b6142e491508c8d3d106127995761278a8183612ca4565b38614177565b88513d8d823e3d90fd5b604051630d24315760e01b8152600490fd5b9091949394614314846137dd565b9060018060a01b0395604093845195630bbe4fd560e41b875260209687816004818d7f0000000000000000000000000000000000000000000000000000000000000000165afa9081156144605790869160009161442d575b506143779083613305565b50501261441c57908880921698899485600052600289528688600020549061439e9161300d565b8660005260028a52886000205516998a95866000528760002054906143c291612ff1565b86600052600289528760002055865192839216936143e1918a84613d91565b037f06b541ddaa720db2b10a4d0cdac39b8d360425fc073085fac19bc8261467798791a45191825260008051602061466583398151915291a3565b8551632f4cb94160e01b8152600490fd5b809250898092503d8311614459575b6144468183612ca4565b810103126103715751859061437761436c565b503d61443c565b87513d6000823e3d90fd5b94916144a793612d3297959260018060a01b0392838092168952166020880152166040860152606085015260c0608085015260c0840190612b35565b9160a0818403910152612b35565b60408051908101916001600160a01b03166001600160401b038311828410176109d357614543926040526000806020958685527f5361666545524332303a206c6f772d6c6576656c2063616c6c206661696c656487860152868151910182855af13d156145cb573d9161452783612cc5565b926145356040519485612ca4565b83523d60008785013e6145cf565b8051908282159283156145b3575b5050501561455c5750565b6084906040519062461bcd60e51b82526004820152602a60248201527f5361666545524332303a204552433230206f7065726174696f6e20646964206e6044820152691bdd081cdd58d8d9595960b21b6064820152fd5b6145c39350820181019101612fbc565b388281614551565b6060915b9192901561463157508151156145e3575090565b3b156145ec5790565b60405162461bcd60e51b815260206004820152601d60248201527f416464726573733a2063616c6c20746f206e6f6e2d636f6e74726163740000006044820152606490fd5b82519091501561403d5750805190602001fdfeb53127684a568b3173ae13b9f8a6016e243e63b6e8ee1178d6a717850b5d6103ddf252ad1be2c89b69c2b068fc378daa952ba7f163c4a11628f55a4df523b3ef1b6847dc741a1b0cd08d278845f9d819d87b734759afb55fe2de5cb82a9ae6728d1108e10bcb7c27dddfc02ed9d693a074039d026cf4ea4240b40f7d581ac802a2646970667358221220cfa2adc9548662445498c513478a43ec20ed28a4cde8c5456b9c267c50e018d564736f6c63430008170033","linkReferences":{}},"methodIdentifiers":{"CONSTANT_INFLOW_NFT()":"4c5c0c85","CONSTANT_OUTFLOW_NFT()":"ef43d2c6","POOL_ADMIN_NFT()":"b20db1ac","POOL_MEMBER_NFT()":"f5a8b4dd","allowance(address,address)":"dd62ed3e","approve(address,uint256)":"095ea7b3","authorizeOperator(address)":"959b8c3f","balanceOf(address)":"70a08231","burn(uint256,bytes)":"fe9d9303","castrate()":"9903ad38","changeAdmin(address)":"8f283970","createAgreement(bytes32,bytes32[])":"12a6a3f8","decimals()":"313ce567","decreaseAllowance(address,uint256)":"a457c2d7","defaultOperators()":"06e48538","downgrade(uint256)":"11bcc81e","downgradeTo(address,uint256)":"83ba2525","getAccountActiveAgreements(address)":"386fa221","getAdmin()":"6e9960c3","getAgreementData(address,bytes32,uint256)":"6c2d9f2f","getAgreementStateSlot(address,address,uint256,uint256)":"4b61cc33","getCodeAddress()":"50d75d25","getHost()":"20bc4425","getUnderlyingDecimals()":"92081a47","getUnderlyingToken()":"ee719bc8","granularity()":"556f0dc7","increaseAllowance(address,uint256)":"39509351","initialize(address,uint8,string,string)":"42fe0980","initializeWithAdmin(address,uint8,string,string,address)":"ec0d6343","isAccountCritical(address,uint256)":"d9d078d6","isAccountCriticalNow(address)":"79359f6f","isAccountSolvent(address,uint256)":"b84cdd4a","isAccountSolventNow(address)":"bb0d196e","isOperatorFor(address,address)":"d95b6371","makeLiquidationPayoutsV2(bytes32,bytes,address,bool,address,uint256,int256)":"1863e809","name()":"06fdde03","operationApprove(address,address,uint256)":"62aa5287","operationDecreaseAllowance(address,address,uint256)":"c780fd82","operationDowngrade(address,uint256)":"245887fc","operationDowngradeTo(address,address,uint256)":"47ba7ad1","operationIncreaseAllowance(address,address,uint256)":"4b2763b3","operationSend(address,address,uint256,bytes)":"ca0c1e7f","operationTransferFrom(address,address,address,uint256)":"16d055d6","operationUpgrade(address,uint256)":"ca789464","operationUpgradeTo(address,address,uint256)":"1ae88ffc","operatorBurn(address,uint256,bytes,bytes)":"fc673c4f","operatorSend(address,address,uint256,bytes,bytes)":"62ad1b83","proxiableUUID()":"52d1902d","realtimeBalanceOf(address,uint256)":"eb3537cc","realtimeBalanceOfNow(address)":"2ec8eec7","revokeOperator(address)":"fad8b32a","selfApproveFor(address,address,uint256)":"66a12fb6","selfBurn(address,uint256,bytes)":"9d876741","selfMint(address,uint256,bytes)":"c68d4283","selfTransferFrom(address,address,address,uint256)":"41b706be","send(address,uint256,bytes)":"9bd9bbc6","settleBalance(address,int256)":"cf97256d","symbol()":"95d89b41","terminateAgreement(bytes32,uint256)":"27048397","toUnderlyingAmount(uint256)":"282a050b","totalSupply()":"18160ddd","transfer(address,uint256)":"a9059cbb","transferAll(address)":"a3a7e7f3","transferFrom(address,address,uint256)":"23b872dd","updateAgreementData(bytes32,bytes32[])":"a1b2bf8b","updateAgreementStateSlot(address,uint256,bytes32[])":"090c415e","updateCode(address)":"46951954","upgrade(uint256)":"45977d03","upgradeTo(address,uint256,bytes)":"5b9d09cc"},"id":107}