{"abi":[{"type":"constructor","inputs":[{"name":"host_","type":"address","internalType":"address"}],"stateMutability":"nonpayable"},{"type":"function","name":"cfa","inputs":[],"outputs":[{"name":"","type":"address","internalType":"address"}],"stateMutability":"view"},{"type":"function","name":"deleteFlow","inputs":[{"name":"superToken","type":"address","internalType":"address"},{"name":"data","type":"tuple","internalType":"struct BatchLiquidator.FlowLiquidationData","components":[{"name":"agreementOperation","type":"uint8","internalType":"enum BatchLiquidator.FlowType"},{"name":"sender","type":"address","internalType":"address"},{"name":"receiver","type":"address","internalType":"address"}]}],"outputs":[],"stateMutability":"nonpayable"},{"type":"function","name":"deleteFlows","inputs":[{"name":"superToken","type":"address","internalType":"address"},{"name":"data","type":"tuple[]","internalType":"struct BatchLiquidator.FlowLiquidationData[]","components":[{"name":"agreementOperation","type":"uint8","internalType":"enum BatchLiquidator.FlowType"},{"name":"sender","type":"address","internalType":"address"},{"name":"receiver","type":"address","internalType":"address"}]}],"outputs":[],"stateMutability":"nonpayable"},{"type":"function","name":"gda","inputs":[],"outputs":[{"name":"","type":"address","internalType":"address"}],"stateMutability":"view"},{"type":"function","name":"host","inputs":[],"outputs":[{"name":"","type":"address","internalType":"address"}],"stateMutability":"view"}],"bytecode":{"object":"0x60e0604090808252346101825780610a89803803809161001f8285610187565b833960209283918101031261018257516001600160a01b039190828116908181036101825760805283518281602481635b69006f60e11b958682527fa9214cc96615e0085d3bb077758db69497dc2dce3b2b1e97bc93c3d18d83efd360048301525afa801561017757849160009161015a575b501660a05281836080511691602486518094819382527fdfd8ece9bfbcb8c5c540edb935641f63d67686490a1ab97f000288759f30a94660048301525afa91821561014f57600092610122575b50501660c052516108a990816101e082396080518181816103ed015261079e015260a05181818161012e0152610764015260c051818181610299015261084a0152f35b6101419250803d10610148575b6101398183610187565b8101906101c0565b38806100df565b503d61012f565b84513d6000823e3d90fd5b6101719150843d8611610148576101398183610187565b38610092565b85513d6000823e3d90fd5b600080fd5b601f909101601f19168101906001600160401b038211908210176101aa57604052565b634e487b7160e01b600052604160045260246000fd5b9081602091031261018257516001600160a01b0381168103610182579056fe6080604052600436101561001257600080fd5b6000803560e01c9081631054df8c1461011c578163179ea6dc14610065575080635fbd36fa14610060578063eacb0e8f1461005b5763f437bc591461005657600080fd5b6103d7565b6102c8565b610283565b346101195760403660031901126101195761007e610160565b9060243567ffffffffffffffff92838211610115573660238301121561011557816004013593841161011057602091604051926100c160208760051b01856101c1565b85845260208401602460608098028401019236841161010c57602401905b8382106100f457866100f18787610479565b80f35b8288916101013685610237565b8152019101906100df565b8680fd5b61018f565b8280fd5b80fd5b346101195780600319360112610119577f00000000000000000000000000000000000000000000000000000000000000006001600160a01b03166080908152602090f35b600435906001600160a01b038216820361017657565b600080fd5b35906001600160a01b038216820361017657565b634e487b7160e01b600052604160045260246000fd5b6060810190811067ffffffffffffffff82111761011057604052565b90601f8019910116810190811067ffffffffffffffff82111761011057604052565b606090602319011261017657604051906101fc826101a5565b8160243560028110156101765781526001600160a01b0390604435828116810361017657602082015260643591821682036101765760400152565b91908260609103126101765760405161024f816101a5565b8092803590600282101561017657604061027e91819385526102736020820161017b565b60208601520161017b565b910152565b34610176576000366003190112610176576040517f00000000000000000000000000000000000000000000000000000000000000006001600160a01b03168152602090f35b34610176576080366003190112610176576102e1610160565b6102f36102ed366101e3565b826106c4565b90156103c957506040516370a0823160e01b81523060048201526020916001600160a01b03168282602481845afa9182156103c457600092610395575b508161033857005b6040516323b872dd60e01b815230600482015233602482015260448101929092528290829060649082906000905af161036d57005b8161038c92903d1061038e575b61038481836101c1565b810190610461565b005b503d61037a565b6103b6919250833d85116103bd575b6103ae81836101c1565b810190610446565b9038610330565b503d6103a4565b610455565b805190811561017657602001fd5b34610176576000366003190112610176576040517f00000000000000000000000000000000000000000000000000000000000000006001600160a01b03168152602090f35b80518210156104305760209160051b010190565b634e487b7160e01b600052603260045260246000fd5b90816020910312610176575190565b6040513d6000823e3d90fd5b90816020910312610176575180151581036101765790565b9060005b81518110156104a5578061049d6104966001938561041c565b51856106c4565b50500161047d565b50506040516370a0823160e01b81523060048201526020916001600160a01b03168282602481845afa9182156103c457600092610538575b50816104e857505050565b6040516323b872dd60e01b815230600482015233602482015260448101929092528290829060649082906000905af161051f575050565b8161053592903d1061038e5761038481836101c1565b50565b610550919250833d85116103bd576103ae81836101c1565b90386104dd565b6002111561056157565b634e487b7160e01b600052602160045260246000fd5b6040516020810181811067ffffffffffffffff8211176101105760405260008152906000368137565b919082519283825260005b8481106105cc575050826000602080949584010152601f8019910116010190565b6020818301810151848301820152016105ab565b6001600160a01b039182168152918116602083015290911660408201526000606082015260a060808201819052610619929101906105a0565b90565b6001600160a01b039091168152606060208201819052610619939192610644918401906105a0565b9160408184039101526105a0565b3d1561068d573d9067ffffffffffffffff82116101105760405191610681601f8201601f1916602001846101c1565b82523d6000602084013e565b606090565b6001600160a01b03918216815291811660208301529091166040820152608060608201819052610619929101906105a0565b60009190829180516106d581610557565b6106de81610557565b1583146107cb5760208101516040909101516001600160a01b039283926107999261072e918516908516610710610577565b91604051968795635a5999e360e11b60208801521660248601610692565b03610741601f19918281018552846101c1565b610749610577565b9261078d60405194859260208401976339255d5b60e01b89527f0000000000000000000000000000000000000000000000000000000000000000166024850161061c565b039081018352826101c1565b5190827f00000000000000000000000000000000000000000000000000000000000000005af16107c7610652565b9091565b60208101516040909101516001600160a01b03928392610799926108149185169085166107f6610577565b9160405196879563169b1b6f60e21b602088015216602486016105e0565b03610827601f19918281018552846101c1565b61082f610577565b9261078d60405194859260208401976339255d5b60e01b89527f0000000000000000000000000000000000000000000000000000000000000000166024850161061c56fea2646970667358221220a42554f40e50e6d65c1ef3bdf21081e8be2b68d42a330561eaa85c513f0f45f964736f6c63430008170033","linkReferences":{}},"methodIdentifiers":{"cfa()":"1054df8c","deleteFlow(address,(uint8,address,address))":"eacb0e8f","deleteFlows(address,(uint8,address,address)[])":"179ea6dc","gda()":"5fbd36fa","host()":"f437bc59"},"id":118}