{"abi":[{"type":"constructor","inputs":[],"stateMutability":"nonpayable"},{"type":"function","name":"DEFAULT_ADMIN_ROLE","inputs":[],"outputs":[{"name":"","type":"bytes32","internalType":"bytes32"}],"stateMutability":"view"},{"type":"function","name":"get","inputs":[{"name":"name","type":"string","internalType":"string"}],"outputs":[{"name":"","type":"address","internalType":"address"}],"stateMutability":"view"},{"type":"function","name":"getRoleAdmin","inputs":[{"name":"role","type":"bytes32","internalType":"bytes32"}],"outputs":[{"name":"","type":"bytes32","internalType":"bytes32"}],"stateMutability":"view"},{"type":"function","name":"getRoleMember","inputs":[{"name":"role","type":"bytes32","internalType":"bytes32"},{"name":"index","type":"uint256","internalType":"uint256"}],"outputs":[{"name":"","type":"address","internalType":"address"}],"stateMutability":"view"},{"type":"function","name":"getRoleMemberCount","inputs":[{"name":"role","type":"bytes32","internalType":"bytes32"}],"outputs":[{"name":"","type":"uint256","internalType":"uint256"}],"stateMutability":"view"},{"type":"function","name":"grantRole","inputs":[{"name":"role","type":"bytes32","internalType":"bytes32"},{"name":"account","type":"address","internalType":"address"}],"outputs":[],"stateMutability":"nonpayable"},{"type":"function","name":"hasRole","inputs":[{"name":"role","type":"bytes32","internalType":"bytes32"},{"name":"account","type":"address","internalType":"address"}],"outputs":[{"name":"","type":"bool","internalType":"bool"}],"stateMutability":"view"},{"type":"function","name":"renounceRole","inputs":[{"name":"role","type":"bytes32","internalType":"bytes32"},{"name":"account","type":"address","internalType":"address"}],"outputs":[],"stateMutability":"nonpayable"},{"type":"function","name":"revokeRole","inputs":[{"name":"role","type":"bytes32","internalType":"bytes32"},{"name":"account","type":"address","internalType":"address"}],"outputs":[],"stateMutability":"nonpayable"},{"type":"function","name":"set","inputs":[{"name":"name","type":"string","internalType":"string"},{"name":"target","type":"address","internalType":"address"}],"outputs":[],"stateMutability":"nonpayable"},{"type":"function","name":"supportsInterface","inputs":[{"name":"interfaceId","type":"bytes4","internalType":"bytes4"}],"outputs":[{"name":"","type":"bool","internalType":"bool"}],"stateMutability":"view"},{"type":"event","name":"RoleAdminChanged","inputs":[{"name":"role","type":"bytes32","indexed":true,"internalType":"bytes32"},{"name":"previousAdminRole","type":"bytes32","indexed":true,"internalType":"bytes32"},{"name":"newAdminRole","type":"bytes32","indexed":true,"internalType":"bytes32"}],"anonymous":false},{"type":"event","name":"RoleGranted","inputs":[{"name":"role","type":"bytes32","indexed":true,"internalType":"bytes32"},{"name":"account","type":"address","indexed":true,"internalType":"address"},{"name":"sender","type":"address","indexed":true,"internalType":"address"}],"anonymous":false},{"type":"event","name":"RoleRevoked","inputs":[{"name":"role","type":"bytes32","indexed":true,"internalType":"bytes32"},{"name":"account","type":"address","indexed":true,"internalType":"address"},{"name":"sender","type":"address","indexed":true,"internalType":"address"}],"anonymous":false},{"type":"event","name":"Set","inputs":[{"name":"name","type":"string","indexed":true,"internalType":"string"},{"name":"target","type":"address","indexed":false,"internalType":"address"}],"anonymous":false}],"bytecode":{"object":"0x604060808152346100955761003d60008080528060205282812033825260205260ff83822054161561004b575b80805260016020528233912061009a565b5051610ae590816101258239f35b80805280602052828120338252602052828120600160ff198254161790553333827f2f8788117e7eff1d82e926ec794901d17c78024a50270940304540a733656f0d8180a461002c565b600080fd5b9190600183016000908282528060205260408220541560001461011e578454946801000000000000000086101561010a57600186018082558610156100f657836040949596828552602085200155549382526020522055600190565b634e487b7160e01b83526032600452602483fd5b634e487b7160e01b83526041600452602483fd5b5092505056fe608060408181526004908136101561001657600080fd5b600092833560e01c90816301ffc9a71461047f57508063248a9ca3146104555780632f2ff15d146103a357806336568abe14610311578063693ec85e146102b25780639010d07c1461027157806391d148541461022b578063a217fddf1461020c578063a815ff1514610104578063ca15c873146100dc5763d547741f1461009d57600080fd5b346100d857806003193601126100d8576100d591356100d060016100bf6104ed565b938387528660205286200154610536565b610860565b80f35b8280fd5b5090346100d85760203660031901126100d85760209282913581526001845220549051908152f35b5090346100d857816003193601126100d857803567ffffffffffffffff8111610208576101349036908301610508565b9061013d6104ed565b928580528560205284862033875260205260ff8587205416156101cc5750916020917f496595ced95720268cf8bc60bae3f35024ff2a130f73ac4e20f5c1eaca35db999385518282823760028382019081528190038501902080546001600160a01b0319166001600160a01b03909416938417905585519182918190833781018781520390209351908152a280f35b606490602086519162461bcd60e51b8352820152601660248201527521b0b63632b91034b9903737ba1030b71030b236b4b760511b6044820152fd5b8380fd5b83823461022757816003193601126102275751908152602090f35b5080fd5b5090346100d857816003193601126100d8578160209360ff9261024c6104ed565b903582528186528282206001600160a01b039091168252855220549151911615158152f35b5090346100d857816003193601126100d85760209261029c913581526001845282602435912061090a565b905491519160018060a01b039160031b1c168152f35b50823461030e57602036600319011261030e5782359067ffffffffffffffff821161030e57506020926102e791369101610508565b8083519283376002908201908152819003830190205490516001600160a01b039091168152f35b80fd5b5091903461022757826003193601126102275761032c6104ed565b90336001600160a01b0383160361034857906100d59135610860565b608490602085519162461bcd60e51b8352820152602f60248201527f416363657373436f6e74726f6c3a2063616e206f6e6c792072656e6f756e636560448201526e103937b632b9903337b91039b2b63360891b6064820152fd5b50346100d857806003193601126100d85761040a91359060016103c46104ed565b928086526020908682526103dc838589200154610536565b80875286825283872094838060a01b031694858852825260ff84882054161561040e575b8652528320610949565b5080f35b8087528682528387208588528252838720805460ff1916841790553385827f2f8788117e7eff1d82e926ec794901d17c78024a50270940304540a733656f0d8a80a4610400565b5090346100d85760203660031901126100d857816020936001923581528085522001549051908152f35b849084346100d85760203660031901126100d8573563ffffffff60e01b81168091036100d85760209250635a05180f60e01b81149081156104c2575b5015158152f35b637965db0b60e01b8114915081156104dc575b50836104bb565b6301ffc9a760e01b149050836104d5565b602435906001600160a01b038216820361050357565b600080fd5b9181601f840112156105035782359167ffffffffffffffff8311610503576020838186019501011161050357565b6000818152602091818352604092838320338452815260ff84842054161561055e5750505050565b835167ffffffffffffffff93909233606085018681118682101761084c578752602a85528385019187368437855115610838576030835385519160019260011015610824576078602188015360295b8381116107ba57506106e45787519060808201828110898211176107a657895260428252858201926060368537825115610792576030845382516001101561079257607860218401536041905b8082116107265750506106e457916106799493918893606798995196879361064f8886019a7f416363657373436f6e74726f6c3a206163636f756e74200000000000000000008c5251809260378801906108e7565b8401917001034b99036b4b9b9b4b733903937b6329607d1b603784015251809360488401906108e7565b0103602881018552601f199687910116840196848810908811176106d05750926106c760449593601f938880975262461bcd60e51b87526004870152518092816024880152878701906108e7565b01168101030190fd5b634e487b7160e01b81526041600452602490fd5b60648589519062461bcd60e51b825280600483015260248201527f537472696e67733a20686578206c656e67746820696e73756666696369656e746044820152fd5b9091600f8116601081101561077e576f181899199a1a9b1b9c1cb0b131b232b360811b901a6107558486610938565b5360041c91801561076a5760001901906105fa565b634e487b7160e01b87526011600452602487fd5b634e487b7160e01b88526032600452602488fd5b634e487b7160e01b86526032600452602486fd5b634e487b7160e01b86526041600452602486fd5b90600f81166010811015610810576f181899199a1a9b1b9c1cb0b131b232b360811b901a6107e8838a610938565b5360041c9080156107fc57600019016105ad565b634e487b7160e01b86526011600452602486fd5b634e487b7160e01b87526032600452602487fd5b634e487b7160e01b85526032600452602485fd5b634e487b7160e01b84526032600452602484fd5b634e487b7160e01b84526041600452602484fd5b90604061089d92600090808252816020528282209360018060a01b03169384835260205260ff83832054166108a0575b81526001602052206109d3565b50565b8082528160205282822084835260205282822060ff1981541690553384827ff6391f5c32d9c69d2a47ea670b442974b53935d1edc7fd64eb21e047a839171b8580a4610890565b60005b8381106108fa5750506000910152565b81810151838201526020016108ea565b80548210156109225760005260206000200190600090565b634e487b7160e01b600052603260045260246000fd5b908151811015610922570160200190565b919060018301600090828252806020526040822054156000146109cd57845494680100000000000000008610156109b957836109a9610992886001604098999a0185558461090a565b819391549060031b91821b91600019901b19161790565b9055549382526020522055600190565b634e487b7160e01b83526041600452602483fd5b50925050565b90600182019060009281845282602052604084205490811515600014610aa8576000199180830181811161076a57825490848201918211610a9457808203610a5f575b50505080548015610a4b57820191610a2e838361090a565b909182549160031b1b191690555582526020526040812055600190565b634e487b7160e01b86526031600452602486fd5b610a7f610a6f610992938661090a565b90549060031b1c9283928661090a565b90558652846020526040862055388080610a16565b634e487b7160e01b88526011600452602488fd5b505050509056fea2646970667358221220142c33578a04e5cc6c7711f0e0610fd659ee30c56283254e0f39eebfd4b79c2664736f6c63430008170033","linkReferences":{}},"methodIdentifiers":{"DEFAULT_ADMIN_ROLE()":"a217fddf","get(string)":"693ec85e","getRoleAdmin(bytes32)":"248a9ca3","getRoleMember(bytes32,uint256)":"9010d07c","getRoleMemberCount(bytes32)":"ca15c873","grantRole(bytes32,address)":"2f2ff15d","hasRole(bytes32,address)":"91d14854","renounceRole(bytes32,address)":"36568abe","revokeRole(bytes32,address)":"d547741f","set(string,address)":"a815ff15","supportsInterface(bytes4)":"01ffc9a7"},"id":124}