{"abi":[{"type":"function","name":"authorizeAppFactory","inputs":[{"name":"host","type":"address","internalType":"contract ISuperfluid"},{"name":"factory","type":"address","internalType":"address"}],"outputs":[],"stateMutability":"nonpayable"},{"type":"function","name":"batchChangeSuperTokenAdmin","inputs":[{"name":"host","type":"address","internalType":"contract ISuperfluid"},{"name":"token","type":"address[]","internalType":"contract ISuperToken[]"},{"name":"newAdmins","type":"address[]","internalType":"address[]"}],"outputs":[],"stateMutability":"nonpayable"},{"type":"function","name":"batchUpdateSuperTokenLogic","inputs":[{"name":"host","type":"address","internalType":"contract ISuperfluid"},{"name":"tokens","type":"address[]","internalType":"contract ISuperToken[]"}],"outputs":[],"stateMutability":"nonpayable"},{"type":"function","name":"batchUpdateSuperTokenLogic","inputs":[{"name":"host","type":"address","internalType":"contract ISuperfluid"},{"name":"tokens","type":"address[]","internalType":"contract ISuperToken[]"},{"name":"tokenLogics","type":"address[]","internalType":"address[]"}],"outputs":[],"stateMutability":"nonpayable"},{"type":"function","name":"batchUpdateSuperTokenMinimumDeposit","inputs":[{"name":"host","type":"address","internalType":"contract ISuperfluid"},{"name":"tokens","type":"address[]","internalType":"contract ISuperToken[]"},{"name":"minimumDeposits","type":"uint256[]","internalType":"uint256[]"}],"outputs":[],"stateMutability":"nonpayable"},{"type":"function","name":"changeSuperTokenAdmin","inputs":[{"name":"host","type":"address","internalType":"contract ISuperfluid"},{"name":"token","type":"address","internalType":"contract ISuperToken"},{"name":"newAdmin","type":"address","internalType":"address"}],"outputs":[],"stateMutability":"nonpayable"},{"type":"function","name":"clearAppRegistrationKey","inputs":[{"name":"host","type":"address","internalType":"contract ISuperfluid"},{"name":"deployer","type":"address","internalType":"address"},{"name":"registrationKey","type":"string","internalType":"string"}],"outputs":[],"stateMutability":"nonpayable"},{"type":"function","name":"clearConfig","inputs":[{"name":"host","type":"address","internalType":"contract ISuperfluid"},{"name":"superToken","type":"address","internalType":"contract ISuperfluidToken"},{"name":"key","type":"bytes32","internalType":"bytes32"}],"outputs":[],"stateMutability":"nonpayable"},{"type":"function","name":"clearPPPConfig","inputs":[{"name":"host","type":"address","internalType":"contract ISuperfluid"},{"name":"superToken","type":"address","internalType":"contract ISuperfluidToken"}],"outputs":[],"stateMutability":"nonpayable"},{"type":"function","name":"clearRewardAddress","inputs":[{"name":"host","type":"address","internalType":"contract ISuperfluid"},{"name":"superToken","type":"address","internalType":"contract ISuperfluidToken"}],"outputs":[],"stateMutability":"nonpayable"},{"type":"function","name":"clearSuperTokenMinimumDeposit","inputs":[{"name":"host","type":"address","internalType":"contract ISuperfluid"},{"name":"superToken","type":"address","internalType":"contract ISuperToken"}],"outputs":[],"stateMutability":"nonpayable"},{"type":"function","name":"disableTrustedForwarder","inputs":[{"name":"host","type":"address","internalType":"contract ISuperfluid"},{"name":"superToken","type":"address","internalType":"contract ISuperfluidToken"},{"name":"forwarder","type":"address","internalType":"address"}],"outputs":[],"stateMutability":"nonpayable"},{"type":"function","name":"enableTrustedForwarder","inputs":[{"name":"host","type":"address","internalType":"contract ISuperfluid"},{"name":"superToken","type":"address","internalType":"contract ISuperfluidToken"},{"name":"forwarder","type":"address","internalType":"address"}],"outputs":[],"stateMutability":"nonpayable"},{"type":"function","name":"getConfigAsAddress","inputs":[{"name":"host","type":"address","internalType":"contract ISuperfluid"},{"name":"superToken","type":"address","internalType":"contract ISuperfluidToken"},{"name":"key","type":"bytes32","internalType":"bytes32"}],"outputs":[{"name":"value","type":"address","internalType":"address"}],"stateMutability":"view"},{"type":"function","name":"getConfigAsUint256","inputs":[{"name":"host","type":"address","internalType":"contract ISuperfluid"},{"name":"superToken","type":"address","internalType":"contract ISuperfluidToken"},{"name":"key","type":"bytes32","internalType":"bytes32"}],"outputs":[{"name":"period","type":"uint256","internalType":"uint256"}],"stateMutability":"view"},{"type":"function","name":"getPPPConfig","inputs":[{"name":"host","type":"address","internalType":"contract ISuperfluid"},{"name":"superToken","type":"address","internalType":"contract ISuperfluidToken"}],"outputs":[{"name":"liquidationPeriod","type":"uint256","internalType":"uint256"},{"name":"patricianPeriod","type":"uint256","internalType":"uint256"}],"stateMutability":"view"},{"type":"function","name":"getRewardAddress","inputs":[{"name":"host","type":"address","internalType":"contract ISuperfluid"},{"name":"superToken","type":"address","internalType":"contract ISuperfluidToken"}],"outputs":[{"name":"","type":"address","internalType":"address"}],"stateMutability":"view"},{"type":"function","name":"getSuperTokenMinimumDeposit","inputs":[{"name":"host","type":"address","internalType":"contract ISuperfluid"},{"name":"superToken","type":"address","internalType":"contract ISuperfluidToken"}],"outputs":[{"name":"value","type":"uint256","internalType":"uint256"}],"stateMutability":"view"},{"type":"function","name":"initialize","inputs":[{"name":"host","type":"address","internalType":"contract ISuperfluid"},{"name":"rewardAddress","type":"address","internalType":"address"},{"name":"liquidationPeriod","type":"uint256","internalType":"uint256"},{"name":"patricianPeriod","type":"uint256","internalType":"uint256"},{"name":"trustedForwarders","type":"address[]","internalType":"address[]"}],"outputs":[],"stateMutability":"nonpayable"},{"type":"function","name":"isAuthorizedAppFactory","inputs":[{"name":"host","type":"address","internalType":"contract ISuperfluid"},{"name":"factory","type":"address","internalType":"address"}],"outputs":[{"name":"","type":"bool","internalType":"bool"}],"stateMutability":"view"},{"type":"function","name":"isTrustedForwarder","inputs":[{"name":"host","type":"address","internalType":"contract ISuperfluid"},{"name":"superToken","type":"address","internalType":"contract ISuperfluidToken"},{"name":"forwarder","type":"address","internalType":"address"}],"outputs":[{"name":"","type":"bool","internalType":"bool"}],"stateMutability":"view"},{"type":"function","name":"owner","inputs":[],"outputs":[{"name":"","type":"address","internalType":"address"}],"stateMutability":"view"},{"type":"function","name":"registerAgreementClass","inputs":[{"name":"host","type":"address","internalType":"contract ISuperfluid"},{"name":"agreementClass","type":"address","internalType":"address"}],"outputs":[],"stateMutability":"nonpayable"},{"type":"function","name":"renounceOwnership","inputs":[],"outputs":[],"stateMutability":"nonpayable"},{"type":"function","name":"replaceGovernance","inputs":[{"name":"host","type":"address","internalType":"contract ISuperfluid"},{"name":"newGov","type":"address","internalType":"address"}],"outputs":[],"stateMutability":"nonpayable"},{"type":"function","name":"setAppRegistrationKey","inputs":[{"name":"host","type":"address","internalType":"contract ISuperfluid"},{"name":"deployer","type":"address","internalType":"address"},{"name":"registrationKey","type":"string","internalType":"string"},{"name":"expirationTs","type":"uint256","internalType":"uint256"}],"outputs":[],"stateMutability":"nonpayable"},{"type":"function","name":"setConfig","inputs":[{"name":"host","type":"address","internalType":"contract ISuperfluid"},{"name":"superToken","type":"address","internalType":"contract ISuperfluidToken"},{"name":"key","type":"bytes32","internalType":"bytes32"},{"name":"value","type":"address","internalType":"address"}],"outputs":[],"stateMutability":"nonpayable"},{"type":"function","name":"setConfig","inputs":[{"name":"host","type":"address","internalType":"contract ISuperfluid"},{"name":"superToken","type":"address","internalType":"contract ISuperfluidToken"},{"name":"key","type":"bytes32","internalType":"bytes32"},{"name":"value","type":"uint256","internalType":"uint256"}],"outputs":[],"stateMutability":"nonpayable"},{"type":"function","name":"setPPPConfig","inputs":[{"name":"host","type":"address","internalType":"contract ISuperfluid"},{"name":"superToken","type":"address","internalType":"contract ISuperfluidToken"},{"name":"liquidationPeriod","type":"uint256","internalType":"uint256"},{"name":"patricianPeriod","type":"uint256","internalType":"uint256"}],"outputs":[],"stateMutability":"nonpayable"},{"type":"function","name":"setRewardAddress","inputs":[{"name":"host","type":"address","internalType":"contract ISuperfluid"},{"name":"superToken","type":"address","internalType":"contract ISuperfluidToken"},{"name":"rewardAddress","type":"address","internalType":"address"}],"outputs":[],"stateMutability":"nonpayable"},{"type":"function","name":"setSuperTokenMinimumDeposit","inputs":[{"name":"host","type":"address","internalType":"contract ISuperfluid"},{"name":"superToken","type":"address","internalType":"contract ISuperfluidToken"},{"name":"value","type":"uint256","internalType":"uint256"}],"outputs":[],"stateMutability":"nonpayable"},{"type":"function","name":"transferOwnership","inputs":[{"name":"newOwner","type":"address","internalType":"address"}],"outputs":[],"stateMutability":"nonpayable"},{"type":"function","name":"unauthorizeAppFactory","inputs":[{"name":"host","type":"address","internalType":"contract ISuperfluid"},{"name":"factory","type":"address","internalType":"address"}],"outputs":[],"stateMutability":"nonpayable"},{"type":"function","name":"updateContracts","inputs":[{"name":"host","type":"address","internalType":"contract ISuperfluid"},{"name":"hostNewLogic","type":"address","internalType":"address"},{"name":"agreementClassNewLogics","type":"address[]","internalType":"address[]"},{"name":"superTokenFactoryNewLogic","type":"address","internalType":"address"},{"name":"poolBeaconNewLogic","type":"address","internalType":"address"}],"outputs":[],"stateMutability":"nonpayable"},{"type":"function","name":"verifyAppRegistrationKey","inputs":[{"name":"host","type":"address","internalType":"contract ISuperfluid"},{"name":"deployer","type":"address","internalType":"address"},{"name":"registrationKey","type":"string","internalType":"string"}],"outputs":[{"name":"validNow","type":"bool","internalType":"bool"},{"name":"expirationTs","type":"uint256","internalType":"uint256"}],"stateMutability":"view"},{"type":"event","name":"AppFactoryAuthorizationChanged","inputs":[{"name":"host","type":"address","indexed":true,"internalType":"contract ISuperfluid"},{"name":"factory","type":"address","indexed":true,"internalType":"address"},{"name":"authorized","type":"bool","indexed":false,"internalType":"bool"}],"anonymous":false},{"type":"event","name":"AppRegistrationKeyChanged","inputs":[{"name":"host","type":"address","indexed":true,"internalType":"contract ISuperfluid"},{"name":"deployer","type":"address","indexed":true,"internalType":"address"},{"name":"appRegistrationKey","type":"string","indexed":false,"internalType":"string"},{"name":"expirationTs","type":"uint256","indexed":false,"internalType":"uint256"}],"anonymous":false},{"type":"event","name":"CFAv1LiquidationPeriodChanged","inputs":[{"name":"host","type":"address","indexed":true,"internalType":"contract ISuperfluid"},{"name":"superToken","type":"address","indexed":true,"internalType":"contract ISuperfluidToken"},{"name":"isKeySet","type":"bool","indexed":false,"internalType":"bool"},{"name":"liquidationPeriod","type":"uint256","indexed":false,"internalType":"uint256"}],"anonymous":false},{"type":"event","name":"ConfigChanged","inputs":[{"name":"host","type":"address","indexed":true,"internalType":"contract ISuperfluid"},{"name":"superToken","type":"address","indexed":true,"internalType":"contract ISuperfluidToken"},{"name":"key","type":"bytes32","indexed":false,"internalType":"bytes32"},{"name":"isKeySet","type":"bool","indexed":false,"internalType":"bool"},{"name":"value","type":"uint256","indexed":false,"internalType":"uint256"}],"anonymous":false},{"type":"event","name":"OwnershipTransferred","inputs":[{"name":"previousOwner","type":"address","indexed":true,"internalType":"address"},{"name":"newOwner","type":"address","indexed":true,"internalType":"address"}],"anonymous":false},{"type":"event","name":"PPPConfigurationChanged","inputs":[{"name":"host","type":"address","indexed":true,"internalType":"contract ISuperfluid"},{"name":"superToken","type":"address","indexed":true,"internalType":"contract ISuperfluidToken"},{"name":"isKeySet","type":"bool","indexed":false,"internalType":"bool"},{"name":"liquidationPeriod","type":"uint256","indexed":false,"internalType":"uint256"},{"name":"patricianPeriod","type":"uint256","indexed":false,"internalType":"uint256"}],"anonymous":false},{"type":"event","name":"RewardAddressChanged","inputs":[{"name":"host","type":"address","indexed":true,"internalType":"contract ISuperfluid"},{"name":"superToken","type":"address","indexed":true,"internalType":"contract ISuperfluidToken"},{"name":"isKeySet","type":"bool","indexed":false,"internalType":"bool"},{"name":"rewardAddress","type":"address","indexed":false,"internalType":"address"}],"anonymous":false},{"type":"event","name":"SuperTokenMinimumDepositChanged","inputs":[{"name":"host","type":"address","indexed":true,"internalType":"contract ISuperfluid"},{"name":"superToken","type":"address","indexed":true,"internalType":"contract ISuperfluidToken"},{"name":"isKeySet","type":"bool","indexed":false,"internalType":"bool"},{"name":"minimumDeposit","type":"uint256","indexed":false,"internalType":"uint256"}],"anonymous":false},{"type":"event","name":"TrustedForwarderChanged","inputs":[{"name":"host","type":"address","indexed":true,"internalType":"contract ISuperfluid"},{"name":"superToken","type":"address","indexed":true,"internalType":"contract ISuperfluidToken"},{"name":"isKeySet","type":"bool","indexed":false,"internalType":"bool"},{"name":"forwarder","type":"address","indexed":false,"internalType":"address"},{"name":"enabled","type":"bool","indexed":false,"internalType":"bool"}],"anonymous":false},{"type":"error","name":"SF_GOV_INVALID_LIQUIDATION_OR_PATRICIAN_PERIOD","inputs":[]},{"type":"error","name":"SF_GOV_MUST_BE_CONTRACT","inputs":[]}],"bytecode":{"object":"0x6080806040523461005b5760008054336001600160a01b0319821681178355916001600160a01b03909116907f8be0079c531659141344cd1fd0a4f28419497f9722a3daafe3b4186f6b6457e09080a36124cb90816100618239f35b600080fdfe608080604052600436101561001357600080fd5b600090813560e01c90816286d55514611c7c5750806301a06b9714611b8c57806311cf00f114611b5c57806319df62ab14611ac05780632196447314611a61578063256b5173146119ce57806325c955c3146118ec57806332552908146117f657806342148deb1461172857806344864b25146116bd57806345228235146116065780635a90781814611249578063640b6cc9146111ac578063715018a61461115257806378707cb8146110d85780637dce4f8114610fe15780637f0558e414610fb057806380f70cba14610f945780638369a0f114610f09578063870299c014610e475780638a7ff2f714610d8a5780638abe04e914610d535780638b93b3f514610c565780638da5cb5b14610c2f5780638e12552f146109625780638ecbd87b146108b3578063948eda5e146107d3578063ab846f1a146106d8578063c9615a98146105fe578063cadf8f8514610573578063d099b6a014610450578063e447cc1d1461036a578063f047a2d914610322578063f2fde38b146102575763f79a8e63146101a157600080fd5b34610254576080366003190112610254576101ba611dc0565b60016101c4611dd6565b91604435606435916101d5816122ca565b838060a01b03809116941680856000805160206124768339815191526060604051868152886020820152876040820152a36040519461021386611e18565b8486526020860193845286528360205260408620906000526020526040600020908552602052604084209251151560ff801985541691161783555191015580f35b80fd5b503461025457602036600319011261025457610271611dc0565b61027961236f565b6001600160a01b039081169081156102ce57600054826bffffffffffffffffffffffff60a01b821617600055167f8be0079c531659141344cd1fd0a4f28419497f9722a3daafe3b4186f6b6457e0600080a380f35b60405162461bcd60e51b815260206004820152602660248201527f4f776e61626c653a206e6577206f776e657220697320746865207a65726f206160448201526564647265737360d01b6064820152608490fd5b50346102545760603660031901126102545760206001610361610343611dc0565b61034b611dd6565b61035b610356611dec565b6123c7565b9161219d565b14604051908152f35b503461025457604036600319011261025457610384611dc0565b61038c611dd6565b90610396816122ca565b60018060a01b038091169116907f14e12f219a4f9023456dc7832e10119ab768b8ccefc8cb79bc6de0419781eeeb60408051600080516020612436833981519152808252858560008051602061247683398151915260606020958b878201528b88820152a3600183519161040983611e18565b88835283830190898252878a52828552858a2089600052855285600020908a5284528489209251151560ff801985541691161783555191015585825191818352820152a380f35b50346102545760803660031901126102545761046a611dc0565b610472611dd6565b6044359167ffffffffffffffff831161056f576105637fa22916b55c84301b9ba61d6494b1860339c075b3518e6db6f496bdf2a13d6ffc916104ba6001953690600401611e9c565b90606435946104c98382612223565b956104d3836122ca565b878060a01b03809316968988600080516020612476833981519152606060405185815260209d8e820152866040820152a360016040519161051383611e18565b8183528a8301908482528a8d52828c5260408d20600080528c526040600020908d528b5260408c209251151560ff80198554169116178355519101556040519485946040865260408601906121e3565b9784015216940390a380f35b8380fd5b5034610254576040366003190112610254578061058e611dc0565b610596611dd6565b61059f826122ca565b6001600160a01b0391821691823b156105f957602484928360405195869485936315a024e160e01b85521660048401525af180156105ee576105de5750f35b6105e790611e4a565b6102545780f35b6040513d84823e3d90fd5b505050fd5b5034610254578061060e36611f75565b909361061d81969493966122ca565b61062882871461200a565b835b868110610635578480f35b6001600160a01b03821661065261064d838a88612027565b61204d565b61066061064d84878b612027565b823b156106d457604051630c56507560e01b81526001600160a01b039283166004820152911660248201529086908290604490829084905af19081156106c95786916106b1575b505060010161062a565b6106ba90611e4a565b6106c55784386106a7565b8480fd5b6040513d88823e3d90fd5b8780fd5b5034610254576060366003190112610254576106f2611dc0565b6106fa611dd6565b7f168da2dec91b2e06e30d49955479383e76f71ba185807a8a5b75e2ed563e1d276060610725611dec565b61072e816123c7565b610737866122ca565b60018060a01b0380809716951695604051908282526001928888600080516020612476833981519152886020968888820152886040820152a3836040519161077e83611e18565b818352848301908282528a60005282865260406000208c6000528652604060002090600052855260406000209251151560ff80198554169116178355519101556040519383855216908301526040820152a380f35b5034610254577fa22916b55c84301b9ba61d6494b1860339c075b3518e6db6f496bdf2a13d6ffc61056361080636611ef3565b61081581839593969496612223565b9461081f816122ca565b60018060a01b0380911694604051968088528887600080516020612476833981519152606060209b848d820152846040820152a360016040519161086283611e18565b8a8352898301908b8252898c52828b5260408c20600080528b526040600020908c528a5260408b209251151560ff8019855416911617835551910155876040519485946040865260408601906121e3565b5034610254576040366003190112610254576108cd611dc0565b6001600160a01b03806108de611dd6565b16916108e9816122ca565b167fc055c4a3853372c08a98805545379133f00f7261d956b9197729d67f37a82a53604080517feae305fa863b373417e615b1044222e2806cefc7788d169ce6748a443c3f6cc4808252858560008051602061247683398151915260606020958b878201528b88820152a3600183519161040983611e18565b50346102545760a03660031901126102545761097c611dc0565b610984611dd6565b9060443567ffffffffffffffff811161056f576109a5903690600401611f44565b6109b0929192611e02565b6001600160a01b0360843581811694919390859003610c2a578388976109d5846122ca565b1680610b88575b508387969216955b818110610ac8575050501680610a36575b50806109ff575050f35b813b15610a32578291602483926040519485938492632f89bf8960e01b845260048401525af180156105ee576105de5750f35b5050fd5b823b156105f9576040516354fbc49360e01b815260048101829052848160248183885af1908115610abd578591610aa9575b5050803b156105f9578380809260046040518094819363132075a760e31b83525af1610a95575b506109f5565b610a9e90611e4a565b610a32578238610a8f565b610ab290611e4a565b6105f9578338610a68565b6040513d87823e3d90fd5b84610ad761064d838587612027565b16873b15610b70576040519062d9d97560e31b825260048201528881602481838c5af1908115610b65578991610b74575b505084610b1961064d838587612027565b16803b15610b705788809160046040518094819363132075a760e31b83525af1908115610b65578991610b51575b50506001016109e4565b610b5a90611e4a565b6106d4578738610b47565b6040513d8b823e3d90fd5b8880fd5b610b7d90611e4a565b6106d4578738610b08565b848316803b15610b70578880916024604051809481936311a5465560e21b83528760048401525af1908115610b65578991610c16575b5050803b156106d45787809160046040518094819363132075a760e31b83525af1908115610c0b578891610bf3575b506109dc565b610bfc90611e4a565b610c07578638610bed565b8680fd5b6040513d8a823e3d90fd5b610c1f90611e4a565b6106d4578738610bbe565b600080fd5b5034610254578060031936011261025457546040516001600160a01b039091168152602090f35b503461025457604036600319011261025457610c70611dc0565b610c78611dd6565b90813b15610d41577f8bfde939e79b7e6c603d67aa576e5b75a3f370334b14a9b0e5e263190034d31d610caa836122f6565b92610cb4836122ca565b60018060a01b038093169260405191858352600195878660008051602061247683398151915260606020978b898201528b6040820152a38660405191610cf983611e18565b81835285830190828252888b5282875260408b206000805287526040600020908b52865260408a209251151560ff80198554169116178355519101556040519586521693a380f35b6040516380dddd7360e01b8152600490fd5b50346102545760403660031901126102545760206001610361610d74611dc0565b610d84610d7f611dd6565b6122f6565b90612139565b503461025457604036600319011261025457610da4611dc0565b610dac611dd6565b60018060a01b038092169081600052602092600184526040600020911660005282526040600020907feae305fa863b373417e615b1044222e2806cefc7788d169ce6748a443c3f6cc49182600052835260406000209060ff82541615610e1b575b836001830154604051908152f35b905060005260018252604060002060008052825260406000209060005281526001604060002083610e0d565b50346102545780610e5736611f75565b9093610e6681969493966122ca565b610e7182871461200a565b835b868110610e7e578480f35b6001600160a01b038216610e9661064d838a88612027565b610ea461064d84878b612027565b823b156106d457604051637d37067f60e11b81526001600160a01b039283166004820152911660248201529086908290604490829084905af19081156106c9578691610ef5575b5050600101610e73565b610efe90611e4a565b6106c5578438610eeb565b503461025457610f1836611fd5565b60018060a09493941b03809216806000526020936001855283604060002091166000528452604060002082600052845260406000209060ff82541615610f68575b50600101546040519216825250f35b905060005260018352604060002060008052835260406000209060005282526001604060002084610f59565b5034610254576020610fa861035b36611fd5565b604051908152f35b503461025457606036600319011261025457610fde610fcd611dc0565b610fd5611dd6565b60443591612061565b80f35b503461025457606036600319011261025457610ffb611dc0565b611003611dd6565b7f168da2dec91b2e06e30d49955479383e76f71ba185807a8a5b75e2ed563e1d27606061102e611dec565b611037816123c7565b611040866122ca565b60018060a01b0380809716951695604051918083528787600080516020612476833981519152876020968d888201528d6040820152a360016040519161108583611e18565b8a8352848301908b8252898c5282865260408c208b60005286526040600020908c52855260408b209251151560ff801985541691161783555191015560405192600184521690820152856040820152a380f35b5034610254576080366003190112610254576110f2611dc0565b60016110fc611dd6565b91604435611108611e02565b611111836122ca565b838060a01b03808092169316941680856000805160206124768339815191526060604051868152886020820152876040820152a36040519461021386611e18565b503461025457806003193601126102545761116b61236f565b600080546001600160a01b0319811682556001600160a01b03167f8be0079c531659141344cd1fd0a4f28419497f9722a3daafe3b4186f6b6457e08280a380f35b50346102545760016111bd36611fd5565b92916111c8816122ca565b828060a01b0380911691169283826000805160206124768339815191526060604051858152896020820152896040820152a36040519361120785611e18565b858552602085019286845286528360205260408620906000526020526040600020908552602052604084209251151560ff801985541691161783555191015580f35b50346102545760a036600319011261025457611263611dc0565b61126b611dd6565b9060843567ffffffffffffffff811161056f5761128c903690600401611f44565b9290916112a36001600160a01b038216151561200a565b60025460009086906112be6001600160a01b0382161561200a565b6001600160a01b0384166001600160a01b031982168117600255911693906112e79085176122ca565b604080516000805160206124368339815191528152600160208201526001600160a01b03838116928201929092528391858116908716179060008051602061247683398151915290606090a37f14e12f219a4f9023456dc7832e10119ab768b8ccefc8cb79bc6de0419781eeeb604080519561136287611e18565b60018088526001600160a01b039485166020808a018281529387169689169690961780885282875284882088805287528488206000805160206124368339815191528952875284882099518a5460ff191690151560ff908116919091178b559351998301999099558351918252948101949094529592a3606435604435118015906115f6575b80156115e6575b6115d45760009060643560443560201b17611409826122ca565b60016040519184600080516020612456833981519152938481528360208201528260408201526000805160206124768339815191526060858060a01b03881692a36040519261145784611e18565b82845260208401918252828060a01b0385168652826020526040862086805260205260408620908652602052604085209251151560ff80198554169116178355519101557f60a59221512cd8cbfb226200f7ba6f20dc4b38a3cf04993d17ea4e56d26aa186606060405192600184526044356020850152606435604085015260018060a01b031692a3835b8381106114ed578480f35b600254600191906000906001600160a01b03167f168da2dec91b2e06e30d49955479383e76f71ba185807a8a5b75e2ed563e1d27606061153161064d868b8b612027565b61153a816123c7565b611543856122ca565b8585600080516020612476833981519152856040518581528c60208201528c6040820152a3876040519161157683611e18565b818352602083019082825287895282602052604089208980526020526040892090895260205260408820925115158b60ff1985541691161783555191015560405190878252878060a01b03166020820152866040820152a3016114e2565b6040516370b8cc0560e11b8152600490fd5b5063ffffffff60643510156113ef565b5063ffffffff60443510156113e8565b5034610254576040366003190112610254576040611622611dc0565b61162a611dd6565b60018060a01b038092169081600052602092600184528460002091166000528252826000209060008051602061245683398151915291826000528352836000209060ff82541615611694575b506001915001549063ffffffff8351928181841c1684521690820152f35b905060005260018252826000206000805282528260002090600052815260018260002084611676565b503461025457604036600319011261025457806116d8611dc0565b6116e0611dd6565b6116e9826122ca565b6001600160a01b0391821691823b156105f95760248492836040519586948593631ca0c40360e21b85521660048401525af180156105ee576105de5750f35b503461025457604036600319011261025457611742611dc0565b60248260243567ffffffffffffffff81116117f257611765903690600401611f44565b9390611770826122ca565b6001600160a01b0391821690835b868110611789578480f35b61179761064d828985612027565b833b156117ee57604051637d37067f60e11b81529085166004820152600087820152858160448183885af19081156106c95786916117da575b505060010161177e565b6117e390611e4a565b6106c55784386117d0565b8580fd5b5080fd5b503461025457606036600319011261025457611810611dc0565b611818611dd6565b7f14e12f219a4f9023456dc7832e10119ab768b8ccefc8cb79bc6de0419781eeeb6040611843611dec565b61184c856122ca565b60018060a01b03808092169516931693815190600080516020612436833981519152808352868660008051602061247683398151915260606020966001888201528689820152a360018451916118a183611e18565b8183528483019084825288600052828652866000208a600052865286600020906000528552856000209251151560ff801985541691161783555191015582519160018352820152a380f35b503461025457604036600319011261025457611906611dc0565b61190e611dd6565b907f8bfde939e79b7e6c603d67aa576e5b75a3f370334b14a9b0e5e263190034d31d611939836122f6565b611942836122ca565b60018060a01b038093169260405191808352868560008051602061247683398151915260606020968488820152846040820152a360016040519161198583611e18565b88835284830190898252878a5282865260408a206000805286526040600020908a528552604089209251151560ff8019855416911617835551910155604051948686521693a380f35b5034610254576060366003190112610254576119e8611dc0565b816119f1611dd6565b916119fa611dec565b90611a04816122ca565b6001600160a01b0316803b15611a5d57604051630c56507560e01b81526001600160a01b039485166004820152919093166024820152918290604490829084905af180156105ee57611a54575080f35b610fde90611e4a565b8280fd5b503461025457611a7036611f75565b90929391611a7f82821461200a565b855b828110611a8c578680f35b80611aba611aa061064d600194868b612027565b611aab83878a612027565b3590848060a01b031687612061565b01611a81565b503461025457604036600319011261025457611ada611dc0565b6001611ae4611dd6565b92818060a01b0380931690818152602094838652846040832091168252855260408120600080516020612436833981519152908183528652604082209260ff84541615611b3a575b505050015416604051908152f35b6040935082528386528282208280528652828220908252855220388080611b2c565b5034610254576040611b7c610d84611b7336611ef3565b90929192612223565b8151904281101582526020820152f35b503461025457604036600319011261025457611ba6611dc0565b611bae611dd6565b90611bb8816122ca565b60018060a01b038091169116907f60a59221512cd8cbfb226200f7ba6f20dc4b38a3cf04993d17ea4e56d26aa18660606040516000805160206124568339815191528082528585600080516020612476833981519152856020958b878201528b6040820152a3600160405191611c2d83611e18565b88835283830190898252878a5282855260408a20898b52855260408a20908a528452604089209251151560ff80198554169116178355519101558560405191818352820152856040820152a380f35b9050346117f25760803660031901126117f257611c97611dc0565b90611ca0611dd6565b906044359060643590818311801590611db2575b8015611da4575b611d9557507f60a59221512cd8cbfb226200f7ba6f20dc4b38a3cf04993d17ea4e56d26aa186916060916020918181841b1796611cf7816122ca565b60018060a01b0380911696169660016040519189896000805160206124768339815191528960008051602061245683398151915296878152868b820152856040820152a360405192611d4884611e18565b828452868401918252898c5282875260408c208b8d52875260408c20908c52865260408b209251151560ff801985541691161783555191015560405192600184528301526040820152a380f35b6370b8cc0560e11b8152600490fd5b5063ffffffff821015611cbb565b5063ffffffff831015611cb4565b600435906001600160a01b0382168203610c2a57565b602435906001600160a01b0382168203610c2a57565b604435906001600160a01b0382168203610c2a57565b606435906001600160a01b0382168203610c2a57565b6040810190811067ffffffffffffffff821117611e3457604052565b634e487b7160e01b600052604160045260246000fd5b67ffffffffffffffff8111611e3457604052565b60c0810190811067ffffffffffffffff821117611e3457604052565b90601f8019910116810190811067ffffffffffffffff821117611e3457604052565b81601f82011215610c2a5780359067ffffffffffffffff8211611e345760405192611ed1601f8401601f191660200185611e7a565b82845260208383010111610c2a57816000926020809301838601378301015290565b6060600319820112610c2a576001600160a01b03916004358381168103610c2a57926024359081168103610c2a57916044359067ffffffffffffffff8211610c2a57611f4191600401611e9c565b90565b9181601f84011215610c2a5782359167ffffffffffffffff8311610c2a576020808501948460051b010111610c2a57565b906060600319830112610c2a576004356001600160a01b0381168103610c2a579167ffffffffffffffff91602435838111610c2a5782611fb791600401611f44565b93909392604435918211610c2a57611fd191600401611f44565b9091565b6060906003190112610c2a576001600160a01b03906004358281168103610c2a57916024359081168103610c2a579060443590565b1561201157565b634e487b7160e01b600052600160045260246000fd5b91908110156120375760051b0190565b634e487b7160e01b600052603260045260246000fd5b356001600160a01b0381168103610c2a5790565b7fc055c4a3853372c08a98805545379133f00f7261d956b9197729d67f37a82a539061208c816122ca565b60018060a01b038091169216926040908151907feae305fa863b373417e615b1044222e2806cefc7788d169ce6748a443c3f6cc4808352868660008051602061247683398151915260606020966001888201528689820152a360018451916120f383611e18565b81835285858401918583526000908a82528488528282208c835288528282209082528752209251151560ff801985541691161783555191015582519160018352820152a3565b90600191828060a01b0316906000828152602091848352604092838320838052815283832082845281528383209460ff8654161561217c575b5050505050015490565b83528581528383208380528152838320918352522090503880808080612172565b60019291838060a01b038092169260009184835260209086825260409485852091168452815283832082845281528383209460ff8654161561217c575050505050015490565b919082519283825260005b84811061220f575050826000602080949584010152601f8019910116010190565b6020818301810151848301820152016121ee565b906122c46122b691604051928391602083019560608752604160808501527f6f72672e7375706572666c7569642d66696e616e63652e7375706572666c756960a08501527f642e61707057686974654c697374696e672e726567697374726174696f6e4b6560c0850152607960f81b60e085015260018060a01b0316604084015260e060608401526101008301906121e3565b03601f198101835282611e7a565b51902090565b6002546122f4916001600160a01b03916122e99183169083161461200a565b60005416331461200a565b565b604051602081019160408352603960608301527f6f72672e7375706572666c7569642d66696e616e63652e7375706572666c756960808301527f642e61707057686974654c697374696e672e666163746f72790000000000000060a083015260018060a01b0316604082015260a081526122c481611e5e565b6000546001600160a01b0316330361238357565b606460405162461bcd60e51b815260206004820152602060248201527f4f776e61626c653a2063616c6c6572206973206e6f7420746865206f776e65726044820152fd5b604051602081019160408352603260608301527f6f72672e7375706572666c7569642d66696e616e63652e7375706572666c756960808301527132173a393ab9ba32b22337b93bb0b93232b960711b60a083015260018060a01b0316604082015260a081526122c481611e5e56fe9f60ae461adf056670e03ae602566409933242392cb06744f5747c9f38b05d09e420d96e81cb4a6b2abb2366c4f93312d4e2ae878a7d4b22e73472fdad891f7833afe19ae6902b933890ff48190fabdc4cf7f5ab499be9c4d9d98e3b4562e390a264697066735822122089e40779e4fe8dce676ff14b8694cabcc1a535a74900d72f6c49810449223dc364736f6c63430008170033","linkReferences":{}},"methodIdentifiers":{"authorizeAppFactory(address,address)":"8b93b3f5","batchChangeSuperTokenAdmin(address,address[],address[])":"c9615a98","batchUpdateSuperTokenLogic(address,address[])":"42148deb","batchUpdateSuperTokenLogic(address,address[],address[])":"870299c0","batchUpdateSuperTokenMinimumDeposit(address,address[],uint256[])":"21964473","changeSuperTokenAdmin(address,address,address)":"256b5173","clearAppRegistrationKey(address,address,string)":"948eda5e","clearConfig(address,address,bytes32)":"640b6cc9","clearPPPConfig(address,address)":"01a06b97","clearRewardAddress(address,address)":"e447cc1d","clearSuperTokenMinimumDeposit(address,address)":"8ecbd87b","disableTrustedForwarder(address,address,address)":"7dce4f81","enableTrustedForwarder(address,address,address)":"ab846f1a","getConfigAsAddress(address,address,bytes32)":"8369a0f1","getConfigAsUint256(address,address,bytes32)":"80f70cba","getPPPConfig(address,address)":"45228235","getRewardAddress(address,address)":"19df62ab","getSuperTokenMinimumDeposit(address,address)":"8a7ff2f7","initialize(address,address,uint256,uint256,address[])":"5a907818","isAuthorizedAppFactory(address,address)":"8abe04e9","isTrustedForwarder(address,address,address)":"f047a2d9","owner()":"8da5cb5b","registerAgreementClass(address,address)":"cadf8f85","renounceOwnership()":"715018a6","replaceGovernance(address,address)":"44864b25","setAppRegistrationKey(address,address,string,uint256)":"d099b6a0","setConfig(address,address,bytes32,address)":"78707cb8","setConfig(address,address,bytes32,uint256)":"f79a8e63","setPPPConfig(address,address,uint256,uint256)":"0086d555","setRewardAddress(address,address,address)":"32552908","setSuperTokenMinimumDeposit(address,address,uint256)":"7f0558e4","transferOwnership(address)":"f2fde38b","unauthorizeAppFactory(address,address)":"25c955c3","updateContracts(address,address,address[],address,address)":"8e12552f","verifyAppRegistrationKey(address,address,string)":"11cf00f1"},"id":129}