{"abi":[{"type":"fallback","stateMutability":"payable"},{"type":"receive","stateMutability":"payable"},{"type":"function","name":"initializeProxy","inputs":[{"name":"initialAddress","type":"address","internalType":"address"}],"outputs":[],"stateMutability":"nonpayable"}],"bytecode":{"object":"0x60808060405234610016576101a0908161001c8239f35b600080fdfe60806040526004361015610018575b3661012957610129565b6000803560e01c634a0687ef1461002f575061000e565b34610126576020366003190112610126576004356001600160a01b0380821680830361012257156100e4577f360894a13ba1a3210667c828492db98dca3e2076cc3735a920a3ca505d382bbc54166100a6577f360894a13ba1a3210667c828492db98dca3e2076cc3735a920a3ca505d382bbc5580f35b62461bcd60e51b6080526020608452601e60a4527f5555505350726f78793a20616c726561647920696e697469616c697a6564000060c45260646080fd5b62461bcd60e51b6080526020608452601760a4527f5555505350726f78793a207a65726f206164647265737300000000000000000060c45260646080fd5b8380fd5b80fd5b7f360894a13ba1a3210667c828492db98dca3e2076cc3735a920a3ca505d382bbc546000808092368280378136915af43d82803e15610166573d90f35b3d90fdfea264697066735822122089e7b7b2a0eb2d44bff951d65e8c8b61c6602fc31e0dcbfa4b8bbd501cc89b7b64736f6c63430008170033","linkReferences":{}},"methodIdentifiers":{"initializeProxy(address)":"4a0687ef"},"id":116}