{"abi":[{"type":"constructor","inputs":[{"name":"name","type":"string","internalType":"string"},{"name":"symbol","type":"string","internalType":"string"},{"name":"initDecimals","type":"uint8","internalType":"uint8"},{"name":"mintLimit","type":"uint256","internalType":"uint256"}],"stateMutability":"nonpayable"},{"type":"function","name":"DOMAIN_SEPARATOR","inputs":[],"outputs":[{"name":"","type":"bytes32","internalType":"bytes32"}],"stateMutability":"view"},{"type":"function","name":"allowance","inputs":[{"name":"owner","type":"address","internalType":"address"},{"name":"spender","type":"address","internalType":"address"}],"outputs":[{"name":"","type":"uint256","internalType":"uint256"}],"stateMutability":"view"},{"type":"function","name":"approve","inputs":[{"name":"spender","type":"address","internalType":"address"},{"name":"amount","type":"uint256","internalType":"uint256"}],"outputs":[{"name":"","type":"bool","internalType":"bool"}],"stateMutability":"nonpayable"},{"type":"function","name":"balanceOf","inputs":[{"name":"account","type":"address","internalType":"address"}],"outputs":[{"name":"","type":"uint256","internalType":"uint256"}],"stateMutability":"view"},{"type":"function","name":"decimals","inputs":[],"outputs":[{"name":"","type":"uint8","internalType":"uint8"}],"stateMutability":"view"},{"type":"function","name":"decreaseAllowance","inputs":[{"name":"spender","type":"address","internalType":"address"},{"name":"subtractedValue","type":"uint256","internalType":"uint256"}],"outputs":[{"name":"","type":"bool","internalType":"bool"}],"stateMutability":"nonpayable"},{"type":"function","name":"eip712Domain","inputs":[],"outputs":[{"name":"fields","type":"bytes1","internalType":"bytes1"},{"name":"name","type":"string","internalType":"string"},{"name":"version","type":"string","internalType":"string"},{"name":"chainId","type":"uint256","internalType":"uint256"},{"name":"verifyingContract","type":"address","internalType":"address"},{"name":"salt","type":"bytes32","internalType":"bytes32"},{"name":"extensions","type":"uint256[]","internalType":"uint256[]"}],"stateMutability":"view"},{"type":"function","name":"increaseAllowance","inputs":[{"name":"spender","type":"address","internalType":"address"},{"name":"addedValue","type":"uint256","internalType":"uint256"}],"outputs":[{"name":"","type":"bool","internalType":"bool"}],"stateMutability":"nonpayable"},{"type":"function","name":"mint","inputs":[{"name":"account","type":"address","internalType":"address"},{"name":"amount","type":"uint256","internalType":"uint256"}],"outputs":[{"name":"","type":"bool","internalType":"bool"}],"stateMutability":"nonpayable"},{"type":"function","name":"name","inputs":[],"outputs":[{"name":"","type":"string","internalType":"string"}],"stateMutability":"view"},{"type":"function","name":"nonces","inputs":[{"name":"owner","type":"address","internalType":"address"}],"outputs":[{"name":"","type":"uint256","internalType":"uint256"}],"stateMutability":"view"},{"type":"function","name":"permit","inputs":[{"name":"owner","type":"address","internalType":"address"},{"name":"spender","type":"address","internalType":"address"},{"name":"value","type":"uint256","internalType":"uint256"},{"name":"deadline","type":"uint256","internalType":"uint256"},{"name":"v","type":"uint8","internalType":"uint8"},{"name":"r","type":"bytes32","internalType":"bytes32"},{"name":"s","type":"bytes32","internalType":"bytes32"}],"outputs":[],"stateMutability":"nonpayable"},{"type":"function","name":"symbol","inputs":[],"outputs":[{"name":"","type":"string","internalType":"string"}],"stateMutability":"view"},{"type":"function","name":"totalSupply","inputs":[],"outputs":[{"name":"","type":"uint256","internalType":"uint256"}],"stateMutability":"view"},{"type":"function","name":"transfer","inputs":[{"name":"to","type":"address","internalType":"address"},{"name":"amount","type":"uint256","internalType":"uint256"}],"outputs":[{"name":"","type":"bool","internalType":"bool"}],"stateMutability":"nonpayable"},{"type":"function","name":"transferFrom","inputs":[{"name":"from","type":"address","internalType":"address"},{"name":"to","type":"address","internalType":"address"},{"name":"amount","type":"uint256","internalType":"uint256"}],"outputs":[{"name":"","type":"bool","internalType":"bool"}],"stateMutability":"nonpayable"},{"type":"event","name":"Approval","inputs":[{"name":"owner","type":"address","indexed":true,"internalType":"address"},{"name":"spender","type":"address","indexed":true,"internalType":"address"},{"name":"value","type":"uint256","indexed":false,"internalType":"uint256"}],"anonymous":false},{"type":"event","name":"EIP712DomainChanged","inputs":[],"anonymous":false},{"type":"event","name":"Transfer","inputs":[{"name":"from","type":"address","indexed":true,"internalType":"address"},{"name":"to","type":"address","indexed":true,"internalType":"address"},{"name":"value","type":"uint256","indexed":false,"internalType":"uint256"}],"anonymous":false},{"type":"error","name":"InvalidShortString","inputs":[]},{"type":"error","name":"StringTooLong","inputs":[{"name":"str","type":"string","internalType":"string"}]}],"bytecode":{"object":"0x610180604081815234620004505762001a0a803803809162000022828662000455565b84398201608083820312620004505782516001600160401b039290838111620004505782620000539186016200049e565b9060209283860151908582116200045057620000719187016200049e565b94818101519060ff821680920362000450576060015193825190838201828110888211176200035b57845260019384835281830194603160f81b865286518981116200035b5760038054918383811c9316801562000445575b868410146200042f57601f92838111620003e4575b5080868482116001146200037d5760009162000371575b5060001982841b1c191690841b1781555b8b51918b83116200035b5760049c8d548581811c9116801562000350575b888210146200033b578e838211620002f0575b50508d8792851160011462000285575093839491849260009562000279575b50501b92600019911b1c19161789555b6200017286620004f9565b9461012095865262000184846200069e565b96610140978852838151910120938460e0525190209861010099808b524660a0528251938401947f8b73c3c69bb8fe3d512ecc4cf759cc79239f7b179b0ffacaa9a75d522b39400f86528385015260608401524660808401523060a084015260a0835260c0830198838a10908a11176200026457508790525190206080523060c05260ff1960095416176009556101609283526112149485620007f6863960805185610d7f015260a05185610e4b015260c05185610d49015260e05185610dce01525184610df4015251836104be015251826104e8015251816106560152f35b604190634e487b7160e01b6000525260246000fd5b01519350388062000157565b929190601f1985169360005284886000209460005b8a89838310620002d85750505010620002bd575b50505050811b01895562000167565b01519060f884600019921b161c1916905538808080620002ae565b8686015189559097019694850194889350016200029a565b600052876000208380870160051c8201928a881062000331575b0160051c019086905b828110620003245750508e62000138565b6000815501869062000313565b925081926200030a565b60228f634e487b7160e01b6000525260246000fd5b90607f169062000125565b634e487b7160e01b600052604160045260246000fd5b90508a015138620000f6565b60008481528881208794509190601f198416908a8f5b838310620003cc575050508311620003b3575b5050811b01815562000107565b8c015160001983861b60f8161c191690553880620003a6565b840151855589969094019392830192018a8f62000393565b82600052866000208480840160051c82019289851062000425575b0160051c019085905b82811062000418575050620000df565b6000815501859062000408565b92508192620003ff565b634e487b7160e01b600052602260045260246000fd5b92607f1692620000ca565b600080fd5b601f909101601f19168101906001600160401b038211908210176200035b57604052565b60005b8381106200048d5750506000910152565b81810151838201526020016200047c565b81601f82011215620004505780516001600160401b0381116200035b5760405192620004d5601f8301601f19166020018562000455565b818452602082840101116200045057620004f6916020808501910162000479565b90565b8051602091908281101562000579575090601f8251116200053757808251920151908083106200052857501790565b82600019910360031b1b161790565b6044906200056b9260405193849263305a27a960e01b84528060048501528251928391826024870152868601910162000479565b601f01601f19168101030190fd5b6001600160401b0381116200035b576005928354926001938481811c9116801562000693575b838210146200042f57601f81116200065c575b5081601f8411600114620005f25750928293918392600094620005e6575b50501b916000199060031b1c191617905560ff90565b015192503880620005d0565b919083601f1981168760005284600020946000905b8883831062000641575050501062000627575b505050811b01905560ff90565b015160001960f88460031b161c191690553880806200061a565b85870151885590960195948501948793509081019062000607565b8560005284601f846000209201871c820191601f8601881c015b82811062000686575050620005b2565b6000815501859062000676565b90607f16906200059f565b805160209081811015620006cb5750601f8251116200053757808251920151908083106200052857501790565b906001600160401b0382116200035b57600654926001938481811c91168015620007ea575b838210146200042f57601f8111620007b0575b5081601f841160011462000744575092829391839260009462000738575b50501b916000199060031b1c19161760065560ff90565b01519250388062000721565b919083601f198116600660005284600020946000905b888383106200079557505050106200077b575b505050811b0160065560ff90565b015160001960f88460031b161c191690553880806200076d565b8587015188559096019594850194879350908101906200075a565b600660005284601f84600020920160051c820191601f860160051c015b828110620007dd57505062000703565b60008155018590620007cd565b90607f1690620006f056fe608060408181526004918236101561001657600080fd5b600092833560e01c91826306fdde03146108dc57508163095ea7b3146108b257816318160ddd1461089357816323b872dd146107c9578163313ce567146107a75781633644e51514610783578163395093511461073357816340c10f191461063557816370a08231146105fe5781637ecebe00146105c657816384b0196e146104a657816395d89b41146103b2578163a457c2d71461030a578163a9059cbb146102d9578163d505accf14610120575063dd62ed3e146100d557600080fd5b3461011c578060031936011261011c57806020926100f16109f4565b6100f9610a0f565b6001600160a01b0391821683526001865283832091168252845220549051908152f35b5080fd5b8391503461011c5760e036600319011261011c5761013c6109f4565b610144610a0f565b906044359260643560843560ff811681036102d5578142116102925760018060a01b0390818516928389526007602052898920908154916001830190558a519060208201927f6e71edae12b1b97f4d1f60370fef10105fa2faae0126114a169c64845d6126c98452868d840152858a1660608401528a608084015260a083015260c082015260c0815260e0810181811067ffffffffffffffff82111761027f578b525190206102279161021f916101f9610d46565b908c519161190160f01b83526002830152602282015260c43591604260a4359220611035565b9190916110c4565b160361023c5750610239939450610ad6565b80f35b606490602087519162461bcd60e51b8352820152601e60248201527f45524332305065726d69743a20696e76616c6964207369676e617475726500006044820152fd5b634e487b7160e01b8b526041875260248bfd5b875162461bcd60e51b8152602081850152601d60248201527f45524332305065726d69743a206578706972656420646561646c696e650000006044820152606490fd5b8680fd5b50503461011c578060031936011261011c576020906103036102f96109f4565b6024359033610bd8565b5160018152f35b905082346103af57826003193601126103af576103256109f4565b918360243592338152600160205281812060018060a01b038616825260205220549082821061035e576020856103038585038733610ad6565b608490602086519162461bcd60e51b8352820152602560248201527f45524332303a2064656372656173656420616c6c6f77616e63652062656c6f77604482015264207a65726f60d81b6064820152fd5b80fd5b919050346104a257826003193601126104a25780518381949084546103d681610a25565b918285526020966001928860018216918260001461047857505060011461041d575b85886104198961040a848a0385610a91565b519282849384528301906109b4565b0390f35b815286935091907f8a35acfbc15ff81a39ae7d344fd709f28e8600b4aa8c65c6b64bfe7fe36bd19b5b828410610460575050508201018161040a610419386103f8565b8054848a018601528895508794909301928101610446565b60ff19168882015294151560051b8701909401945085935061040a925061041991503890506103f8565b8280fd5b919050346104a257826003193601126104a2576104e27f0000000000000000000000000000000000000000000000000000000000000000610e71565b9261050c7f0000000000000000000000000000000000000000000000000000000000000000610f75565b90825192602092602085019585871067ffffffffffffffff8811176105b3575092602061056983889661055c998b9996528686528151998a99600f60f81b8b5260e0868c015260e08b01906109b4565b91898303908a01526109b4565b924660608801523060808801528460a088015286840360c088015251928381520193925b82811061059c57505050500390f35b83518552869550938101939281019260010161058d565b634e487b7160e01b845260419052602483fd5b50503461011c57602036600319011261011c5760209181906001600160a01b036105ee6109f4565b1681526007845220549051908152f35b50503461011c57602036600319011261011c5760209181906001600160a01b036106266109f4565b16815280845220549051908152f35b8284346103af57816003193601126103af5761064f6109f4565b90602435917f00000000000000000000000000000000000000000000000000000000000000008311610720576001600160a01b03169182156106dd576020809550816106be7fddf252ad1be2c89b69c2b068fc378daa952ba7f163c4a11628f55a4df523b3ef93600254610ab3565b6002558484528382528584208181540190558551908152a35160018152f35b835162461bcd60e51b8152602081870152601f60248201527f45524332303a206d696e7420746f20746865207a65726f2061646472657373006044820152606490fd5b634e487b7160e01b825260018552602482fd5b50503461011c578060031936011261011c5761030360209261077c6107566109f4565b338352600186528483206001600160a01b03821684528652918490205460243590610ab3565b9033610ad6565b50503461011c578160031936011261011c576020906107a0610d46565b9051908152f35b50503461011c578160031936011261011c5760209060ff600954169051908152f35b8391503461011c57606036600319011261011c576107e56109f4565b6107ed610a0f565b91846044359460018060a01b038416815260016020528181203382526020522054906000198203610827575b602086610303878787610bd8565b84821061085057509183916108456020969561030395033383610ad6565b919394819350610819565b606490602087519162461bcd60e51b8352820152601d60248201527f45524332303a20696e73756666696369656e7420616c6c6f77616e63650000006044820152fd5b50503461011c578160031936011261011c576020906002549051908152f35b50503461011c578060031936011261011c576020906103036108d26109f4565b6024359033610ad6565b84843461011c578160031936011261011c5782826003546108fc81610a25565b908184526020956001918760018216918260001461098d575050600114610931575b505050610419929161040a910385610a91565b9190869350600383527fc2575a0e9e593c00f959f8c92f12db2869c3395a3b0502d05e2516446f71f85b5b828410610975575050508201018161040a61041961091e565b8054848a01860152889550879490930192810161095c565b60ff19168782015293151560051b8601909301935084925061040a9150610419905061091e565b919082519283825260005b8481106109e0575050826000602080949584010152601f8019910116010190565b6020818301810151848301820152016109bf565b600435906001600160a01b0382168203610a0a57565b600080fd5b602435906001600160a01b0382168203610a0a57565b90600182811c92168015610a55575b6020831014610a3f57565b634e487b7160e01b600052602260045260246000fd5b91607f1691610a34565b6040810190811067ffffffffffffffff821117610a7b57604052565b634e487b7160e01b600052604160045260246000fd5b90601f8019910116810190811067ffffffffffffffff821117610a7b57604052565b91908201809211610ac057565b634e487b7160e01b600052601160045260246000fd5b6001600160a01b03908116918215610b875716918215610b375760207f8c5be1e5ebec7d5bd14f71427d1e84f3dd0314c0f7b2291e5b200ac8c7c3b925918360005260018252604060002085600052825280604060002055604051908152a3565b60405162461bcd60e51b815260206004820152602260248201527f45524332303a20617070726f766520746f20746865207a65726f206164647265604482015261737360f01b6064820152608490fd5b60405162461bcd60e51b8152602060048201526024808201527f45524332303a20617070726f76652066726f6d20746865207a65726f206164646044820152637265737360e01b6064820152608490fd5b6001600160a01b03908116918215610cf35716918215610ca257600082815280602052604081205491808310610c4e57604082827fddf252ad1be2c89b69c2b068fc378daa952ba7f163c4a11628f55a4df523b3ef958760209652828652038282205586815220818154019055604051908152a3565b60405162461bcd60e51b815260206004820152602660248201527f45524332303a207472616e7366657220616d6f756e7420657863656564732062604482015265616c616e636560d01b6064820152608490fd5b60405162461bcd60e51b815260206004820152602360248201527f45524332303a207472616e7366657220746f20746865207a65726f206164647260448201526265737360e81b6064820152608490fd5b60405162461bcd60e51b815260206004820152602560248201527f45524332303a207472616e736665722066726f6d20746865207a65726f206164604482015264647265737360d81b6064820152608490fd5b307f00000000000000000000000000000000000000000000000000000000000000006001600160a01b03161480610e48575b15610da1577f000000000000000000000000000000000000000000000000000000000000000090565b60405160208101907f8b73c3c69bb8fe3d512ecc4cf759cc79239f7b179b0ffacaa9a75d522b39400f82527f000000000000000000000000000000000000000000000000000000000000000060408201527f000000000000000000000000000000000000000000000000000000000000000060608201524660808201523060a082015260a0815260c0810181811067ffffffffffffffff821117610a7b5760405251902090565b507f00000000000000000000000000000000000000000000000000000000000000004614610d78565b60ff8114610eaf5760ff811690601f8211610e9d5760405191610e9383610a5f565b8252602082015290565b604051632cd44ac360e21b8152600490fd5b50604051600554816000610ec283610a25565b80835292602090600190818116908115610f515750600114610ef0575b5050610eed92500382610a91565b90565b91509260056000527f036b6384b5eca791c62761152d0c79bb0604c104a5fb6f4eb0703f3154bb3db0936000925b828410610f395750610eed9450505081016020013880610edf565b85548785018301529485019486945092810192610f1e565b91505060209250610eed94915060ff191682840152151560051b8201013880610edf565b60ff8114610f975760ff811690601f8211610e9d5760405191610e9383610a5f565b50604051600654816000610faa83610a25565b80835292602090600190818116908115610f515750600114610fd4575050610eed92500382610a91565b91509260066000527ff652222313e28459528d920b65115c16c04f3efc82aaedc97be59f3f377c0d3f936000925b82841061101d5750610eed9450505081016020013880610edf565b85548785018301529485019486945092810192611002565b9291907f7fffffffffffffffffffffffffffffff5d576e7357a4501ddfe92f46681b20a083116110b85791608094939160ff602094604051948552168484015260408301526060820152600093849182805260015afa156110ab5781516001600160a01b038116156110a5579190565b50600190565b50604051903d90823e3d90fd5b50505050600090600390565b60058110156111c857806110d55750565b600181036111225760405162461bcd60e51b815260206004820152601860248201527f45434453413a20696e76616c6964207369676e617475726500000000000000006044820152606490fd5b6002810361116f5760405162461bcd60e51b815260206004820152601f60248201527f45434453413a20696e76616c6964207369676e6174757265206c656e677468006044820152606490fd5b60031461117857565b60405162461bcd60e51b815260206004820152602260248201527f45434453413a20696e76616c6964207369676e6174757265202773272076616c604482015261756560f01b6064820152608490fd5b634e487b7160e01b600052602160045260246000fdfea2646970667358221220d203c0262e57682b3c59c9395d7003449e2e5c29e340f2b7e74ca9ed4c2a4b3664736f6c63430008170033","linkReferences":{}},"methodIdentifiers":{"DOMAIN_SEPARATOR()":"3644e515","allowance(address,address)":"dd62ed3e","approve(address,uint256)":"095ea7b3","balanceOf(address)":"70a08231","decimals()":"313ce567","decreaseAllowance(address,uint256)":"a457c2d7","eip712Domain()":"84b0196e","increaseAllowance(address,uint256)":"39509351","mint(address,uint256)":"40c10f19","name()":"06fdde03","nonces(address)":"7ecebe00","permit(address,address,uint256,uint256,uint8,bytes32,bytes32)":"d505accf","symbol()":"95d89b41","totalSupply()":"18160ddd","transfer(address,uint256)":"a9059cbb","transferFrom(address,address,uint256)":"23b872dd"},"id":131}