{"abi":[{"type":"constructor","inputs":[{"name":"host","type":"address","internalType":"contract ISuperfluid"}],"stateMutability":"nonpayable"},{"type":"function","name":"createFlow","inputs":[{"name":"token","type":"address","internalType":"contract ISuperToken"},{"name":"sender","type":"address","internalType":"address"},{"name":"receiver","type":"address","internalType":"address"},{"name":"flowrate","type":"int96","internalType":"int96"},{"name":"userData","type":"bytes","internalType":"bytes"}],"outputs":[{"name":"","type":"bool","internalType":"bool"}],"stateMutability":"nonpayable"},{"type":"function","name":"deleteFlow","inputs":[{"name":"token","type":"address","internalType":"contract ISuperToken"},{"name":"sender","type":"address","internalType":"address"},{"name":"receiver","type":"address","internalType":"address"},{"name":"userData","type":"bytes","internalType":"bytes"}],"outputs":[{"name":"","type":"bool","internalType":"bool"}],"stateMutability":"nonpayable"},{"type":"function","name":"getAccountFlowInfo","inputs":[{"name":"token","type":"address","internalType":"contract ISuperToken"},{"name":"account","type":"address","internalType":"address"}],"outputs":[{"name":"lastUpdated","type":"uint256","internalType":"uint256"},{"name":"flowrate","type":"int96","internalType":"int96"},{"name":"deposit","type":"uint256","internalType":"uint256"},{"name":"owedDeposit","type":"uint256","internalType":"uint256"}],"stateMutability":"view"},{"type":"function","name":"getAccountFlowrate","inputs":[{"name":"token","type":"address","internalType":"contract ISuperToken"},{"name":"account","type":"address","internalType":"address"}],"outputs":[{"name":"flowrate","type":"int96","internalType":"int96"}],"stateMutability":"view"},{"type":"function","name":"getBufferAmountByFlowrate","inputs":[{"name":"token","type":"address","internalType":"contract ISuperToken"},{"name":"flowrate","type":"int96","internalType":"int96"}],"outputs":[{"name":"bufferAmount","type":"uint256","internalType":"uint256"}],"stateMutability":"view"},{"type":"function","name":"getFlowInfo","inputs":[{"name":"token","type":"address","internalType":"contract ISuperToken"},{"name":"sender","type":"address","internalType":"address"},{"name":"receiver","type":"address","internalType":"address"}],"outputs":[{"name":"lastUpdated","type":"uint256","internalType":"uint256"},{"name":"flowrate","type":"int96","internalType":"int96"},{"name":"deposit","type":"uint256","internalType":"uint256"},{"name":"owedDeposit","type":"uint256","internalType":"uint256"}],"stateMutability":"view"},{"type":"function","name":"getFlowOperatorPermissions","inputs":[{"name":"token","type":"address","internalType":"contract ISuperToken"},{"name":"sender","type":"address","internalType":"address"},{"name":"flowOperator","type":"address","internalType":"address"}],"outputs":[{"name":"permissions","type":"uint8","internalType":"uint8"},{"name":"flowrateAllowance","type":"int96","internalType":"int96"}],"stateMutability":"view"},{"type":"function","name":"getFlowrate","inputs":[{"name":"token","type":"address","internalType":"contract ISuperToken"},{"name":"sender","type":"address","internalType":"address"},{"name":"receiver","type":"address","internalType":"address"}],"outputs":[{"name":"flowrate","type":"int96","internalType":"int96"}],"stateMutability":"view"},{"type":"function","name":"grantPermissions","inputs":[{"name":"token","type":"address","internalType":"contract ISuperToken"},{"name":"flowOperator","type":"address","internalType":"address"}],"outputs":[{"name":"","type":"bool","internalType":"bool"}],"stateMutability":"nonpayable"},{"type":"function","name":"revokePermissions","inputs":[{"name":"token","type":"address","internalType":"contract ISuperToken"},{"name":"flowOperator","type":"address","internalType":"address"}],"outputs":[{"name":"","type":"bool","internalType":"bool"}],"stateMutability":"nonpayable"},{"type":"function","name":"setFlowrate","inputs":[{"name":"token","type":"address","internalType":"contract ISuperToken"},{"name":"receiver","type":"address","internalType":"address"},{"name":"flowrate","type":"int96","internalType":"int96"}],"outputs":[{"name":"","type":"bool","internalType":"bool"}],"stateMutability":"nonpayable"},{"type":"function","name":"setFlowrateFrom","inputs":[{"name":"token","type":"address","internalType":"contract ISuperToken"},{"name":"sender","type":"address","internalType":"address"},{"name":"receiver","type":"address","internalType":"address"},{"name":"flowrate","type":"int96","internalType":"int96"}],"outputs":[{"name":"","type":"bool","internalType":"bool"}],"stateMutability":"nonpayable"},{"type":"function","name":"updateFlow","inputs":[{"name":"token","type":"address","internalType":"contract ISuperToken"},{"name":"sender","type":"address","internalType":"address"},{"name":"receiver","type":"address","internalType":"address"},{"name":"flowrate","type":"int96","internalType":"int96"},{"name":"userData","type":"bytes","internalType":"bytes"}],"outputs":[{"name":"","type":"bool","internalType":"bool"}],"stateMutability":"nonpayable"},{"type":"function","name":"updateFlowOperatorPermissions","inputs":[{"name":"token","type":"address","internalType":"contract ISuperToken"},{"name":"flowOperator","type":"address","internalType":"address"},{"name":"permissions","type":"uint8","internalType":"uint8"},{"name":"flowrateAllowance","type":"int96","internalType":"int96"}],"outputs":[{"name":"","type":"bool","internalType":"bool"}],"stateMutability":"nonpayable"},{"type":"error","name":"CFA_FWD_INVALID_FLOW_RATE","inputs":[]}],"bytecode":{"object":"0x60c0806040523462000145576020816200136d80380380916200002382856200014a565b8339810103126200014557516001600160a01b0390818116908181036200014557608052604051635b69006f60e11b81527fa9214cc96615e0085d3bb077758db69497dc2dce3b2b1e97bc93c3d18d83efd3600482015290602090829060249082905afa9081156200013957600091620000f0575b501660a0526040516111e890816200018582396080518161100f015260a05181818161017a015281816102a101528181610479015281816105950152818161063e0152818161080101528181610b8d0152610c240152f35b6020813d60201162000130575b816200010c602093836200014a565b810103126200012c57519082821682036200012957503862000098565b80fd5b5080fd5b3d9150620000fd565b6040513d6000823e3d90fd5b600080fd5b601f909101601f19168101906001600160401b038211908210176200016e57604052565b634e487b7160e01b600052604160045260246000fdfe6080604052600436101561001257600080fd5b60003560e01c806309f0b495146100f75780630bd0728d146100f25780630c033991146100ed5780630f1ac495146100e85780631d8b6526146100e357806322c904d9146100de5780632860fd93146100d957806330885591146100d45780634d3f60f9146100cf57806357e6aa36146100ca5780637243fb93146100c5578063b4b333c6146100c0578063c5ad5c1a146100bb5763e15536b6146100b657600080fd5b610a0a565b6109bd565b610959565b6108e0565b61089e565b6107bb565b610714565b6106c0565b6105f7565b61054e565b610432565b610416565b61021a565b61011d565b6001600160a01b0381160361010d57565b600080fd5b80600b0b0361010d57565b3461010d57604036600319011261010d5760043561013a816100fc565b60206024359161014983610112565b6040516346ccbfb760e11b81526001600160a01b039182166004820152600b9390930b6024840152829060449082907f0000000000000000000000000000000000000000000000000000000000000000165afa80156101ed576000906101b9575b604051908152602090f35b0390f35b506020813d6020116101e5575b816101d360209383610323565b8101031261010d576101b590516101aa565b3d91506101c6565b610a26565b604090600319011261010d5760043561020a816100fc565b90602435610217816100fc565b90565b3461010d5760206102c661022d366101f2565b90610296610239610a5d565b6040516302046cf560e61b878201526001600160a01b0393841660248201529383166044850152600060648501819052608485015260a060a485015291929182906102889060c4830190610aa9565b03601f198101835282610323565b61029e610a5d565b917f000000000000000000000000000000000000000000000000000000000000000016610e7a565b6040519015158152f35b634e487b7160e01b600052604160045260246000fd5b6060810190811067ffffffffffffffff82111761030257604052565b6102d0565b6040810190811067ffffffffffffffff82111761030257604052565b90601f8019910116810190811067ffffffffffffffff82111761030257604052565b60405190610352826102e6565b565b67ffffffffffffffff811161030257601f01601f191660200190565b81601f8201121561010d5780359061038782610354565b926103956040519485610323565b8284526020838301011161010d57816000926020809301838601378301015290565b60a060031982011261010d576004356103cf816100fc565b916024356103dc816100fc565b916044356103e9816100fc565b916064356103f681610112565b916084359067ffffffffffffffff821161010d5761021791600401610370565b3461010d5760206102c6610429366103b7565b93929092610b3f565b3461010d576104756080610445366101f2565b604051630f1ac49560e01b81526001600160a01b0392831660048201529116602482015291829081906044820190565b03817f00000000000000000000000000000000000000000000000000000000000000006001600160a01b03165afa80156101ed5760008091600080916104e1575b906101b591604051948594859094939260609260808301968352600b0b602083015260408201520152565b505050506105096101b59160803d608011610515575b6105018183610323565b810190610a32565b919350839291906104b6565b503d6104f7565b606090600319011261010d57600435610534816100fc565b90602435610541816100fc565b90604435610217816100fc565b3461010d57608061055e3661051c565b604051631cd43d1160e31b81526001600160a01b0393841660048201529183166024830152821660448201529190829060649082907f0000000000000000000000000000000000000000000000000000000000000000165afa80156101ed576020916000916105d4575b5060405190600b0b8152f35b6105ed915060803d608011610515576105018183610323565b50509050386105c8565b3461010d5761063a602061060a366101f2565b60405163e8e7e2d160e01b81526001600160a01b0392831660048201529116602482015291829081906044820190565b03817f00000000000000000000000000000000000000000000000000000000000000006001600160a01b03165afa80156101ed57600090610684575b60209060405190600b0b8152f35b506020813d6020116106b8575b8161069e60209383610323565b8101031261010d57602090516106b381610112565b610676565b3d9150610691565b3461010d5760806106d03661051c565b604051631cd43d1160e31b81526001600160a01b0393841660048201529183166024830152909116604482015290818060648101610475565b60ff81160361010d57565b3461010d57608036600319011261010d5760206102c6600435610736816100fc565b60243590610743826100fc565b6102966044359161075383610709565b61028860643561076281610112565b61076a610a5d565b6040516302046cf560e61b8a8201526001600160a01b039485166024820152968416604488015260ff959095166064870152600b0b608486015260a060a486015290939283919060c4830190610aa9565b3461010d5760606107cb3661051c565b604051622115df60e11b81526001600160a01b0393841660048201529183166024830152821660448201529190829060649082907f0000000000000000000000000000000000000000000000000000000000000000165afa9081156101ed5760009060009261084f575b506040805160ff929092168252600b9290920b6020820152f35b9150506060813d606011610896575b8161086b60609383610323565b8101031261010d57604060208201519161088483610709565b01519061089082610112565b38610835565b3d915061085e565b3461010d57606036600319011261010d5760206102c66004356108c0816100fc565b6024356108cc816100fc565b604435916108d983610112565b3390610be6565b3461010d5760206102c66108f3366101f2565b906102966108ff610a5d565b6040516302046cf560e61b878201526001600160a01b0393841660248201529383166044850152600760648501526b7fffffffffffffffffffffff608485015260a060a485015291929182906102889060c4830190610aa9565b3461010d57608036600319011261010d57600435610976816100fc565b60243590610983826100fc565b60443590610990826100fc565b6064359167ffffffffffffffff831161010d576020936109b76102c6943690600401610370565b92610d37565b3461010d57608036600319011261010d5760206102c66004356109df816100fc565b6024356109eb816100fc565b604435906109f8826100fc565b60643592610a0584610112565b610be6565b3461010d5760206102c6610a1d366103b7565b93929092610dba565b6040513d6000823e3d90fd5b919082608091031261010d578151916020810151610a4f81610112565b916060604083015192015190565b6040516020810181811067ffffffffffffffff8211176103025760405260008152906000368137565b60005b838110610a995750506000910152565b8181015183820152602001610a89565b90602091610ac281518092818552858086019101610a86565b601f01601f1916010190565b6001600160a01b03918216815291811660208301529091166040820152600b9190910b606082015260a06080820181905261021792910190610aa9565b6001600160a01b03918216815291166020820152600b9190910b604082015260806060820181905261021792910190610aa9565b61021794936001600160a01b039390929091908481163303610bb25750610288610b899293610b6c610a5d565b906040519586946328104d3160e11b602087015260248601610b0b565b905b7f000000000000000000000000000000000000000000000000000000000000000016610e7a565b92610be09261028891610bc3610a5d565b91604051968795630354b95960e41b602088015260248701610ace565b90610b8b565b604051631cd43d1160e31b81526001600160a01b038083166004830152808416602483015284166044820152919390929091608081806064810103817f00000000000000000000000000000000000000000000000000000000000000006001600160a01b03165afa9081156101ed57600091610ce2575b5082600b0b9060008213600014610caa57600b0b80610c8a57505061021793610c84610a5d565b93610dba565b03610c985750505050600190565b61021793610ca4610a5d565b93610b3f565b919250610cd057600090600b0b13610cc457505050600190565b610217926109b7610a5d565b60405163cea9aa5f60e01b8152600490fd5b610cfb915060803d608011610515576105018183610323565b5050905038610c5d565b6001600160a01b0391821681529181166020830152909116604082015260806060820181905261021792910190610aa9565b61021793926001600160a01b03929183831633148015610daf575b15610d8357610288610b8992610d66610a5d565b90604051958694635a5999e360e11b602087015260248601610d05565b610288610be092610d92610a5d565b90604051958694634c8b181f60e01b602087015260248601610d05565b503384831614610d52565b61021794936001600160a01b039390929091908481163303610e045750610288610b899293610de7610a5d565b9060405195869463317e182f60e11b602087015260248601610b0b565b92610be09261028891610e15610a5d565b916040519687956394229ecb60e01b602088015260248701610ace565b9091610e4961021793604084526040840190610aa9565b916020818403910152610aa9565b805115610e645760200190565b634e487b7160e01b600052603260045260246000fd5b906040805194610e8986610307565b6001865260009360005b602080821015610ec557845160209291610eac826102e6565b8882528881830152606087830152828b01015201610e93565b505092610ee79196945061021795925061028860405193849260208401610e32565b610f07610ef2610345565b60c98152926001600160a01b03166020840152565b6040820152610f1582610e57565b52610f1f81610e57565b50610f86565b602090610f3b6014949382815194859201610a86565b01906bffffffffffffffffffffffff199060601b1681520190565b3d15610f81573d90610f6782610354565b91610f756040519384610323565b82523d6000602084013e565b606090565b604080519160209163670e77e360e01b8385015260448401836024860152825180915260648501918460648360051b8801019401926000915b83831061105257505050505091610ffe61100a600094938386950390610fed601f1992838101875286610323565b604051938491820195339087610f25565b03908101835282610323565b5190827f00000000000000000000000000000000000000000000000000000000000000006001600160a01b03165af1611041610f56565b901561104d5750600190565b6110ef565b909192939486806110966001936063198c820301875289518660609163ffffffff8151168452878060a01b0386820151168685015201519181888201520190610aa9565b97019301930191939290610fbf565b604051906110b282610307565b602082527f43616c6c5574696c733a207461726765742070616e69636b65643a2030785f5f6020830152565b906020610217928181520190610aa9565b80519060048210156111445760405162461bcd60e51b815260206004820152601a60248201527f43616c6c5574696c733a207461726765742072657665727428290000000000006044820152606490fd5b0390fd5b6020810180516001600160e01b031916634e487b7160e01b036111ae5761114082602461116f6110a5565b91015160208201908151906030600f81818416019260041c160160081b179061ffff191617905260405191829162461bcd60e51b8352600483016110de565b9050fdfea2646970667358221220a628f26a417c5880dfe5f2de0961613a9d94a18d5cbe6bcd12242cf542ee2ad464736f6c63430008170033","linkReferences":{}},"methodIdentifiers":{"createFlow(address,address,address,int96,bytes)":"e15536b6","deleteFlow(address,address,address,bytes)":"b4b333c6","getAccountFlowInfo(address,address)":"0f1ac495","getAccountFlowrate(address,address)":"22c904d9","getBufferAmountByFlowrate(address,int96)":"09f0b495","getFlowInfo(address,address,address)":"2860fd93","getFlowOperatorPermissions(address,address,address)":"4d3f60f9","getFlowrate(address,address,address)":"1d8b6526","grantPermissions(address,address)":"7243fb93","revokePermissions(address,address)":"0bd0728d","setFlowrate(address,address,int96)":"57e6aa36","setFlowrateFrom(address,address,address,int96)":"c5ad5c1a","updateFlow(address,address,address,int96,bytes)":"0c033991","updateFlowOperatorPermissions(address,address,uint8,int96)":"30885591"},"id":119}