{"abi":[{"type":"fallback","stateMutability":"payable"},{"type":"receive","stateMutability":"payable"},{"type":"function","name":"initialize","inputs":[{"name":"underlyingToken","type":"address","internalType":"contract IERC20Metadata"},{"name":"factory","type":"address","internalType":"contract ISuperTokenFactory"},{"name":"name","type":"string","internalType":"string"},{"name":"symbol","type":"string","internalType":"string"}],"outputs":[],"stateMutability":"nonpayable"},{"type":"function","name":"initializeProxy","inputs":[{"name":"initialAddress","type":"address","internalType":"address"}],"outputs":[],"stateMutability":"nonpayable"},{"type":"error","name":"Initialized","inputs":[]},{"type":"error","name":"ZeroAddress","inputs":[]}],"bytecode":{"object":"0x6080806040523461001657610422908161001c8239f35b600080fdfe608060405260048036101561001a575b50366103ab576103ab565b6000803560e01c9182632016a0d214610044575050634a0687ef1461003f573861000f565b610280565b346101be5760803660031901126101be57803590610061826101c2565b6024359161006e836101c2565b67ffffffffffffffff926044358481116101ba5761008f9036908501610229565b936064359081116101ba576100a79036908501610229565b936001600160a01b0391821691823b156101b657604051633504b4d160e21b8152308682019081529093889185919082908490829060200103925af19081156101695785936020926101a3575b5060405163313ce56760e01b8152958691829087165afa9485156101695786948596610172575b50303b1561016e5761013f9160405196879586956285fc1360e71b8752860161036d565b038183305af1801561016957610153575080f35b80610160610166926101ee565b806102fd565b80f35b610308565b8480fd5b61019591965060203d60201161019c575b61018d8183610207565b810190610314565b948761011b565b503d610183565b806101606101b0926101ee565b886100f4565b8680fd5b8580fd5b5080fd5b6001600160a01b038116036101d357565b600080fd5b634e487b7160e01b600052604160045260246000fd5b67ffffffffffffffff811161020257604052565b6101d8565b90601f8019910116810190811067ffffffffffffffff82111761020257604052565b81601f820112156101d35780359067ffffffffffffffff8211610202576040519261025e601f8401601f191660200185610207565b828452602083830101116101d357816000926020809301838601378301015290565b346101d35760203660031901126101d35760043561029d816101c2565b6001600160a01b03818116156102eb577f360894a13ba1a3210667c828492db98dca3e2076cc3735a920a3ca505d382bbc908154166102d95755005b6040516302ed543d60e51b8152600490fd5b60405163d92e233d60e01b8152600490fd5b60009103126101d357565b6040513d6000823e3d90fd5b908160209103126101d3575160ff811681036101d35790565b919082519283825260005b848110610359575050826000602080949584010152601f8019910116010190565b602081830181015184830182015201610338565b9260ff6103a8959361039a9360018060a01b0316865216602085015260806040850152608084019061032d565b91606081840391015261032d565b90565b7f360894a13ba1a3210667c828492db98dca3e2076cc3735a920a3ca505d382bbc546000808092368280378136915af43d82803e156103e8573d90f35b3d90fdfea26469706673582212204c4ea5d2ea3690a6c1e3ad8c2249b25b791a76dfd039acce21dbdb6af384e87b64736f6c63430008170033","linkReferences":{}},"methodIdentifiers":{"initialize(address,address,string,string)":"2016a0d2","initializeProxy(address)":"4a0687ef"},"id":135}