{"abi":[{"type":"constructor","inputs":[{"name":"host","type":"address","internalType":"contract ISuperfluid"}],"stateMutability":"nonpayable"},{"type":"function","name":"approveSubscription","inputs":[{"name":"token","type":"address","internalType":"contract ISuperfluidToken"},{"name":"publisher","type":"address","internalType":"address"},{"name":"indexId","type":"uint32","internalType":"uint32"},{"name":"userData","type":"bytes","internalType":"bytes"}],"outputs":[{"name":"","type":"bool","internalType":"bool"}],"stateMutability":"nonpayable"},{"type":"function","name":"calculateDistribution","inputs":[{"name":"token","type":"address","internalType":"contract ISuperfluidToken"},{"name":"publisher","type":"address","internalType":"address"},{"name":"indexId","type":"uint32","internalType":"uint32"},{"name":"amount","type":"uint128","internalType":"uint128"}],"outputs":[{"name":"actualAmount","type":"uint256","internalType":"uint256"},{"name":"newIndexValue","type":"uint128","internalType":"uint128"}],"stateMutability":"view"},{"type":"function","name":"createIndex","inputs":[{"name":"token","type":"address","internalType":"contract ISuperfluidToken"},{"name":"indexId","type":"uint32","internalType":"uint32"},{"name":"userData","type":"bytes","internalType":"bytes"}],"outputs":[{"name":"","type":"bool","internalType":"bool"}],"stateMutability":"nonpayable"},{"type":"function","name":"deleteSubscription","inputs":[{"name":"token","type":"address","internalType":"contract ISuperfluidToken"},{"name":"publisher","type":"address","internalType":"address"},{"name":"indexId","type":"uint32","internalType":"uint32"},{"name":"subscriber","type":"address","internalType":"address"},{"name":"userData","type":"bytes","internalType":"bytes"}],"outputs":[{"name":"","type":"bool","internalType":"bool"}],"stateMutability":"nonpayable"},{"type":"function","name":"distribute","inputs":[{"name":"token","type":"address","internalType":"contract ISuperfluidToken"},{"name":"indexId","type":"uint32","internalType":"uint32"},{"name":"amount","type":"uint128","internalType":"uint128"},{"name":"userData","type":"bytes","internalType":"bytes"}],"outputs":[{"name":"","type":"bool","internalType":"bool"}],"stateMutability":"nonpayable"},{"type":"function","name":"getIndex","inputs":[{"name":"token","type":"address","internalType":"contract ISuperfluidToken"},{"name":"publisher","type":"address","internalType":"address"},{"name":"indexId","type":"uint32","internalType":"uint32"}],"outputs":[{"name":"exist","type":"bool","internalType":"bool"},{"name":"indexValue","type":"uint128","internalType":"uint128"},{"name":"totalUnitsApproved","type":"uint128","internalType":"uint128"},{"name":"totalUnitsPending","type":"uint128","internalType":"uint128"}],"stateMutability":"view"},{"type":"function","name":"getPublisherId","inputs":[{"name":"publisher","type":"address","internalType":"address"},{"name":"indexId","type":"uint32","internalType":"uint32"}],"outputs":[{"name":"publisherId","type":"bytes32","internalType":"bytes32"}],"stateMutability":"pure"},{"type":"function","name":"getSubscription","inputs":[{"name":"token","type":"address","internalType":"contract ISuperfluidToken"},{"name":"publisher","type":"address","internalType":"address"},{"name":"indexId","type":"uint32","internalType":"uint32"},{"name":"subscriber","type":"address","internalType":"address"}],"outputs":[{"name":"exist","type":"bool","internalType":"bool"},{"name":"approved","type":"bool","internalType":"bool"},{"name":"units","type":"uint128","internalType":"uint128"},{"name":"pendingDistribution","type":"uint256","internalType":"uint256"}],"stateMutability":"view"},{"type":"function","name":"getSubscriptionByID","inputs":[{"name":"token","type":"address","internalType":"contract ISuperfluidToken"},{"name":"subscriptionId","type":"bytes32","internalType":"bytes32"}],"outputs":[{"name":"publisher","type":"address","internalType":"address"},{"name":"indexId","type":"uint32","internalType":"uint32"},{"name":"approved","type":"bool","internalType":"bool"},{"name":"units","type":"uint128","internalType":"uint128"},{"name":"pendingDistribution","type":"uint256","internalType":"uint256"}],"stateMutability":"view"},{"type":"function","name":"getSubscriptionId","inputs":[{"name":"subscriber","type":"address","internalType":"address"},{"name":"publisherId","type":"bytes32","internalType":"bytes32"}],"outputs":[{"name":"subscriptionId","type":"bytes32","internalType":"bytes32"}],"stateMutability":"pure"},{"type":"function","name":"listSubscriptions","inputs":[{"name":"token","type":"address","internalType":"contract ISuperfluidToken"},{"name":"subscriber","type":"address","internalType":"address"}],"outputs":[{"name":"publishers","type":"address[]","internalType":"address[]"},{"name":"indexIds","type":"uint32[]","internalType":"uint32[]"},{"name":"unitsList","type":"uint128[]","internalType":"uint128[]"}],"stateMutability":"view"},{"type":"function","name":"revokeSubscription","inputs":[{"name":"token","type":"address","internalType":"contract ISuperfluidToken"},{"name":"publisher","type":"address","internalType":"address"},{"name":"indexId","type":"uint32","internalType":"uint32"},{"name":"userData","type":"bytes","internalType":"bytes"}],"outputs":[{"name":"","type":"bool","internalType":"bool"}],"stateMutability":"nonpayable"},{"type":"function","name":"updateIndex","inputs":[{"name":"token","type":"address","internalType":"contract ISuperfluidToken"},{"name":"indexId","type":"uint32","internalType":"uint32"},{"name":"indexValue","type":"uint128","internalType":"uint128"},{"name":"userData","type":"bytes","internalType":"bytes"}],"outputs":[{"name":"","type":"bool","internalType":"bool"}],"stateMutability":"nonpayable"},{"type":"function","name":"updateSubscriptionUnits","inputs":[{"name":"token","type":"address","internalType":"contract ISuperfluidToken"},{"name":"indexId","type":"uint32","internalType":"uint32"},{"name":"subscriber","type":"address","internalType":"address"},{"name":"units","type":"uint128","internalType":"uint128"},{"name":"userData","type":"bytes","internalType":"bytes"}],"outputs":[{"name":"","type":"bool","internalType":"bool"}],"stateMutability":"nonpayable"}],"bytecode":{"object":"0x60c080604052346200013e576020816200163a803803809162000023828562000143565b8339810103126200013e57516001600160a01b0390818116908181036200013e57608052604051635b69006f60e11b81527f8aedc3b5d4bf031e11a7e2940f7251c005698405d58e02e1c247fed3b1b3a674600482015290602090829060249082905afa9081156200013257600091620000e9575b501660a0526040516114bc90816200017e8239608051816112e3015260a051818181610192015281816103fe015281816105440152818161068a015281816109c101528181610c210152610e460152f35b6020813d60201162000129575b81620001056020938362000143565b810103126200012557519082821682036200012257503862000098565b80fd5b5080fd5b3d9150620000f6565b6040513d6000823e3d90fd5b600080fd5b601f909101601f19168101906001600160401b038211908210176200016757604052565b634e487b7160e01b600052604160045260246000fdfe6080604052600436101561001257600080fd5b60003560e01c806323fc23f3146100f75780632e5e74c6146100f25780634f90fda9146100ed5780635b534051146100e85780636041ae96146100e35780637fbc7639146100de5780639567741f146100d9578063acf4a6c2146100d4578063b6dacdb8146100cf578063bc6fc469146100ca578063c5feb127146100c5578063cd7245c5146100c0578063d787840a146100bb5763dbaee0b4146100b657600080fd5b610db8565b610d16565b610bd4565b610b69565b610af4565b610963565b61084f565b61077a565b610705565b610638565b6104be565b610435565b61031f565b610120565b6001600160a01b0381160361010d57565b600080fd5b63ffffffff81160361010d57565b3461010d57606036600319011261010d5760043561013d816100fc565b608063ffffffff606460243593610153856100fc565b60443561015f81610112565b6040516323fc23f360e01b81526001600160a01b03928316600482015295821660248701529092166044850152839182907f0000000000000000000000000000000000000000000000000000000000000000165afa80156102335760008091600080916101f8575b6040805193151584526001600160801b039485166020850152908416908301529091166060820152608090f35b0390f35b505050506102206101f49160803d60801161022c575b610218818361028b565b810190610ed4565b919350839291906101c7565b503d61020e565b610f15565b634e487b7160e01b600052604160045260246000fd5b6060810190811067ffffffffffffffff82111761026a57604052565b610238565b6040810190811067ffffffffffffffff82111761026a57604052565b90601f8019910116810190811067ffffffffffffffff82111761026a57604052565b604051906102ba8261024e565b565b67ffffffffffffffff811161026a57601f01601f191660200190565b81601f8201121561010d578035906102ef826102bc565b926102fd604051948561028b565b8284526020838301011161010d57816000926020809301838601378301015290565b3461010d5760a036600319011261010d5760043561033c816100fc565b60243590610349826100fc565b6044359061035682610112565b60643592610363846100fc565b6084359067ffffffffffffffff821161010d576103fc610423946103ee6101f49761039763ffffffff9636906004016102d8565b966103a0610f21565b60405163172f3a6360e11b60208201526001600160a01b03928316602482015296821660448801529390961660648601528516608485015260a060a4850152929392849160c4830190610f6d565b03601f19810184528361028b565b7f000000000000000000000000000000000000000000000000000000000000000016611153565b60405190151581529081906020820190565b3461010d57604036600319011261010d576101f4600435610455816100fc565b60243561046181610112565b60405190602082019268383ab13634b9b432b960b91b84526001600160601b03199060601b16602983015263ffffffff60e01b9060e01b16603d820152602181526104ab8161024e565b5190206040519081529081906020820190565b3461010d57608036600319011261010d576004356104db816100fc565b6080602435916104ea836100fc565b6084604435916104f983610112565b63ffffffff6064359361050b856100fc565b604051635b53405160e01b81526001600160a01b03938416600482015296831660248801521660448601529182166064850152839182907f0000000000000000000000000000000000000000000000000000000000000000165afa80156102335760008091600080916105a7575b60408051931515845293151560208401526001600160801b0316928201929092526060810191909152608090f35b505050506105cf6101f49160803d6080116105db575b6105c7818361028b565b810190610f92565b91935083929190610579565b503d6105bd565b90608060031983011261010d576004356105fb816100fc565b91602435610608816100fc565b9160443561061581610112565b916064359067ffffffffffffffff821161010d57610635916004016102d8565b90565b3461010d5760206106b761068861067a610651366105e2565b949291939061065e610f21565b90604051958694633020d74b60e11b8b87015260248601610fcb565b03601f19810183528261028b565b7f00000000000000000000000000000000000000000000000000000000000000006001600160a01b0316611153565b6040519015158152f35b6001600160801b0381160361010d57565b90608060031983011261010d576004356106eb816100fc565b916024356106f881610112565b91604435610615816106c1565b3461010d576101f46104236103fc63ffffffff6103ee610724366106d2565b959293906001600160801b03610738610f21565b604051637fbc763960e01b60208201526001600160a01b03978816602482015297909416604488015216606486015260806084860152849160a4830190610f6d565b3461010d5760a036600319011261010d57600435610797816100fc565b602435906107a482610112565b604435906107b1826100fc565b606435906107be826106c1565b6084359367ffffffffffffffff851161010d576103fc610423946103ee6107ec6101f49836906004016102d8565b956001600160801b036107fd610f21565b604051630465a56b60e31b60208201526001600160a01b03988916602482015263ffffffff979097166044880152938716606487015216608485015260a060a4850152929392849160c4830190610f6d565b3461010d5760206106b761068861067a610868366105e2565b9492919390610875610f21565b9060405195869463567a536160e11b8b87015260248601610fcb565b90815180825260208080930193019160005b8281106108b1575050505090565b83516001600160801b0316855293810193928101926001016108a3565b9392909360608101606082528551809152608082019060208097019060005b8882821061094657505050508181038683015285808551928381520194019060005b81811061092c575050506106359394506040818403910152610891565b825163ffffffff168652948701949187019160010161090f565b83516001600160a01b0316855293840193909201916001016108ed565b3461010d57604036600319011261010d57600435610980816100fc565b6024359061098d826100fc565b6040516316db59b760e31b81526001600160a01b0391821660048201529181166024830152600091908290829060449082907f0000000000000000000000000000000000000000000000000000000000000000165afa8015610233578291838092610a05575b50506101f490604051938493846108ce565b92509250503d8082843e610a19818461028b565b8201606083820312610af057825167ffffffffffffffff90818111610aec5784019382601f86011215610aec57845194602090610a5587611001565b96610a63604051988961028b565b808852828089019160051b83010191868311610ae85783809101915b838310610ace5750505050810151828111610aca5783610aa0918301611019565b936040820151928311610ac7575091610abd916101f49301611084565b92919290386109f3565b80fd5b8480fd5b81908351610adb816100fc565b8152019101908390610a7f565b8780fd5b8380fd5b5080fd5b3461010d576101f46104236103fc63ffffffff6103ee610b13366106d2565b959293906001600160801b03610b27610f21565b604051635cb398e160e11b60208201526001600160a01b03978816602482015297909416604488015216606486015260806084860152849160a4830190610f6d565b3461010d57604036600319011261010d576020600435610b88816100fc565b604051828101916b39bab139b1b934b83a34b7b760a11b83526001600160601b03199060601b16602c820152602435604082015260408152610bc98161024e565b519020604051908152f35b3461010d57604036600319011261010d57604460a0600435610bf5816100fc565b60405163cd7245c560e01b81526000196001841b019182166004820152602480359082015292839182907f0000000000000000000000000000000000000000000000000000000000000000165afa80156102335760009081928283918493610c9f575b50604080516001600160a01b0395909516855263ffffffff9590951660208501521515938301939093526001600160801b039092166060820152608081019190915260a090f35b945050505060a0823d60a011610d0e575b81610cbd60a0938361028b565b81010312610ac75750805190610cd2826100fc565b6101f4602082015191610ce483610112565b610cf060408201610ec7565b936080606083015192610d02846106c1565b01519394909392610c58565b3d9150610cb0565b3461010d57606036600319011261010d57600435610d33816100fc565b60243590610d4082610112565b6044359167ffffffffffffffff831161010d5763ffffffff610423926103fc610d706101f49636906004016102d8565b936103ee610d7c610f21565b604051636bc3c20560e11b60208201526001600160a01b0395861660248201529590921660448601526060606486015284916084830190610f6d565b3461010d57608036600319011261010d57600435610dd5816100fc565b604063ffffffff608460243593610deb856100fc565b604435610df781610112565b6001600160801b03606435610e0b816106c1565b8651632266eabb60e21b81526001600160a01b03948516600482015297841660248901529490911660448701529092166064850152839182907f0000000000000000000000000000000000000000000000000000000000000000165afa90811561023357600090600092610e95575b50604080519182526001600160801b03929092166020820152f35b9050610eb9915060403d604011610ec0575b610eb1818361028b565b8101906110ef565b9038610e7a565b503d610ea7565b5190811515820361010d57565b919082608091031261010d57610ee982610ec7565b916020810151610ef8816106c1565b9160606040830151610f09816106c1565b920151610635816106c1565b6040513d6000823e3d90fd5b6040516020810181811067ffffffffffffffff82111761026a5760405260008152906000368137565b60005b838110610f5d5750506000910152565b8181015183820152602001610f4d565b90602091610f8681518092818552858086019101610f4a565b601f01601f1916010190565b919082608091031261010d57610fa782610ec7565b91610fb460208201610ec7565b9160606040830151610fc5816106c1565b92015190565b6001600160a01b0391821681529116602082015263ffffffff909116604082015260806060820181905261063592910190610f6d565b67ffffffffffffffff811161026a5760051b60200190565b9080601f8301121561010d5781519060209161103481611001565b93611042604051958661028b565b81855260208086019260051b82010192831161010d57602001905b82821061106b575050505090565b838091835161107981610112565b81520191019061105d565b9080601f8301121561010d5781519060209161109f81611001565b936110ad604051958661028b565b81855260208086019260051b82010192831161010d57602001905b8282106110d6575050505090565b83809183516110e4816106c1565b8152019101906110c8565b919082604091031261010d5760208251920151610635816106c1565b909161112261063593604084526040840190610f6d565b916020818403910152610f6d565b80511561113d5760200190565b634e487b7160e01b600052603260045260246000fd5b9060408051946111628661026f565b6001865260009360005b60208082101561119e578451602092916111858261024e565b8882528881830152606087830152828b0101520161116c565b5050926111c09196945061063595925061067a6040519384926020840161110b565b6111e06111cb6102ad565b60c98152926001600160a01b03166020840152565b60408201526111ee82611130565b526111f881611130565b5061125a565b6020906112146014949382815194859201610f4a565b01906001600160601b03199060601b1681520190565b3d15611255573d9061123b826102bc565b91611249604051938461028b565b82523d6000602084013e565b606090565b604080519160209163670e77e360e01b8385015260448401836024860152825180915260648501918460648360051b8801019401926000915b838310611326575050505050916112d26112de6000949383869503906112c1601f199283810187528661028b565b6040519384918201953390876111fe565b0390810183528261028b565b5190827f00000000000000000000000000000000000000000000000000000000000000006001600160a01b03165af161131561122a565b90156113215750600190565b6113c3565b9091929394868061136a6001936063198c820301875289518660609163ffffffff8151168452878060a01b0386820151168685015201519181888201520190610f6d565b97019301930191939290611293565b604051906113868261026f565b602082527f43616c6c5574696c733a207461726765742070616e69636b65643a2030785f5f6020830152565b906020610635928181520190610f6d565b80519060048210156114185760405162461bcd60e51b815260206004820152601a60248201527f43616c6c5574696c733a207461726765742072657665727428290000000000006044820152606490fd5b0390fd5b6020810180516001600160e01b031916634e487b7160e01b0361148257611414826024611443611379565b91015160208201908151906030600f81818416019260041c160160081b179061ffff191617905260405191829162461bcd60e51b8352600483016113b2565b9050fdfea26469706673582212208d3cf2ada759c73d06d350e92776ed66c64f6eb5a95bbfb60daf2c08001d2dce64736f6c63430008170033","linkReferences":{}},"methodIdentifiers":{"approveSubscription(address,address,uint32,bytes)":"acf4a6c2","calculateDistribution(address,address,uint32,uint128)":"dbaee0b4","createIndex(address,uint32,bytes)":"d787840a","deleteSubscription(address,address,uint32,address,bytes)":"2e5e74c6","distribute(address,uint32,uint128,bytes)":"bc6fc469","getIndex(address,address,uint32)":"23fc23f3","getPublisherId(address,uint32)":"4f90fda9","getSubscription(address,address,uint32,address)":"5b534051","getSubscriptionByID(address,bytes32)":"cd7245c5","getSubscriptionId(address,bytes32)":"c5feb127","listSubscriptions(address,address)":"b6dacdb8","revokeSubscription(address,address,uint32,bytes)":"6041ae96","updateIndex(address,uint32,uint128,bytes)":"7fbc7639","updateSubscriptionUnits(address,uint32,address,uint128,bytes)":"9567741f"},"id":123}