{"abi":[{"type":"function","name":"listData","inputs":[{"name":"token","type":"ISuperfluidToken","internalType":"contract ISuperfluidToken"},{"name":"account","type":"address","internalType":"address"},{"name":"bitmapStateSlotId","type":"uint256","internalType":"uint256"},{"name":"dataStateSlotIDStart","type":"uint256","internalType":"uint256"}],"outputs":[{"name":"slotIds","type":"uint32[]","internalType":"uint32[]"},{"name":"dataList","type":"bytes32[]","internalType":"bytes32[]"}],"stateMutability":"view"}],"bytecode":{"object":"0x6080806040523461001c57610934908161002282393081600b0152f35b600080fdfe608060409080604052307f00000000000000000000000000000000000000000000000000000000000000001490600436101561003a57600080fd5b600092833560e01c91826306967a8c1461007b5750508063a3247010146100725763a9472bf81461006a57600080fd5b156104bf5780fd5b50156102d75780fd5b808591600319360112610245576004359161009583610249565b602435926100a284610249565b634b61cc3360e01b808452306084526001600160a01b0385811660a45260443560c452600160e452909360643592909116908381607f196101040181855afa80156101f6576100f8918591610225575b50610784565b51946101026107aa565b9461010b6107aa565b968594855b63ffffffff871661010081101561020c57808a6001868c941c16156101fb5761018b92916101508b6101458761015695610796565b9063ffffffff169052565b8561081a565b8d518781523060048201526001600160a01b038916602482015260448101919091526001606482015291829081906084820190565b03818a5afa9081156101f657828c6101c363ffffffff956101bc6001968f96876101c998926101d3575b5050610784565b5192610796565b5261082c565b975b011695610110565b6101ef92503d8091833e6101e7818361062e565b8101906106e8565b8f806101b5565b610762565b50505095600163ffffffff916101cb565b818a52818b52604051806102218d8d8361025f565b0390f35b61023f91503d908187823e610239826105f2565b01610668565b886100f2565b5080fd5b6001600160a01b0381160361025a57565b600080fd5b6040810190604081528251809252606081019160208094019060005b8181106102bd575050508281830391015281808451928381520193019160005b8281106102a9575050505090565b83518552938101939281019260010161029b565b825163ffffffff168552938501939185019160010161027b565b60a036600319011261025a57600480356102f081610249565b602435916102fd83610249565b60408051634b61cc3360e01b81523060048201526001600160a01b0385811660248301526044803590830181905260016064808501919091529096600096949590949092169260848035923591908890829081885afa80156101f6576103699189916104a55750610784565b51965b63ffffffff8116610100811015610492576001808a831c161561039957505060010163ffffffff1661036c565b9092836103bb916103ab9b949b6107d9565b966103b588610784565b5261081a565b92863b1561025a57885163048620af60e11b80825294600090829081906103e7908a908e8d8501610846565b0381838c5af180156101f65761047f575b501b1761040483610784565b52833b1561025a5761042660009692879351998a978896879586528501610846565b03925af19182156101f65761022192610466575b505b61044f61010063ffffffff831610610895565b60405163ffffffff90911681529081906020820190565b806104736104799261061a565b8061083b565b3861043a565b8061047361048c9261061a565b386103f8565b509650505050505050610221915061043c565b6104b991503d808b833e6101e7818361062e565b386100f2565b608036600319011261025a576004356104d781610249565b6024356104e381610249565b604435916064359063ffffffff821680920361025a57604051634b61cc3360e01b81523060048201526001600160a01b038481166024830152604482018690526001606483015260009591939216908584608481855afa9384156101f65786946105539186916105c85750610784565b51600161055e6107d9565b941b61056d81831615156108e1565b191661057884610784565b52813b156105c457836105a2956040519687958694859363048620af60e11b855260048501610846565b03925af180156101f6576105b4575080f35b806104736105c19261061a565b80f35b8380fd5b6104b991503d8088833e6101e7818361062e565b634e487b7160e01b600052604160045260246000fd5b601f80199101166080016080811067ffffffffffffffff82111761061557604052565b6105dc565b67ffffffffffffffff811161061557604052565b90601f8019910116810190811067ffffffffffffffff82111761061557604052565b67ffffffffffffffff81116106155760051b60200190565b602080607f1983011261025a576080519167ffffffffffffffff831161025a5780609f8401121561025a5782608001516106a181610650565b936106af604051958661062e565b81855260a0602086019260051b82010192831161025a5760a001905b8282106106d9575050505090565b815181529083019083016106cb565b602090818184031261025a5780519067ffffffffffffffff821161025a57019180601f8401121561025a57825161071e81610650565b9361072c604051958661062e565b818552838086019260051b82010192831161025a578301905b828210610753575050505090565b81518152908301908301610745565b6040513d6000823e3d90fd5b634e487b7160e01b600052603260045260246000fd5b8051156107915760200190565b61076e565b80518210156107915760209160051b010190565b60405190612020820182811067ffffffffffffffff821117610615576040526101008252612000366020840137565b604051906040820182811067ffffffffffffffff821117610615576040526001825260203681840137565b634e487b7160e01b600052601160045260246000fd5b9190820180921161082757565b610804565b60001981146108275760010190565b600091031261025a57565b6080602091606081019360018060a01b031681528294838201526060604082015285518094520193019160005b828110610881575050505090565b835185529381019392810192600101610873565b1561089c57565b60405162461bcd60e51b815260206004820152601760248201527f536c6f744269746d6170206f7574206f6620626f756e640000000000000000006044820152606490fd5b156108e857565b634e487b7160e01b600052600160045260246000fdfea2646970667358221220a2d1f5ddd80718e005cb40e7537b89aee35b8ee4e788682f07d8ba0b1abf5d6c64736f6c63430008170033","linkReferences":{}},"methodIdentifiers":{"clearSlot(ISuperfluidToken,address,uint256,uint32)":"a9472bf8","findEmptySlotAndFill(ISuperfluidToken,address,uint256,uint256,bytes32)":"a3247010","listData(ISuperfluidToken,address,uint256,uint256)":"06967a8c"},"id":104}