{"abi":[{"type":"fallback","stateMutability":"payable"},{"type":"receive","stateMutability":"payable"},{"type":"function","name":"initialize","inputs":[{"name":"name","type":"string","internalType":"string"},{"name":"symbol","type":"string","internalType":"string"},{"name":"initialSupply","type":"uint256","internalType":"uint256"}],"outputs":[],"stateMutability":"nonpayable"},{"type":"function","name":"initializeProxy","inputs":[{"name":"initialAddress","type":"address","internalType":"address"}],"outputs":[],"stateMutability":"nonpayable"}],"bytecode":{"object":"0x6080806040523461001657610405908161001c8239f35b600080fdfe60806040526004361015610018575b3661038e5761038e565b6000803560e01c9081634a0687ef1461003b575063b119490e0361000e5761016b565b34610135576020366003190112610135576004356001600160a01b0380821680830361013157156100f3577f360894a13ba1a3210667c828492db98dca3e2076cc3735a920a3ca505d382bbc54166100b5577f360894a13ba1a3210667c828492db98dca3e2076cc3735a920a3ca505d382bbc5580f35b80f35b62461bcd60e51b6080526020608452601e60a4527f5555505350726f78793a20616c726561647920696e697469616c697a6564000060c45260646080fd5b62461bcd60e51b6080526020608452601760a4527f5555505350726f78793a207a65726f206164647265737300000000000000000060c45260646080fd5b8380fd5b80fd5b9181601f840112156101665782359167ffffffffffffffff8311610166576020838186019501011161016657565b600080fd5b346101665760603660031901126101665767ffffffffffffffff6004358181116101665761019d903690600401610138565b91602435908111610166576101b6903690600401610138565b919091303b15610166576101e39260405193849283926285fc1360e71b84526000978896600486016102c2565b038183305af1801561024f57610254575b506101fd610306565b81303b156101355760405163c68d428360e01b8152918290819061022890604435336004850161032f565b038183305af1801561024f5761023c575080f35b806102496100b29261027d565b80610296565b6102fa565b806102496102619261027d565b386101f4565b634e487b7160e01b600052604160045260246000fd5b67ffffffffffffffff811161029157604052565b610267565b600091031261016657565b908060209392818452848401376000828201840152601f01601f1916010190565b92906102e9906102f7959360008652601260208701526080604087015260808601916102a1565b9260608185039101526102a1565b90565b6040513d6000823e3d90fd5b6040516020810181811067ffffffffffffffff8211176102915760405260008152906000368137565b9193929060018060a01b0316825260209360208301526060604083015280519081606084015260005b82811061037a57505060809293506000838284010152601f8019910116010190565b818101860151848201608001528501610358565b7f360894a13ba1a3210667c828492db98dca3e2076cc3735a920a3ca505d382bbc546000808092368280378136915af43d82803e156103cb573d90f35b3d90fdfea2646970667358221220384207a4bfe31dd429ef27730d56d01b9ddf61ffa72873c01491e8eafe14b03364736f6c63430008170033","linkReferences":{}},"methodIdentifiers":{"initialize(string,string,uint256)":"b119490e","initializeProxy(address)":"4a0687ef"},"id":111}