{"abi":[{"type":"fallback","stateMutability":"payable"},{"type":"receive","stateMutability":"payable"},{"type":"function","name":"initialize","inputs":[{"name":"factory","type":"address","internalType":"contract ISuperTokenFactory"},{"name":"name","type":"string","internalType":"string"},{"name":"symbol","type":"string","internalType":"string"},{"name":"receiver","type":"address","internalType":"address"},{"name":"initialSupply","type":"uint256","internalType":"uint256"}],"outputs":[],"stateMutability":"nonpayable"},{"type":"function","name":"initializeProxy","inputs":[{"name":"initialAddress","type":"address","internalType":"address"}],"outputs":[],"stateMutability":"nonpayable"},{"type":"error","name":"Initialized","inputs":[]},{"type":"error","name":"ZeroAddress","inputs":[]}],"bytecode":{"object":"0x60808060405234610016576103ea908161001c8239f35b600080fdfe60806040526004361015610018575b3661037357610373565b6000803560e01c9081634a0687ef1461003b57506375b30be60361000e57610162565b346100b75760203660031901126100b757600435610058816100ba565b6001600160a01b03818116156100a6577f360894a13ba1a3210667c828492db98dca3e2076cc3735a920a3ca505d382bbc90815416610095575580f35b6302ed543d60e51b60805260046080fd5b63d92e233d60e01b60805260046080fd5b80fd5b6001600160a01b038116036100cb57565b600080fd5b634e487b7160e01b600052604160045260246000fd5b67ffffffffffffffff81116100fa57604052565b6100d0565b81601f820112156100cb5780359067ffffffffffffffff928383116100fa5760405193601f8401601f19908116603f01168501908111858210176100fa57604052828452602083830101116100cb57816000926020809301838601378301015290565b346100cb5760a03660031901126100cb5760048035610180816100ba565b67ffffffffffffffff6024358181116100cb576101a090369085016100ff565b906044359081116100cb576101b890369085016100ff565b92606435926101c6846100ba565b6001600160a01b0316803b156100cb57604051633504b4d160e21b8152308382019081526000969192879184919082908490829060200103925af19182156102b75786926102d3575b50303b156102bc576040516285fc1360e71b81529384918291610235919086840161033d565b038183305af19182156102b75784926102c0575b50303b156102bc576040805163c68d428360e01b81526001600160a01b039094169184019182526084356020830152606090820181905260009082015282908190608001038183305af180156102b7576102a1575080f35b806102ae6102b4926100e6565b806102e6565b80f35b6102f1565b5080fd5b806102ae6102cd926100e6565b38610249565b806102ae6102e0926100e6565b3861020f565b60009103126100cb57565b6040513d6000823e3d90fd5b919082519283825260005b848110610329575050826000602080949584010152601f8019910116010190565b602081830181015184830182015201610308565b90916103626103709360008452601260208501526080604085015260808401906102fd565b9160608184039101526102fd565b90565b7f360894a13ba1a3210667c828492db98dca3e2076cc3735a920a3ca505d382bbc546000808092368280378136915af43d82803e156103b0573d90f35b3d90fdfea2646970667358221220c1cdac7336589630a959656daa00553abadd73de681cff05c6d563e40df3bc6664736f6c63430008170033","linkReferences":{}},"methodIdentifiers":{"initialize(address,string,string,address,uint256)":"75b30be6","initializeProxy(address)":"4a0687ef"},"id":136}