{"abi":[{"type":"constructor","inputs":[{"name":"host","type":"address","internalType":"contract ISuperfluid"}],"stateMutability":"nonpayable"},{"type":"function","name":"MAX_NUM_SUBSCRIPTIONS","inputs":[],"outputs":[{"name":"","type":"uint32","internalType":"uint32"}],"stateMutability":"view"},{"type":"function","name":"SLOTS_BITMAP_LIBRARY_ADDRESS","inputs":[],"outputs":[{"name":"","type":"address","internalType":"address"}],"stateMutability":"view"},{"type":"function","name":"agreementType","inputs":[],"outputs":[{"name":"","type":"bytes32","internalType":"bytes32"}],"stateMutability":"pure"},{"type":"function","name":"approveSubscription","inputs":[{"name":"token","type":"address","internalType":"contract ISuperfluidToken"},{"name":"publisher","type":"address","internalType":"address"},{"name":"indexId","type":"uint32","internalType":"uint32"},{"name":"ctx","type":"bytes","internalType":"bytes"}],"outputs":[{"name":"newCtx","type":"bytes","internalType":"bytes"}],"stateMutability":"nonpayable"},{"type":"function","name":"calculateDistribution","inputs":[{"name":"token","type":"address","internalType":"contract ISuperfluidToken"},{"name":"publisher","type":"address","internalType":"address"},{"name":"indexId","type":"uint32","internalType":"uint32"},{"name":"amount","type":"uint256","internalType":"uint256"}],"outputs":[{"name":"actualAmount","type":"uint256","internalType":"uint256"},{"name":"newIndexValue","type":"uint128","internalType":"uint128"}],"stateMutability":"view"},{"type":"function","name":"castrate","inputs":[],"outputs":[],"stateMutability":"nonpayable"},{"type":"function","name":"claim","inputs":[{"name":"token","type":"address","internalType":"contract ISuperfluidToken"},{"name":"publisher","type":"address","internalType":"address"},{"name":"indexId","type":"uint32","internalType":"uint32"},{"name":"subscriber","type":"address","internalType":"address"},{"name":"ctx","type":"bytes","internalType":"bytes"}],"outputs":[{"name":"newCtx","type":"bytes","internalType":"bytes"}],"stateMutability":"nonpayable"},{"type":"function","name":"createIndex","inputs":[{"name":"token","type":"address","internalType":"contract ISuperfluidToken"},{"name":"indexId","type":"uint32","internalType":"uint32"},{"name":"ctx","type":"bytes","internalType":"bytes"}],"outputs":[{"name":"newCtx","type":"bytes","internalType":"bytes"}],"stateMutability":"nonpayable"},{"type":"function","name":"deleteSubscription","inputs":[{"name":"token","type":"address","internalType":"contract ISuperfluidToken"},{"name":"publisher","type":"address","internalType":"address"},{"name":"indexId","type":"uint32","internalType":"uint32"},{"name":"subscriber","type":"address","internalType":"address"},{"name":"ctx","type":"bytes","internalType":"bytes"}],"outputs":[{"name":"newCtx","type":"bytes","internalType":"bytes"}],"stateMutability":"nonpayable"},{"type":"function","name":"distribute","inputs":[{"name":"token","type":"address","internalType":"contract ISuperfluidToken"},{"name":"indexId","type":"uint32","internalType":"uint32"},{"name":"amount","type":"uint256","internalType":"uint256"},{"name":"ctx","type":"bytes","internalType":"bytes"}],"outputs":[{"name":"newCtx","type":"bytes","internalType":"bytes"}],"stateMutability":"nonpayable"},{"type":"function","name":"getCodeAddress","inputs":[],"outputs":[{"name":"codeAddress","type":"address","internalType":"address"}],"stateMutability":"view"},{"type":"function","name":"getIndex","inputs":[{"name":"token","type":"address","internalType":"contract ISuperfluidToken"},{"name":"publisher","type":"address","internalType":"address"},{"name":"indexId","type":"uint32","internalType":"uint32"}],"outputs":[{"name":"exist","type":"bool","internalType":"bool"},{"name":"indexValue","type":"uint128","internalType":"uint128"},{"name":"totalUnitsApproved","type":"uint128","internalType":"uint128"},{"name":"totalUnitsPending","type":"uint128","internalType":"uint128"}],"stateMutability":"view"},{"type":"function","name":"getSubscription","inputs":[{"name":"token","type":"address","internalType":"contract ISuperfluidToken"},{"name":"publisher","type":"address","internalType":"address"},{"name":"indexId","type":"uint32","internalType":"uint32"},{"name":"subscriber","type":"address","internalType":"address"}],"outputs":[{"name":"exist","type":"bool","internalType":"bool"},{"name":"approved","type":"bool","internalType":"bool"},{"name":"units","type":"uint128","internalType":"uint128"},{"name":"pendingDistribution","type":"uint256","internalType":"uint256"}],"stateMutability":"view"},{"type":"function","name":"getSubscriptionByID","inputs":[{"name":"token","type":"address","internalType":"contract ISuperfluidToken"},{"name":"agreementId","type":"bytes32","internalType":"bytes32"}],"outputs":[{"name":"publisher","type":"address","internalType":"address"},{"name":"indexId","type":"uint32","internalType":"uint32"},{"name":"approved","type":"bool","internalType":"bool"},{"name":"units","type":"uint128","internalType":"uint128"},{"name":"pendingDistribution","type":"uint256","internalType":"uint256"}],"stateMutability":"view"},{"type":"function","name":"listSubscriptions","inputs":[{"name":"token","type":"address","internalType":"contract ISuperfluidToken"},{"name":"subscriber","type":"address","internalType":"address"}],"outputs":[{"name":"publishers","type":"address[]","internalType":"address[]"},{"name":"indexIds","type":"uint32[]","internalType":"uint32[]"},{"name":"unitsList","type":"uint128[]","internalType":"uint128[]"}],"stateMutability":"view"},{"type":"function","name":"proxiableUUID","inputs":[],"outputs":[{"name":"","type":"bytes32","internalType":"bytes32"}],"stateMutability":"view"},{"type":"function","name":"realtimeBalanceOf","inputs":[{"name":"token","type":"address","internalType":"contract ISuperfluidToken"},{"name":"account","type":"address","internalType":"address"},{"name":"","type":"uint256","internalType":"uint256"}],"outputs":[{"name":"dynamicBalance","type":"int256","internalType":"int256"},{"name":"deposit","type":"uint256","internalType":"uint256"},{"name":"owedDeposit","type":"uint256","internalType":"uint256"}],"stateMutability":"view"},{"type":"function","name":"revokeSubscription","inputs":[{"name":"token","type":"address","internalType":"contract ISuperfluidToken"},{"name":"publisher","type":"address","internalType":"address"},{"name":"indexId","type":"uint32","internalType":"uint32"},{"name":"ctx","type":"bytes","internalType":"bytes"}],"outputs":[{"name":"newCtx","type":"bytes","internalType":"bytes"}],"stateMutability":"nonpayable"},{"type":"function","name":"updateCode","inputs":[{"name":"newAddress","type":"address","internalType":"address"}],"outputs":[],"stateMutability":"nonpayable"},{"type":"function","name":"updateIndex","inputs":[{"name":"token","type":"address","internalType":"contract ISuperfluidToken"},{"name":"indexId","type":"uint32","internalType":"uint32"},{"name":"indexValue","type":"uint128","internalType":"uint128"},{"name":"ctx","type":"bytes","internalType":"bytes"}],"outputs":[{"name":"newCtx","type":"bytes","internalType":"bytes"}],"stateMutability":"nonpayable"},{"type":"function","name":"updateSubscription","inputs":[{"name":"token","type":"address","internalType":"contract ISuperfluidToken"},{"name":"indexId","type":"uint32","internalType":"uint32"},{"name":"subscriber","type":"address","internalType":"address"},{"name":"units","type":"uint128","internalType":"uint128"},{"name":"ctx","type":"bytes","internalType":"bytes"}],"outputs":[{"name":"newCtx","type":"bytes","internalType":"bytes"}],"stateMutability":"nonpayable"},{"type":"event","name":"CodeUpdated","inputs":[{"name":"uuid","type":"bytes32","indexed":false,"internalType":"bytes32"},{"name":"codeAddress","type":"address","indexed":false,"internalType":"address"}],"anonymous":false},{"type":"event","name":"IndexCreated","inputs":[{"name":"token","type":"address","indexed":true,"internalType":"contract ISuperfluidToken"},{"name":"publisher","type":"address","indexed":true,"internalType":"address"},{"name":"indexId","type":"uint32","indexed":true,"internalType":"uint32"},{"name":"userData","type":"bytes","indexed":false,"internalType":"bytes"}],"anonymous":false},{"type":"event","name":"IndexDistributionClaimed","inputs":[{"name":"token","type":"address","indexed":true,"internalType":"contract ISuperfluidToken"},{"name":"publisher","type":"address","indexed":true,"internalType":"address"},{"name":"indexId","type":"uint32","indexed":true,"internalType":"uint32"},{"name":"subscriber","type":"address","indexed":false,"internalType":"address"},{"name":"amount","type":"uint256","indexed":false,"internalType":"uint256"}],"anonymous":false},{"type":"event","name":"IndexSubscribed","inputs":[{"name":"token","type":"address","indexed":true,"internalType":"contract ISuperfluidToken"},{"name":"publisher","type":"address","indexed":true,"internalType":"address"},{"name":"indexId","type":"uint32","indexed":true,"internalType":"uint32"},{"name":"subscriber","type":"address","indexed":false,"internalType":"address"},{"name":"userData","type":"bytes","indexed":false,"internalType":"bytes"}],"anonymous":false},{"type":"event","name":"IndexUnitsUpdated","inputs":[{"name":"token","type":"address","indexed":true,"internalType":"contract ISuperfluidToken"},{"name":"publisher","type":"address","indexed":true,"internalType":"address"},{"name":"indexId","type":"uint32","indexed":true,"internalType":"uint32"},{"name":"subscriber","type":"address","indexed":false,"internalType":"address"},{"name":"units","type":"uint128","indexed":false,"internalType":"uint128"},{"name":"userData","type":"bytes","indexed":false,"internalType":"bytes"}],"anonymous":false},{"type":"event","name":"IndexUnsubscribed","inputs":[{"name":"token","type":"address","indexed":true,"internalType":"contract ISuperfluidToken"},{"name":"publisher","type":"address","indexed":true,"internalType":"address"},{"name":"indexId","type":"uint32","indexed":true,"internalType":"uint32"},{"name":"subscriber","type":"address","indexed":false,"internalType":"address"},{"name":"userData","type":"bytes","indexed":false,"internalType":"bytes"}],"anonymous":false},{"type":"event","name":"IndexUpdated","inputs":[{"name":"token","type":"address","indexed":true,"internalType":"contract ISuperfluidToken"},{"name":"publisher","type":"address","indexed":true,"internalType":"address"},{"name":"indexId","type":"uint32","indexed":true,"internalType":"uint32"},{"name":"oldIndexValue","type":"uint128","indexed":false,"internalType":"uint128"},{"name":"newIndexValue","type":"uint128","indexed":false,"internalType":"uint128"},{"name":"totalUnitsPending","type":"uint128","indexed":false,"internalType":"uint128"},{"name":"totalUnitsApproved","type":"uint128","indexed":false,"internalType":"uint128"},{"name":"userData","type":"bytes","indexed":false,"internalType":"bytes"}],"anonymous":false},{"type":"event","name":"Initialized","inputs":[{"name":"version","type":"uint8","indexed":false,"internalType":"uint8"}],"anonymous":false},{"type":"event","name":"SubscriptionApproved","inputs":[{"name":"token","type":"address","indexed":true,"internalType":"contract ISuperfluidToken"},{"name":"subscriber","type":"address","indexed":true,"internalType":"address"},{"name":"publisher","type":"address","indexed":false,"internalType":"address"},{"name":"indexId","type":"uint32","indexed":false,"internalType":"uint32"},{"name":"userData","type":"bytes","indexed":false,"internalType":"bytes"}],"anonymous":false},{"type":"event","name":"SubscriptionDistributionClaimed","inputs":[{"name":"token","type":"address","indexed":true,"internalType":"contract ISuperfluidToken"},{"name":"subscriber","type":"address","indexed":true,"internalType":"address"},{"name":"publisher","type":"address","indexed":false,"internalType":"address"},{"name":"indexId","type":"uint32","indexed":false,"internalType":"uint32"},{"name":"amount","type":"uint256","indexed":false,"internalType":"uint256"}],"anonymous":false},{"type":"event","name":"SubscriptionRevoked","inputs":[{"name":"token","type":"address","indexed":true,"internalType":"contract ISuperfluidToken"},{"name":"subscriber","type":"address","indexed":true,"internalType":"address"},{"name":"publisher","type":"address","indexed":false,"internalType":"address"},{"name":"indexId","type":"uint32","indexed":false,"internalType":"uint32"},{"name":"userData","type":"bytes","indexed":false,"internalType":"bytes"}],"anonymous":false},{"type":"event","name":"SubscriptionUnitsUpdated","inputs":[{"name":"token","type":"address","indexed":true,"internalType":"contract ISuperfluidToken"},{"name":"subscriber","type":"address","indexed":true,"internalType":"address"},{"name":"publisher","type":"address","indexed":false,"internalType":"address"},{"name":"indexId","type":"uint32","indexed":false,"internalType":"uint32"},{"name":"units","type":"uint128","indexed":false,"internalType":"uint128"},{"name":"userData","type":"bytes","indexed":false,"internalType":"bytes"}],"anonymous":false},{"type":"error","name":"AGREEMENT_BASE_ONLY_HOST","inputs":[]},{"type":"error","name":"IDA_INDEX_ALREADY_EXISTS","inputs":[]},{"type":"error","name":"IDA_INDEX_DOES_NOT_EXIST","inputs":[]},{"type":"error","name":"IDA_INDEX_SHOULD_GROW","inputs":[]},{"type":"error","name":"IDA_INSUFFICIENT_BALANCE","inputs":[]},{"type":"error","name":"IDA_OPERATION_NOT_ALLOWED","inputs":[]},{"type":"error","name":"IDA_SUBSCRIPTION_ALREADY_APPROVED","inputs":[]},{"type":"error","name":"IDA_SUBSCRIPTION_DOES_NOT_EXIST","inputs":[]},{"type":"error","name":"IDA_SUBSCRIPTION_IS_NOT_APPROVED","inputs":[]},{"type":"error","name":"IDA_ZERO_ADDRESS_SUBSCRIBER","inputs":[]}],"bytecode":{"object":"0x60a0346200007257601f6200462d38819003918201601f19168301916001600160401b0383118484101762000077578084926020946040528339810103126200007257516001600160a01b03811690819003620000725760805260405161459f90816200008e823960805181611a6f0152f35b600080fd5b634e487b7160e01b600052604160045260246000fdfe60c080604052600436101561001357600080fd5b600060a05260a0513560e01c908163232d2b58146122655750806323fc23f3146121c45780632e5e74c614611c935780633fd4176a14611c595780634695195414611a4a57806350d75d2514611a0157806352d1902d146119dd5780635b5340511461196c5780636041ae961461159d5780637730599e146115615780637fbc763914611497578063899baaec146113ee5780639903ad38146112cc5780639b2e48bc146110bf578063a5653ced146110a1578063acafa1b814610cff578063acf4a6c214610732578063b6dacdb8146104f7578063b96731c21461040d578063cd7245c5146103145763d787840a1461010c57600080fd5b346102cb5760603660031901126102cb57610125612995565b61012d6129ab565b6044356001600160401b0381116102cb5761014c9036906004016129e7565b909161016261015c368486612cdf565b85613230565b60608101516001600160a01b03908116919061017e8484613cf1565b961695604051636c2d9f2f60e01b81523060048201528160248201526002604482015260a051816064818b5afa80156102d1576101c49160a051916102f0575b50612f5b565b516102de576101f26040516101d881612b6e565b60a051815260a051602082015260a0516040820152613839565b873b156102cb5760405191630254d47f60e31b8352600483015260406024830152818061022660a051936044830190612d16565b038160a0518b5af180156102d1576102ab575b6102a7610293878787878c7f01ab8663165edfb7390d9e5f75d960a66dacf4f01fa9787e3a731c870d0da92163ffffffff60a08b0151946102896040519283926020845216966020830190612a37565b0390a43691612cdf565b604051918291602083526020830190612a37565b0390f35b6102ba90959493929195612b5b565b60a0516102cb579091929338610239565b60a05180fd5b6040513d60a051823e3d90fd5b604051635c02a51760e01b8152600490fd5b61030e91503d8060a051833e6103068183612bc0565b810190613037565b386101be565b346102cb5760403660031901126102cb5761032d612995565b610335612be1565b5061033e612c00565b5061034b60243582614258565b90156103fb5760a091600180841b036020830151169161038b63ffffffff610384816040850151169461037e8688613cf1565b90613d42565b9290612fa2565b80835116141590608083016001600160801b038082511694885150846000146103d257505050508451925b6040519485526020850152604084015260608301526080820152f35b6103eb8291826060816103f59851169201511690612d95565b1691511690612e94565b926103b6565b60405163016d919360e71b8152600490fd5b346102cb5760803660031901126102cb57610426612995565b61042e6129ab565b90606435906001600160401b0382116102cb576102a7926104566102939336906004016129e7565b91909261046d610467368587612cdf565b82613230565b60608101516001600160a01b031692610487818585613e58565b916001600160801b0395866104a9816020870151168260408801511690612d4a565b1696876104bb575b8b8b368b8d612cdf565b6104e160a0916104d86104d36104ea9b604435612f26565b613893565b90875116612d4a565b95015195613e7a565b84808080808080806104b1565b346102cb5760403660031901126102cb57610510612995565b61052161051b6129d1565b826140e4565b9061052a612c00565b5081519161055061053a84612fbf565b936105486040519586612bc0565b808552612fbf565b601f1993602080820192860136843783519361058461056e86612fbf565b9561057c6040519788612bc0565b808752612fbf565b97878387019901368a378151966105b361059d89612fbf565b986105ab6040519a8b612bc0565b808a52612fbf565b8885019901368a3760a0515b835163ffffffff8083169182101561066357906106586001600160801b0360806106248d61064d86888f8f8f8f918f61065e9f9e9261061d610640956106168a809761060e8261062e98612f8e565b511694612f8e565b5190614258565b9b90612fa2565b868b511614612fa2565b8801516001600160a01b031692612f8e565b5260408501511692612f8e565b52015116918c612f8e565b52612f46565b6105bf565b89888d8f8a908f8e6040519687966060880190606089525180915260808801929060a0515b81811061071257505050868203878601525180825260a05191850193915b8181106106f55750505082908583036040870152519182815201929160a0515b8281106106d557505050500390f35b83516001600160801b0316855286955093810193928101926001016106c6565b825163ffffffff16855288975093850193918501916001016106a6565b82516001600160a01b031685528a99509387019391870191600101610688565b346102cb5761074036612acb565b9293929161074c612c2b565b94610755612c7c565b5061076a610764368686612cdf565b86613230565b9360a0600180821b036060870151169501519387602061078c8689878c613409565b95908660808301521515948591015260608d015260408c01528a52610cd9575b506107b8913691612cdf565b956107da6040820151604051906107ce82612ba5565b60a051825284896134cc565b906020810151156000146109a35760c0820164010000000081526107fe8984613583565b9160a081019283526001600160801b036060820151511660405161082181612b2a565b60a051815260018060a01b038716602082015263ffffffff918289166040830152606082015260a0516080820152608083015261086082518a8c614316565b9060808301519116905260018060a01b03891690610886608060408301519201516137b6565b90823b156102cb57604051928391630254d47f60e31b835260048301526040602483015281806108bd60a051956044830190612d16565b039160a051905af180156102d157610985575b506102a7987fc0b8396b655615cdb85fe462a9a1792480816f909cd46d9517a940b386dfbf6b95949361096e9364020000000061090f94525190613a21565b9050965b6040516001600160a01b03918216969163ffffffff8616919085169088907f492d2641617cfaf24ac7328f85bc5bdf5113537d78dc7671afa4f49a73f053c2908061095f878e83612de2565b0390a460405193849384612e07565b0390a3604051918291602083526020830190612a37565b6109929095949395612b5b565b60a0516102cb5789949293946108d0565b969064040000000060c08201526109ba8282613583565b60a08901526109fe6001600160801b036109e68a82606060808282850151511693015101511690612d95565b166001600160801b036080808c015101511690612dae565b6001600160801b036080808b01510151166001600160801b03610a2c602060608d0151019282845116612d4a565b1690526001600160801b036080808b01510151166001600160801b03610a5d604060608d0151019282845116612d95565b1690528851610a6f60608b0151613839565b6001600160a01b038a163b156102cb576040519163a1b2bf8b60e01b83526004830152604060248301528180610aac60a051936044830190612d16565b038160a0518d60018060a01b03165af180156102d157610cc3575b50610adb610ad482612dd1565b858a6138fc565b610ae481612dd1565b6001600160a01b0389163b156102cb5760405163cf97256d60e01b815260a080516001600160a01b0388811660048501526024840194909452905191929091839160449183918e165af180156102d157610cad575b506001600160a01b0388163b156102cb5760405163cf97256d60e01b815260a080516001600160a01b038a811660048501526024840194909452905191929091839160449183918d165af180156102d157610c97575b506001600160801b0360608901515116606060808a01510152610bb488518789614316565b63ffffffff60808a0151911690526040880151610bd460808a01516137b6565b6001600160a01b0389163b156102cb576040519163a1b2bf8b60e01b83526004830152604060248301528180610c1160a051936044830190612d16565b038160a05160018060a01b038d165af180156102d157610c79575b50610c717fc0b8396b655615cdb85fe462a9a1792480816f909cd46d9517a940b386dfbf6b9493928260a06102a79b64080000000060c061096e970152015190613a21565b905096610913565b610c869094939294612b5b565b60a0516102cb578893919293610c2c565b610ca090612b5b565b60a0516102cb5788610b8f565b610cb690612b5b565b60a0516102cb5789610b39565b610ccc90612b5b565b60a0516102cb5789610ac7565b63ffffffff8091511603610ced57886107ac565b604051633eb2f84960e01b8152600490fd5b346102cb57610d0d36612a5c565b949093929091610d27610d21368888612cdf565b84613230565b506001600160a01b0381161561108f57610d3f612c2b565b93610d48612c7c565b5063ffffffff80610d5b85858589613448565b80949392915060808c015260608b015260408a01528852511603610ced57610db86001600160801b03610da0816060890151511682606060808b015101511690612d95565b166001600160801b0360808089015101511690612e94565b90610dda604087015160405190610dce82612ba5565b60a051825283886134cc565b96610de6368a83612cdf565b98831561107157505064040000000060c0880152610e048888613583565b60a0870152610e1c610e1583612dd1565b82876138fc565b610e2582612dd1565b6001600160a01b0386163b156102cb5760405163cf97256d60e01b815260a080516001600160a01b0385811660048501526024840194909452905191929091839160449183918b165af180156102d15761105b575b506001600160801b03606087015151166060608088015101526040860151610ea560808801516137b6565b6001600160a01b0387163b156102cb576040519163a1b2bf8b60e01b83526004830152604060248301528180610ee260a051936044830190612d16565b038160a05160018060a01b038b165af180156102d157611045575b506001600160a01b0385163b156102cb5760405163cf97256d60e01b815260a080516001600160a01b038681166004850152602484018690529151909183916044918391908b165af180156102d15761101f575b50927f48a3d91d4a07e4982b081260e24f922bd33bb965882772d6de19c922c3eabdea60606102a799979461100999979463ffffffff60a0986001808b1b0316951680866040516001808d1b03861681528460208201527f467eccd248ef31c8bcef16d94856855799a8783aeef10f3759e43614059a6bb160406001808f1b038c1692a460405195865260208601526040850152600180881b031693600180881b031692a364080000000060c0840152015190613a21565b9050604051918291602083526020830190612a37565b61103190989693949197959298612b5b565b60a0516102cb579291949690939588610f51565b61104e90612b5b565b60a0516102cb5788610efd565b61106490612b5b565b60a0516102cb5788610e7a565b95509550505050506102a7935061108a92503691612cdf565b610293565b604051633242919d60e21b8152600490fd5b346102cb5760a0513660031901126102cb5760206040516101008152f35b346102cb5760603660031901126102cb576110d8612995565b6110e06129d1565b60a05190916110ef83826140e4565b60805260a05190936001600160a01b03935b6080515163ffffffff80851691821015611234579161115c828461114c61115396611138611145978e611132612c00565b50612f8e565b5116958693608051612f8e565b518a614258565b9690612fa2565b85511614612fa2565b600160801b91820191821061121c5760405191634b61cc3360e01b8352306004840152878516602484015260448301526001606483015260a051826084818a8a165afa80156102d157611216936111ff60806111e46111dd6111cd61120a966112109960a051916102f05750612f5b565b516111d6612be1565b508c613d42565b9190612fa2565b6001600160801b039283809251168260608701511690612d95565b169201511690612dae565b9061305c565b92612f46565b91611101565b634e487b7160e01b60a051526011600452602460a051fd5b5050604051634b61cc3360e01b815260a0513060048301526001600160a01b03939093166024820152640100000000604482015260016064820152939092508390608490829087165afa9182156102d15760609261129a9160a051916112b05750612f5b565b51604051918252602082015260a0516040820152f35b6112c691503d8060a051833e6103068183612bc0565b846101be565b346102cb5760a0513660031901126102cb5760a0515460ff8160081c1615908180926113e1575b80156113ca575b1561136e5781600160ff1983161760a0515561135a575b5061131d575b60a05180f35b61ff001960a051541660a051557f7f26b83ff96e1f2b6a682f133852f6798a09c465da95921460cefb3847402498602060405160018152a1611317565b6101019061ffff19161760a0515581611311565b60405162461bcd60e51b815260206004820152602e60248201527f496e697469616c697a61626c653a20636f6e747261637420697320616c72656160448201526d191e481a5b9a5d1a585b1a5e995960921b6064820152608490fd5b50303b1580156112fa5750600160ff8216146112fa565b50600160ff8216106112f3565b346102cb5760803660031901126102cb5761142361140a612995565b61037e6114156129d1565b61141d6129be565b90613cf1565b9015611485576114776040916001600160801b03918183611470816114558160208198015116828a8701511690612d4a565b16926114666104d385606435612f26565b9687915116612d4a565b9416612e94565b918351928352166020820152f35b60405163edeaa63b60e01b8152600490fd5b346102cb5760803660031901126102cb576114b0612995565b6114b86129ab565b906044356001600160801b039182821680830361155c576064356001600160401b0381116102cb576114ee9036906004016129e7565b9290936115056114ff368688612cdf565b83613230565b60608101516001600160a01b031696909390611522898986613e58565b9290918351161161154a576102a7986102939860a061154397015195613e7a565b3691612cdf565b60405163cfdca72560e01b8152600490fd5b600080fd5b346102cb5760a0513660031901126102cb5760206040517f8aedc3b5d4bf031e11a7e2940f7251c005698405d58e02e1c247fed3b1b3a6748152f35b346102cb576115ab36612acb565b916115b7939193612c2b565b946115c0612c7c565b506115cf610467368688612cdf565b9360a0600180821b036060870151169501519563ffffffff8060608a6115f7888b8b8a613448565b60808601819052959094015260408e01528c525051161461195a5761163f9061163760408a01516040519061162b82612ba5565b60a051825288876134cc565b923691612cdf565b9064100000000060c08201526116558282613583565b60a08901526116816001600160801b036109e68a82606060808282850151511693015101511690612d95565b6116ad6001600160801b03602060608c01510151166001600160801b036080808d015101511690612d95565b6001600160801b03602060608c015101911690526116ed6001600160801b03604060608c01510151166001600160801b036080808d015101511690612d4a565b6001600160801b03604060608c01510191169052885161171060608b0151613839565b6001600160a01b0386163b156102cb576040519163a1b2bf8b60e01b8352600483015260406024830152818061174d60a051936044830190612d16565b038160a05160018060a01b038a165af180156102d157611944575b5061177f63ffffffff60808b015151168886613def565b6001600160801b0360608a01515116606060808b0151015263ffffffff60808a01515260408901516117b460808b01516137b6565b6001600160a01b0386163b156102cb576040519163a1b2bf8b60e01b835260048301526040602483015281806117f160a051936044830190612d16565b038160a05160018060a01b038a165af180156102d15761192e575b506001600160a01b0384163b156102cb5760405163cf97256d60e01b815260a080516001600160a01b038a8116600485015260248401949094529051919290918391604491839189165af180156102d157611910575b506118a77f9e02127550b99adc8cc6ee332a36f31338facdbc396cebefce9a047247cd04559493928260a06102a79b64200000000060c061096e970152015190613a21565b6040519098915063ffffffff8516906001600160a01b0388811691908616907fe1f8e9cd8061e5b251769965bda6ca9ef1674bc6541fb9131039fa53f024d14290806118f4878e83612de2565b0390a46040516001600160a01b03909316959293849384612e07565b61191d9094939294612b5b565b60a0516102cb578893919293611862565b61193790612b5b565b60a0516102cb578961180c565b61194d90612b5b565b60a0516102cb5789611768565b604051633741257360e01b8152600490fd5b346102cb5760803660031901126102cb57611985612995565b61198d6129d1565b6119956129be565b916064356001600160a01b038116810361155c576080936001600160801b03936119be93612ea7565b9293916040519415158552151560208501521660408301526060820152f35b346102cb5760a0513660031901126102cb5760206119f9612e31565b604051908152f35b346102cb5760a0513660031901126102cb577f360894a13ba1a3210667c828492db98dca3e2076cc3735a920a3ca505d382bbc546040516001600160a01b039091168152602090f35b346102cb576020806003193601126102cb57611a64612995565b6001600160a01b03907f000000000000000000000000000000000000000000000000000000000000000082163303611c47577f360894a13ba1a3210667c828492db98dca3e2076cc3735a920a3ca505d382bbc8281541615611c0257611ac8612e31565b6040516352d1902d60e01b815293831693908582600481885afa9182156102d15760a05192611bd3575b5003611b8257823014611b3d57557fe011bc04c286c344a8fcbb8de77f953da762c3e25d8cdea984147fc4168a5dcc91604091611b2d612e31565b918351928352820152a160a05180f35b60405162461bcd60e51b815260048101859052601960248201527f5555505350726f786961626c653a2070726f7879206c6f6f70000000000000006044820152606490fd5b60405162461bcd60e51b815260048101859052602360248201527f5555505350726f786961626c653a206e6f7420636f6d70617469626c65206c6f60448201526267696360e81b6064820152608490fd5b9091508581813d8311611bfb575b611beb8183612bc0565b8101031261155c57519086611af2565b503d611be1565b60405162461bcd60e51b815260048101859052601d60248201527f5555505350726f786961626c653a206e6f742075706772616461626c650000006044820152606490fd5b604051630b00ec8f60e11b8152600490fd5b346102cb5760a0513660031901126102cb5760405173__$6040e6113e0e8355239b974a4a8d52be72$__6001600160a01b03168152602090f35b346102cb57611ca136612a5c565b9492909193611cae612c2b565b95611cb7612c7c565b50611cc6610764368387612cdf565b606081015160a09091015194906001600160a01b039081169088161561108f576001600160a01b038416036121b257611d3a9061163760808a611d0b888c898d613448565b92959193949050015260608d01528160408d01528b5260405190611d2e82612ba5565b60a05182528a8a6134cc565b9064100000000060c0820152611d508282613583565b60a0890152611d7c6001600160801b036109e68a82606060808282850151511693015101511690612d95565b88608081015163ffffffff80825116141560001461217757506001600160801b0360206060611dc19301510151166001600160801b036080808d015101511690612d95565b6001600160801b03602060608c015101911690525b8851611de560608b0151613839565b6001600160a01b0389163b156102cb576040519163a1b2bf8b60e01b83526004830152604060248301528180611e2260a051936044830190612d16565b038160a05160018060a01b038d165af180156102d157612161575b5063ffffffff60808a0151511663ffffffff8103612150575b5063ffffffff8060808b01515116146120c3575b60408901516001600160a01b0388163b156102cb57604051632704839760e01b815260048101919091526002602482015260a05181604481836001600160a01b038d165af180156102d1576120ad575b506001600160a01b0387163b156102cb5760405163cf97256d60e01b815260a080516001600160a01b038b811660048501526024840194909452905191929091839160449183918c165af180156102d15761208f575b50611f557fe0707ac7efb8b59c22189af8d004ed17dc9e4379e71b9066119b62c1825249779493928260a06102a79b64200000000060c061096e970152015190613a21565b6040519098915063ffffffff8516906001600160a01b0385811691908a16907fe1f8e9cd8061e5b251769965bda6ca9ef1674bc6541fb9131039fa53f024d1429080611fa28c8883612de2565b0390a46040516001600160a01b0382811691908916907f9e02127550b99adc8cc6ee332a36f31338facdbc396cebefce9a047247cd04559080611fe78b8a8a84612e07565b0390a3604080516001600160a01b03838116825260a0516020830152606092820183905263ffffffff87169286821692918b16917f0115987243fd19d615b5ea62a80372a06a2b37fec378b148ee7a507c5c4c0a3991819061204b9082018d612a37565b0390a4604080516001600160a01b03948516815263ffffffff95909516602086015260a0519085015260806060850181905290831696909216948392830190612a37565b61209c9094939294612b5b565b60a0516102cb578893919293611f10565b6120b690612b5b565b60a0516102cb5789611eba565b6120d66120cf82612dd1565b85896138fc565b6120df81612dd1565b6001600160a01b0388163b156102cb5760405163cf97256d60e01b815260a080516001600160a01b0388811660048501526024840194909452905191929091839160449183918d165af180156102d15761213a575b50611e6a565b61214390612b5b565b60a0516102cb5789612134565b61215b908989613def565b89611e56565b61216a90612b5b565b60a0516102cb5789611e3d565b6001600160801b03608081604060606121999601510151169201511690612d95565b6001600160801b03604060608c01510191169052611dd6565b6040516392da6d1760e01b8152600490fd5b346102cb5760603660031901126102cb5760806121df612995565b6121e76129d1565b6121ef6129be565b60a051928392839261220f929161037e9190612209612be1565b50613cf1565b819491612240575b5060405193151584526001600160801b0392838092166020860152166040840152166060820152f35b925050506001600160801b038082511690604081602085015116930151169085612217565b346102cb5760a03660031901126102cb5761227e612995565b6122866129ab565b906044356001600160a01b03811690036102cb576001600160801b0360643516606435036102cb576084356001600160401b0381116102cb576122cd9036906004016129e7565b90936044356001600160a01b03161561298657506122e9612c2b565b936122f2612c7c565b50612301610d21368484612cdf565b9161236460a084015193606060018060a01b03910151169261163788608061232d8a604435898c613409565b9193949092950152151560208d015260608c01528160408c01528a526040519061235682612ba5565b60a0518252604435896134cc565b6020870151909190156129675764040000000060c08201526123868282613583565b60a08801525b602087015115158080612952575b156127aa57506123e36104d36123cc6001600160801b03606435166001600160801b03602060608d0151015116612d7b565b6001600160801b036080808c015101511690612d88565b6001600160801b03602060608a0151019116905286516124066060890151613839565b6001600160a01b0387163b156102cb576040519163a1b2bf8b60e01b8352600483015260406024830152818061244360a051936044830190612d16565b038160a05160018060a01b038b165af180156102d157612794575b505b61249f6001600160801b036124878160608b0151511682606060808d015101511690612d95565b166001600160801b036080808b015101511690612dae565b63ffffffff8060808a0151511614612707575b6001600160a01b0386163b156102cb5760405163cf97256d60e01b815260a080516001600160a01b036044803582166004860152602485019590955291519293909284928391908b165af180156102d1576126f1575b506020870151612639575b867fe0707ac7efb8b59c22189af8d004ed17dc9e4379e71b9066119b62c182524977939263ffffffff9260206102a79a015115156000146126185760a06125679364080000000060c0840152015190613a21565b9050955b16808260405160018060a01b036044351681526001600160801b03606435166020820152606060408201527f0115987243fd19d615b5ea62a80372a06a2b37fec378b148ee7a507c5c4c0a3960018060a01b03891691806125cf606082018b612a37565b0390a460405191825260208201526001600160801b03606435166040820152608060608201528061096e60018060a01b03604435169560018060a01b0316946080830190612a37565b60a06126319364020000000060c0840152015190613a21565b90509561256b565b6001600160801b03606088015151166060608089015101526001600160801b03606435166080808901510152604087015161267760808901516137b6565b6001600160a01b0387163b156102cb576040519163a1b2bf8b60e01b835260048301526040602483015281806126b460a051936044830190612d16565b038160a05160018060a01b038b165af180156102d1576126d5575b50612513565b6126e190939293612b5b565b60a0516102cb57879291926126cf565b6126fa90612b5b565b60a0516102cb5787612508565b61271a61271382612dd1565b85886138fc565b61272381612dd1565b6001600160a01b0387163b156102cb5760405163cf97256d60e01b815260a080516001600160a01b0388811660048501526024840194909452905191929091839160449183918c165af180156102d15761277e575b506124b2565b61278790612b5b565b60a0516102cb5788612778565b61279d90612b5b565b60a0516102cb578761245e565b15612872576127db6104d36123cc6001600160801b03606435166001600160801b03604060608d0151015116612d7b565b6001600160801b03604060608a0151019116905286516127fe6060890151613839565b6001600160a01b0387163b156102cb576040519163a1b2bf8b60e01b8352600483015260406024830152818061283b60a051936044830190612d16565b038160a05160018060a01b038b165af180156102d15761285c575b50612460565b61286590612b5b565b60a0516102cb5787612856565b6001600160801b03606088015151166040519061288e82612b2a565b63ffffffff8083528560208401528816604083015260608201526001600160801b036064351660808201528060808901526128cd6040890151916137b6565b6001600160a01b0387163b156102cb5760405191630254d47f60e31b8352600483015260406024830152818061290a60a051936044830190612d16565b038160a05160018060a01b038b165af180156102d157612943575b506127db6064356001600160801b03604060608b0151015116612d4a565b61294c90612b5b565b87612925565b5063ffffffff8060808a01515116141561239a565b64010000000060c082015261297c8282613583565b60a088015261238c565b633242919d60e21b8152600490fd5b600435906001600160a01b038216820361155c57565b6024359063ffffffff8216820361155c57565b6044359063ffffffff8216820361155c57565b602435906001600160a01b038216820361155c57565b9181601f8401121561155c578235916001600160401b03831161155c576020838186019501011161155c57565b60005b838110612a275750506000910152565b8181015183820152602001612a17565b90602091612a5081518092818552858086019101612a14565b601f01601f1916010190565b9060a060031983011261155c576001600160a01b03600435818116810361155c5792602435828116810361155c579260443563ffffffff8116810361155c5792606435908116810361155c5791608435906001600160401b03821161155c57612ac7916004016129e7565b9091565b90608060031983011261155c576001600160a01b0391600435838116810361155c5792602435908116810361155c579160443563ffffffff8116810361155c5791606435906001600160401b03821161155c57612ac7916004016129e7565b60a081019081106001600160401b03821117612b4557604052565b634e487b7160e01b600052604160045260246000fd5b6001600160401b038111612b4557604052565b606081019081106001600160401b03821117612b4557604052565b61016081019081106001600160401b03821117612b4557604052565b602081019081106001600160401b03821117612b4557604052565b90601f801991011681019081106001600160401b03821117612b4557604052565b60405190612bee82612b6e565b60006040838281528260208201520152565b60405190612c0d82612b2a565b60006080838281528260208201528260408201528260608201520152565b6040519060c082018281106001600160401b03821117612b4557604052606060a083600081526000602082015260006040820152612c67612be1565b83820152612c73612c00565b60808201520152565b6040519060e082018281106001600160401b03821117612b45576040528160c06000918281528260208201528260408201526060808201528260808201528260a08201520152565b6001600160401b038111612b4557601f01601f191660200190565b929192612ceb82612cc4565b91612cf96040519384612bc0565b82948184528183011161155c578281602093846000960137010152565b90815180825260208080930193019160005b828110612d36575050505090565b835185529381019392810192600101612d28565b9190916001600160801b0380809416911601918211612d6557565b634e487b7160e01b600052601160045260246000fd5b91908201809211612d6557565b91908203918211612d6557565b6001600160801b039182169082160391908211612d6557565b818102929160008212600160ff1b821416612d65578184051490151715612d6557565b600160ff1b8114612d655760000390565b6001600160a01b039091168152604060208201819052612e0492910190612a37565b90565b63ffffffff612e04949360609360018060a01b031683521660208201528160408201520190612a37565b604051633b982ccf60e11b8152602081600481305afa908115612e8857600091612e59575090565b90506020813d602011612e80575b81612e7460209383612bc0565b8101031261155c575190565b3d9150612e67565b6040513d6000823e3d90fd5b81810292918115918404141715612d6557565b90612ec49391612eb5612be1565b50612ebe612c00565b50613409565b925080949193509315612f185763ffffffff80835116141592608083016001600160801b03808251169486600014612eff5750505050600090565b6103eb829182606081612e049851169201511690612d95565b600093508392508291508190565b8115612f30570490565b634e487b7160e01b600052601260045260246000fd5b63ffffffff809116908114612d655760010190565b805115612f685760200190565b634e487b7160e01b600052603260045260246000fd5b805160011015612f685760400190565b8051821015612f685760209160051b010190565b15612fa957565b634e487b7160e01b600052600160045260246000fd5b6001600160401b038111612b455760051b60200190565b9080601f8301121561155c57815190602091612ff181612fbf565b93612fff6040519586612bc0565b81855260208086019260051b82010192831161155c57602001905b828210613028575050505090565b8151815290830190830161301a565b9060208282031261155c5781516001600160401b03811161155c57612e049201612fd6565b91909160008382019384129112908015821691151617612d6557565b6040519061308582612b89565b81610140600091828152826020820152826040820152826060820152826080820152606060a08201528260c08201528260e082015282610100820152826101208201520152565b51906001600160a01b038216820361155c57565b5190811515820361155c57565b519060ff8216820361155c57565b81601f8201121561155c57805161311181612cc4565b9261311f6040519485612bc0565b8184526020828401011161155c57612e049160208085019101612a14565b60208183031261155c5780516001600160401b039182821161155c5701906101608284031261155c576040519261317384612b89565b61317c836130ed565b845261318a602084016130ed565b6020850152604083015160408501526131a5606084016130cc565b606085015260808301516001600160e01b03198116810361155c57608085015260a083015191821161155c576131dc9183016130fb565b60a083015260c081015160c083015260e081015160e0830152610100808201519083015261012061320e8183016130cc565b9083015261014090810151906001600160a01b038216820361155c5782015290565b90613239613078565b50604080516320bc442560e01b81529092602091906001600160a01b039083908390600490829085165afa9182156133fe576000926133c7575b5033911603613390578251632fd0a1cd60e21b81526004810182905281818061329f6024820187612a37565b0381335afa90811561338557600091613350575b501561331f576132e09160009184519384928392631fb6491d60e11b845260048401526024830190612a37565b0381335afa91821561331557506000916132f8575090565b612e0491503d806000833e61330d8183612bc0565b81019061313d565b513d6000823e3d90fd5b60649083519062461bcd60e51b82526004820152600b60248201526a0d2dcecc2d8d2c840c6e8f60ab1b6044820152fd5b90508181813d831161337e575b6133678183612bc0565b8101031261155c57613378906130e0565b386132b3565b503d61335d565b84513d6000823e3d90fd5b60649083519062461bcd60e51b8252600482015260116024820152701d5b985d5d1a1bdc9a5e9959081a1bdcdd607a1b6044820152fd5b9091508281813d83116133f7575b6133df8183612bc0565b8101031261155c576133f0906130cc565b9038613273565b503d6133d5565b85513d6000823e3d90fd5b9193926134259061342c9261341c612be1565b50612209612c00565b80946143b6565b916134378483613d42565b9290156114855783612ac791614258565b91939290613454612be1565b5061345d612c00565b5061347261346b8383613cf1565b80966143b6565b9361347d8685613d42565b949015611485578561348e91614258565b9093819385156103fb576134ca926134b860409260018060a01b0380602085015116911614612fa2565b015163ffffffff918216911614612fa2565b565b93929190936134d9612c7c565b6001600160a01b0391821681529416602085015260408401526060830152565b9081606091031261155c5761350d816130e0565b91604061351c602084016130e0565b92015190565b9060208282031261155c5781516001600160401b03811161155c57612e0492016130fb565b6001600160a01b039091168152608060208201819052612e04949261356e91830190612a37565b92151560408201526060818403910152612a37565b60208101805160408051633e7d48bd60e21b81526001600160a01b0392831660048201526060969591949193919290918783602481335afa9283156137ab57600090600090600095613777575b508161376e575b506135e5575b505050505050565b6135ef84866143f7565b9360c0810193845180911615613673575b50505050505090600061362d92825180948192634c4d861f60e11b83528560048401526044830190612a37565b836024830152038183335af19081156133155750613650575b80808080806135dd565b61366c903d806000833e6136648183612bc0565b810190613522565b5038613646565b9261372092613700641000000000936136f28b6136e060009b9c9f9a9961369990614481565b93878151169b83820151910151908351936136b385612ba5565b8e8552519c8d9660208801526024870152306044870152606486015260a0608486015260c4850190612a37565b8381036023190160a485015290612a37565b03601f198101885287612bc0565b51169251149486519586948594633a020f0160e11b865260048601613547565b038183335af19081156137635761362d92916000918291613749575b5094919238808080613600565b61375d91503d8084833e6136648183612bc0565b3861373c565b82513d6000823e3d90fd5b905015386135d7565b91505061379b919350883d8a116137a4575b6137938183612bc0565b8101906134f9565b939190386135d0565b503d613789565b86513d6000823e3d90fd5b906040516137c381612b6e565b6002815260403660208301376138368193602081015167ffffffff00000000604083015160201b16906001600160601b03199060601b161763ffffffff8251161761380d84612f5b565b526001600160801b036060820151169060806001600160801b031991015160801b161791612f7e565b52565b9060405161384681612b6e565b60028152604036602083013761383681936001600160801b0380825116600160801b1761387285612f5b565b526020820151169060406001600160801b031991015160801b161791612f7e565b6001600160801b03908181116138a7571690565b60405162461bcd60e51b815260206004820152602760248201527f53616665436173743a2076616c756520646f65736e27742066697420696e20316044820152663238206269747360c81b6064820152608490fd5b8215613a1c57604051634b61cc3360e01b81523060048201526001600160a01b03838116602483015264010000000060448301526001606483015260009491939281169290918585608481875afa948515613a115786956139f1575b506139749061396f61396987612f5b565b51614502565b61305c565b61397d85612f5b565b52823b156139ed5760405163048620af60e11b8152911660048201526401000000006024820152606060448201529291829184918290849082906139c5906064830190612d16565b03925af19081156139e157506139d85750565b6134ca90612b5b565b604051903d90823e3d90fd5b8480fd5b613974919550613a0a903d8089833e6103068183612bc0565b9490613958565b6040513d88823e3d90fd5b505050565b919290613a2c613078565b60208401805160408051633e7d48bd60e21b81526001600160a01b03928316600482015293979396909490929091606088602481335afa9182156137ab5760008099600094613cc7575b50869981613cbe575b50613a8e575b50505050505050565b909192939495969750613aa185876143f7565b9360c0860193845180911615613b2b575b505050505050506000613ae66101008601519284519384928392634c4d861f60e11b84528760048501526044840190612a37565b906024830152038183335af19182156133155750600091613b10575b509038808080808080613a85565b613b2591503d806000833e6136648183612bc0565b38613b02565b869a5092613be192613bc1642000000000936136f2613b4e60009a9b9998614481565b918d613bb2613b9f888d51169c60608482015191015190845194613b7186612ba5565b60008652519e8f9860208a01526024890152306044890152606488015260c0608488015260e4870190612a37565b60231993848783030160a4880152612a37565b918483030160c4850152612a37565b5116925114948751958694859463079b42a160e21b865260048601613547565b038183335af1908115613c9957613c1e916000918291613ca4575b50845180938192631fb6491d60e11b8352602060048401526024830190612a37565b0381335afa908115613c9957600091613c7e575b50610100608082960151910190613c4a825191614502565b81811315613c7757505b80600013600014613c7157506000905b5238808080808080613ab2565b90613c64565b9050613c54565b613c9391503d806000833e61330d8183612bc0565b38613c32565b83513d6000823e3d90fd5b613cb891503d8084833e6136648183612bc0565b38613bfc565b90501538613a7f565b91935050613ce591985060603d6060116137a4576137938183612bc0565b98919290989238613a76565b9060405190602082019268383ab13634b9b432b960b91b84526001600160601b03199060601b16602983015263ffffffff60e01b9060e01b16603d82015260218152613d3c81612b6e565b51902090565b916000613d4d612be1565b604051636c2d9f2f60e01b81523060048201526024810194909452600260448501529293849060649082906001600160a01b03165afa928315612e8857600093613dd2575b50613da6613d9f84612f5b565b5193612f7e565b518315159384613db4575050565b6001600160801b0380911684528116602084015260801c6040830152565b613de89193503d806000833e6103068183612bc0565b9138613d92565b73__$6040e6113e0e8355239b974a4a8d52be72$__803b1561155c5760009260849163ffffffff6040519687958694631528e57f60e31b865260018060a01b0380921660048701521660248501528660448501521660648301525af48015612e88576139d85750565b9291613e6a90613e7192612209612be1565b8093613d42565b91901561148557565b95919493909260018060a01b039586881696613eae845199613ec1613eb460009c6001600160801b0394858092168d612d95565b16612dd1565b8360208901511690612dae565b8a3b156140cf5760405163cf97256d60e01b81526001600160a01b038a16600482015260248101919091528b81604481838f5af180156140ad576140bc575b50613f2d82613f12818951168c612d95565b169189613f2760408a01948686511690612dae565b916138fc565b8180875116991694858752613f4187613839565b908b3b156140b857613f7a918c8e928360405180968195829463a1b2bf8b60e01b84526004840152604060248401526044830190612d16565b03925af180156140ad578b9695949392918d91614080575b50507f81e37f3d9f16cbf29a62d6a1c21d79b23ef29b54124ec44af43a50fffb9304f3949360209a93838c613ffb9563ffffffff9551169a0151169a16998a9860405196879687528d8701526040860152606085015260a06080850152169660a0830190612a37565b0390a46024604051809481936379359f6f60e01b835260048301525afa9182156139e1578092614040575b505061402e57565b6040516316e759bb60e01b8152600490fd5b9091506020823d602011614078575b8161405c60209383612bc0565b81010312614075575061406e906130e0565b3880614026565b80fd5b3d915061404f565b61409491929394959698999a9b9750612b5b565b6140a957908994989796959392918b38613f92565b8a80fd5b6040513d8e823e3d90fd5b8c80fd5b6140c8909b919b612b5b565b9938613f00565b8b80fd5b519063ffffffff8216820361155c57565b6040516301a59ea360e21b81526001600160a01b0391821660048201529082166024820152600060448201819052600160801b6064830152919291808260848173__$6040e6113e0e8355239b974a4a8d52be72$__5af491821561424b5781908293614189575b508290915b8351811015614181578061417061416960019387612f8e565b51886143b6565b61417a8287612f8e565b5201614150565b509291509250565b9250503d8082843e61419b8184612bc0565b82016040838203126142475782516001600160401b03908181116142275784019382601f86011215614227578451946020906141d687612fbf565b966141e46040519889612bc0565b808852828089019160051b830101918683116142435783809101915b83831061422b575050505081015191821161422757614220929101612fd6565b913861414b565b8380fd5b8190614236846140d3565b8152019101908390614200565b8780fd5b5080fd5b50604051903d90823e3d90fd5b916000614263612c00565b604051636c2d9f2f60e01b81523060048201526024810194909452600260448501529293849060649082906001600160a01b03165afa928315612e88576000936142f9575b506142b5613d9f84612f5b565b5183151593846142c3575050565b8060601c602085015263ffffffff90818160201c1660408601521683526001600160801b038116606084015260801c6080830152565b61430f9193503d806000833e6103068183612bc0565b91386142a8565b604051630a32470160e41b81526001600160a01b0391821660048201529116602482015260006044820152600160801b6064820152608481019190915260208160a48173__$6040e6113e0e8355239b974a4a8d52be72$__5af4908115612e8857600091614382575090565b90506020813d6020116143ae575b8161439d60209383612bc0565b8101031261155c57612e04906140d3565b3d9150614390565b906040519060208201926b39bab139b1b934b83a34b7b760a11b84526001600160601b03199060601b16602c830152604082015260408152613d3c81612b6e565b61443f60009160018060a01b0393846020820151169060808101519560a0820151915116906040519687958695630768fabb60e41b875260a0600488015260a4870190612a37565b936024860152604485015260648401526084830152038183335af1908115612e885760009161446c575090565b612e0491503d806000833e6136648183612bc0565b640100000000810361449957506330d9c91560e01b90565b64040000000081036144b15750630221347d60e61b90565b64100000000081036144c95750635f9e7d7760e01b90565b64020000000081036144e1575063d86ed3e560e01b90565b640800000000036144f75763230dbd2960e01b90565b6353c11f9960e01b90565b6001600160ff1b0381116145135790565b60405162461bcd60e51b815260206004820152602860248201527f53616665436173743a2076616c756520646f65736e27742066697420696e2061604482015267371034b73a191a9b60c11b6064820152608490fdfea2646970667358221220196fd28562a1d8e86a3df20e91ee8c1dad09b2d9668c17b45975c77335fa704664736f6c63430008170033","linkReferences":{"lib/superfluid-protocol-monorepo/packages/ethereum-contracts/contracts/libs/SlotsBitmapLibrary.sol":{"SlotsBitmapLibrary":[{"start":7422,"length":20},{"start":15999,"length":20},{"start":16820,"length":20},{"start":17385,"length":20}]}}},"methodIdentifiers":{"MAX_NUM_SUBSCRIPTIONS()":"a5653ced","SLOTS_BITMAP_LIBRARY_ADDRESS()":"3fd4176a","agreementType()":"7730599e","approveSubscription(address,address,uint32,bytes)":"acf4a6c2","calculateDistribution(address,address,uint32,uint256)":"899baaec","castrate()":"9903ad38","claim(address,address,uint32,address,bytes)":"acafa1b8","createIndex(address,uint32,bytes)":"d787840a","deleteSubscription(address,address,uint32,address,bytes)":"2e5e74c6","distribute(address,uint32,uint256,bytes)":"b96731c2","getCodeAddress()":"50d75d25","getIndex(address,address,uint32)":"23fc23f3","getSubscription(address,address,uint32,address)":"5b534051","getSubscriptionByID(address,bytes32)":"cd7245c5","listSubscriptions(address,address)":"b6dacdb8","proxiableUUID()":"52d1902d","realtimeBalanceOf(address,address,uint256)":"9b2e48bc","revokeSubscription(address,address,uint32,bytes)":"6041ae96","updateCode(address)":"46951954","updateIndex(address,uint32,uint128,bytes)":"7fbc7639","updateSubscription(address,uint32,address,uint128,bytes)":"232d2b58"},"id":68}