{"abi":[{"type":"constructor","inputs":[{"name":"host_","type":"address","internalType":"contract ISuperfluid"},{"name":"minBondDuration_","type":"uint256","internalType":"uint256"}],"stateMutability":"nonpayable"},{"type":"function","name":"changeExitRate","inputs":[{"name":"token","type":"address","internalType":"contract ISuperToken"},{"name":"newExitRate","type":"int96","internalType":"int96"}],"outputs":[],"stateMutability":"nonpayable"},{"type":"function","name":"getCurrentPIC","inputs":[{"name":"token","type":"address","internalType":"contract ISuperToken"}],"outputs":[{"name":"pic","type":"address","internalType":"address"}],"stateMutability":"view"},{"type":"function","name":"getCurrentPICInfo","inputs":[{"name":"token","type":"address","internalType":"contract ISuperToken"}],"outputs":[{"name":"pic","type":"address","internalType":"address"},{"name":"bond","type":"uint256","internalType":"uint256"},{"name":"exitRate","type":"int96","internalType":"int96"}],"stateMutability":"view"},{"type":"function","name":"getDefaultExitRateFor","inputs":[{"name":"","type":"address","internalType":"contract ISuperToken"},{"name":"bondAmount","type":"uint256","internalType":"uint256"}],"outputs":[{"name":"exitRate","type":"int96","internalType":"int96"}],"stateMutability":"view"},{"type":"function","name":"getMaxExitRateFor","inputs":[{"name":"","type":"address","internalType":"contract ISuperToken"},{"name":"bondAmount","type":"uint256","internalType":"uint256"}],"outputs":[{"name":"exitRate","type":"int96","internalType":"int96"}],"stateMutability":"view"},{"type":"function","name":"minBondDuration","inputs":[],"outputs":[{"name":"","type":"uint256","internalType":"uint256"}],"stateMutability":"view"},{"type":"function","name":"tokensReceived","inputs":[{"name":"","type":"address","internalType":"address"},{"name":"from","type":"address","internalType":"address"},{"name":"","type":"address","internalType":"address"},{"name":"amount","type":"uint256","internalType":"uint256"},{"name":"userData","type":"bytes","internalType":"bytes"},{"name":"","type":"bytes","internalType":"bytes"}],"outputs":[],"stateMutability":"nonpayable"},{"type":"event","name":"BondIncreased","inputs":[{"name":"token","type":"address","indexed":true,"internalType":"contract ISuperToken"},{"name":"additionalBond","type":"uint256","indexed":false,"internalType":"uint256"}],"anonymous":false},{"type":"event","name":"ExitRateChanged","inputs":[{"name":"token","type":"address","indexed":true,"internalType":"contract ISuperToken"},{"name":"exitRate","type":"int96","indexed":false,"internalType":"int96"}],"anonymous":false},{"type":"event","name":"NewPIC","inputs":[{"name":"token","type":"address","indexed":true,"internalType":"contract ISuperToken"},{"name":"pic","type":"address","indexed":false,"internalType":"address"},{"name":"bond","type":"uint256","indexed":false,"internalType":"uint256"},{"name":"exitRate","type":"int96","indexed":false,"internalType":"int96"}],"anonymous":false}],"bytecode":{"object":"0x60e060409080825234620002f357600090828162001451803803809162000027828562000322565b8339810103126200029f5780516001600160a01b03918282169190828203620002ef57916020918260249401519060805260c052855192838092635b69006f60e11b82527fa9214cc96615e0085d3bb077758db69497dc2dce3b2b1e97bc93c3d18d83efd360048301525afa908115620002e5578391620002a3575b501660a052731820a4b7618bde71dce8cdc73aab6c95905fad24803b156200029f5782516329965a1d60e01b80825230600483018190527fb281fc8c12954d22544db45de3159a39272895b169a852b314f9cc762e44c53b6024840152604483015290838160648183875af180156200027f5762000289575b50813b15620002635783518181523060048201527fece6fc2bcfc93e4c34c28aeaa114be1a6161decb8268f79cbe7c3c7f31b1e8c66024820152306044820152838160648183875af180156200027f5790849162000267575b5050813b1562000263578291606483928651948593849283523060048401527fca6323f8f0faf3d4f41f2397ee46c8d85bed576d54aadeb20b6cf7b45b3a696460248401523060448401525af1801562000259576200023e575b825161110a9081620003478239608051818181610420015281816104dd015281816105a1015281816109440152610ab1015260a05181818160d60152818161036601526107dd015260c0518181816101c10152818161021801528181610304015281816107680152610f290152f35b6200024a8291620002f8565b620002565780620001cf565b80fd5b83513d84823e3d90fd5b8280fd5b6200027290620002f8565b6200026357823862000175565b85513d86823e3d90fd5b6200029790939193620002f8565b91386200011c565b5080fd5b90506020813d602011620002dc575b81620002c16020938362000322565b810103126200026357518181168103620002635738620000a3565b3d9150620002b2565b84513d85823e3d90fd5b8480fd5b600080fd5b6001600160401b0381116200030c57604052565b634e487b7160e01b600052604160045260246000fd5b601f909101601f19168101906001600160401b038211908210176200030c5760405256fe6080604081815260048036101561001557600080fd5b600092833560e01c90816223de291461068c5750806302f3c6c51461029e57806316e23b9f14610275578063362910631461023b57806360dfa69514610200578063b8a14033146101985763bf8903dd1461006f57600080fd5b3461019457602036600319011261019457610088610c17565b6001600160a01b038082168086526020868152858720548651631cd43d1160e31b815295860183815230928101929092528316604082015292939092909190608090839081906060010381847f0000000000000000000000000000000000000000000000000000000000000000165afa91821561018a57948661014f9596829894610153575b50610123939481528060205220541693610f87565b93516001600160a01b0390931683526020830193909352600b9290920b60408201529081906060820190565b0390f35b61012394506101799060803d608011610183575b6101718183610d5f565b810190610d81565b505090509361010e565b503d610167565b85513d88823e3d90fd5b8280fd5b5050346101fc57806003193601126101fc576020906101b5610c17565b506101f26101ed6101e87f0000000000000000000000000000000000000000000000000000000000000000602435610f07565b61102c565b611093565b905190600b0b8152f35b5080fd5b5050346101fc57816003193601126101fc57602090517f00000000000000000000000000000000000000000000000000000000000000008152f35b5050346101fc5760203660031901126101fc576020916001600160a01b0390829082610265610c17565b1681528085522054169051908152f35b5050346101fc57806003193601126101fc57602090610292610c17565b506101f2602435610f27565b5090346101945780600319360112610194576102b8610c17565b906024359081600b0b908183036106885760018060a01b03938481169485885260209488865281848a20541680330361064c5790899392916102fc85881215610c60565b6103396103297f000000000000000000000000000000000000000000000000000000000000000089610cb8565b61033286610f87565b1015610ce1565b8551631cd43d1160e31b81526001600160a01b03808616828d0190815230602082015290831660408201527f00000000000000000000000000000000000000000000000000000000000000009391906080908290819060600103818888165afa90811561064257879161061f575b50600b0b868113908180610616575b1561049557505099610402896103f4889461041c9e8b51916103d783610d2d565b8783528c519a8b956328104d3160e11b9087015260248601610ed3565b03601f198101875286610d5f565b86516339255d5b60e01b81529a8b95869485938401610e93565b03927f0000000000000000000000000000000000000000000000000000000000000000165af194851561048b576000805160206110b58339815191529495610469575b505b51908152a280f35b610484903d8089833e61047c8183610d5f565b810190610e2a565b503861045f565b81513d88823e3d90fd5b158061060d575b1561053c575099610402896103f488946104d99e8b51916104bc83610d2d565b8783528c519a8b9563317e182f60e11b9087015260248601610ed3565b03927f0000000000000000000000000000000000000000000000000000000000000000165af194851561048b576000805160206110b58339815191529495610522575b50610461565b610535903d8089833e61047c8183610d5f565b503861051c565b905080610605575b610565575b50505050506000805160206110b5833981519152939450610461565b61059d99610402896103f488948a519061057e82610d2d565b8682528b51998a94635a5999e360e11b90860152309060248601610df5565b03927f0000000000000000000000000000000000000000000000000000000000000000165af194851561048b576000805160206110b583398151915294956105eb575b859481808993610549565b6105fe903d8089833e61047c8183610d5f565b50386105e0565b508615610544565b5086891361049c565b50878a136103b6565b610638915060803d608011610183576101718183610d5f565b50509050386103a7565b88513d89823e3d90fd5b845162461bcd60e51b8152808a0188905260166024820152751513d1d04e881bdb9b1e48141250c8185b1b1bddd95960521b6044820152606490fd5b8580fd5b91905034610c135760c0366003190112610c13576106a8610c17565b5060248035926001600160a01b03918285169190828603610a345760443584811603610a34576064359367ffffffffffffffff608435818111610c0f576106f29036908901610c32565b909160a435908111610c0b5761070b9036908a01610c32565b5050338b5260208b81528a8c205490959084168714610bd75750849080610bb85750505061073885610f27565b955b338a5289845260ff898b205460a01c16610b765786600b0b9061075f8b831215610c60565b6107948761078d7f000000000000000000000000000000000000000000000000000000000000000085610cb8565b1115610ce1565b61079d33610f87565b91878303928311610b645782881115610b2e57908a8c969594939233885287875281882098895499868b169060ff60a01b199b8c600160a01b91161790557f000000000000000000000000000000000000000000000000000000000000000095845194631cd43d1160e31b86526080868061083c8630338d8501916040919493606084019560018060a01b039283809216865216602085015216910152565b03818c8c165afa958615610b01578c9687918291610b0b575b50600b0b13610a4d575b826109cd575b5050338452508288528d832080546001600160a01b0319169091179055136108e9575b505033808552939092525050858720805490921690915593516001600160a01b0390931683526020830152600b0b60408201527f836808e57755d5535898b7203c7d68b1bfb2701b1943ecb133c675e0d00780159080606081015b0390a280f35b916109409391868094610926888f8f908f6103f49282519261090a84610d2d565b888452519a8b9563317e182f60e11b9087015233908601610ed3565b8d516339255d5b60e01b8152968795869485938401610e93565b03927f0000000000000000000000000000000000000000000000000000000000000000165af180156109c357917f836808e57755d5535898b7203c7d68b1bfb2701b1943ecb133c675e0d0078015979893916108e395936109a9575b8294999882949650610888565b6109bc903d8085833e61047c8183610d5f565b503861099c565b88513d85823e3d90fd5b5163a9059cbb60e01b81528681019290925288820152925087836044818c335af1928315610a43578993610a03575b808f610865565b9092508781813d8311610a3c575b610a1b8183610d5f565b81010312610a38575180151503610a34578791386109fc565b8780fd5b8880fd5b503d610a11565b8e513d8b823e3d90fd5b610aab958a610a928d610a848551610a6481610d2d565b858152888751958694635a5999e360e11b90860152309033908601610df5565b03601f198101835282610d5f565b8251809881926339255d5b60e01b83528c8c8401610e93565b0381838d7f0000000000000000000000000000000000000000000000000000000000000000165af1958615610b01578c96610ae7575b5061085f565b610afa903d8089833e61047c8183610d5f565b5038610ae1565b81513d8e823e3d90fd5b610b24915060803d608011610183576101718183610d5f565b5050905038610855565b8a5162461bcd60e51b815280830187905260118187015270544f47413a2062696420746f6f206c6f7760781b6044820152606490fd5b634e487b7160e01b8c5260118252848cfd5b885162461bcd60e51b8152908101849052601c818401527f544f47413a207265656e7472616e6379206e6f7420616c6c6f776564000000006044820152606490fd5b829081010312610bd3573580600b0b8103610bd3579561073a565b8980fd5b9950505050509250507fb9c1b85a7ee70d95c61aca7cda03ef957abc5265a191ca74cc335faf59409566925083523392a280f35b8b80fd5b8a80fd5b8380fd5b600435906001600160a01b0382168203610c2d57565b600080fd5b9181601f84011215610c2d5782359167ffffffffffffffff8311610c2d5760208381860195010111610c2d57565b15610c6757565b60405162461bcd60e51b815260206004820152602360248201527f544f47413a206e65676174697665206578697452617465206e6f7420616c6c6f6044820152621dd95960ea1b6064820152608490fd5b81810292918115918404141715610ccb57565b634e487b7160e01b600052601160045260246000fd5b15610ce857565b60405162461bcd60e51b815260206004820152601760248201527f544f47413a20657869745261746520746f6f20686967680000000000000000006044820152606490fd5b6020810190811067ffffffffffffffff821117610d4957604052565b634e487b7160e01b600052604160045260246000fd5b90601f8019910116810190811067ffffffffffffffff821117610d4957604052565b9190826080910312610c2d57815191602081015180600b0b8103610c2d57916060604083015192015190565b60005b838110610dc05750506000910152565b8181015183820152602001610db0565b90602091610de981518092818552858086019101610dad565b601f01601f1916010190565b6001600160a01b03918216815291811660208301529091166040820152608060608201819052610e2792910190610dd0565b90565b602081830312610c2d57805167ffffffffffffffff91828211610c2d57019082601f83011215610c2d578151908111610d495760405192610e75601f8301601f191660200185610d5f565b81845260208284010111610c2d57610e279160208085019101610dad565b6001600160a01b039091168152606060208201819052604092610eb891830190610dd0565b90828183039101526002815261060f60f31b60208201520190565b6001600160a01b03918216815291166020820152600b9190910b6040820152608060608201819052610e2792910190610dd0565b8115610f11570490565b634e487b7160e01b600052601260045260246000fd5b7f00000000000000000000000000000000000000000000000000000000000000008060021b9080820460041490151715610ccb576101e86101ed91610e2793610f07565b91909160008382019384129112908015821691151617610ccb57565b604051632ec8eec760e01b815230600482015290608090829060249082906001600160a01b03165afa8015611020576000918291610fe3575b506000610fcd8284610f6b565b1315610fdc57610e2791610f6b565b5050600090565b9190506080823d608011611018575b81610fff60809383610d5f565b8101031261101557506020815191015138610fc0565b80fd5b3d9150610ff2565b6040513d6000823e3d90fd5b6001600160ff1b03811161103d5790565b60405162461bcd60e51b815260206004820152602860248201527f53616665436173743a2076616c756520646f65736e27742066697420696e2061604482015267371034b73a191a9b60c11b6064820152608490fd5b6b7fffffffffffffffffffffff808212156110af5750600b0b90565b90509056fe0988aefa675e81e1db7fca08264db5dc2a1cc2a604f2a78d902a9747146a5671a26469706673582212209d87c25d79a5b7147e9c1e226046313572fc2a9b8302b707e63614740c052f4f64736f6c63430008170033","linkReferences":{}},"methodIdentifiers":{"changeExitRate(address,int96)":"02f3c6c5","getCurrentPIC(address)":"36291063","getCurrentPICInfo(address)":"bf8903dd","getDefaultExitRateFor(address,uint256)":"16e23b9f","getMaxExitRateFor(address,uint256)":"b8a14033","minBondDuration()":"60dfa695","tokensReceived(address,address,address,uint256,bytes,bytes)":"0023de29"},"id":128}