{"abi":[{"type":"function","name":"forward2771Call","inputs":[{"name":"target","type":"address","internalType":"address"},{"name":"msgSender","type":"address","internalType":"address"},{"name":"data","type":"bytes","internalType":"bytes"}],"outputs":[{"name":"success","type":"bool","internalType":"bool"},{"name":"returnData","type":"bytes","internalType":"bytes"}],"stateMutability":"payable"},{"type":"function","name":"forwardCall","inputs":[{"name":"target","type":"address","internalType":"address"},{"name":"data","type":"bytes","internalType":"bytes"}],"outputs":[{"name":"success","type":"bool","internalType":"bool"},{"name":"returnData","type":"bytes","internalType":"bytes"}],"stateMutability":"payable"},{"type":"function","name":"owner","inputs":[],"outputs":[{"name":"","type":"address","internalType":"address"}],"stateMutability":"view"},{"type":"function","name":"renounceOwnership","inputs":[],"outputs":[],"stateMutability":"nonpayable"},{"type":"function","name":"transferOwnership","inputs":[{"name":"newOwner","type":"address","internalType":"address"}],"outputs":[],"stateMutability":"nonpayable"},{"type":"function","name":"withdrawLostNativeTokens","inputs":[{"name":"receiver","type":"address","internalType":"address payable"}],"outputs":[],"stateMutability":"nonpayable"},{"type":"event","name":"OwnershipTransferred","inputs":[{"name":"previousOwner","type":"address","indexed":true,"internalType":"address"},{"name":"newOwner","type":"address","indexed":true,"internalType":"address"}],"anonymous":false}],"bytecode":{"object":"0x6080806040523461005b5760008054336001600160a01b0319821681178355916001600160a01b03909116907f8be0079c531659141344cd1fd0a4f28419497f9722a3daafe3b4186f6b6457e09080a36104de90816100618239f35b600080fdfe604060808152600436101561001357600080fd5b600090813560e01c8063177ec5941461026457806322bee49414610203578063715018a6146101a65780638da5cb5b1461017f578063a2852784146101245763f2fde38b1461006157600080fd5b346101205760203660031901126101205761007a610312565b610082610450565b6001600160a01b039081169182156100ce575082546001600160a01b0319811683178455167f8be0079c531659141344cd1fd0a4f28419497f9722a3daafe3b4186f6b6457e08380a380f35b5162461bcd60e51b815260206004820152602660248201527f4f776e61626c653a206e6577206f776e657220697320746865207a65726f206160448201526564647265737360d01b6064820152608490fd5b5080fd5b503461012057602036600319011261012057816004356001600160a01b038116908190036101205781808092610158610450565b4790828215610176575bf11561016c575080f35b51903d90823e3d90fd5b506108fc610162565b5034610120578160031936011261012057905490516001600160a01b039091168152602090f35b82346102005780600319360112610200576101bf610450565b80546001600160a01b03198116825581906001600160a01b03167f8be0079c531659141344cd1fd0a4f28419497f9722a3daafe3b4186f6b6457e08280a380f35b80fd5b50908160031936011261020057610218610312565b60243567ffffffffffffffff8111610260579061023a83923690600401610381565b906020825192019034905af161025c610251610420565b9251928392836103eb565b0390f35b8280fd5b50606036600319011261012057610279610312565b60243592906001600160a01b0384168403610120576044359367ffffffffffffffff8511610260576102b18394953690600401610381565b906102ba610450565b61030160348751809360206102d881840197888151938492016103c8565b8201906bffffffffffffffffffffffff199060601b16602082015203601481018452018261032d565b519134905af161025c610251610420565b600435906001600160a01b038216820361032857565b600080fd5b90601f8019910116810190811067ffffffffffffffff82111761034f57604052565b634e487b7160e01b600052604160045260246000fd5b67ffffffffffffffff811161034f57601f01601f191660200190565b81601f820112156103285780359061039882610365565b926103a6604051948561032d565b8284526020838301011161032857816000926020809301838601378301015290565b60005b8381106103db5750506000910152565b81810151838201526020016103cb565b9091606092151582526040602083015261041481518092816040860152602086860191016103c8565b601f01601f1916010190565b3d1561044b573d9061043182610365565b9161043f604051938461032d565b82523d6000602084013e565b606090565b6000546001600160a01b0316330361046457565b606460405162461bcd60e51b815260206004820152602060248201527f4f776e61626c653a2063616c6c6572206973206e6f7420746865206f776e65726044820152fdfea264697066735822122064226e7b857a9a85b2b35caa126f032fca45f1058697a515bab3b02fbee92d6164736f6c63430008170033","linkReferences":{}},"methodIdentifiers":{"forward2771Call(address,address,bytes)":"177ec594","forwardCall(address,bytes)":"22bee494","owner()":"8da5cb5b","renounceOwnership()":"715018a6","transferOwnership(address)":"f2fde38b","withdrawLostNativeTokens(address)":"a2852784"},"id":120}