{"abi":[{"type":"fallback","stateMutability":"payable"},{"type":"receive","stateMutability":"payable"},{"type":"function","name":"downgradeToETH","inputs":[{"name":"wad","type":"uint256","internalType":"uint256"}],"outputs":[],"stateMutability":"nonpayable"},{"type":"function","name":"initializeProxy","inputs":[{"name":"initialAddress","type":"address","internalType":"address"}],"outputs":[],"stateMutability":"nonpayable"},{"type":"function","name":"upgradeByETH","inputs":[],"outputs":[],"stateMutability":"payable"},{"type":"function","name":"upgradeByETHTo","inputs":[{"name":"to","type":"address","internalType":"address"}],"outputs":[],"stateMutability":"payable"},{"type":"event","name":"TokenDowngraded","inputs":[{"name":"account","type":"address","indexed":true,"internalType":"address"},{"name":"amount","type":"uint256","indexed":false,"internalType":"uint256"}],"anonymous":false},{"type":"event","name":"TokenUpgraded","inputs":[{"name":"account","type":"address","indexed":true,"internalType":"address"},{"name":"amount","type":"uint256","indexed":false,"internalType":"uint256"}],"anonymous":false}],"bytecode":{"object":"0x60808060405234610016576104b9908161001c8239f35b600080fdfe6080604052600436101561001d575b366104425761001b6103c2565b005b6000803560e01c908163160e8be314610060575080634a0687ef1461005b5780637687d19b146100565763cf81464b0361000e576102eb565b610245565b610152565b346101285760203660031901126101285760043561007c61032e565b82303b1561012857604051639d87674160e01b815291829081906100a590863360048501610357565b038183305af180156101005761010f575b508180828015610105575b8280929181923390f1156101005760405190815233907f3bc27981aebbb57f9247dc00fde9d6cd91e4b230083fec3238fedbcba1f9ab3d90602090a280f35b6103b6565b6108fc91506100c1565b8061011c61012292610315565b806102e0565b826100b6565b80fd5b602090600319011261014d576004356001600160a01b038116810361014d5790565b600080fd5b3461014d576101603661012b565b6001600160a01b0381811615610200577f360894a13ba1a3210667c828492db98dca3e2076cc3735a920a3ca505d382bbc54166101bb577f360894a13ba1a3210667c828492db98dca3e2076cc3735a920a3ca505d382bbc55005b60405162461bcd60e51b815260206004820152601e60248201527f5555505350726f78793a20616c726561647920696e697469616c697a656400006044820152606490fd5b60405162461bcd60e51b815260206004820152601760248201527f5555505350726f78793a207a65726f20616464726573730000000000000000006044820152606490fd5b61024e3661012b565b600061025861032e565b303b156102dc5781610280916040518093819263c68d428360e01b8352348860048501610357565b038183305af18015610100576102cd575b5060405134815290916001600160a01b0316907f25ca84076773b0455db53621c459ddc84fe40840e4932a62706a032566f399df90602090a280f35b6102d690610315565b38610291565b5080fd5b600091031261014d57565b600036600319011261014d5761001b6103c2565b634e487b7160e01b600052604160045260246000fd5b67ffffffffffffffff811161032957604052565b6102ff565b6040516020810181811067ffffffffffffffff8211176103295760405260008152906000368137565b9193929060018060a01b0316825260209360208301526060604083015280519081606084015260005b8281106103a257505060809293506000838284010152601f8019910116010190565b818101860151848201608001528501610380565b6040513d6000823e3d90fd5b6103ca61032e565b303b1561014d5760006103f3916040518093819263c68d428360e01b8352343360048501610357565b038183305af1801561010057610433575b506040513481527f25ca84076773b0455db53621c459ddc84fe40840e4932a62706a032566f399df60203392a2565b61043c90610315565b38610404565b7f360894a13ba1a3210667c828492db98dca3e2076cc3735a920a3ca505d382bbc546000808092368280378136915af43d82803e1561047f573d90f35b3d90fdfea2646970667358221220ef2d351a2925d12f13d56d7d1fab6f5428f301cb98c7d74fdccd48d8fb2f7f0564736f6c63430008170033","linkReferences":{}},"methodIdentifiers":{"downgradeToETH(uint256)":"160e8be3","initializeProxy(address)":"4a0687ef","upgradeByETH()":"cf81464b","upgradeByETHTo(address)":"7687d19b"},"id":112}